{
	"contracts/errorAndException.sol": {
		"PanicDemo": {
			"abi": [
				{
					"anonymous": false,
					"inputs": [
						{
							"indexed": false,
							"internalType": "uint256",
							"name": "errorCode",
							"type": "uint256"
						},
						{
							"indexed": false,
							"internalType": "string",
							"name": "description",
							"type": "string"
						}
					],
					"name": "PanicDetected",
					"type": "event"
				},
				{
					"inputs": [
						{
							"internalType": "uint256",
							"name": "_num",
							"type": "uint256"
						}
					],
					"name": "addNumero",
					"outputs": [],
					"stateMutability": "nonpayable",
					"type": "function"
				},
				{
					"inputs": [],
					"name": "arrayPanic",
					"outputs": [],
					"stateMutability": "view",
					"type": "function"
				},
				{
					"inputs": [],
					"name": "assertPanic",
					"outputs": [],
					"stateMutability": "pure",
					"type": "function"
				},
				{
					"inputs": [],
					"name": "divisionPanic",
					"outputs": [
						{
							"internalType": "uint256",
							"name": "",
							"type": "uint256"
						}
					],
					"stateMutability": "pure",
					"type": "function"
				},
				{
					"inputs": [],
					"name": "getArrayLength",
					"outputs": [
						{
							"internalType": "uint256",
							"name": "",
							"type": "uint256"
						}
					],
					"stateMutability": "view",
					"type": "function"
				},
				{
					"inputs": [
						{
							"internalType": "uint256",
							"name": "code",
							"type": "uint256"
						}
					],
					"name": "getPanicDescription",
					"outputs": [
						{
							"internalType": "string",
							"name": "",
							"type": "string"
						}
					],
					"stateMutability": "pure",
					"type": "function"
				},
				{
					"inputs": [
						{
							"internalType": "uint256",
							"name": "",
							"type": "uint256"
						}
					],
					"name": "numeros",
					"outputs": [
						{
							"internalType": "uint256",
							"name": "",
							"type": "uint256"
						}
					],
					"stateMutability": "view",
					"type": "function"
				},
				{
					"inputs": [],
					"name": "overflowPanic",
					"outputs": [],
					"stateMutability": "pure",
					"type": "function"
				},
				{
					"inputs": [],
					"name": "popPanic",
					"outputs": [],
					"stateMutability": "nonpayable",
					"type": "function"
				},
				{
					"inputs": [],
					"name": "safeTestArray",
					"outputs": [],
					"stateMutability": "nonpayable",
					"type": "function"
				},
				{
					"inputs": [],
					"name": "safeTestAssert",
					"outputs": [],
					"stateMutability": "nonpayable",
					"type": "function"
				},
				{
					"inputs": [],
					"name": "safeTestDivision",
					"outputs": [],
					"stateMutability": "nonpayable",
					"type": "function"
				},
				{
					"inputs": [],
					"name": "safeTestOverflow",
					"outputs": [],
					"stateMutability": "nonpayable",
					"type": "function"
				},
				{
					"inputs": [],
					"name": "safeTestPop",
					"outputs": [],
					"stateMutability": "nonpayable",
					"type": "function"
				}
			],
			"devdoc": {
				"kind": "dev",
				"methods": {},
				"version": 1
			},
			"evm": {
				"assembly": "    /* \"contracts/errorAndException.sol\":60:3044  contract PanicDemo {... */\n  mstore(0x40, 0x80)\n  callvalue\n  dup1\n  iszero\n  tag_1\n  jumpi\n  revert(0x00, 0x00)\ntag_1:\n  pop\n  dataSize(sub_0)\n  dup1\n  dataOffset(sub_0)\n  0x00\n  codecopy\n  0x00\n  return\nstop\n\nsub_0: assembly {\n        /* \"contracts/errorAndException.sol\":60:3044  contract PanicDemo {... */\n      mstore(0x40, 0x80)\n      callvalue\n      dup1\n      iszero\n      tag_1\n      jumpi\n      revert(0x00, 0x00)\n    tag_1:\n      pop\n      jumpi(tag_2, lt(calldatasize, 0x04))\n      shr(0xe0, calldataload(0x00))\n      dup1\n      0x96dd1de1\n      gt\n      tag_17\n      jumpi\n      dup1\n      0xd0ec61bd\n      gt\n      tag_18\n      jumpi\n      dup1\n      0xd0ec61bd\n      eq\n      tag_13\n      jumpi\n      dup1\n      0xe17057a1\n      eq\n      tag_14\n      jumpi\n      dup1\n      0xf2f7cca4\n      eq\n      tag_15\n      jumpi\n      dup1\n      0xf3391fde\n      eq\n      tag_16\n      jumpi\n      jump(tag_2)\n    tag_18:\n      dup1\n      0x96dd1de1\n      eq\n      tag_10\n      jumpi\n      dup1\n      0xa483021a\n      eq\n      tag_11\n      jumpi\n      dup1\n      0xcd8f90c2\n      eq\n      tag_12\n      jumpi\n      jump(tag_2)\n    tag_17:\n      dup1\n      0x727517f3\n      gt\n      tag_19\n      jumpi\n      dup1\n      0x727517f3\n      eq\n      tag_6\n      jumpi\n      dup1\n      0x7db40b91\n      eq\n      tag_7\n      jumpi\n      dup1\n      0x7f713704\n      eq\n      tag_8\n      jumpi\n      dup1\n      0x89fec804\n      eq\n      tag_9\n      jumpi\n      jump(tag_2)\n    tag_19:\n      dup1\n      0x0849cc99\n      eq\n      tag_3\n      jumpi\n      dup1\n      0x17a6d5af\n      eq\n      tag_4\n      jumpi\n      dup1\n      0x622e2542\n      eq\n      tag_5\n      jumpi\n    tag_2:\n      revert(0x00, 0x00)\n        /* \"contracts/errorAndException.sol\":2472:2568  function getArrayLength() public view returns (uint256) {... */\n    tag_3:\n      tag_20\n      tag_21\n      jump\t// in\n    tag_20:\n      mload(0x40)\n      tag_22\n      swap2\n      swap1\n      tag_23\n      jump\t// in\n    tag_22:\n      mload(0x40)\n      dup1\n      swap2\n      sub\n      swap1\n      return\n        /* \"contracts/errorAndException.sol\":670:768  function assertPanic() public pure {... */\n    tag_4:\n      tag_24\n      tag_25\n      jump\t// in\n    tag_24:\n      stop\n        /* \"contracts/errorAndException.sol\":2051:2314  function safeTestDivision() public {... */\n    tag_5:\n      tag_26\n      tag_27\n      jump\t// in\n    tag_26:\n      stop\n        /* \"contracts/errorAndException.sol\":1798:2039  function safeTestAssert() public {... */\n    tag_6:\n      tag_28\n      tag_29\n      jump\t// in\n    tag_28:\n      stop\n        /* \"contracts/errorAndException.sol\":1026:1274  function safeTestOverflow() public {... */\n    tag_7:\n      tag_30\n      tag_31\n      jump\t// in\n    tag_30:\n      stop\n        /* \"contracts/errorAndException.sol\":1547:1786  function safeTestPop() public {... */\n    tag_8:\n      tag_32\n      tag_33\n      jump\t// in\n    tag_32:\n      stop\n        /* \"contracts/errorAndException.sol\":2383:2460  function addNumero(uint256 _num) public {... */\n    tag_9:\n      tag_34\n      0x04\n      dup1\n      calldatasize\n      sub\n      dup2\n      add\n      swap1\n      tag_35\n      swap2\n      swap1\n      tag_36\n      jump\t// in\n    tag_35:\n      tag_37\n      jump\t// in\n    tag_34:\n      stop\n        /* \"contracts/errorAndException.sol\":780:948  function divisionPanic() public pure returns (uint256) {... */\n    tag_10:\n      tag_38\n      tag_39\n      jump\t// in\n    tag_38:\n      mload(0x40)\n      tag_40\n      swap2\n      swap1\n      tag_23\n      jump\t// in\n    tag_40:\n      mload(0x40)\n      dup1\n      swap2\n      sub\n      swap1\n      return\n        /* \"contracts/errorAndException.sol\":2580:3012  function getPanicDescription(uint256 code) public pure returns (string memory) {... */\n    tag_11:\n      tag_41\n      0x04\n      dup1\n      calldatasize\n      sub\n      dup2\n      add\n      swap1\n      tag_42\n      swap2\n      swap1\n      tag_36\n      jump\t// in\n    tag_42:\n      tag_43\n      jump\t// in\n    tag_41:\n      mload(0x40)\n      tag_44\n      swap2\n      swap1\n      tag_45\n      jump\t// in\n    tag_44:\n      mload(0x40)\n      dup1\n      swap2\n      sub\n      swap1\n      return\n        /* \"contracts/errorAndException.sol\":1286:1535  function safeTestArray() public {... */\n    tag_12:\n      tag_46\n      tag_47\n      jump\t// in\n    tag_46:\n      stop\n        /* \"contracts/errorAndException.sol\":567:658  function popPanic() public {... */\n    tag_13:\n      tag_48\n      tag_49\n      jump\t// in\n    tag_48:\n      stop\n        /* \"contracts/errorAndException.sol\":305:442  function overflowPanic() public pure {... */\n    tag_14:\n      tag_50\n      tag_51\n      jump\t// in\n    tag_50:\n      stop\n        /* \"contracts/errorAndException.sol\":86:107  uint[] public numeros */\n    tag_15:\n      tag_52\n      0x04\n      dup1\n      calldatasize\n      sub\n      dup2\n      add\n      swap1\n      tag_53\n      swap2\n      swap1\n      tag_36\n      jump\t// in\n    tag_53:\n      tag_54\n      jump\t// in\n    tag_52:\n      mload(0x40)\n      tag_55\n      swap2\n      swap1\n      tag_23\n      jump\t// in\n    tag_55:\n      mload(0x40)\n      dup1\n      swap2\n      sub\n      swap1\n      return\n        /* \"contracts/errorAndException.sol\":454:555  function arrayPanic() public view {... */\n    tag_16:\n      tag_56\n      tag_57\n      jump\t// in\n    tag_56:\n      stop\n        /* \"contracts/errorAndException.sol\":2472:2568  function getArrayLength() public view returns (uint256) {... */\n    tag_21:\n        /* \"contracts/errorAndException.sol\":2519:2526  uint256 */\n      0x00\n        /* \"contracts/errorAndException.sol\":2546:2553  numeros */\n      0x00\n        /* \"contracts/errorAndException.sol\":2546:2560  numeros.length */\n      dup1\n      sload\n      swap1\n      pop\n        /* \"contracts/errorAndException.sol\":2539:2560  return numeros.length */\n      swap1\n      pop\n        /* \"contracts/errorAndException.sol\":2472:2568  function getArrayLength() public view returns (uint256) {... */\n      swap1\n      jump\t// out\n        /* \"contracts/errorAndException.sol\":670:768  function assertPanic() public pure {... */\n    tag_25:\n        /* \"contracts/errorAndException.sol\":728:729  2 */\n      0x02\n        /* \"contracts/errorAndException.sol\":723:724  1 */\n      0x01\n        /* \"contracts/errorAndException.sol\":723:729  1 == 2 */\n      eq\n        /* \"contracts/errorAndException.sol\":716:730  assert(1 == 2) */\n      tag_60\n      jumpi\n      tag_61\n      tag_62\n      jump\t// in\n    tag_61:\n    tag_60:\n        /* \"contracts/errorAndException.sol\":670:768  function assertPanic() public pure {... */\n      jump\t// out\n        /* \"contracts/errorAndException.sol\":2051:2314  function safeTestDivision() public {... */\n    tag_27:\n        /* \"contracts/errorAndException.sol\":2101:2105  this */\n      address\n        /* \"contracts/errorAndException.sol\":2101:2119  this.divisionPanic */\n      0xffffffffffffffffffffffffffffffffffffffff\n      and\n      0x96dd1de1\n        /* \"contracts/errorAndException.sol\":2101:2121  this.divisionPanic() */\n      mload(0x40)\n      dup2\n      0xffffffff\n      and\n      0xe0\n      shl\n      dup2\n      mstore\n      0x04\n      add\n      0x20\n      mload(0x40)\n      dup1\n      dup4\n      sub\n      dup2\n      dup7\n      gas\n      staticcall\n      swap3\n      pop\n      pop\n      pop\n      dup1\n      iszero\n      tag_64\n      jumpi\n      pop\n      mload(0x40)\n      returndatasize\n      not(0x1f)\n      0x1f\n      dup3\n      add\n      and\n      dup3\n      add\n      dup1\n      0x40\n      mstore\n      pop\n      dup2\n      add\n      swap1\n      tag_65\n      swap2\n      swap1\n      tag_66\n      jump\t// in\n    tag_65:\n      0x01\n    tag_64:\n        /* \"contracts/errorAndException.sol\":2097:2307  try this.divisionPanic() returns (uint256) {... */\n      tag_67\n      jumpi\n      tag_71\n      tag_72\n      jump\t// in\n    tag_71:\n      0x4e487b71\n      sub\n      tag_69\n      jumpi\n      tag_73\n      tag_74\n      jump\t// in\n    tag_73:\n      swap1\n      tag_75\n      jumpi\n      pop\n      jump(tag_69)\n    tag_75:\n        /* \"contracts/errorAndException.sol\":2242:2295  PanicDetected(errorCode, \"Division by zero detected\") */\n      0xfa67a0327c0fe7ba3a1d79f037303399c7149da91b4d24df595e0a874bcf9e9c\n        /* \"contracts/errorAndException.sol\":2256:2265  errorCode */\n      dup2\n        /* \"contracts/errorAndException.sol\":2242:2295  PanicDetected(errorCode, \"Division by zero detected\") */\n      mload(0x40)\n      tag_76\n      swap2\n      swap1\n      tag_77\n      jump\t// in\n    tag_76:\n      mload(0x40)\n      dup1\n      swap2\n      sub\n      swap1\n      log1\n        /* \"contracts/errorAndException.sol\":2194:2307  catch Panic(uint errorCode) {... */\n      pop\n        /* \"contracts/errorAndException.sol\":2097:2307  try this.divisionPanic() returns (uint256) {... */\n      jump(tag_68)\n    tag_69:\n      returndatacopy(0x00, 0x00, returndatasize)\n      revert(0x00, returndatasize)\n    tag_68:\n      jump(tag_78)\n    tag_67:\n        /* \"contracts/errorAndException.sol\":2122:2193  returns (uint256) {... */\n      pop\n        /* \"contracts/errorAndException.sol\":2097:2307  try this.divisionPanic() returns (uint256) {... */\n    tag_78:\n        /* \"contracts/errorAndException.sol\":2051:2314  function safeTestDivision() public {... */\n      jump\t// out\n        /* \"contracts/errorAndException.sol\":1798:2039  function safeTestAssert() public {... */\n    tag_29:\n        /* \"contracts/errorAndException.sol\":1846:1850  this */\n      address\n        /* \"contracts/errorAndException.sol\":1846:1862  this.assertPanic */\n      0xffffffffffffffffffffffffffffffffffffffff\n      and\n      0x17a6d5af\n        /* \"contracts/errorAndException.sol\":1846:1864  this.assertPanic() */\n      mload(0x40)\n      dup2\n      0xffffffff\n      and\n      0xe0\n      shl\n      dup2\n      mstore\n      0x04\n      add\n      0x00\n      mload(0x40)\n      dup1\n      dup4\n      sub\n      dup2\n      dup7\n      dup1\n      extcodesize\n      iszero\n      dup1\n      iszero\n      tag_80\n      jumpi\n      revert(0x00, 0x00)\n    tag_80:\n      pop\n      gas\n      staticcall\n      swap3\n      pop\n      pop\n      pop\n      dup1\n      iszero\n      tag_81\n      jumpi\n      pop\n      0x01\n    tag_81:\n        /* \"contracts/errorAndException.sol\":1842:2032  try this.assertPanic() {... */\n      tag_82\n      jumpi\n      tag_86\n      tag_72\n      jump\t// in\n    tag_86:\n      0x4e487b71\n      sub\n      tag_84\n      jumpi\n      tag_87\n      tag_74\n      jump\t// in\n    tag_87:\n      swap1\n      tag_88\n      jumpi\n      pop\n      jump(tag_84)\n    tag_88:\n        /* \"contracts/errorAndException.sol\":1967:2020  PanicDetected(errorCode, \"Assertion failed detected\") */\n      0xfa67a0327c0fe7ba3a1d79f037303399c7149da91b4d24df595e0a874bcf9e9c\n        /* \"contracts/errorAndException.sol\":1981:1990  errorCode */\n      dup2\n        /* \"contracts/errorAndException.sol\":1967:2020  PanicDetected(errorCode, \"Assertion failed detected\") */\n      mload(0x40)\n      tag_89\n      swap2\n      swap1\n      tag_90\n      jump\t// in\n    tag_89:\n      mload(0x40)\n      dup1\n      swap2\n      sub\n      swap1\n      log1\n        /* \"contracts/errorAndException.sol\":1919:2032  catch Panic(uint errorCode) {... */\n      pop\n        /* \"contracts/errorAndException.sol\":1842:2032  try this.assertPanic() {... */\n      jump(tag_83)\n    tag_84:\n      returndatacopy(0x00, 0x00, returndatasize)\n      revert(0x00, returndatasize)\n    tag_83:\n      jump(tag_91)\n    tag_82:\n    tag_91:\n        /* \"contracts/errorAndException.sol\":1798:2039  function safeTestAssert() public {... */\n      jump\t// out\n        /* \"contracts/errorAndException.sol\":1026:1274  function safeTestOverflow() public {... */\n    tag_31:\n        /* \"contracts/errorAndException.sol\":1076:1080  this */\n      address\n        /* \"contracts/errorAndException.sol\":1076:1094  this.overflowPanic */\n      0xffffffffffffffffffffffffffffffffffffffff\n      and\n      0xe17057a1\n        /* \"contracts/errorAndException.sol\":1076:1096  this.overflowPanic() */\n      mload(0x40)\n      dup2\n      0xffffffff\n      and\n      0xe0\n      shl\n      dup2\n      mstore\n      0x04\n      add\n      0x00\n      mload(0x40)\n      dup1\n      dup4\n      sub\n      dup2\n      dup7\n      dup1\n      extcodesize\n      iszero\n      dup1\n      iszero\n      tag_93\n      jumpi\n      revert(0x00, 0x00)\n    tag_93:\n      pop\n      gas\n      staticcall\n      swap3\n      pop\n      pop\n      pop\n      dup1\n      iszero\n      tag_94\n      jumpi\n      pop\n      0x01\n    tag_94:\n        /* \"contracts/errorAndException.sol\":1072:1267  try this.overflowPanic() {... */\n      tag_95\n      jumpi\n      tag_99\n      tag_72\n      jump\t// in\n    tag_99:\n      0x4e487b71\n      sub\n      tag_97\n      jumpi\n      tag_100\n      tag_74\n      jump\t// in\n    tag_100:\n      swap1\n      tag_101\n      jumpi\n      pop\n      jump(tag_97)\n    tag_101:\n        /* \"contracts/errorAndException.sol\":1199:1255  PanicDetected(errorCode, \"Arithmetic overflow detected\") */\n      0xfa67a0327c0fe7ba3a1d79f037303399c7149da91b4d24df595e0a874bcf9e9c\n        /* \"contracts/errorAndException.sol\":1213:1222  errorCode */\n      dup2\n        /* \"contracts/errorAndException.sol\":1199:1255  PanicDetected(errorCode, \"Arithmetic overflow detected\") */\n      mload(0x40)\n      tag_102\n      swap2\n      swap1\n      tag_103\n      jump\t// in\n    tag_102:\n      mload(0x40)\n      dup1\n      swap2\n      sub\n      swap1\n      log1\n        /* \"contracts/errorAndException.sol\":1151:1267  catch Panic(uint errorCode) {... */\n      pop\n        /* \"contracts/errorAndException.sol\":1072:1267  try this.overflowPanic() {... */\n      jump(tag_96)\n    tag_97:\n      returndatacopy(0x00, 0x00, returndatasize)\n      revert(0x00, returndatasize)\n    tag_96:\n      jump(tag_104)\n    tag_95:\n    tag_104:\n        /* \"contracts/errorAndException.sol\":1026:1274  function safeTestOverflow() public {... */\n      jump\t// out\n        /* \"contracts/errorAndException.sol\":1547:1786  function safeTestPop() public {... */\n    tag_33:\n        /* \"contracts/errorAndException.sol\":1592:1596  this */\n      address\n        /* \"contracts/errorAndException.sol\":1592:1605  this.popPanic */\n      0xffffffffffffffffffffffffffffffffffffffff\n      and\n      0xd0ec61bd\n        /* \"contracts/errorAndException.sol\":1592:1607  this.popPanic() */\n      mload(0x40)\n      dup2\n      0xffffffff\n      and\n      0xe0\n      shl\n      dup2\n      mstore\n      0x04\n      add\n      0x00\n      mload(0x40)\n      dup1\n      dup4\n      sub\n      dup2\n      0x00\n      dup8\n      dup1\n      extcodesize\n      iszero\n      dup1\n      iszero\n      tag_106\n      jumpi\n      revert(0x00, 0x00)\n    tag_106:\n      pop\n      gas\n      call\n      swap3\n      pop\n      pop\n      pop\n      dup1\n      iszero\n      tag_107\n      jumpi\n      pop\n      0x01\n    tag_107:\n        /* \"contracts/errorAndException.sol\":1588:1779  try this.popPanic() {... */\n      tag_108\n      jumpi\n      tag_112\n      tag_72\n      jump\t// in\n    tag_112:\n      0x4e487b71\n      sub\n      tag_110\n      jumpi\n      tag_113\n      tag_74\n      jump\t// in\n    tag_113:\n      swap1\n      tag_114\n      jumpi\n      pop\n      jump(tag_110)\n    tag_114:\n        /* \"contracts/errorAndException.sol\":1710:1767  PanicDetected(errorCode, \"Pop from empty array detected\") */\n      0xfa67a0327c0fe7ba3a1d79f037303399c7149da91b4d24df595e0a874bcf9e9c\n        /* \"contracts/errorAndException.sol\":1724:1733  errorCode */\n      dup2\n        /* \"contracts/errorAndException.sol\":1710:1767  PanicDetected(errorCode, \"Pop from empty array detected\") */\n      mload(0x40)\n      tag_115\n      swap2\n      swap1\n      tag_116\n      jump\t// in\n    tag_115:\n      mload(0x40)\n      dup1\n      swap2\n      sub\n      swap1\n      log1\n        /* \"contracts/errorAndException.sol\":1662:1779  catch Panic(uint errorCode) {... */\n      pop\n        /* \"contracts/errorAndException.sol\":1588:1779  try this.popPanic() {... */\n      jump(tag_109)\n    tag_110:\n      returndatacopy(0x00, 0x00, returndatasize)\n      revert(0x00, returndatasize)\n    tag_109:\n      jump(tag_117)\n    tag_108:\n    tag_117:\n        /* \"contracts/errorAndException.sol\":1547:1786  function safeTestPop() public {... */\n      jump\t// out\n        /* \"contracts/errorAndException.sol\":2383:2460  function addNumero(uint256 _num) public {... */\n    tag_37:\n        /* \"contracts/errorAndException.sol\":2434:2441  numeros */\n      0x00\n        /* \"contracts/errorAndException.sol\":2447:2451  _num */\n      dup2\n        /* \"contracts/errorAndException.sol\":2434:2452  numeros.push(_num) */\n      swap1\n      dup1\n      0x01\n      dup2\n      sload\n      add\n      dup1\n      dup3\n      sstore\n      dup1\n      swap2\n      pop\n      pop\n      0x01\n      swap1\n      sub\n      swap1\n      0x00\n      mstore\n      keccak256(0x00, 0x20)\n      add\n      0x00\n      swap1\n      swap2\n      swap1\n      swap2\n      swap1\n      swap2\n      pop\n      sstore\n        /* \"contracts/errorAndException.sol\":2383:2460  function addNumero(uint256 _num) public {... */\n      pop\n      jump\t// out\n        /* \"contracts/errorAndException.sol\":780:948  function divisionPanic() public pure returns (uint256) {... */\n    tag_39:\n        /* \"contracts/errorAndException.sol\":826:833  uint256 */\n      0x00\n        /* \"contracts/errorAndException.sol\":846:855  uint256 a */\n      0x00\n        /* \"contracts/errorAndException.sol\":858:860  10 */\n      0x0a\n        /* \"contracts/errorAndException.sol\":846:860  uint256 a = 10 */\n      swap1\n      pop\n        /* \"contracts/errorAndException.sol\":871:880  uint256 b */\n      0x00\n        /* \"contracts/errorAndException.sol\":883:884  0 */\n      0x00\n        /* \"contracts/errorAndException.sol\":871:884  uint256 b = 0 */\n      swap1\n      pop\n        /* \"contracts/errorAndException.sol\":906:907  b */\n      dup1\n        /* \"contracts/errorAndException.sol\":902:903  a */\n      dup3\n        /* \"contracts/errorAndException.sol\":902:907  a / b */\n      tag_121\n      swap2\n      swap1\n      tag_122\n      jump\t// in\n    tag_121:\n        /* \"contracts/errorAndException.sol\":895:907  return a / b */\n      swap3\n      pop\n      pop\n      pop\n        /* \"contracts/errorAndException.sol\":780:948  function divisionPanic() public pure returns (uint256) {... */\n      swap1\n      jump\t// out\n        /* \"contracts/errorAndException.sol\":2580:3012  function getPanicDescription(uint256 code) public pure returns (string memory) {... */\n    tag_43:\n        /* \"contracts/errorAndException.sol\":2644:2657  string memory */\n      0x60\n        /* \"contracts/errorAndException.sol\":2682:2686  0x01 */\n      0x01\n        /* \"contracts/errorAndException.sol\":2674:2678  code */\n      dup3\n        /* \"contracts/errorAndException.sol\":2674:2686  code == 0x01 */\n      sub\n        /* \"contracts/errorAndException.sol\":2670:2713  if (code == 0x01) return \"Assertion failed\" */\n      tag_124\n      jumpi\n        /* \"contracts/errorAndException.sol\":2688:2713  return \"Assertion failed\" */\n      mload(0x40)\n      dup1\n      0x40\n      add\n      0x40\n      mstore\n      dup1\n      0x10\n      dup2\n      mstore\n      0x20\n      add\n      0x417373657274696f6e206661696c656400000000000000000000000000000000\n      dup2\n      mstore\n      pop\n      swap1\n      pop\n      jump(tag_123)\n        /* \"contracts/errorAndException.sol\":2670:2713  if (code == 0x01) return \"Assertion failed\" */\n    tag_124:\n        /* \"contracts/errorAndException.sol\":2736:2740  0x11 */\n      0x11\n        /* \"contracts/errorAndException.sol\":2728:2732  code */\n      dup3\n        /* \"contracts/errorAndException.sol\":2728:2740  code == 0x11 */\n      sub\n        /* \"contracts/errorAndException.sol\":2724:2780  if (code == 0x11) return \"Arithmetic overflow/underflow\" */\n      tag_125\n      jumpi\n        /* \"contracts/errorAndException.sol\":2742:2780  return \"Arithmetic overflow/underflow\" */\n      mload(0x40)\n      dup1\n      0x40\n      add\n      0x40\n      mstore\n      dup1\n      0x1d\n      dup2\n      mstore\n      0x20\n      add\n      0x41726974686d65746963206f766572666c6f772f756e646572666c6f77000000\n      dup2\n      mstore\n      pop\n      swap1\n      pop\n      jump(tag_123)\n        /* \"contracts/errorAndException.sol\":2724:2780  if (code == 0x11) return \"Arithmetic overflow/underflow\" */\n    tag_125:\n        /* \"contracts/errorAndException.sol\":2803:2807  0x12 */\n      0x12\n        /* \"contracts/errorAndException.sol\":2795:2799  code */\n      dup3\n        /* \"contracts/errorAndException.sol\":2795:2807  code == 0x12 */\n      sub\n        /* \"contracts/errorAndException.sol\":2791:2844  if (code == 0x12) return \"Division or modulo by zero\" */\n      tag_126\n      jumpi\n        /* \"contracts/errorAndException.sol\":2809:2844  return \"Division or modulo by zero\" */\n      mload(0x40)\n      dup1\n      0x40\n      add\n      0x40\n      mstore\n      dup1\n      0x1a\n      dup2\n      mstore\n      0x20\n      add\n      0x4469766973696f6e206f72206d6f64756c6f206279207a65726f000000000000\n      dup2\n      mstore\n      pop\n      swap1\n      pop\n      jump(tag_123)\n        /* \"contracts/errorAndException.sol\":2791:2844  if (code == 0x12) return \"Division or modulo by zero\" */\n    tag_126:\n        /* \"contracts/errorAndException.sol\":2867:2871  0x31 */\n      0x31\n        /* \"contracts/errorAndException.sol\":2859:2863  code */\n      dup3\n        /* \"contracts/errorAndException.sol\":2859:2871  code == 0x31 */\n      sub\n        /* \"contracts/errorAndException.sol\":2855:2902  if (code == 0x31) return \"Pop from empty array\" */\n      tag_127\n      jumpi\n        /* \"contracts/errorAndException.sol\":2873:2902  return \"Pop from empty array\" */\n      mload(0x40)\n      dup1\n      0x40\n      add\n      0x40\n      mstore\n      dup1\n      0x14\n      dup2\n      mstore\n      0x20\n      add\n      0x506f702066726f6d20656d707479206172726179000000000000000000000000\n      dup2\n      mstore\n      pop\n      swap1\n      pop\n      jump(tag_123)\n        /* \"contracts/errorAndException.sol\":2855:2902  if (code == 0x31) return \"Pop from empty array\" */\n    tag_127:\n        /* \"contracts/errorAndException.sol\":2925:2929  0x32 */\n      0x32\n        /* \"contracts/errorAndException.sol\":2917:2921  code */\n      dup3\n        /* \"contracts/errorAndException.sol\":2917:2929  code == 0x32 */\n      sub\n        /* \"contracts/errorAndException.sol\":2913:2966  if (code == 0x32) return \"Array access out of bounds\" */\n      tag_128\n      jumpi\n        /* \"contracts/errorAndException.sol\":2931:2966  return \"Array access out of bounds\" */\n      mload(0x40)\n      dup1\n      0x40\n      add\n      0x40\n      mstore\n      dup1\n      0x1a\n      dup2\n      mstore\n      0x20\n      add\n      0x417272617920616363657373206f7574206f6620626f756e6473000000000000\n      dup2\n      mstore\n      pop\n      swap1\n      pop\n      jump(tag_123)\n        /* \"contracts/errorAndException.sol\":2913:2966  if (code == 0x32) return \"Array access out of bounds\" */\n    tag_128:\n        /* \"contracts/errorAndException.sol\":2977:3004  return \"Unknown panic code\" */\n      mload(0x40)\n      dup1\n      0x40\n      add\n      0x40\n      mstore\n      dup1\n      0x12\n      dup2\n      mstore\n      0x20\n      add\n      0x556e6b6e6f776e2070616e696320636f64650000000000000000000000000000\n      dup2\n      mstore\n      pop\n      swap1\n      pop\n        /* \"contracts/errorAndException.sol\":2580:3012  function getPanicDescription(uint256 code) public pure returns (string memory) {... */\n    tag_123:\n      swap2\n      swap1\n      pop\n      jump\t// out\n        /* \"contracts/errorAndException.sol\":1286:1535  function safeTestArray() public {... */\n    tag_47:\n        /* \"contracts/errorAndException.sol\":1333:1337  this */\n      address\n        /* \"contracts/errorAndException.sol\":1333:1348  this.arrayPanic */\n      0xffffffffffffffffffffffffffffffffffffffff\n      and\n      0xf3391fde\n        /* \"contracts/errorAndException.sol\":1333:1350  this.arrayPanic() */\n      mload(0x40)\n      dup2\n      0xffffffff\n      and\n      0xe0\n      shl\n      dup2\n      mstore\n      0x04\n      add\n      0x00\n      mload(0x40)\n      dup1\n      dup4\n      sub\n      dup2\n      dup7\n      dup1\n      extcodesize\n      iszero\n      dup1\n      iszero\n      tag_130\n      jumpi\n      revert(0x00, 0x00)\n    tag_130:\n      pop\n      gas\n      staticcall\n      swap3\n      pop\n      pop\n      pop\n      dup1\n      iszero\n      tag_131\n      jumpi\n      pop\n      0x01\n    tag_131:\n        /* \"contracts/errorAndException.sol\":1329:1528  try this.arrayPanic() {... */\n      tag_132\n      jumpi\n      tag_136\n      tag_72\n      jump\t// in\n    tag_136:\n      0x4e487b71\n      sub\n      tag_134\n      jumpi\n      tag_137\n      tag_74\n      jump\t// in\n    tag_137:\n      swap1\n      tag_138\n      jumpi\n      pop\n      jump(tag_134)\n    tag_138:\n        /* \"contracts/errorAndException.sol\":1453:1516  PanicDetected(errorCode, \"Array access out of bounds detected\") */\n      0xfa67a0327c0fe7ba3a1d79f037303399c7149da91b4d24df595e0a874bcf9e9c\n        /* \"contracts/errorAndException.sol\":1467:1476  errorCode */\n      dup2\n        /* \"contracts/errorAndException.sol\":1453:1516  PanicDetected(errorCode, \"Array access out of bounds detected\") */\n      mload(0x40)\n      tag_139\n      swap2\n      swap1\n      tag_140\n      jump\t// in\n    tag_139:\n      mload(0x40)\n      dup1\n      swap2\n      sub\n      swap1\n      log1\n        /* \"contracts/errorAndException.sol\":1405:1528  catch Panic(uint errorCode) {... */\n      pop\n        /* \"contracts/errorAndException.sol\":1329:1528  try this.arrayPanic() {... */\n      jump(tag_133)\n    tag_134:\n      returndatacopy(0x00, 0x00, returndatasize)\n      revert(0x00, returndatasize)\n    tag_133:\n      jump(tag_141)\n    tag_132:\n    tag_141:\n        /* \"contracts/errorAndException.sol\":1286:1535  function safeTestArray() public {... */\n      jump\t// out\n        /* \"contracts/errorAndException.sol\":567:658  function popPanic() public {... */\n    tag_49:\n        /* \"contracts/errorAndException.sol\":605:612  numeros */\n      0x00\n        /* \"contracts/errorAndException.sol\":605:618  numeros.pop() */\n      dup1\n      sload\n      dup1\n      tag_143\n      jumpi\n      tag_144\n      tag_145\n      jump\t// in\n    tag_144:\n    tag_143:\n      0x01\n      swap1\n      sub\n      dup2\n      dup2\n      swap1\n      0x00\n      mstore\n      keccak256(0x00, 0x20)\n      add\n      0x00\n      swap1\n      sstore\n      swap1\n      sstore\n        /* \"contracts/errorAndException.sol\":567:658  function popPanic() public {... */\n      jump\t// out\n        /* \"contracts/errorAndException.sol\":305:442  function overflowPanic() public pure {... */\n    tag_51:\n        /* \"contracts/errorAndException.sol\":353:362  uint256 x */\n      0x00\n        /* \"contracts/errorAndException.sol\":365:382  type(uint256).max */\n      0xffffffffffffffffffffffffffffffffffffffffffffffffffffffffffffffff\n        /* \"contracts/errorAndException.sol\":353:382  uint256 x = type(uint256).max */\n      swap1\n      pop\n        /* \"contracts/errorAndException.sol\":397:398  1 */\n      0x01\n        /* \"contracts/errorAndException.sol\":393:394  x */\n      dup2\n        /* \"contracts/errorAndException.sol\":393:398  x + 1 */\n      tag_148\n      swap2\n      swap1\n      tag_149\n      jump\t// in\n    tag_148:\n      pop\n        /* \"contracts/errorAndException.sol\":342:442  {... */\n      pop\n        /* \"contracts/errorAndException.sol\":305:442  function overflowPanic() public pure {... */\n      jump\t// out\n        /* \"contracts/errorAndException.sol\":86:107  uint[] public numeros */\n    tag_54:\n      0x00\n      dup2\n      dup2\n      sload\n      dup2\n      lt\n      tag_150\n      jumpi\n      0x00\n      dup1\n      revert\n    tag_150:\n      swap1\n      0x00\n      mstore\n      keccak256(0x00, 0x20)\n      add\n      0x00\n      swap2\n      pop\n      swap1\n      pop\n      sload\n      dup2\n      jump\t// out\n        /* \"contracts/errorAndException.sol\":454:555  function arrayPanic() public view {... */\n    tag_57:\n        /* \"contracts/errorAndException.sol\":499:506  numeros */\n      0x00\n        /* \"contracts/errorAndException.sol\":507:510  100 */\n      0x64\n        /* \"contracts/errorAndException.sol\":499:511  numeros[100] */\n      dup2\n      sload\n      dup2\n      lt\n      tag_153\n      jumpi\n      tag_154\n      tag_155\n      jump\t// in\n    tag_154:\n    tag_153:\n      swap1\n      0x00\n      mstore\n      pop(keccak256(0x00, 0x20))\n      pop\n        /* \"contracts/errorAndException.sol\":454:555  function arrayPanic() public view {... */\n      jump\t// out\n        /* \"#utility.yul\":7:84   */\n    tag_157:\n        /* \"#utility.yul\":44:51   */\n      0x00\n        /* \"#utility.yul\":73:78   */\n      dup2\n        /* \"#utility.yul\":62:78   */\n      swap1\n      pop\n        /* \"#utility.yul\":7:84   */\n      swap2\n      swap1\n      pop\n      jump\t// out\n        /* \"#utility.yul\":90:208   */\n    tag_158:\n        /* \"#utility.yul\":177:201   */\n      tag_186\n        /* \"#utility.yul\":195:200   */\n      dup2\n        /* \"#utility.yul\":177:201   */\n      tag_157\n      jump\t// in\n    tag_186:\n        /* \"#utility.yul\":172:175   */\n      dup3\n        /* \"#utility.yul\":165:202   */\n      mstore\n        /* \"#utility.yul\":90:208   */\n      pop\n      pop\n      jump\t// out\n        /* \"#utility.yul\":214:436   */\n    tag_23:\n        /* \"#utility.yul\":307:311   */\n      0x00\n        /* \"#utility.yul\":345:347   */\n      0x20\n        /* \"#utility.yul\":334:343   */\n      dup3\n        /* \"#utility.yul\":330:348   */\n      add\n        /* \"#utility.yul\":322:348   */\n      swap1\n      pop\n        /* \"#utility.yul\":358:429   */\n      tag_188\n        /* \"#utility.yul\":426:427   */\n      0x00\n        /* \"#utility.yul\":415:424   */\n      dup4\n        /* \"#utility.yul\":411:428   */\n      add\n        /* \"#utility.yul\":402:408   */\n      dup5\n        /* \"#utility.yul\":358:429   */\n      tag_158\n      jump\t// in\n    tag_188:\n        /* \"#utility.yul\":214:436   */\n      swap3\n      swap2\n      pop\n      pop\n      jump\t// out\n        /* \"#utility.yul\":523:640   */\n    tag_160:\n        /* \"#utility.yul\":632:633   */\n      0x00\n        /* \"#utility.yul\":629:630   */\n      0x00\n        /* \"#utility.yul\":622:634   */\n      revert\n        /* \"#utility.yul\":769:891   */\n    tag_162:\n        /* \"#utility.yul\":842:866   */\n      tag_193\n        /* \"#utility.yul\":860:865   */\n      dup2\n        /* \"#utility.yul\":842:866   */\n      tag_157\n      jump\t// in\n    tag_193:\n        /* \"#utility.yul\":835:840   */\n      dup2\n        /* \"#utility.yul\":832:867   */\n      eq\n        /* \"#utility.yul\":822:885   */\n      tag_194\n      jumpi\n        /* \"#utility.yul\":881:882   */\n      0x00\n        /* \"#utility.yul\":878:879   */\n      0x00\n        /* \"#utility.yul\":871:883   */\n      revert\n        /* \"#utility.yul\":822:885   */\n    tag_194:\n        /* \"#utility.yul\":769:891   */\n      pop\n      jump\t// out\n        /* \"#utility.yul\":897:1036   */\n    tag_163:\n        /* \"#utility.yul\":943:948   */\n      0x00\n        /* \"#utility.yul\":981:987   */\n      dup2\n        /* \"#utility.yul\":968:988   */\n      calldataload\n        /* \"#utility.yul\":959:988   */\n      swap1\n      pop\n        /* \"#utility.yul\":997:1030   */\n      tag_196\n        /* \"#utility.yul\":1024:1029   */\n      dup2\n        /* \"#utility.yul\":997:1030   */\n      tag_162\n      jump\t// in\n    tag_196:\n        /* \"#utility.yul\":897:1036   */\n      swap3\n      swap2\n      pop\n      pop\n      jump\t// out\n        /* \"#utility.yul\":1042:1371   */\n    tag_36:\n        /* \"#utility.yul\":1101:1107   */\n      0x00\n        /* \"#utility.yul\":1150:1152   */\n      0x20\n        /* \"#utility.yul\":1138:1147   */\n      dup3\n        /* \"#utility.yul\":1129:1136   */\n      dup5\n        /* \"#utility.yul\":1125:1148   */\n      sub\n        /* \"#utility.yul\":1121:1153   */\n      slt\n        /* \"#utility.yul\":1118:1237   */\n      iszero\n      tag_198\n      jumpi\n        /* \"#utility.yul\":1156:1235   */\n      tag_199\n      tag_160\n      jump\t// in\n    tag_199:\n        /* \"#utility.yul\":1118:1237   */\n    tag_198:\n        /* \"#utility.yul\":1276:1277   */\n      0x00\n        /* \"#utility.yul\":1301:1354   */\n      tag_200\n        /* \"#utility.yul\":1346:1353   */\n      dup5\n        /* \"#utility.yul\":1337:1343   */\n      dup3\n        /* \"#utility.yul\":1326:1335   */\n      dup6\n        /* \"#utility.yul\":1322:1344   */\n      add\n        /* \"#utility.yul\":1301:1354   */\n      tag_163\n      jump\t// in\n    tag_200:\n        /* \"#utility.yul\":1291:1354   */\n      swap2\n      pop\n        /* \"#utility.yul\":1247:1364   */\n      pop\n        /* \"#utility.yul\":1042:1371   */\n      swap3\n      swap2\n      pop\n      pop\n      jump\t// out\n        /* \"#utility.yul\":1377:1476   */\n    tag_164:\n        /* \"#utility.yul\":1429:1435   */\n      0x00\n        /* \"#utility.yul\":1463:1468   */\n      dup2\n        /* \"#utility.yul\":1457:1469   */\n      mload\n        /* \"#utility.yul\":1447:1469   */\n      swap1\n      pop\n        /* \"#utility.yul\":1377:1476   */\n      swap2\n      swap1\n      pop\n      jump\t// out\n        /* \"#utility.yul\":1482:1651   */\n    tag_165:\n        /* \"#utility.yul\":1566:1577   */\n      0x00\n        /* \"#utility.yul\":1600:1606   */\n      dup3\n        /* \"#utility.yul\":1595:1598   */\n      dup3\n        /* \"#utility.yul\":1588:1607   */\n      mstore\n        /* \"#utility.yul\":1640:1644   */\n      0x20\n        /* \"#utility.yul\":1635:1638   */\n      dup3\n        /* \"#utility.yul\":1631:1645   */\n      add\n        /* \"#utility.yul\":1616:1645   */\n      swap1\n      pop\n        /* \"#utility.yul\":1482:1651   */\n      swap3\n      swap2\n      pop\n      pop\n      jump\t// out\n        /* \"#utility.yul\":1657:1796   */\n    tag_166:\n        /* \"#utility.yul\":1746:1752   */\n      dup3\n        /* \"#utility.yul\":1741:1744   */\n      dup2\n        /* \"#utility.yul\":1736:1739   */\n      dup4\n        /* \"#utility.yul\":1730:1753   */\n      mcopy\n        /* \"#utility.yul\":1787:1788   */\n      0x00\n        /* \"#utility.yul\":1778:1784   */\n      dup4\n        /* \"#utility.yul\":1773:1776   */\n      dup4\n        /* \"#utility.yul\":1769:1785   */\n      add\n        /* \"#utility.yul\":1762:1789   */\n      mstore\n        /* \"#utility.yul\":1657:1796   */\n      pop\n      pop\n      pop\n      jump\t// out\n        /* \"#utility.yul\":1802:1904   */\n    tag_167:\n        /* \"#utility.yul\":1843:1849   */\n      0x00\n        /* \"#utility.yul\":1894:1896   */\n      0x1f\n        /* \"#utility.yul\":1890:1897   */\n      not\n        /* \"#utility.yul\":1885:1887   */\n      0x1f\n        /* \"#utility.yul\":1878:1883   */\n      dup4\n        /* \"#utility.yul\":1874:1888   */\n      add\n        /* \"#utility.yul\":1870:1898   */\n      and\n        /* \"#utility.yul\":1860:1898   */\n      swap1\n      pop\n        /* \"#utility.yul\":1802:1904   */\n      swap2\n      swap1\n      pop\n      jump\t// out\n        /* \"#utility.yul\":1910:2287   */\n    tag_168:\n        /* \"#utility.yul\":1998:2001   */\n      0x00\n        /* \"#utility.yul\":2026:2065   */\n      tag_206\n        /* \"#utility.yul\":2059:2064   */\n      dup3\n        /* \"#utility.yul\":2026:2065   */\n      tag_164\n      jump\t// in\n    tag_206:\n        /* \"#utility.yul\":2081:2152   */\n      tag_207\n        /* \"#utility.yul\":2145:2151   */\n      dup2\n        /* \"#utility.yul\":2140:2143   */\n      dup6\n        /* \"#utility.yul\":2081:2152   */\n      tag_165\n      jump\t// in\n    tag_207:\n        /* \"#utility.yul\":2074:2152   */\n      swap4\n      pop\n        /* \"#utility.yul\":2161:2226   */\n      tag_208\n        /* \"#utility.yul\":2219:2225   */\n      dup2\n        /* \"#utility.yul\":2214:2217   */\n      dup6\n        /* \"#utility.yul\":2207:2211   */\n      0x20\n        /* \"#utility.yul\":2200:2205   */\n      dup7\n        /* \"#utility.yul\":2196:2212   */\n      add\n        /* \"#utility.yul\":2161:2226   */\n      tag_166\n      jump\t// in\n    tag_208:\n        /* \"#utility.yul\":2251:2280   */\n      tag_209\n        /* \"#utility.yul\":2273:2279   */\n      dup2\n        /* \"#utility.yul\":2251:2280   */\n      tag_167\n      jump\t// in\n    tag_209:\n        /* \"#utility.yul\":2246:2249   */\n      dup5\n        /* \"#utility.yul\":2242:2281   */\n      add\n        /* \"#utility.yul\":2235:2281   */\n      swap2\n      pop\n        /* \"#utility.yul\":2002:2287   */\n      pop\n        /* \"#utility.yul\":1910:2287   */\n      swap3\n      swap2\n      pop\n      pop\n      jump\t// out\n        /* \"#utility.yul\":2293:2606   */\n    tag_45:\n        /* \"#utility.yul\":2406:2410   */\n      0x00\n        /* \"#utility.yul\":2444:2446   */\n      0x20\n        /* \"#utility.yul\":2433:2442   */\n      dup3\n        /* \"#utility.yul\":2429:2447   */\n      add\n        /* \"#utility.yul\":2421:2447   */\n      swap1\n      pop\n        /* \"#utility.yul\":2493:2502   */\n      dup2\n        /* \"#utility.yul\":2487:2491   */\n      dup2\n        /* \"#utility.yul\":2483:2503   */\n      sub\n        /* \"#utility.yul\":2479:2480   */\n      0x00\n        /* \"#utility.yul\":2468:2477   */\n      dup4\n        /* \"#utility.yul\":2464:2481   */\n      add\n        /* \"#utility.yul\":2457:2504   */\n      mstore\n        /* \"#utility.yul\":2521:2599   */\n      tag_211\n        /* \"#utility.yul\":2594:2598   */\n      dup2\n        /* \"#utility.yul\":2585:2591   */\n      dup5\n        /* \"#utility.yul\":2521:2599   */\n      tag_168\n      jump\t// in\n    tag_211:\n        /* \"#utility.yul\":2513:2599   */\n      swap1\n      pop\n        /* \"#utility.yul\":2293:2606   */\n      swap3\n      swap2\n      pop\n      pop\n      jump\t// out\n        /* \"#utility.yul\":2612:2792   */\n    tag_62:\n        /* \"#utility.yul\":2660:2737   */\n      0x4e487b7100000000000000000000000000000000000000000000000000000000\n        /* \"#utility.yul\":2657:2658   */\n      0x00\n        /* \"#utility.yul\":2650:2738   */\n      mstore\n        /* \"#utility.yul\":2757:2761   */\n      0x01\n        /* \"#utility.yul\":2754:2755   */\n      0x04\n        /* \"#utility.yul\":2747:2762   */\n      mstore\n        /* \"#utility.yul\":2781:2785   */\n      0x24\n        /* \"#utility.yul\":2778:2779   */\n      0x00\n        /* \"#utility.yul\":2771:2786   */\n      revert\n        /* \"#utility.yul\":2798:2941   */\n    tag_169:\n        /* \"#utility.yul\":2855:2860   */\n      0x00\n        /* \"#utility.yul\":2886:2892   */\n      dup2\n        /* \"#utility.yul\":2880:2893   */\n      mload\n        /* \"#utility.yul\":2871:2893   */\n      swap1\n      pop\n        /* \"#utility.yul\":2902:2935   */\n      tag_214\n        /* \"#utility.yul\":2929:2934   */\n      dup2\n        /* \"#utility.yul\":2902:2935   */\n      tag_162\n      jump\t// in\n    tag_214:\n        /* \"#utility.yul\":2798:2941   */\n      swap3\n      swap2\n      pop\n      pop\n      jump\t// out\n        /* \"#utility.yul\":2947:3298   */\n    tag_66:\n        /* \"#utility.yul\":3017:3023   */\n      0x00\n        /* \"#utility.yul\":3066:3068   */\n      0x20\n        /* \"#utility.yul\":3054:3063   */\n      dup3\n        /* \"#utility.yul\":3045:3052   */\n      dup5\n        /* \"#utility.yul\":3041:3064   */\n      sub\n        /* \"#utility.yul\":3037:3069   */\n      slt\n        /* \"#utility.yul\":3034:3153   */\n      iszero\n      tag_216\n      jumpi\n        /* \"#utility.yul\":3072:3151   */\n      tag_217\n      tag_160\n      jump\t// in\n    tag_217:\n        /* \"#utility.yul\":3034:3153   */\n    tag_216:\n        /* \"#utility.yul\":3192:3193   */\n      0x00\n        /* \"#utility.yul\":3217:3281   */\n      tag_218\n        /* \"#utility.yul\":3273:3280   */\n      dup5\n        /* \"#utility.yul\":3264:3270   */\n      dup3\n        /* \"#utility.yul\":3253:3262   */\n      dup6\n        /* \"#utility.yul\":3249:3271   */\n      add\n        /* \"#utility.yul\":3217:3281   */\n      tag_169\n      jump\t// in\n    tag_218:\n        /* \"#utility.yul\":3207:3281   */\n      swap2\n      pop\n        /* \"#utility.yul\":3163:3291   */\n      pop\n        /* \"#utility.yul\":2947:3298   */\n      swap3\n      swap2\n      pop\n      pop\n      jump\t// out\n        /* \"#utility.yul\":3304:3410   */\n    tag_170:\n        /* \"#utility.yul\":3348:3356   */\n      0x00\n        /* \"#utility.yul\":3397:3402   */\n      dup2\n        /* \"#utility.yul\":3392:3395   */\n      0xe0\n        /* \"#utility.yul\":3388:3403   */\n      shr\n        /* \"#utility.yul\":3367:3403   */\n      swap1\n      pop\n        /* \"#utility.yul\":3304:3410   */\n      swap2\n      swap1\n      pop\n      jump\t// out\n        /* \"#utility.yul\":3416:3599   */\n    tag_72:\n        /* \"#utility.yul\":3451:3454   */\n      0x00\n        /* \"#utility.yul\":3489:3490   */\n      0x03\n        /* \"#utility.yul\":3471:3487   */\n      returndatasize\n        /* \"#utility.yul\":3468:3491   */\n      gt\n        /* \"#utility.yul\":3465:3593   */\n      iszero\n      tag_221\n      jumpi\n        /* \"#utility.yul\":3527:3528   */\n      0x04\n        /* \"#utility.yul\":3524:3525   */\n      0x00\n        /* \"#utility.yul\":3521:3522   */\n      0x00\n        /* \"#utility.yul\":3506:3529   */\n      returndatacopy\n        /* \"#utility.yul\":3549:3583   */\n      tag_222\n        /* \"#utility.yul\":3580:3581   */\n      0x00\n        /* \"#utility.yul\":3574:3582   */\n      mload\n        /* \"#utility.yul\":3549:3583   */\n      tag_170\n      jump\t// in\n    tag_222:\n        /* \"#utility.yul\":3542:3583   */\n      swap1\n      pop\n        /* \"#utility.yul\":3465:3593   */\n    tag_221:\n        /* \"#utility.yul\":3416:3599   */\n      swap1\n      jump\t// out\n        /* \"#utility.yul\":3605:3805   */\n    tag_74:\n        /* \"#utility.yul\":3641:3648   */\n      0x00\n        /* \"#utility.yul\":3650:3654   */\n      0x00\n        /* \"#utility.yul\":3689:3693   */\n      0x23\n        /* \"#utility.yul\":3671:3687   */\n      returndatasize\n        /* \"#utility.yul\":3668:3694   */\n      gt\n        /* \"#utility.yul\":3665:3799   */\n      iszero\n      tag_224\n      jumpi\n        /* \"#utility.yul\":3730:3734   */\n      0x20\n        /* \"#utility.yul\":3727:3728   */\n      0x04\n        /* \"#utility.yul\":3724:3725   */\n      0x00\n        /* \"#utility.yul\":3709:3735   */\n      returndatacopy\n        /* \"#utility.yul\":3759:3760   */\n      0x01\n        /* \"#utility.yul\":3748:3760   */\n      swap2\n      pop\n        /* \"#utility.yul\":3787:3788   */\n      0x00\n        /* \"#utility.yul\":3781:3789   */\n      mload\n        /* \"#utility.yul\":3773:3789   */\n      swap1\n      pop\n        /* \"#utility.yul\":3665:3799   */\n    tag_224:\n        /* \"#utility.yul\":3605:3805   */\n      swap1\n      swap2\n      jump\t// out\n        /* \"#utility.yul\":3811:3986   */\n    tag_171:\n        /* \"#utility.yul\":3951:3978   */\n      0x4469766973696f6e206279207a65726f20646574656374656400000000000000\n        /* \"#utility.yul\":3947:3948   */\n      0x00\n        /* \"#utility.yul\":3939:3945   */\n      dup3\n        /* \"#utility.yul\":3935:3949   */\n      add\n        /* \"#utility.yul\":3928:3979   */\n      mstore\n        /* \"#utility.yul\":3811:3986   */\n      pop\n      jump\t// out\n        /* \"#utility.yul\":3992:4358   */\n    tag_172:\n        /* \"#utility.yul\":4134:4137   */\n      0x00\n        /* \"#utility.yul\":4155:4222   */\n      tag_227\n        /* \"#utility.yul\":4219:4221   */\n      0x19\n        /* \"#utility.yul\":4214:4217   */\n      dup4\n        /* \"#utility.yul\":4155:4222   */\n      tag_165\n      jump\t// in\n    tag_227:\n        /* \"#utility.yul\":4148:4222   */\n      swap2\n      pop\n        /* \"#utility.yul\":4231:4324   */\n      tag_228\n        /* \"#utility.yul\":4320:4323   */\n      dup3\n        /* \"#utility.yul\":4231:4324   */\n      tag_171\n      jump\t// in\n    tag_228:\n        /* \"#utility.yul\":4349:4351   */\n      0x20\n        /* \"#utility.yul\":4344:4347   */\n      dup3\n        /* \"#utility.yul\":4340:4352   */\n      add\n        /* \"#utility.yul\":4333:4352   */\n      swap1\n      pop\n        /* \"#utility.yul\":3992:4358   */\n      swap2\n      swap1\n      pop\n      jump\t// out\n        /* \"#utility.yul\":4364:4893   */\n    tag_77:\n        /* \"#utility.yul\":4558:4562   */\n      0x00\n        /* \"#utility.yul\":4596:4598   */\n      0x40\n        /* \"#utility.yul\":4585:4594   */\n      dup3\n        /* \"#utility.yul\":4581:4599   */\n      add\n        /* \"#utility.yul\":4573:4599   */\n      swap1\n      pop\n        /* \"#utility.yul\":4609:4680   */\n      tag_230\n        /* \"#utility.yul\":4677:4678   */\n      0x00\n        /* \"#utility.yul\":4666:4675   */\n      dup4\n        /* \"#utility.yul\":4662:4679   */\n      add\n        /* \"#utility.yul\":4653:4659   */\n      dup5\n        /* \"#utility.yul\":4609:4680   */\n      tag_158\n      jump\t// in\n    tag_230:\n        /* \"#utility.yul\":4727:4736   */\n      dup2\n        /* \"#utility.yul\":4721:4725   */\n      dup2\n        /* \"#utility.yul\":4717:4737   */\n      sub\n        /* \"#utility.yul\":4712:4714   */\n      0x20\n        /* \"#utility.yul\":4701:4710   */\n      dup4\n        /* \"#utility.yul\":4697:4715   */\n      add\n        /* \"#utility.yul\":4690:4738   */\n      mstore\n        /* \"#utility.yul\":4755:4886   */\n      tag_231\n        /* \"#utility.yul\":4881:4885   */\n      dup2\n        /* \"#utility.yul\":4755:4886   */\n      tag_172\n      jump\t// in\n    tag_231:\n        /* \"#utility.yul\":4747:4886   */\n      swap1\n      pop\n        /* \"#utility.yul\":4364:4893   */\n      swap3\n      swap2\n      pop\n      pop\n      jump\t// out\n        /* \"#utility.yul\":4899:5074   */\n    tag_173:\n        /* \"#utility.yul\":5039:5066   */\n      0x417373657274696f6e206661696c656420646574656374656400000000000000\n        /* \"#utility.yul\":5035:5036   */\n      0x00\n        /* \"#utility.yul\":5027:5033   */\n      dup3\n        /* \"#utility.yul\":5023:5037   */\n      add\n        /* \"#utility.yul\":5016:5067   */\n      mstore\n        /* \"#utility.yul\":4899:5074   */\n      pop\n      jump\t// out\n        /* \"#utility.yul\":5080:5446   */\n    tag_174:\n        /* \"#utility.yul\":5222:5225   */\n      0x00\n        /* \"#utility.yul\":5243:5310   */\n      tag_234\n        /* \"#utility.yul\":5307:5309   */\n      0x19\n        /* \"#utility.yul\":5302:5305   */\n      dup4\n        /* \"#utility.yul\":5243:5310   */\n      tag_165\n      jump\t// in\n    tag_234:\n        /* \"#utility.yul\":5236:5310   */\n      swap2\n      pop\n        /* \"#utility.yul\":5319:5412   */\n      tag_235\n        /* \"#utility.yul\":5408:5411   */\n      dup3\n        /* \"#utility.yul\":5319:5412   */\n      tag_173\n      jump\t// in\n    tag_235:\n        /* \"#utility.yul\":5437:5439   */\n      0x20\n        /* \"#utility.yul\":5432:5435   */\n      dup3\n        /* \"#utility.yul\":5428:5440   */\n      add\n        /* \"#utility.yul\":5421:5440   */\n      swap1\n      pop\n        /* \"#utility.yul\":5080:5446   */\n      swap2\n      swap1\n      pop\n      jump\t// out\n        /* \"#utility.yul\":5452:5981   */\n    tag_90:\n        /* \"#utility.yul\":5646:5650   */\n      0x00\n        /* \"#utility.yul\":5684:5686   */\n      0x40\n        /* \"#utility.yul\":5673:5682   */\n      dup3\n        /* \"#utility.yul\":5669:5687   */\n      add\n        /* \"#utility.yul\":5661:5687   */\n      swap1\n      pop\n        /* \"#utility.yul\":5697:5768   */\n      tag_237\n        /* \"#utility.yul\":5765:5766   */\n      0x00\n        /* \"#utility.yul\":5754:5763   */\n      dup4\n        /* \"#utility.yul\":5750:5767   */\n      add\n        /* \"#utility.yul\":5741:5747   */\n      dup5\n        /* \"#utility.yul\":5697:5768   */\n      tag_158\n      jump\t// in\n    tag_237:\n        /* \"#utility.yul\":5815:5824   */\n      dup2\n        /* \"#utility.yul\":5809:5813   */\n      dup2\n        /* \"#utility.yul\":5805:5825   */\n      sub\n        /* \"#utility.yul\":5800:5802   */\n      0x20\n        /* \"#utility.yul\":5789:5798   */\n      dup4\n        /* \"#utility.yul\":5785:5803   */\n      add\n        /* \"#utility.yul\":5778:5826   */\n      mstore\n        /* \"#utility.yul\":5843:5974   */\n      tag_238\n        /* \"#utility.yul\":5969:5973   */\n      dup2\n        /* \"#utility.yul\":5843:5974   */\n      tag_174\n      jump\t// in\n    tag_238:\n        /* \"#utility.yul\":5835:5974   */\n      swap1\n      pop\n        /* \"#utility.yul\":5452:5981   */\n      swap3\n      swap2\n      pop\n      pop\n      jump\t// out\n        /* \"#utility.yul\":5987:6165   */\n    tag_175:\n        /* \"#utility.yul\":6127:6157   */\n      0x41726974686d65746963206f766572666c6f7720646574656374656400000000\n        /* \"#utility.yul\":6123:6124   */\n      0x00\n        /* \"#utility.yul\":6115:6121   */\n      dup3\n        /* \"#utility.yul\":6111:6125   */\n      add\n        /* \"#utility.yul\":6104:6158   */\n      mstore\n        /* \"#utility.yul\":5987:6165   */\n      pop\n      jump\t// out\n        /* \"#utility.yul\":6171:6537   */\n    tag_176:\n        /* \"#utility.yul\":6313:6316   */\n      0x00\n        /* \"#utility.yul\":6334:6401   */\n      tag_241\n        /* \"#utility.yul\":6398:6400   */\n      0x1c\n        /* \"#utility.yul\":6393:6396   */\n      dup4\n        /* \"#utility.yul\":6334:6401   */\n      tag_165\n      jump\t// in\n    tag_241:\n        /* \"#utility.yul\":6327:6401   */\n      swap2\n      pop\n        /* \"#utility.yul\":6410:6503   */\n      tag_242\n        /* \"#utility.yul\":6499:6502   */\n      dup3\n        /* \"#utility.yul\":6410:6503   */\n      tag_175\n      jump\t// in\n    tag_242:\n        /* \"#utility.yul\":6528:6530   */\n      0x20\n        /* \"#utility.yul\":6523:6526   */\n      dup3\n        /* \"#utility.yul\":6519:6531   */\n      add\n        /* \"#utility.yul\":6512:6531   */\n      swap1\n      pop\n        /* \"#utility.yul\":6171:6537   */\n      swap2\n      swap1\n      pop\n      jump\t// out\n        /* \"#utility.yul\":6543:7072   */\n    tag_103:\n        /* \"#utility.yul\":6737:6741   */\n      0x00\n        /* \"#utility.yul\":6775:6777   */\n      0x40\n        /* \"#utility.yul\":6764:6773   */\n      dup3\n        /* \"#utility.yul\":6760:6778   */\n      add\n        /* \"#utility.yul\":6752:6778   */\n      swap1\n      pop\n        /* \"#utility.yul\":6788:6859   */\n      tag_244\n        /* \"#utility.yul\":6856:6857   */\n      0x00\n        /* \"#utility.yul\":6845:6854   */\n      dup4\n        /* \"#utility.yul\":6841:6858   */\n      add\n        /* \"#utility.yul\":6832:6838   */\n      dup5\n        /* \"#utility.yul\":6788:6859   */\n      tag_158\n      jump\t// in\n    tag_244:\n        /* \"#utility.yul\":6906:6915   */\n      dup2\n        /* \"#utility.yul\":6900:6904   */\n      dup2\n        /* \"#utility.yul\":6896:6916   */\n      sub\n        /* \"#utility.yul\":6891:6893   */\n      0x20\n        /* \"#utility.yul\":6880:6889   */\n      dup4\n        /* \"#utility.yul\":6876:6894   */\n      add\n        /* \"#utility.yul\":6869:6917   */\n      mstore\n        /* \"#utility.yul\":6934:7065   */\n      tag_245\n        /* \"#utility.yul\":7060:7064   */\n      dup2\n        /* \"#utility.yul\":6934:7065   */\n      tag_176\n      jump\t// in\n    tag_245:\n        /* \"#utility.yul\":6926:7065   */\n      swap1\n      pop\n        /* \"#utility.yul\":6543:7072   */\n      swap3\n      swap2\n      pop\n      pop\n      jump\t// out\n        /* \"#utility.yul\":7078:7257   */\n    tag_177:\n        /* \"#utility.yul\":7218:7249   */\n      0x506f702066726f6d20656d707479206172726179206465746563746564000000\n        /* \"#utility.yul\":7214:7215   */\n      0x00\n        /* \"#utility.yul\":7206:7212   */\n      dup3\n        /* \"#utility.yul\":7202:7216   */\n      add\n        /* \"#utility.yul\":7195:7250   */\n      mstore\n        /* \"#utility.yul\":7078:7257   */\n      pop\n      jump\t// out\n        /* \"#utility.yul\":7263:7629   */\n    tag_178:\n        /* \"#utility.yul\":7405:7408   */\n      0x00\n        /* \"#utility.yul\":7426:7493   */\n      tag_248\n        /* \"#utility.yul\":7490:7492   */\n      0x1d\n        /* \"#utility.yul\":7485:7488   */\n      dup4\n        /* \"#utility.yul\":7426:7493   */\n      tag_165\n      jump\t// in\n    tag_248:\n        /* \"#utility.yul\":7419:7493   */\n      swap2\n      pop\n        /* \"#utility.yul\":7502:7595   */\n      tag_249\n        /* \"#utility.yul\":7591:7594   */\n      dup3\n        /* \"#utility.yul\":7502:7595   */\n      tag_177\n      jump\t// in\n    tag_249:\n        /* \"#utility.yul\":7620:7622   */\n      0x20\n        /* \"#utility.yul\":7615:7618   */\n      dup3\n        /* \"#utility.yul\":7611:7623   */\n      add\n        /* \"#utility.yul\":7604:7623   */\n      swap1\n      pop\n        /* \"#utility.yul\":7263:7629   */\n      swap2\n      swap1\n      pop\n      jump\t// out\n        /* \"#utility.yul\":7635:8164   */\n    tag_116:\n        /* \"#utility.yul\":7829:7833   */\n      0x00\n        /* \"#utility.yul\":7867:7869   */\n      0x40\n        /* \"#utility.yul\":7856:7865   */\n      dup3\n        /* \"#utility.yul\":7852:7870   */\n      add\n        /* \"#utility.yul\":7844:7870   */\n      swap1\n      pop\n        /* \"#utility.yul\":7880:7951   */\n      tag_251\n        /* \"#utility.yul\":7948:7949   */\n      0x00\n        /* \"#utility.yul\":7937:7946   */\n      dup4\n        /* \"#utility.yul\":7933:7950   */\n      add\n        /* \"#utility.yul\":7924:7930   */\n      dup5\n        /* \"#utility.yul\":7880:7951   */\n      tag_158\n      jump\t// in\n    tag_251:\n        /* \"#utility.yul\":7998:8007   */\n      dup2\n        /* \"#utility.yul\":7992:7996   */\n      dup2\n        /* \"#utility.yul\":7988:8008   */\n      sub\n        /* \"#utility.yul\":7983:7985   */\n      0x20\n        /* \"#utility.yul\":7972:7981   */\n      dup4\n        /* \"#utility.yul\":7968:7986   */\n      add\n        /* \"#utility.yul\":7961:8009   */\n      mstore\n        /* \"#utility.yul\":8026:8157   */\n      tag_252\n        /* \"#utility.yul\":8152:8156   */\n      dup2\n        /* \"#utility.yul\":8026:8157   */\n      tag_178\n      jump\t// in\n    tag_252:\n        /* \"#utility.yul\":8018:8157   */\n      swap1\n      pop\n        /* \"#utility.yul\":7635:8164   */\n      swap3\n      swap2\n      pop\n      pop\n      jump\t// out\n        /* \"#utility.yul\":8170:8350   */\n    tag_179:\n        /* \"#utility.yul\":8218:8295   */\n      0x4e487b7100000000000000000000000000000000000000000000000000000000\n        /* \"#utility.yul\":8215:8216   */\n      0x00\n        /* \"#utility.yul\":8208:8296   */\n      mstore\n        /* \"#utility.yul\":8315:8319   */\n      0x12\n        /* \"#utility.yul\":8312:8313   */\n      0x04\n        /* \"#utility.yul\":8305:8320   */\n      mstore\n        /* \"#utility.yul\":8339:8343   */\n      0x24\n        /* \"#utility.yul\":8336:8337   */\n      0x00\n        /* \"#utility.yul\":8329:8344   */\n      revert\n        /* \"#utility.yul\":8356:8536   */\n    tag_180:\n        /* \"#utility.yul\":8404:8481   */\n      0x4e487b7100000000000000000000000000000000000000000000000000000000\n        /* \"#utility.yul\":8401:8402   */\n      0x00\n        /* \"#utility.yul\":8394:8482   */\n      mstore\n        /* \"#utility.yul\":8501:8505   */\n      0x11\n        /* \"#utility.yul\":8498:8499   */\n      0x04\n        /* \"#utility.yul\":8491:8506   */\n      mstore\n        /* \"#utility.yul\":8525:8529   */\n      0x24\n        /* \"#utility.yul\":8522:8523   */\n      0x00\n        /* \"#utility.yul\":8515:8530   */\n      revert\n        /* \"#utility.yul\":8542:8727   */\n    tag_122:\n        /* \"#utility.yul\":8582:8583   */\n      0x00\n        /* \"#utility.yul\":8599:8619   */\n      tag_256\n        /* \"#utility.yul\":8617:8618   */\n      dup3\n        /* \"#utility.yul\":8599:8619   */\n      tag_157\n      jump\t// in\n    tag_256:\n        /* \"#utility.yul\":8594:8619   */\n      swap2\n      pop\n        /* \"#utility.yul\":8633:8653   */\n      tag_257\n        /* \"#utility.yul\":8651:8652   */\n      dup4\n        /* \"#utility.yul\":8633:8653   */\n      tag_157\n      jump\t// in\n    tag_257:\n        /* \"#utility.yul\":8628:8653   */\n      swap3\n      pop\n        /* \"#utility.yul\":8672:8673   */\n      dup3\n        /* \"#utility.yul\":8662:8697   */\n      tag_258\n      jumpi\n        /* \"#utility.yul\":8677:8695   */\n      tag_259\n      tag_179\n      jump\t// in\n    tag_259:\n        /* \"#utility.yul\":8662:8697   */\n    tag_258:\n        /* \"#utility.yul\":8719:8720   */\n      dup3\n        /* \"#utility.yul\":8716:8717   */\n      dup3\n        /* \"#utility.yul\":8712:8721   */\n      div\n        /* \"#utility.yul\":8707:8721   */\n      swap1\n      pop\n        /* \"#utility.yul\":8542:8727   */\n      swap3\n      swap2\n      pop\n      pop\n      jump\t// out\n        /* \"#utility.yul\":8733:8955   */\n    tag_181:\n        /* \"#utility.yul\":8873:8907   */\n      0x417272617920616363657373206f7574206f6620626f756e6473206465746563\n        /* \"#utility.yul\":8869:8870   */\n      0x00\n        /* \"#utility.yul\":8861:8867   */\n      dup3\n        /* \"#utility.yul\":8857:8871   */\n      add\n        /* \"#utility.yul\":8850:8908   */\n      mstore\n        /* \"#utility.yul\":8942:8947   */\n      0x7465640000000000000000000000000000000000000000000000000000000000\n        /* \"#utility.yul\":8937:8939   */\n      0x20\n        /* \"#utility.yul\":8929:8935   */\n      dup3\n        /* \"#utility.yul\":8925:8940   */\n      add\n        /* \"#utility.yul\":8918:8948   */\n      mstore\n        /* \"#utility.yul\":8733:8955   */\n      pop\n      jump\t// out\n        /* \"#utility.yul\":8961:9327   */\n    tag_182:\n        /* \"#utility.yul\":9103:9106   */\n      0x00\n        /* \"#utility.yul\":9124:9191   */\n      tag_262\n        /* \"#utility.yul\":9188:9190   */\n      0x23\n        /* \"#utility.yul\":9183:9186   */\n      dup4\n        /* \"#utility.yul\":9124:9191   */\n      tag_165\n      jump\t// in\n    tag_262:\n        /* \"#utility.yul\":9117:9191   */\n      swap2\n      pop\n        /* \"#utility.yul\":9200:9293   */\n      tag_263\n        /* \"#utility.yul\":9289:9292   */\n      dup3\n        /* \"#utility.yul\":9200:9293   */\n      tag_181\n      jump\t// in\n    tag_263:\n        /* \"#utility.yul\":9318:9320   */\n      0x40\n        /* \"#utility.yul\":9313:9316   */\n      dup3\n        /* \"#utility.yul\":9309:9321   */\n      add\n        /* \"#utility.yul\":9302:9321   */\n      swap1\n      pop\n        /* \"#utility.yul\":8961:9327   */\n      swap2\n      swap1\n      pop\n      jump\t// out\n        /* \"#utility.yul\":9333:9862   */\n    tag_140:\n        /* \"#utility.yul\":9527:9531   */\n      0x00\n        /* \"#utility.yul\":9565:9567   */\n      0x40\n        /* \"#utility.yul\":9554:9563   */\n      dup3\n        /* \"#utility.yul\":9550:9568   */\n      add\n        /* \"#utility.yul\":9542:9568   */\n      swap1\n      pop\n        /* \"#utility.yul\":9578:9649   */\n      tag_265\n        /* \"#utility.yul\":9646:9647   */\n      0x00\n        /* \"#utility.yul\":9635:9644   */\n      dup4\n        /* \"#utility.yul\":9631:9648   */\n      add\n        /* \"#utility.yul\":9622:9628   */\n      dup5\n        /* \"#utility.yul\":9578:9649   */\n      tag_158\n      jump\t// in\n    tag_265:\n        /* \"#utility.yul\":9696:9705   */\n      dup2\n        /* \"#utility.yul\":9690:9694   */\n      dup2\n        /* \"#utility.yul\":9686:9706   */\n      sub\n        /* \"#utility.yul\":9681:9683   */\n      0x20\n        /* \"#utility.yul\":9670:9679   */\n      dup4\n        /* \"#utility.yul\":9666:9684   */\n      add\n        /* \"#utility.yul\":9659:9707   */\n      mstore\n        /* \"#utility.yul\":9724:9855   */\n      tag_266\n        /* \"#utility.yul\":9850:9854   */\n      dup2\n        /* \"#utility.yul\":9724:9855   */\n      tag_182\n      jump\t// in\n    tag_266:\n        /* \"#utility.yul\":9716:9855   */\n      swap1\n      pop\n        /* \"#utility.yul\":9333:9862   */\n      swap3\n      swap2\n      pop\n      pop\n      jump\t// out\n        /* \"#utility.yul\":9868:10048   */\n    tag_145:\n        /* \"#utility.yul\":9916:9993   */\n      0x4e487b7100000000000000000000000000000000000000000000000000000000\n        /* \"#utility.yul\":9913:9914   */\n      0x00\n        /* \"#utility.yul\":9906:9994   */\n      mstore\n        /* \"#utility.yul\":10013:10017   */\n      0x31\n        /* \"#utility.yul\":10010:10011   */\n      0x04\n        /* \"#utility.yul\":10003:10018   */\n      mstore\n        /* \"#utility.yul\":10037:10041   */\n      0x24\n        /* \"#utility.yul\":10034:10035   */\n      0x00\n        /* \"#utility.yul\":10027:10042   */\n      revert\n        /* \"#utility.yul\":10054:10245   */\n    tag_149:\n        /* \"#utility.yul\":10094:10097   */\n      0x00\n        /* \"#utility.yul\":10113:10133   */\n      tag_269\n        /* \"#utility.yul\":10131:10132   */\n      dup3\n        /* \"#utility.yul\":10113:10133   */\n      tag_157\n      jump\t// in\n    tag_269:\n        /* \"#utility.yul\":10108:10133   */\n      swap2\n      pop\n        /* \"#utility.yul\":10147:10167   */\n      tag_270\n        /* \"#utility.yul\":10165:10166   */\n      dup4\n        /* \"#utility.yul\":10147:10167   */\n      tag_157\n      jump\t// in\n    tag_270:\n        /* \"#utility.yul\":10142:10167   */\n      swap3\n      pop\n        /* \"#utility.yul\":10190:10191   */\n      dup3\n        /* \"#utility.yul\":10187:10188   */\n      dup3\n        /* \"#utility.yul\":10183:10192   */\n      add\n        /* \"#utility.yul\":10176:10192   */\n      swap1\n      pop\n        /* \"#utility.yul\":10211:10214   */\n      dup1\n        /* \"#utility.yul\":10208:10209   */\n      dup3\n        /* \"#utility.yul\":10205:10215   */\n      gt\n        /* \"#utility.yul\":10202:10238   */\n      iszero\n      tag_271\n      jumpi\n        /* \"#utility.yul\":10218:10236   */\n      tag_272\n      tag_180\n      jump\t// in\n    tag_272:\n        /* \"#utility.yul\":10202:10238   */\n    tag_271:\n        /* \"#utility.yul\":10054:10245   */\n      swap3\n      swap2\n      pop\n      pop\n      jump\t// out\n        /* \"#utility.yul\":10251:10431   */\n    tag_155:\n        /* \"#utility.yul\":10299:10376   */\n      0x4e487b7100000000000000000000000000000000000000000000000000000000\n        /* \"#utility.yul\":10296:10297   */\n      0x00\n        /* \"#utility.yul\":10289:10377   */\n      mstore\n        /* \"#utility.yul\":10396:10400   */\n      0x32\n        /* \"#utility.yul\":10393:10394   */\n      0x04\n        /* \"#utility.yul\":10386:10401   */\n      mstore\n        /* \"#utility.yul\":10420:10424   */\n      0x24\n        /* \"#utility.yul\":10417:10418   */\n      0x00\n        /* \"#utility.yul\":10410:10425   */\n      revert\n\n    auxdata: 0xa2646970667358221220539e973f297b98488db49369dcc4870356d6e158577183dfdde933ca3da07c2b64736f6c634300081e0033\n}\n",
				"bytecode": {
					"linkReferences": {},
					"object": "6080604052348015600e575f5ffd5b50610e308061001c5f395ff3fe608060405234801561000f575f5ffd5b50600436106100e8575f3560e01c806396dd1de11161008a578063d0ec61bd11610064578063d0ec61bd146101b0578063e17057a1146101ba578063f2f7cca4146101c4578063f3391fde146101f4576100e8565b806396dd1de114610158578063a483021a14610176578063cd8f90c2146101a6576100e8565b8063727517f3116100c6578063727517f31461011e5780637db40b91146101285780637f7137041461013257806389fec8041461013c576100e8565b80630849cc99146100ec57806317a6d5af1461010a578063622e254214610114575b5f5ffd5b6100f46101fe565b60405161010191906108b8565b60405180910390f35b610112610209565b005b61011c61021d565b005b6101266102fc565b005b6101306103c7565b005b61013a610492565b005b610156600480360381019061015191906108ff565b61055e565b005b610160610586565b60405161016d91906108b8565b60405180910390f35b610190600480360381019061018b91906108ff565b6105a3565b60405161019d919061099a565b60405180910390f35b6101ae61073c565b005b6101b8610807565b005b6101c261082d565b005b6101de60048036038101906101d991906108ff565b610862565b6040516101eb91906108b8565b60405180910390f35b6101fc610881565b005b5f5f80549050905090565b600260011461021b5761021a6109ba565b5b565b3073ffffffffffffffffffffffffffffffffffffffff166396dd1de16040518163ffffffff1660e01b8152600401602060405180830381865afa92505050801561028557506040513d601f19601f8201168201806040525081019061028291906109fb565b60015b6102f857610291610a32565b634e487b71036102eb576102a3610a51565b906102ae57506102eb565b7ffa67a0327c0fe7ba3a1d79f037303399c7149da91b4d24df595e0a874bcf9e9c816040516102dd9190610ab9565b60405180910390a1506102f3565b3d5f5f3e3d5ffd5b6102fa565b505b565b3073ffffffffffffffffffffffffffffffffffffffff166317a6d5af6040518163ffffffff1660e01b81526004015f6040518083038186803b158015610340575f5ffd5b505afa925050508015610351575060015b6103c45761035d610a32565b634e487b71036103b75761036f610a51565b9061037a57506103b7565b7ffa67a0327c0fe7ba3a1d79f037303399c7149da91b4d24df595e0a874bcf9e9c816040516103a99190610b2f565b60405180910390a1506103bf565b3d5f5f3e3d5ffd5b6103c5565b5b565b3073ffffffffffffffffffffffffffffffffffffffff1663e17057a16040518163ffffffff1660e01b81526004015f6040518083038186803b15801561040b575f5ffd5b505afa92505050801561041c575060015b61048f57610428610a32565b634e487b71036104825761043a610a51565b906104455750610482565b7ffa67a0327c0fe7ba3a1d79f037303399c7149da91b4d24df595e0a874bcf9e9c816040516104749190610ba5565b60405180910390a15061048a565b3d5f5f3e3d5ffd5b610490565b5b565b3073ffffffffffffffffffffffffffffffffffffffff1663d0ec61bd6040518163ffffffff1660e01b81526004015f604051808303815f87803b1580156104d7575f5ffd5b505af19250505080156104e8575060015b61055b576104f4610a32565b634e487b710361054e57610506610a51565b90610511575061054e565b7ffa67a0327c0fe7ba3a1d79f037303399c7149da91b4d24df595e0a874bcf9e9c816040516105409190610c1b565b60405180910390a150610556565b3d5f5f3e3d5ffd5b61055c565b5b565b5f81908060018154018082558091505060019003905f5260205f20015f909190919091505550565b5f5f600a90505f5f9050808261059c9190610ca1565b9250505090565b6060600182036105ea576040518060400160405280601081526020017f417373657274696f6e206661696c6564000000000000000000000000000000008152509050610737565b6011820361062f576040518060400160405280601d81526020017f41726974686d65746963206f766572666c6f772f756e646572666c6f770000008152509050610737565b60128203610674576040518060400160405280601a81526020017f4469766973696f6e206f72206d6f64756c6f206279207a65726f0000000000008152509050610737565b603182036106b9576040518060400160405280601481526020017f506f702066726f6d20656d7074792061727261790000000000000000000000008152509050610737565b603282036106fe576040518060400160405280601a81526020017f417272617920616363657373206f7574206f6620626f756e64730000000000008152509050610737565b6040518060400160405280601281526020017f556e6b6e6f776e2070616e696320636f6465000000000000000000000000000081525090505b919050565b3073ffffffffffffffffffffffffffffffffffffffff1663f3391fde6040518163ffffffff1660e01b81526004015f6040518083038186803b158015610780575f5ffd5b505afa925050508015610791575060015b6108045761079d610a32565b634e487b71036107f7576107af610a51565b906107ba57506107f7565b7ffa67a0327c0fe7ba3a1d79f037303399c7149da91b4d24df595e0a874bcf9e9c816040516107e99190610d41565b60405180910390a1506107ff565b3d5f5f3e3d5ffd5b610805565b5b565b5f80548061081857610817610d6d565b5b600190038181905f5260205f20015f90559055565b5f7fffffffffffffffffffffffffffffffffffffffffffffffffffffffffffffffff905060018161085e9190610d9a565b5050565b5f8181548110610870575f80fd5b905f5260205f20015f915090505481565b5f60648154811061089557610894610dcd565b5b905f5260205f205050565b5f819050919050565b6108b2816108a0565b82525050565b5f6020820190506108cb5f8301846108a9565b92915050565b5f5ffd5b6108de816108a0565b81146108e8575f5ffd5b50565b5f813590506108f9816108d5565b92915050565b5f60208284031215610914576109136108d1565b5b5f610921848285016108eb565b91505092915050565b5f81519050919050565b5f82825260208201905092915050565b8281835e5f83830152505050565b5f601f19601f8301169050919050565b5f61096c8261092a565b6109768185610934565b9350610986818560208601610944565b61098f81610952565b840191505092915050565b5f6020820190508181035f8301526109b28184610962565b905092915050565b7f4e487b71000000000000000000000000000000000000000000000000000000005f52600160045260245ffd5b5f815190506109f5816108d5565b92915050565b5f60208284031215610a1057610a0f6108d1565b5b5f610a1d848285016109e7565b91505092915050565b5f8160e01c9050919050565b5f60033d1115610a4e5760045f5f3e610a4b5f51610a26565b90505b90565b5f5f60233d1115610a6b57602060045f3e600191505f5190505b9091565b7f4469766973696f6e206279207a65726f206465746563746564000000000000005f82015250565b5f610aa3601983610934565b9150610aae82610a6f565b602082019050919050565b5f604082019050610acc5f8301846108a9565b8181036020830152610add81610a97565b905092915050565b7f417373657274696f6e206661696c6564206465746563746564000000000000005f82015250565b5f610b19601983610934565b9150610b2482610ae5565b602082019050919050565b5f604082019050610b425f8301846108a9565b8181036020830152610b5381610b0d565b905092915050565b7f41726974686d65746963206f766572666c6f77206465746563746564000000005f82015250565b5f610b8f601c83610934565b9150610b9a82610b5b565b602082019050919050565b5f604082019050610bb85f8301846108a9565b8181036020830152610bc981610b83565b905092915050565b7f506f702066726f6d20656d7074792061727261792064657465637465640000005f82015250565b5f610c05601d83610934565b9150610c1082610bd1565b602082019050919050565b5f604082019050610c2e5f8301846108a9565b8181036020830152610c3f81610bf9565b905092915050565b7f4e487b71000000000000000000000000000000000000000000000000000000005f52601260045260245ffd5b7f4e487b71000000000000000000000000000000000000000000000000000000005f52601160045260245ffd5b5f610cab826108a0565b9150610cb6836108a0565b925082610cc657610cc5610c47565b5b828204905092915050565b7f417272617920616363657373206f7574206f6620626f756e64732064657465635f8201527f7465640000000000000000000000000000000000000000000000000000000000602082015250565b5f610d2b602383610934565b9150610d3682610cd1565b604082019050919050565b5f604082019050610d545f8301846108a9565b8181036020830152610d6581610d1f565b905092915050565b7f4e487b71000000000000000000000000000000000000000000000000000000005f52603160045260245ffd5b5f610da4826108a0565b9150610daf836108a0565b9250828201905080821115610dc757610dc6610c74565b5b92915050565b7f4e487b71000000000000000000000000000000000000000000000000000000005f52603260045260245ffdfea2646970667358221220539e973f297b98488db49369dcc4870356d6e158577183dfdde933ca3da07c2b64736f6c634300081e0033",
					"opcodes": "PUSH1 0x80 PUSH1 0x40 MSTORE CALLVALUE DUP1 ISZERO PUSH1 0xE JUMPI PUSH0 PUSH0 REVERT JUMPDEST POP PUSH2 0xE30 DUP1 PUSH2 0x1C PUSH0 CODECOPY PUSH0 RETURN INVALID PUSH1 0x80 PUSH1 0x40 MSTORE CALLVALUE DUP1 ISZERO PUSH2 0xF JUMPI PUSH0 PUSH0 REVERT JUMPDEST POP PUSH1 0x4 CALLDATASIZE LT PUSH2 0xE8 JUMPI PUSH0 CALLDATALOAD PUSH1 0xE0 SHR DUP1 PUSH4 0x96DD1DE1 GT PUSH2 0x8A JUMPI DUP1 PUSH4 0xD0EC61BD GT PUSH2 0x64 JUMPI DUP1 PUSH4 0xD0EC61BD EQ PUSH2 0x1B0 JUMPI DUP1 PUSH4 0xE17057A1 EQ PUSH2 0x1BA JUMPI DUP1 PUSH4 0xF2F7CCA4 EQ PUSH2 0x1C4 JUMPI DUP1 PUSH4 0xF3391FDE EQ PUSH2 0x1F4 JUMPI PUSH2 0xE8 JUMP JUMPDEST DUP1 PUSH4 0x96DD1DE1 EQ PUSH2 0x158 JUMPI DUP1 PUSH4 0xA483021A EQ PUSH2 0x176 JUMPI DUP1 PUSH4 0xCD8F90C2 EQ PUSH2 0x1A6 JUMPI PUSH2 0xE8 JUMP JUMPDEST DUP1 PUSH4 0x727517F3 GT PUSH2 0xC6 JUMPI DUP1 PUSH4 0x727517F3 EQ PUSH2 0x11E JUMPI DUP1 PUSH4 0x7DB40B91 EQ PUSH2 0x128 JUMPI DUP1 PUSH4 0x7F713704 EQ PUSH2 0x132 JUMPI DUP1 PUSH4 0x89FEC804 EQ PUSH2 0x13C JUMPI PUSH2 0xE8 JUMP JUMPDEST DUP1 PUSH4 0x849CC99 EQ PUSH2 0xEC JUMPI DUP1 PUSH4 0x17A6D5AF EQ PUSH2 0x10A JUMPI DUP1 PUSH4 0x622E2542 EQ PUSH2 0x114 JUMPI JUMPDEST PUSH0 PUSH0 REVERT JUMPDEST PUSH2 0xF4 PUSH2 0x1FE JUMP JUMPDEST PUSH1 0x40 MLOAD PUSH2 0x101 SWAP2 SWAP1 PUSH2 0x8B8 JUMP JUMPDEST PUSH1 0x40 MLOAD DUP1 SWAP2 SUB SWAP1 RETURN JUMPDEST PUSH2 0x112 PUSH2 0x209 JUMP JUMPDEST STOP JUMPDEST PUSH2 0x11C PUSH2 0x21D JUMP JUMPDEST STOP JUMPDEST PUSH2 0x126 PUSH2 0x2FC JUMP JUMPDEST STOP JUMPDEST PUSH2 0x130 PUSH2 0x3C7 JUMP JUMPDEST STOP JUMPDEST PUSH2 0x13A PUSH2 0x492 JUMP JUMPDEST STOP JUMPDEST PUSH2 0x156 PUSH1 0x4 DUP1 CALLDATASIZE SUB DUP2 ADD SWAP1 PUSH2 0x151 SWAP2 SWAP1 PUSH2 0x8FF JUMP JUMPDEST PUSH2 0x55E JUMP JUMPDEST STOP JUMPDEST PUSH2 0x160 PUSH2 0x586 JUMP JUMPDEST PUSH1 0x40 MLOAD PUSH2 0x16D SWAP2 SWAP1 PUSH2 0x8B8 JUMP JUMPDEST PUSH1 0x40 MLOAD DUP1 SWAP2 SUB SWAP1 RETURN JUMPDEST PUSH2 0x190 PUSH1 0x4 DUP1 CALLDATASIZE SUB DUP2 ADD SWAP1 PUSH2 0x18B SWAP2 SWAP1 PUSH2 0x8FF JUMP JUMPDEST PUSH2 0x5A3 JUMP JUMPDEST PUSH1 0x40 MLOAD PUSH2 0x19D SWAP2 SWAP1 PUSH2 0x99A JUMP JUMPDEST PUSH1 0x40 MLOAD DUP1 SWAP2 SUB SWAP1 RETURN JUMPDEST PUSH2 0x1AE PUSH2 0x73C JUMP JUMPDEST STOP JUMPDEST PUSH2 0x1B8 PUSH2 0x807 JUMP JUMPDEST STOP JUMPDEST PUSH2 0x1C2 PUSH2 0x82D JUMP JUMPDEST STOP JUMPDEST PUSH2 0x1DE PUSH1 0x4 DUP1 CALLDATASIZE SUB DUP2 ADD SWAP1 PUSH2 0x1D9 SWAP2 SWAP1 PUSH2 0x8FF JUMP JUMPDEST PUSH2 0x862 JUMP JUMPDEST PUSH1 0x40 MLOAD PUSH2 0x1EB SWAP2 SWAP1 PUSH2 0x8B8 JUMP JUMPDEST PUSH1 0x40 MLOAD DUP1 SWAP2 SUB SWAP1 RETURN JUMPDEST PUSH2 0x1FC PUSH2 0x881 JUMP JUMPDEST STOP JUMPDEST PUSH0 PUSH0 DUP1 SLOAD SWAP1 POP SWAP1 POP SWAP1 JUMP JUMPDEST PUSH1 0x2 PUSH1 0x1 EQ PUSH2 0x21B JUMPI PUSH2 0x21A PUSH2 0x9BA JUMP JUMPDEST JUMPDEST JUMP JUMPDEST ADDRESS PUSH20 0xFFFFFFFFFFFFFFFFFFFFFFFFFFFFFFFFFFFFFFFF AND PUSH4 0x96DD1DE1 PUSH1 0x40 MLOAD DUP2 PUSH4 0xFFFFFFFF AND PUSH1 0xE0 SHL DUP2 MSTORE PUSH1 0x4 ADD PUSH1 0x20 PUSH1 0x40 MLOAD DUP1 DUP4 SUB DUP2 DUP7 GAS STATICCALL SWAP3 POP POP POP DUP1 ISZERO PUSH2 0x285 JUMPI POP PUSH1 0x40 MLOAD RETURNDATASIZE PUSH1 0x1F NOT PUSH1 0x1F DUP3 ADD AND DUP3 ADD DUP1 PUSH1 0x40 MSTORE POP DUP2 ADD SWAP1 PUSH2 0x282 SWAP2 SWAP1 PUSH2 0x9FB JUMP JUMPDEST PUSH1 0x1 JUMPDEST PUSH2 0x2F8 JUMPI PUSH2 0x291 PUSH2 0xA32 JUMP JUMPDEST PUSH4 0x4E487B71 SUB PUSH2 0x2EB JUMPI PUSH2 0x2A3 PUSH2 0xA51 JUMP JUMPDEST SWAP1 PUSH2 0x2AE JUMPI POP PUSH2 0x2EB JUMP JUMPDEST PUSH32 0xFA67A0327C0FE7BA3A1D79F037303399C7149DA91B4D24DF595E0A874BCF9E9C DUP2 PUSH1 0x40 MLOAD PUSH2 0x2DD SWAP2 SWAP1 PUSH2 0xAB9 JUMP JUMPDEST PUSH1 0x40 MLOAD DUP1 SWAP2 SUB SWAP1 LOG1 POP PUSH2 0x2F3 JUMP JUMPDEST RETURNDATASIZE PUSH0 PUSH0 RETURNDATACOPY RETURNDATASIZE PUSH0 REVERT JUMPDEST PUSH2 0x2FA JUMP JUMPDEST POP JUMPDEST JUMP JUMPDEST ADDRESS PUSH20 0xFFFFFFFFFFFFFFFFFFFFFFFFFFFFFFFFFFFFFFFF AND PUSH4 0x17A6D5AF PUSH1 0x40 MLOAD DUP2 PUSH4 0xFFFFFFFF AND PUSH1 0xE0 SHL DUP2 MSTORE PUSH1 0x4 ADD PUSH0 PUSH1 0x40 MLOAD DUP1 DUP4 SUB DUP2 DUP7 DUP1 EXTCODESIZE ISZERO DUP1 ISZERO PUSH2 0x340 JUMPI PUSH0 PUSH0 REVERT JUMPDEST POP GAS STATICCALL SWAP3 POP POP POP DUP1 ISZERO PUSH2 0x351 JUMPI POP PUSH1 0x1 JUMPDEST PUSH2 0x3C4 JUMPI PUSH2 0x35D PUSH2 0xA32 JUMP JUMPDEST PUSH4 0x4E487B71 SUB PUSH2 0x3B7 JUMPI PUSH2 0x36F PUSH2 0xA51 JUMP JUMPDEST SWAP1 PUSH2 0x37A JUMPI POP PUSH2 0x3B7 JUMP JUMPDEST PUSH32 0xFA67A0327C0FE7BA3A1D79F037303399C7149DA91B4D24DF595E0A874BCF9E9C DUP2 PUSH1 0x40 MLOAD PUSH2 0x3A9 SWAP2 SWAP1 PUSH2 0xB2F JUMP JUMPDEST PUSH1 0x40 MLOAD DUP1 SWAP2 SUB SWAP1 LOG1 POP PUSH2 0x3BF JUMP JUMPDEST RETURNDATASIZE PUSH0 PUSH0 RETURNDATACOPY RETURNDATASIZE PUSH0 REVERT JUMPDEST PUSH2 0x3C5 JUMP JUMPDEST JUMPDEST JUMP JUMPDEST ADDRESS PUSH20 0xFFFFFFFFFFFFFFFFFFFFFFFFFFFFFFFFFFFFFFFF AND PUSH4 0xE17057A1 PUSH1 0x40 MLOAD DUP2 PUSH4 0xFFFFFFFF AND PUSH1 0xE0 SHL DUP2 MSTORE PUSH1 0x4 ADD PUSH0 PUSH1 0x40 MLOAD DUP1 DUP4 SUB DUP2 DUP7 DUP1 EXTCODESIZE ISZERO DUP1 ISZERO PUSH2 0x40B JUMPI PUSH0 PUSH0 REVERT JUMPDEST POP GAS STATICCALL SWAP3 POP POP POP DUP1 ISZERO PUSH2 0x41C JUMPI POP PUSH1 0x1 JUMPDEST PUSH2 0x48F JUMPI PUSH2 0x428 PUSH2 0xA32 JUMP JUMPDEST PUSH4 0x4E487B71 SUB PUSH2 0x482 JUMPI PUSH2 0x43A PUSH2 0xA51 JUMP JUMPDEST SWAP1 PUSH2 0x445 JUMPI POP PUSH2 0x482 JUMP JUMPDEST PUSH32 0xFA67A0327C0FE7BA3A1D79F037303399C7149DA91B4D24DF595E0A874BCF9E9C DUP2 PUSH1 0x40 MLOAD PUSH2 0x474 SWAP2 SWAP1 PUSH2 0xBA5 JUMP JUMPDEST PUSH1 0x40 MLOAD DUP1 SWAP2 SUB SWAP1 LOG1 POP PUSH2 0x48A JUMP JUMPDEST RETURNDATASIZE PUSH0 PUSH0 RETURNDATACOPY RETURNDATASIZE PUSH0 REVERT JUMPDEST PUSH2 0x490 JUMP JUMPDEST JUMPDEST JUMP JUMPDEST ADDRESS PUSH20 0xFFFFFFFFFFFFFFFFFFFFFFFFFFFFFFFFFFFFFFFF AND PUSH4 0xD0EC61BD PUSH1 0x40 MLOAD DUP2 PUSH4 0xFFFFFFFF AND PUSH1 0xE0 SHL DUP2 MSTORE PUSH1 0x4 ADD PUSH0 PUSH1 0x40 MLOAD DUP1 DUP4 SUB DUP2 PUSH0 DUP8 DUP1 EXTCODESIZE ISZERO DUP1 ISZERO PUSH2 0x4D7 JUMPI PUSH0 PUSH0 REVERT JUMPDEST POP GAS CALL SWAP3 POP POP POP DUP1 ISZERO PUSH2 0x4E8 JUMPI POP PUSH1 0x1 JUMPDEST PUSH2 0x55B JUMPI PUSH2 0x4F4 PUSH2 0xA32 JUMP JUMPDEST PUSH4 0x4E487B71 SUB PUSH2 0x54E JUMPI PUSH2 0x506 PUSH2 0xA51 JUMP JUMPDEST SWAP1 PUSH2 0x511 JUMPI POP PUSH2 0x54E JUMP JUMPDEST PUSH32 0xFA67A0327C0FE7BA3A1D79F037303399C7149DA91B4D24DF595E0A874BCF9E9C DUP2 PUSH1 0x40 MLOAD PUSH2 0x540 SWAP2 SWAP1 PUSH2 0xC1B JUMP JUMPDEST PUSH1 0x40 MLOAD DUP1 SWAP2 SUB SWAP1 LOG1 POP PUSH2 0x556 JUMP JUMPDEST RETURNDATASIZE PUSH0 PUSH0 RETURNDATACOPY RETURNDATASIZE PUSH0 REVERT JUMPDEST PUSH2 0x55C JUMP JUMPDEST JUMPDEST JUMP JUMPDEST PUSH0 DUP2 SWAP1 DUP1 PUSH1 0x1 DUP2 SLOAD ADD DUP1 DUP3 SSTORE DUP1 SWAP2 POP POP PUSH1 0x1 SWAP1 SUB SWAP1 PUSH0 MSTORE PUSH1 0x20 PUSH0 KECCAK256 ADD PUSH0 SWAP1 SWAP2 SWAP1 SWAP2 SWAP1 SWAP2 POP SSTORE POP JUMP JUMPDEST PUSH0 PUSH0 PUSH1 0xA SWAP1 POP PUSH0 PUSH0 SWAP1 POP DUP1 DUP3 PUSH2 0x59C SWAP2 SWAP1 PUSH2 0xCA1 JUMP JUMPDEST SWAP3 POP POP POP SWAP1 JUMP JUMPDEST PUSH1 0x60 PUSH1 0x1 DUP3 SUB PUSH2 0x5EA JUMPI PUSH1 0x40 MLOAD DUP1 PUSH1 0x40 ADD PUSH1 0x40 MSTORE DUP1 PUSH1 0x10 DUP2 MSTORE PUSH1 0x20 ADD PUSH32 0x417373657274696F6E206661696C656400000000000000000000000000000000 DUP2 MSTORE POP SWAP1 POP PUSH2 0x737 JUMP JUMPDEST PUSH1 0x11 DUP3 SUB PUSH2 0x62F JUMPI PUSH1 0x40 MLOAD DUP1 PUSH1 0x40 ADD PUSH1 0x40 MSTORE DUP1 PUSH1 0x1D DUP2 MSTORE PUSH1 0x20 ADD PUSH32 0x41726974686D65746963206F766572666C6F772F756E646572666C6F77000000 DUP2 MSTORE POP SWAP1 POP PUSH2 0x737 JUMP JUMPDEST PUSH1 0x12 DUP3 SUB PUSH2 0x674 JUMPI PUSH1 0x40 MLOAD DUP1 PUSH1 0x40 ADD PUSH1 0x40 MSTORE DUP1 PUSH1 0x1A DUP2 MSTORE PUSH1 0x20 ADD PUSH32 0x4469766973696F6E206F72206D6F64756C6F206279207A65726F000000000000 DUP2 MSTORE POP SWAP1 POP PUSH2 0x737 JUMP JUMPDEST PUSH1 0x31 DUP3 SUB PUSH2 0x6B9 JUMPI PUSH1 0x40 MLOAD DUP1 PUSH1 0x40 ADD PUSH1 0x40 MSTORE DUP1 PUSH1 0x14 DUP2 MSTORE PUSH1 0x20 ADD PUSH32 0x506F702066726F6D20656D707479206172726179000000000000000000000000 DUP2 MSTORE POP SWAP1 POP PUSH2 0x737 JUMP JUMPDEST PUSH1 0x32 DUP3 SUB PUSH2 0x6FE JUMPI PUSH1 0x40 MLOAD DUP1 PUSH1 0x40 ADD PUSH1 0x40 MSTORE DUP1 PUSH1 0x1A DUP2 MSTORE PUSH1 0x20 ADD PUSH32 0x417272617920616363657373206F7574206F6620626F756E6473000000000000 DUP2 MSTORE POP SWAP1 POP PUSH2 0x737 JUMP JUMPDEST PUSH1 0x40 MLOAD DUP1 PUSH1 0x40 ADD PUSH1 0x40 MSTORE DUP1 PUSH1 0x12 DUP2 MSTORE PUSH1 0x20 ADD PUSH32 0x556E6B6E6F776E2070616E696320636F64650000000000000000000000000000 DUP2 MSTORE POP SWAP1 POP JUMPDEST SWAP2 SWAP1 POP JUMP JUMPDEST ADDRESS PUSH20 0xFFFFFFFFFFFFFFFFFFFFFFFFFFFFFFFFFFFFFFFF AND PUSH4 0xF3391FDE PUSH1 0x40 MLOAD DUP2 PUSH4 0xFFFFFFFF AND PUSH1 0xE0 SHL DUP2 MSTORE PUSH1 0x4 ADD PUSH0 PUSH1 0x40 MLOAD DUP1 DUP4 SUB DUP2 DUP7 DUP1 EXTCODESIZE ISZERO DUP1 ISZERO PUSH2 0x780 JUMPI PUSH0 PUSH0 REVERT JUMPDEST POP GAS STATICCALL SWAP3 POP POP POP DUP1 ISZERO PUSH2 0x791 JUMPI POP PUSH1 0x1 JUMPDEST PUSH2 0x804 JUMPI PUSH2 0x79D PUSH2 0xA32 JUMP JUMPDEST PUSH4 0x4E487B71 SUB PUSH2 0x7F7 JUMPI PUSH2 0x7AF PUSH2 0xA51 JUMP JUMPDEST SWAP1 PUSH2 0x7BA JUMPI POP PUSH2 0x7F7 JUMP JUMPDEST PUSH32 0xFA67A0327C0FE7BA3A1D79F037303399C7149DA91B4D24DF595E0A874BCF9E9C DUP2 PUSH1 0x40 MLOAD PUSH2 0x7E9 SWAP2 SWAP1 PUSH2 0xD41 JUMP JUMPDEST PUSH1 0x40 MLOAD DUP1 SWAP2 SUB SWAP1 LOG1 POP PUSH2 0x7FF JUMP JUMPDEST RETURNDATASIZE PUSH0 PUSH0 RETURNDATACOPY RETURNDATASIZE PUSH0 REVERT JUMPDEST PUSH2 0x805 JUMP JUMPDEST JUMPDEST JUMP JUMPDEST PUSH0 DUP1 SLOAD DUP1 PUSH2 0x818 JUMPI PUSH2 0x817 PUSH2 0xD6D JUMP JUMPDEST JUMPDEST PUSH1 0x1 SWAP1 SUB DUP2 DUP2 SWAP1 PUSH0 MSTORE PUSH1 0x20 PUSH0 KECCAK256 ADD PUSH0 SWAP1 SSTORE SWAP1 SSTORE JUMP JUMPDEST PUSH0 PUSH32 0xFFFFFFFFFFFFFFFFFFFFFFFFFFFFFFFFFFFFFFFFFFFFFFFFFFFFFFFFFFFFFFFF SWAP1 POP PUSH1 0x1 DUP2 PUSH2 0x85E SWAP2 SWAP1 PUSH2 0xD9A JUMP JUMPDEST POP POP JUMP JUMPDEST PUSH0 DUP2 DUP2 SLOAD DUP2 LT PUSH2 0x870 JUMPI PUSH0 DUP1 REVERT JUMPDEST SWAP1 PUSH0 MSTORE PUSH1 0x20 PUSH0 KECCAK256 ADD PUSH0 SWAP2 POP SWAP1 POP SLOAD DUP2 JUMP JUMPDEST PUSH0 PUSH1 0x64 DUP2 SLOAD DUP2 LT PUSH2 0x895 JUMPI PUSH2 0x894 PUSH2 0xDCD JUMP JUMPDEST JUMPDEST SWAP1 PUSH0 MSTORE PUSH1 0x20 PUSH0 KECCAK256 POP POP JUMP JUMPDEST PUSH0 DUP2 SWAP1 POP SWAP2 SWAP1 POP JUMP JUMPDEST PUSH2 0x8B2 DUP2 PUSH2 0x8A0 JUMP JUMPDEST DUP3 MSTORE POP POP JUMP JUMPDEST PUSH0 PUSH1 0x20 DUP3 ADD SWAP1 POP PUSH2 0x8CB PUSH0 DUP4 ADD DUP5 PUSH2 0x8A9 JUMP JUMPDEST SWAP3 SWAP2 POP POP JUMP JUMPDEST PUSH0 PUSH0 REVERT JUMPDEST PUSH2 0x8DE DUP2 PUSH2 0x8A0 JUMP JUMPDEST DUP2 EQ PUSH2 0x8E8 JUMPI PUSH0 PUSH0 REVERT JUMPDEST POP JUMP JUMPDEST PUSH0 DUP2 CALLDATALOAD SWAP1 POP PUSH2 0x8F9 DUP2 PUSH2 0x8D5 JUMP JUMPDEST SWAP3 SWAP2 POP POP JUMP JUMPDEST PUSH0 PUSH1 0x20 DUP3 DUP5 SUB SLT ISZERO PUSH2 0x914 JUMPI PUSH2 0x913 PUSH2 0x8D1 JUMP JUMPDEST JUMPDEST PUSH0 PUSH2 0x921 DUP5 DUP3 DUP6 ADD PUSH2 0x8EB JUMP JUMPDEST SWAP2 POP POP SWAP3 SWAP2 POP POP JUMP JUMPDEST PUSH0 DUP2 MLOAD SWAP1 POP SWAP2 SWAP1 POP JUMP JUMPDEST PUSH0 DUP3 DUP3 MSTORE PUSH1 0x20 DUP3 ADD SWAP1 POP SWAP3 SWAP2 POP POP JUMP JUMPDEST DUP3 DUP2 DUP4 MCOPY PUSH0 DUP4 DUP4 ADD MSTORE POP POP POP JUMP JUMPDEST PUSH0 PUSH1 0x1F NOT PUSH1 0x1F DUP4 ADD AND SWAP1 POP SWAP2 SWAP1 POP JUMP JUMPDEST PUSH0 PUSH2 0x96C DUP3 PUSH2 0x92A JUMP JUMPDEST PUSH2 0x976 DUP2 DUP6 PUSH2 0x934 JUMP JUMPDEST SWAP4 POP PUSH2 0x986 DUP2 DUP6 PUSH1 0x20 DUP7 ADD PUSH2 0x944 JUMP JUMPDEST PUSH2 0x98F DUP2 PUSH2 0x952 JUMP JUMPDEST DUP5 ADD SWAP2 POP POP SWAP3 SWAP2 POP POP JUMP JUMPDEST PUSH0 PUSH1 0x20 DUP3 ADD SWAP1 POP DUP2 DUP2 SUB PUSH0 DUP4 ADD MSTORE PUSH2 0x9B2 DUP2 DUP5 PUSH2 0x962 JUMP JUMPDEST SWAP1 POP SWAP3 SWAP2 POP POP JUMP JUMPDEST PUSH32 0x4E487B7100000000000000000000000000000000000000000000000000000000 PUSH0 MSTORE PUSH1 0x1 PUSH1 0x4 MSTORE PUSH1 0x24 PUSH0 REVERT JUMPDEST PUSH0 DUP2 MLOAD SWAP1 POP PUSH2 0x9F5 DUP2 PUSH2 0x8D5 JUMP JUMPDEST SWAP3 SWAP2 POP POP JUMP JUMPDEST PUSH0 PUSH1 0x20 DUP3 DUP5 SUB SLT ISZERO PUSH2 0xA10 JUMPI PUSH2 0xA0F PUSH2 0x8D1 JUMP JUMPDEST JUMPDEST PUSH0 PUSH2 0xA1D DUP5 DUP3 DUP6 ADD PUSH2 0x9E7 JUMP JUMPDEST SWAP2 POP POP SWAP3 SWAP2 POP POP JUMP JUMPDEST PUSH0 DUP2 PUSH1 0xE0 SHR SWAP1 POP SWAP2 SWAP1 POP JUMP JUMPDEST PUSH0 PUSH1 0x3 RETURNDATASIZE GT ISZERO PUSH2 0xA4E JUMPI PUSH1 0x4 PUSH0 PUSH0 RETURNDATACOPY PUSH2 0xA4B PUSH0 MLOAD PUSH2 0xA26 JUMP JUMPDEST SWAP1 POP JUMPDEST SWAP1 JUMP JUMPDEST PUSH0 PUSH0 PUSH1 0x23 RETURNDATASIZE GT ISZERO PUSH2 0xA6B JUMPI PUSH1 0x20 PUSH1 0x4 PUSH0 RETURNDATACOPY PUSH1 0x1 SWAP2 POP PUSH0 MLOAD SWAP1 POP JUMPDEST SWAP1 SWAP2 JUMP JUMPDEST PUSH32 0x4469766973696F6E206279207A65726F20646574656374656400000000000000 PUSH0 DUP3 ADD MSTORE POP JUMP JUMPDEST PUSH0 PUSH2 0xAA3 PUSH1 0x19 DUP4 PUSH2 0x934 JUMP JUMPDEST SWAP2 POP PUSH2 0xAAE DUP3 PUSH2 0xA6F JUMP JUMPDEST PUSH1 0x20 DUP3 ADD SWAP1 POP SWAP2 SWAP1 POP JUMP JUMPDEST PUSH0 PUSH1 0x40 DUP3 ADD SWAP1 POP PUSH2 0xACC PUSH0 DUP4 ADD DUP5 PUSH2 0x8A9 JUMP JUMPDEST DUP2 DUP2 SUB PUSH1 0x20 DUP4 ADD MSTORE PUSH2 0xADD DUP2 PUSH2 0xA97 JUMP JUMPDEST SWAP1 POP SWAP3 SWAP2 POP POP JUMP JUMPDEST PUSH32 0x417373657274696F6E206661696C656420646574656374656400000000000000 PUSH0 DUP3 ADD MSTORE POP JUMP JUMPDEST PUSH0 PUSH2 0xB19 PUSH1 0x19 DUP4 PUSH2 0x934 JUMP JUMPDEST SWAP2 POP PUSH2 0xB24 DUP3 PUSH2 0xAE5 JUMP JUMPDEST PUSH1 0x20 DUP3 ADD SWAP1 POP SWAP2 SWAP1 POP JUMP JUMPDEST PUSH0 PUSH1 0x40 DUP3 ADD SWAP1 POP PUSH2 0xB42 PUSH0 DUP4 ADD DUP5 PUSH2 0x8A9 JUMP JUMPDEST DUP2 DUP2 SUB PUSH1 0x20 DUP4 ADD MSTORE PUSH2 0xB53 DUP2 PUSH2 0xB0D JUMP JUMPDEST SWAP1 POP SWAP3 SWAP2 POP POP JUMP JUMPDEST PUSH32 0x41726974686D65746963206F766572666C6F7720646574656374656400000000 PUSH0 DUP3 ADD MSTORE POP JUMP JUMPDEST PUSH0 PUSH2 0xB8F PUSH1 0x1C DUP4 PUSH2 0x934 JUMP JUMPDEST SWAP2 POP PUSH2 0xB9A DUP3 PUSH2 0xB5B JUMP JUMPDEST PUSH1 0x20 DUP3 ADD SWAP1 POP SWAP2 SWAP1 POP JUMP JUMPDEST PUSH0 PUSH1 0x40 DUP3 ADD SWAP1 POP PUSH2 0xBB8 PUSH0 DUP4 ADD DUP5 PUSH2 0x8A9 JUMP JUMPDEST DUP2 DUP2 SUB PUSH1 0x20 DUP4 ADD MSTORE PUSH2 0xBC9 DUP2 PUSH2 0xB83 JUMP JUMPDEST SWAP1 POP SWAP3 SWAP2 POP POP JUMP JUMPDEST PUSH32 0x506F702066726F6D20656D707479206172726179206465746563746564000000 PUSH0 DUP3 ADD MSTORE POP JUMP JUMPDEST PUSH0 PUSH2 0xC05 PUSH1 0x1D DUP4 PUSH2 0x934 JUMP JUMPDEST SWAP2 POP PUSH2 0xC10 DUP3 PUSH2 0xBD1 JUMP JUMPDEST PUSH1 0x20 DUP3 ADD SWAP1 POP SWAP2 SWAP1 POP JUMP JUMPDEST PUSH0 PUSH1 0x40 DUP3 ADD SWAP1 POP PUSH2 0xC2E PUSH0 DUP4 ADD DUP5 PUSH2 0x8A9 JUMP JUMPDEST DUP2 DUP2 SUB PUSH1 0x20 DUP4 ADD MSTORE PUSH2 0xC3F DUP2 PUSH2 0xBF9 JUMP JUMPDEST SWAP1 POP SWAP3 SWAP2 POP POP JUMP JUMPDEST PUSH32 0x4E487B7100000000000000000000000000000000000000000000000000000000 PUSH0 MSTORE PUSH1 0x12 PUSH1 0x4 MSTORE PUSH1 0x24 PUSH0 REVERT JUMPDEST PUSH32 0x4E487B7100000000000000000000000000000000000000000000000000000000 PUSH0 MSTORE PUSH1 0x11 PUSH1 0x4 MSTORE PUSH1 0x24 PUSH0 REVERT JUMPDEST PUSH0 PUSH2 0xCAB DUP3 PUSH2 0x8A0 JUMP JUMPDEST SWAP2 POP PUSH2 0xCB6 DUP4 PUSH2 0x8A0 JUMP JUMPDEST SWAP3 POP DUP3 PUSH2 0xCC6 JUMPI PUSH2 0xCC5 PUSH2 0xC47 JUMP JUMPDEST JUMPDEST DUP3 DUP3 DIV SWAP1 POP SWAP3 SWAP2 POP POP JUMP JUMPDEST PUSH32 0x417272617920616363657373206F7574206F6620626F756E6473206465746563 PUSH0 DUP3 ADD MSTORE PUSH32 0x7465640000000000000000000000000000000000000000000000000000000000 PUSH1 0x20 DUP3 ADD MSTORE POP JUMP JUMPDEST PUSH0 PUSH2 0xD2B PUSH1 0x23 DUP4 PUSH2 0x934 JUMP JUMPDEST SWAP2 POP PUSH2 0xD36 DUP3 PUSH2 0xCD1 JUMP JUMPDEST PUSH1 0x40 DUP3 ADD SWAP1 POP SWAP2 SWAP1 POP JUMP JUMPDEST PUSH0 PUSH1 0x40 DUP3 ADD SWAP1 POP PUSH2 0xD54 PUSH0 DUP4 ADD DUP5 PUSH2 0x8A9 JUMP JUMPDEST DUP2 DUP2 SUB PUSH1 0x20 DUP4 ADD MSTORE PUSH2 0xD65 DUP2 PUSH2 0xD1F JUMP JUMPDEST SWAP1 POP SWAP3 SWAP2 POP POP JUMP JUMPDEST PUSH32 0x4E487B7100000000000000000000000000000000000000000000000000000000 PUSH0 MSTORE PUSH1 0x31 PUSH1 0x4 MSTORE PUSH1 0x24 PUSH0 REVERT JUMPDEST PUSH0 PUSH2 0xDA4 DUP3 PUSH2 0x8A0 JUMP JUMPDEST SWAP2 POP PUSH2 0xDAF DUP4 PUSH2 0x8A0 JUMP JUMPDEST SWAP3 POP DUP3 DUP3 ADD SWAP1 POP DUP1 DUP3 GT ISZERO PUSH2 0xDC7 JUMPI PUSH2 0xDC6 PUSH2 0xC74 JUMP JUMPDEST JUMPDEST SWAP3 SWAP2 POP POP JUMP JUMPDEST PUSH32 0x4E487B7100000000000000000000000000000000000000000000000000000000 PUSH0 MSTORE PUSH1 0x32 PUSH1 0x4 MSTORE PUSH1 0x24 PUSH0 REVERT INVALID LOG2 PUSH5 0x6970667358 0x22 SLT KECCAK256 MSTORE8 SWAP15 SWAP8 EXTCODEHASH 0x29 PUSH28 0x98488DB49369DCC4870356D6E158577183DFDDE933CA3DA07C2B6473 PUSH16 0x6C634300081E00330000000000000000 "
				},
				"gasEstimates": {
					"creation": {
						"codeDepositCost": "726400",
						"executionCost": "758",
						"totalCost": "727158"
					},
					"external": {
						"addNumero(uint256)": "46909",
						"arrayPanic()": "2412",
						"assertPanic()": "239",
						"divisionPanic()": "infinite",
						"getArrayLength()": "2463",
						"getPanicDescription(uint256)": "infinite",
						"numeros(uint256)": "infinite",
						"overflowPanic()": "infinite",
						"popPanic()": "29462",
						"safeTestArray()": "infinite",
						"safeTestAssert()": "infinite",
						"safeTestDivision()": "infinite",
						"safeTestOverflow()": "infinite",
						"safeTestPop()": "infinite"
					}
				},
				"methodIdentifiers": {
					"addNumero(uint256)": "89fec804",
					"arrayPanic()": "f3391fde",
					"assertPanic()": "17a6d5af",
					"divisionPanic()": "96dd1de1",
					"getArrayLength()": "0849cc99",
					"getPanicDescription(uint256)": "a483021a",
					"numeros(uint256)": "f2f7cca4",
					"overflowPanic()": "e17057a1",
					"popPanic()": "d0ec61bd",
					"safeTestArray()": "cd8f90c2",
					"safeTestAssert()": "727517f3",
					"safeTestDivision()": "622e2542",
					"safeTestOverflow()": "7db40b91",
					"safeTestPop()": "7f713704"
				}
			},
			"storageLayout": {
				"storage": [
					{
						"astId": 4,
						"contract": "contracts/errorAndException.sol:PanicDemo",
						"label": "numeros",
						"offset": 0,
						"slot": "0",
						"type": "t_array(t_uint256)dyn_storage"
					}
				],
				"types": {
					"t_array(t_uint256)dyn_storage": {
						"base": "t_uint256",
						"encoding": "dynamic_array",
						"label": "uint256[]",
						"numberOfBytes": "32"
					},
					"t_uint256": {
						"encoding": "inplace",
						"label": "uint256",
						"numberOfBytes": "32"
					}
				}
			},
			"userdoc": {
				"kind": "user",
				"methods": {},
				"version": 1
			}
		}
	}
}