{
	"contracts/desafio3.sol": {
		"NumerosUtiles": {
			"abi": [
				{
					"inputs": [
						{
							"internalType": "uint256",
							"name": "num",
							"type": "uint256"
						}
					],
					"name": "esPar",
					"outputs": [
						{
							"internalType": "bool",
							"name": "",
							"type": "bool"
						},
						{
							"internalType": "string",
							"name": "",
							"type": "string"
						}
					],
					"stateMutability": "pure",
					"type": "function"
				}
			],
			"devdoc": {
				"kind": "dev",
				"methods": {},
				"version": 1
			},
			"evm": {
				"assembly": "    /* \"contracts/desafio3.sol\":68:343  library NumerosUtiles {... */\n  dataSize(sub_0)\n  dataOffset(sub_0)\n  0x0b\n  dup3\n  dup3\n  dup3\n  codecopy\n  dup1\n  mload\n  0x00\n  byte\n  0x73\n  eq\n  tag_1\n  jumpi\n  mstore(0x00, 0x4e487b7100000000000000000000000000000000000000000000000000000000)\n  mstore(0x04, 0x00)\n  revert(0x00, 0x24)\ntag_1:\n  mstore(0x00, address)\n  0x73\n  dup2\n  mstore8\n  dup3\n  dup2\n  return\nstop\n\nsub_0: assembly {\n        /* \"contracts/desafio3.sol\":68:343  library NumerosUtiles {... */\n      eq(address, deployTimeAddress())\n      mstore(0x40, 0x80)\n      jumpi(tag_1, lt(calldatasize, 0x04))\n      shr(0xe0, calldataload(0x00))\n      dup1\n      0xc96c7d88\n      eq\n      tag_2\n      jumpi\n    tag_1:\n      revert(0x00, 0x00)\n        /* \"contracts/desafio3.sol\":99:334  function esPar(uint num) public pure returns (bool, string memory){... */\n    tag_2:\n      tag_3\n      0x04\n      dup1\n      calldatasize\n      sub\n      dup2\n      add\n      swap1\n      tag_4\n      swap2\n      swap1\n      tag_5\n      jump\t// in\n    tag_4:\n      tag_6\n      jump\t// in\n    tag_3:\n      mload(0x40)\n      tag_7\n      swap3\n      swap2\n      swap1\n      tag_8\n      jump\t// in\n    tag_7:\n      mload(0x40)\n      dup1\n      swap2\n      sub\n      swap1\n      return\n    tag_6:\n        /* \"contracts/desafio3.sol\":145:149  bool */\n      0x00\n        /* \"contracts/desafio3.sol\":151:164  string memory */\n      0x60\n        /* \"contracts/desafio3.sol\":200:201  0 */\n      0x00\n        /* \"contracts/desafio3.sol\":195:196  2 */\n      0x02\n        /* \"contracts/desafio3.sol\":189:192  num */\n      dup5\n        /* \"contracts/desafio3.sol\":189:196  num % 2 */\n      tag_10\n      swap2\n      swap1\n      tag_11\n      jump\t// in\n    tag_10:\n        /* \"contracts/desafio3.sol\":189:201  num % 2 == 0 */\n      sub\n        /* \"contracts/desafio3.sol\":186:327  if(num % 2 == 0){... */\n      tag_12\n      jumpi\n        /* \"contracts/desafio3.sol\":225:229  true */\n      0x01\n        /* \"contracts/desafio3.sol\":217:244  return (true, \"Numero par\") */\n      mload(0x40)\n      dup1\n      0x40\n      add\n      0x40\n      mstore\n      dup1\n      0x0a\n      dup2\n      mstore\n      0x20\n      add\n      0x4e756d65726f2070617200000000000000000000000000000000000000000000\n      dup2\n      mstore\n      pop\n      swap2\n      pop\n      swap2\n      pop\n      jump(tag_9)\n        /* \"contracts/desafio3.sol\":186:327  if(num % 2 == 0){... */\n    tag_12:\n        /* \"contracts/desafio3.sol\":293:298  false */\n      0x00\n        /* \"contracts/desafio3.sol\":285:315  return (false, \"Numero impar\") */\n      mload(0x40)\n      dup1\n      0x40\n      add\n      0x40\n      mstore\n      dup1\n      0x0c\n      dup2\n      mstore\n      0x20\n      add\n      0x4e756d65726f20696d7061720000000000000000000000000000000000000000\n      dup2\n      mstore\n      pop\n      swap2\n      pop\n      swap2\n      pop\n        /* \"contracts/desafio3.sol\":99:334  function esPar(uint num) public pure returns (bool, string memory){... */\n    tag_9:\n      swap2\n      pop\n      swap2\n      jump\t// out\n        /* \"#utility.yul\":88:205   */\n    tag_15:\n        /* \"#utility.yul\":197:198   */\n      0x00\n        /* \"#utility.yul\":194:195   */\n      0x00\n        /* \"#utility.yul\":187:199   */\n      revert\n        /* \"#utility.yul\":334:411   */\n    tag_17:\n        /* \"#utility.yul\":371:378   */\n      0x00\n        /* \"#utility.yul\":400:405   */\n      dup2\n        /* \"#utility.yul\":389:405   */\n      swap1\n      pop\n        /* \"#utility.yul\":334:411   */\n      swap2\n      swap1\n      pop\n      jump\t// out\n        /* \"#utility.yul\":417:539   */\n    tag_18:\n        /* \"#utility.yul\":490:514   */\n      tag_34\n        /* \"#utility.yul\":508:513   */\n      dup2\n        /* \"#utility.yul\":490:514   */\n      tag_17\n      jump\t// in\n    tag_34:\n        /* \"#utility.yul\":483:488   */\n      dup2\n        /* \"#utility.yul\":480:515   */\n      eq\n        /* \"#utility.yul\":470:533   */\n      tag_35\n      jumpi\n        /* \"#utility.yul\":529:530   */\n      0x00\n        /* \"#utility.yul\":526:527   */\n      0x00\n        /* \"#utility.yul\":519:531   */\n      revert\n        /* \"#utility.yul\":470:533   */\n    tag_35:\n        /* \"#utility.yul\":417:539   */\n      pop\n      jump\t// out\n        /* \"#utility.yul\":545:684   */\n    tag_19:\n        /* \"#utility.yul\":591:596   */\n      0x00\n        /* \"#utility.yul\":629:635   */\n      dup2\n        /* \"#utility.yul\":616:636   */\n      calldataload\n        /* \"#utility.yul\":607:636   */\n      swap1\n      pop\n        /* \"#utility.yul\":645:678   */\n      tag_37\n        /* \"#utility.yul\":672:677   */\n      dup2\n        /* \"#utility.yul\":645:678   */\n      tag_18\n      jump\t// in\n    tag_37:\n        /* \"#utility.yul\":545:684   */\n      swap3\n      swap2\n      pop\n      pop\n      jump\t// out\n        /* \"#utility.yul\":690:1019   */\n    tag_5:\n        /* \"#utility.yul\":749:755   */\n      0x00\n        /* \"#utility.yul\":798:800   */\n      0x20\n        /* \"#utility.yul\":786:795   */\n      dup3\n        /* \"#utility.yul\":777:784   */\n      dup5\n        /* \"#utility.yul\":773:796   */\n      sub\n        /* \"#utility.yul\":769:801   */\n      slt\n        /* \"#utility.yul\":766:885   */\n      iszero\n      tag_39\n      jumpi\n        /* \"#utility.yul\":804:883   */\n      tag_40\n      tag_15\n      jump\t// in\n    tag_40:\n        /* \"#utility.yul\":766:885   */\n    tag_39:\n        /* \"#utility.yul\":924:925   */\n      0x00\n        /* \"#utility.yul\":949:1002   */\n      tag_41\n        /* \"#utility.yul\":994:1001   */\n      dup5\n        /* \"#utility.yul\":985:991   */\n      dup3\n        /* \"#utility.yul\":974:983   */\n      dup6\n        /* \"#utility.yul\":970:992   */\n      add\n        /* \"#utility.yul\":949:1002   */\n      tag_19\n      jump\t// in\n    tag_41:\n        /* \"#utility.yul\":939:1002   */\n      swap2\n      pop\n        /* \"#utility.yul\":895:1012   */\n      pop\n        /* \"#utility.yul\":690:1019   */\n      swap3\n      swap2\n      pop\n      pop\n      jump\t// out\n        /* \"#utility.yul\":1025:1115   */\n    tag_20:\n        /* \"#utility.yul\":1059:1066   */\n      0x00\n        /* \"#utility.yul\":1102:1107   */\n      dup2\n        /* \"#utility.yul\":1095:1108   */\n      iszero\n        /* \"#utility.yul\":1088:1109   */\n      iszero\n        /* \"#utility.yul\":1077:1109   */\n      swap1\n      pop\n        /* \"#utility.yul\":1025:1115   */\n      swap2\n      swap1\n      pop\n      jump\t// out\n        /* \"#utility.yul\":1121:1238   */\n    tag_21:\n        /* \"#utility.yul\":1210:1231   */\n      tag_44\n        /* \"#utility.yul\":1225:1230   */\n      dup2\n        /* \"#utility.yul\":1210:1231   */\n      tag_20\n      jump\t// in\n    tag_44:\n        /* \"#utility.yul\":1205:1208   */\n      dup3\n        /* \"#utility.yul\":1198:1232   */\n      mstore\n        /* \"#utility.yul\":1121:1238   */\n      pop\n      pop\n      jump\t// out\n        /* \"#utility.yul\":1244:1343   */\n    tag_22:\n        /* \"#utility.yul\":1296:1302   */\n      0x00\n        /* \"#utility.yul\":1330:1335   */\n      dup2\n        /* \"#utility.yul\":1324:1336   */\n      mload\n        /* \"#utility.yul\":1314:1336   */\n      swap1\n      pop\n        /* \"#utility.yul\":1244:1343   */\n      swap2\n      swap1\n      pop\n      jump\t// out\n        /* \"#utility.yul\":1349:1526   */\n    tag_23:\n        /* \"#utility.yul\":1441:1452   */\n      0x00\n        /* \"#utility.yul\":1475:1481   */\n      dup3\n        /* \"#utility.yul\":1470:1473   */\n      dup3\n        /* \"#utility.yul\":1463:1482   */\n      mstore\n        /* \"#utility.yul\":1515:1519   */\n      0x20\n        /* \"#utility.yul\":1510:1513   */\n      dup3\n        /* \"#utility.yul\":1506:1520   */\n      add\n        /* \"#utility.yul\":1491:1520   */\n      swap1\n      pop\n        /* \"#utility.yul\":1349:1526   */\n      swap3\n      swap2\n      pop\n      pop\n      jump\t// out\n        /* \"#utility.yul\":1532:1671   */\n    tag_24:\n        /* \"#utility.yul\":1621:1627   */\n      dup3\n        /* \"#utility.yul\":1616:1619   */\n      dup2\n        /* \"#utility.yul\":1611:1614   */\n      dup4\n        /* \"#utility.yul\":1605:1628   */\n      mcopy\n        /* \"#utility.yul\":1662:1663   */\n      0x00\n        /* \"#utility.yul\":1653:1659   */\n      dup4\n        /* \"#utility.yul\":1648:1651   */\n      dup4\n        /* \"#utility.yul\":1644:1660   */\n      add\n        /* \"#utility.yul\":1637:1664   */\n      mstore\n        /* \"#utility.yul\":1532:1671   */\n      pop\n      pop\n      pop\n      jump\t// out\n        /* \"#utility.yul\":1677:1779   */\n    tag_25:\n        /* \"#utility.yul\":1718:1724   */\n      0x00\n        /* \"#utility.yul\":1769:1771   */\n      0x1f\n        /* \"#utility.yul\":1765:1772   */\n      not\n        /* \"#utility.yul\":1760:1762   */\n      0x1f\n        /* \"#utility.yul\":1753:1758   */\n      dup4\n        /* \"#utility.yul\":1749:1763   */\n      add\n        /* \"#utility.yul\":1745:1773   */\n      and\n        /* \"#utility.yul\":1735:1773   */\n      swap1\n      pop\n        /* \"#utility.yul\":1677:1779   */\n      swap2\n      swap1\n      pop\n      jump\t// out\n        /* \"#utility.yul\":1785:2178   */\n    tag_26:\n        /* \"#utility.yul\":1881:1884   */\n      0x00\n        /* \"#utility.yul\":1909:1948   */\n      tag_50\n        /* \"#utility.yul\":1942:1947   */\n      dup3\n        /* \"#utility.yul\":1909:1948   */\n      tag_22\n      jump\t// in\n    tag_50:\n        /* \"#utility.yul\":1964:2043   */\n      tag_51\n        /* \"#utility.yul\":2036:2042   */\n      dup2\n        /* \"#utility.yul\":2031:2034   */\n      dup6\n        /* \"#utility.yul\":1964:2043   */\n      tag_23\n      jump\t// in\n    tag_51:\n        /* \"#utility.yul\":1957:2043   */\n      swap4\n      pop\n        /* \"#utility.yul\":2052:2117   */\n      tag_52\n        /* \"#utility.yul\":2110:2116   */\n      dup2\n        /* \"#utility.yul\":2105:2108   */\n      dup6\n        /* \"#utility.yul\":2098:2102   */\n      0x20\n        /* \"#utility.yul\":2091:2096   */\n      dup7\n        /* \"#utility.yul\":2087:2103   */\n      add\n        /* \"#utility.yul\":2052:2117   */\n      tag_24\n      jump\t// in\n    tag_52:\n        /* \"#utility.yul\":2142:2171   */\n      tag_53\n        /* \"#utility.yul\":2164:2170   */\n      dup2\n        /* \"#utility.yul\":2142:2171   */\n      tag_25\n      jump\t// in\n    tag_53:\n        /* \"#utility.yul\":2137:2140   */\n      dup5\n        /* \"#utility.yul\":2133:2172   */\n      add\n        /* \"#utility.yul\":2126:2172   */\n      swap2\n      pop\n        /* \"#utility.yul\":1885:2178   */\n      pop\n        /* \"#utility.yul\":1785:2178   */\n      swap3\n      swap2\n      pop\n      pop\n      jump\t// out\n        /* \"#utility.yul\":2184:2619   */\n    tag_8:\n        /* \"#utility.yul\":2327:2331   */\n      0x00\n        /* \"#utility.yul\":2365:2367   */\n      0x40\n        /* \"#utility.yul\":2354:2363   */\n      dup3\n        /* \"#utility.yul\":2350:2368   */\n      add\n        /* \"#utility.yul\":2342:2368   */\n      swap1\n      pop\n        /* \"#utility.yul\":2378:2451   */\n      tag_55\n        /* \"#utility.yul\":2448:2449   */\n      0x00\n        /* \"#utility.yul\":2437:2446   */\n      dup4\n        /* \"#utility.yul\":2433:2450   */\n      add\n        /* \"#utility.yul\":2424:2430   */\n      dup6\n        /* \"#utility.yul\":2378:2451   */\n      tag_21\n      jump\t// in\n    tag_55:\n        /* \"#utility.yul\":2498:2507   */\n      dup2\n        /* \"#utility.yul\":2492:2496   */\n      dup2\n        /* \"#utility.yul\":2488:2508   */\n      sub\n        /* \"#utility.yul\":2483:2485   */\n      0x20\n        /* \"#utility.yul\":2472:2481   */\n      dup4\n        /* \"#utility.yul\":2468:2486   */\n      add\n        /* \"#utility.yul\":2461:2509   */\n      mstore\n        /* \"#utility.yul\":2526:2612   */\n      tag_56\n        /* \"#utility.yul\":2607:2611   */\n      dup2\n        /* \"#utility.yul\":2598:2604   */\n      dup5\n        /* \"#utility.yul\":2526:2612   */\n      tag_26\n      jump\t// in\n    tag_56:\n        /* \"#utility.yul\":2518:2612   */\n      swap1\n      pop\n        /* \"#utility.yul\":2184:2619   */\n      swap4\n      swap3\n      pop\n      pop\n      pop\n      jump\t// out\n        /* \"#utility.yul\":2625:2805   */\n    tag_27:\n        /* \"#utility.yul\":2673:2750   */\n      0x4e487b7100000000000000000000000000000000000000000000000000000000\n        /* \"#utility.yul\":2670:2671   */\n      0x00\n        /* \"#utility.yul\":2663:2751   */\n      mstore\n        /* \"#utility.yul\":2770:2774   */\n      0x12\n        /* \"#utility.yul\":2767:2768   */\n      0x04\n        /* \"#utility.yul\":2760:2775   */\n      mstore\n        /* \"#utility.yul\":2794:2798   */\n      0x24\n        /* \"#utility.yul\":2791:2792   */\n      0x00\n        /* \"#utility.yul\":2784:2799   */\n      revert\n        /* \"#utility.yul\":2811:2987   */\n    tag_11:\n        /* \"#utility.yul\":2843:2844   */\n      0x00\n        /* \"#utility.yul\":2860:2880   */\n      tag_59\n        /* \"#utility.yul\":2878:2879   */\n      dup3\n        /* \"#utility.yul\":2860:2880   */\n      tag_17\n      jump\t// in\n    tag_59:\n        /* \"#utility.yul\":2855:2880   */\n      swap2\n      pop\n        /* \"#utility.yul\":2894:2914   */\n      tag_60\n        /* \"#utility.yul\":2912:2913   */\n      dup4\n        /* \"#utility.yul\":2894:2914   */\n      tag_17\n      jump\t// in\n    tag_60:\n        /* \"#utility.yul\":2889:2914   */\n      swap3\n      pop\n        /* \"#utility.yul\":2933:2934   */\n      dup3\n        /* \"#utility.yul\":2923:2958   */\n      tag_61\n      jumpi\n        /* \"#utility.yul\":2938:2956   */\n      tag_62\n      tag_27\n      jump\t// in\n    tag_62:\n        /* \"#utility.yul\":2923:2958   */\n    tag_61:\n        /* \"#utility.yul\":2979:2980   */\n      dup3\n        /* \"#utility.yul\":2976:2977   */\n      dup3\n        /* \"#utility.yul\":2972:2981   */\n      mod\n        /* \"#utility.yul\":2967:2981   */\n      swap1\n      pop\n        /* \"#utility.yul\":2811:2987   */\n      swap3\n      swap2\n      pop\n      pop\n      jump\t// out\n\n    auxdata: 0xa2646970667358221220ce41a286a581665c88dd554433c121542974cf63b76638f2fc20f68040d31dd564736f6c634300081e0033\n}\n",
				"bytecode": {
					"linkReferences": {},
					"object": "6102ae61004d600b8282823980515f1a6073146041577f4e487b71000000000000000000000000000000000000000000000000000000005f525f60045260245ffd5b305f52607381538281f3fe7300000000000000000000000000000000000000003014608060405260043610610034575f3560e01c8063c96c7d8814610038575b5f5ffd5b610052600480360381019061004d9190610138565b610069565b6040516100609291906101ed565b60405180910390f35b5f60605f60028461007a9190610248565b036100c05760016040518060400160405280600a81526020017f4e756d65726f2070617200000000000000000000000000000000000000000000815250915091506100fc565b5f6040518060400160405280600c81526020017f4e756d65726f20696d7061720000000000000000000000000000000000000000815250915091505b915091565b5f5ffd5b5f819050919050565b61011781610105565b8114610121575f5ffd5b50565b5f813590506101328161010e565b92915050565b5f6020828403121561014d5761014c610101565b5b5f61015a84828501610124565b91505092915050565b5f8115159050919050565b61017781610163565b82525050565b5f81519050919050565b5f82825260208201905092915050565b8281835e5f83830152505050565b5f601f19601f8301169050919050565b5f6101bf8261017d565b6101c98185610187565b93506101d9818560208601610197565b6101e2816101a5565b840191505092915050565b5f6040820190506102005f83018561016e565b818103602083015261021281846101b5565b90509392505050565b7f4e487b71000000000000000000000000000000000000000000000000000000005f52601260045260245ffd5b5f61025282610105565b915061025d83610105565b92508261026d5761026c61021b565b5b82820690509291505056fea2646970667358221220ce41a286a581665c88dd554433c121542974cf63b76638f2fc20f68040d31dd564736f6c634300081e0033",
					"opcodes": "PUSH2 0x2AE PUSH2 0x4D PUSH1 0xB DUP3 DUP3 DUP3 CODECOPY DUP1 MLOAD PUSH0 BYTE PUSH1 0x73 EQ PUSH1 0x41 JUMPI PUSH32 0x4E487B7100000000000000000000000000000000000000000000000000000000 PUSH0 MSTORE PUSH0 PUSH1 0x4 MSTORE PUSH1 0x24 PUSH0 REVERT JUMPDEST ADDRESS PUSH0 MSTORE PUSH1 0x73 DUP2 MSTORE8 DUP3 DUP2 RETURN INVALID PUSH20 0x0 ADDRESS EQ PUSH1 0x80 PUSH1 0x40 MSTORE PUSH1 0x4 CALLDATASIZE LT PUSH2 0x34 JUMPI PUSH0 CALLDATALOAD PUSH1 0xE0 SHR DUP1 PUSH4 0xC96C7D88 EQ PUSH2 0x38 JUMPI JUMPDEST PUSH0 PUSH0 REVERT JUMPDEST PUSH2 0x52 PUSH1 0x4 DUP1 CALLDATASIZE SUB DUP2 ADD SWAP1 PUSH2 0x4D SWAP2 SWAP1 PUSH2 0x138 JUMP JUMPDEST PUSH2 0x69 JUMP JUMPDEST PUSH1 0x40 MLOAD PUSH2 0x60 SWAP3 SWAP2 SWAP1 PUSH2 0x1ED JUMP JUMPDEST PUSH1 0x40 MLOAD DUP1 SWAP2 SUB SWAP1 RETURN JUMPDEST PUSH0 PUSH1 0x60 PUSH0 PUSH1 0x2 DUP5 PUSH2 0x7A SWAP2 SWAP1 PUSH2 0x248 JUMP JUMPDEST SUB PUSH2 0xC0 JUMPI PUSH1 0x1 PUSH1 0x40 MLOAD DUP1 PUSH1 0x40 ADD PUSH1 0x40 MSTORE DUP1 PUSH1 0xA DUP2 MSTORE PUSH1 0x20 ADD PUSH32 0x4E756D65726F2070617200000000000000000000000000000000000000000000 DUP2 MSTORE POP SWAP2 POP SWAP2 POP PUSH2 0xFC JUMP JUMPDEST PUSH0 PUSH1 0x40 MLOAD DUP1 PUSH1 0x40 ADD PUSH1 0x40 MSTORE DUP1 PUSH1 0xC DUP2 MSTORE PUSH1 0x20 ADD PUSH32 0x4E756D65726F20696D7061720000000000000000000000000000000000000000 DUP2 MSTORE POP SWAP2 POP SWAP2 POP JUMPDEST SWAP2 POP SWAP2 JUMP JUMPDEST PUSH0 PUSH0 REVERT JUMPDEST PUSH0 DUP2 SWAP1 POP SWAP2 SWAP1 POP JUMP JUMPDEST PUSH2 0x117 DUP2 PUSH2 0x105 JUMP JUMPDEST DUP2 EQ PUSH2 0x121 JUMPI PUSH0 PUSH0 REVERT JUMPDEST POP JUMP JUMPDEST PUSH0 DUP2 CALLDATALOAD SWAP1 POP PUSH2 0x132 DUP2 PUSH2 0x10E JUMP JUMPDEST SWAP3 SWAP2 POP POP JUMP JUMPDEST PUSH0 PUSH1 0x20 DUP3 DUP5 SUB SLT ISZERO PUSH2 0x14D JUMPI PUSH2 0x14C PUSH2 0x101 JUMP JUMPDEST JUMPDEST PUSH0 PUSH2 0x15A DUP5 DUP3 DUP6 ADD PUSH2 0x124 JUMP JUMPDEST SWAP2 POP POP SWAP3 SWAP2 POP POP JUMP JUMPDEST PUSH0 DUP2 ISZERO ISZERO SWAP1 POP SWAP2 SWAP1 POP JUMP JUMPDEST PUSH2 0x177 DUP2 PUSH2 0x163 JUMP JUMPDEST DUP3 MSTORE POP POP JUMP JUMPDEST PUSH0 DUP2 MLOAD SWAP1 POP SWAP2 SWAP1 POP JUMP JUMPDEST PUSH0 DUP3 DUP3 MSTORE PUSH1 0x20 DUP3 ADD SWAP1 POP SWAP3 SWAP2 POP POP JUMP JUMPDEST DUP3 DUP2 DUP4 MCOPY PUSH0 DUP4 DUP4 ADD MSTORE POP POP POP JUMP JUMPDEST PUSH0 PUSH1 0x1F NOT PUSH1 0x1F DUP4 ADD AND SWAP1 POP SWAP2 SWAP1 POP JUMP JUMPDEST PUSH0 PUSH2 0x1BF DUP3 PUSH2 0x17D JUMP JUMPDEST PUSH2 0x1C9 DUP2 DUP6 PUSH2 0x187 JUMP JUMPDEST SWAP4 POP PUSH2 0x1D9 DUP2 DUP6 PUSH1 0x20 DUP7 ADD PUSH2 0x197 JUMP JUMPDEST PUSH2 0x1E2 DUP2 PUSH2 0x1A5 JUMP JUMPDEST DUP5 ADD SWAP2 POP POP SWAP3 SWAP2 POP POP JUMP JUMPDEST PUSH0 PUSH1 0x40 DUP3 ADD SWAP1 POP PUSH2 0x200 PUSH0 DUP4 ADD DUP6 PUSH2 0x16E JUMP JUMPDEST DUP2 DUP2 SUB PUSH1 0x20 DUP4 ADD MSTORE PUSH2 0x212 DUP2 DUP5 PUSH2 0x1B5 JUMP JUMPDEST SWAP1 POP SWAP4 SWAP3 POP POP POP JUMP JUMPDEST PUSH32 0x4E487B7100000000000000000000000000000000000000000000000000000000 PUSH0 MSTORE PUSH1 0x12 PUSH1 0x4 MSTORE PUSH1 0x24 PUSH0 REVERT JUMPDEST PUSH0 PUSH2 0x252 DUP3 PUSH2 0x105 JUMP JUMPDEST SWAP2 POP PUSH2 0x25D DUP4 PUSH2 0x105 JUMP JUMPDEST SWAP3 POP DUP3 PUSH2 0x26D JUMPI PUSH2 0x26C PUSH2 0x21B JUMP JUMPDEST JUMPDEST DUP3 DUP3 MOD SWAP1 POP SWAP3 SWAP2 POP POP JUMP INVALID LOG2 PUSH5 0x6970667358 0x22 SLT KECCAK256 0xCE COINBASE LOG2 DUP7 0xA5 DUP2 PUSH7 0x5C88DD554433C1 0x21 SLOAD 0x29 PUSH21 0xCF63B76638F2FC20F68040D31DD564736F6C634300 ADDMOD 0x1E STOP CALLER "
				},
				"gasEstimates": {
					"creation": {
						"codeDepositCost": "137200",
						"executionCost": "206",
						"totalCost": "137406"
					},
					"external": {
						"esPar(uint256)": "infinite"
					}
				},
				"methodIdentifiers": {
					"esPar(uint256)": "c96c7d88"
				}
			},
			"storageLayout": {
				"storage": [],
				"types": null
			},
			"userdoc": {
				"kind": "user",
				"methods": {},
				"version": 1
			}
		}
	}
}