{
	"contracts/ticket.sol": {
		"Ticket": {
			"abi": [
				{
					"inputs": [],
					"stateMutability": "payable",
					"type": "constructor"
				},
				{
					"inputs": [
						{
							"internalType": "address[]",
							"name": "_addr",
							"type": "address[]"
						},
						{
							"components": [
								{
									"internalType": "uint256",
									"name": "id",
									"type": "uint256"
								},
								{
									"internalType": "string",
									"name": "nombre",
									"type": "string"
								},
								{
									"internalType": "uint256",
									"name": "cantidad",
									"type": "uint256"
								}
							],
							"internalType": "struct Ticket.Person[]",
							"name": "amigos",
							"type": "tuple[]"
						}
					],
					"name": "asignEntrada",
					"outputs": [],
					"stateMutability": "nonpayable",
					"type": "function"
				},
				{
					"inputs": [],
					"name": "cambioLetra",
					"outputs": [],
					"stateMutability": "nonpayable",
					"type": "function"
				},
				{
					"inputs": [
						{
							"internalType": "address",
							"name": "",
							"type": "address"
						}
					],
					"name": "cliente",
					"outputs": [
						{
							"internalType": "uint256",
							"name": "id",
							"type": "uint256"
						},
						{
							"internalType": "string",
							"name": "nombre",
							"type": "string"
						},
						{
							"internalType": "uint256",
							"name": "cantidad",
							"type": "uint256"
						}
					],
					"stateMutability": "view",
					"type": "function"
				},
				{
					"inputs": [
						{
							"internalType": "string",
							"name": "_name",
							"type": "string"
						}
					],
					"name": "comprarEntradas",
					"outputs": [],
					"stateMutability": "payable",
					"type": "function"
				},
				{
					"inputs": [],
					"name": "getLotteryTicket",
					"outputs": [],
					"stateMutability": "nonpayable",
					"type": "function"
				},
				{
					"inputs": [],
					"name": "id",
					"outputs": [
						{
							"internalType": "uint256",
							"name": "",
							"type": "uint256"
						}
					],
					"stateMutability": "view",
					"type": "function"
				},
				{
					"inputs": [],
					"name": "price",
					"outputs": [
						{
							"internalType": "uint256",
							"name": "",
							"type": "uint256"
						}
					],
					"stateMutability": "view",
					"type": "function"
				}
			],
			"devdoc": {
				"kind": "dev",
				"methods": {},
				"version": 1
			},
			"evm": {
				"assembly": "    /* \"contracts/ticket.sol\":824:3184  contract Ticket{... */\n  mstore(0x40, 0x80)\n    /* \"contracts/ticket.sol\":1383:1393  msg.sender */\n  caller\n    /* \"contracts/ticket.sol\":1375:1380  owner */\n  0x01\n  0x00\n    /* \"contracts/ticket.sol\":1375:1393  owner = msg.sender */\n  0x0100\n  exp\n  dup2\n  sload\n  dup2\n  0xffffffffffffffffffffffffffffffffffffffff\n  mul\n  not\n  and\n  swap1\n  dup4\n  0xffffffffffffffffffffffffffffffffffffffff\n  and\n  mul\n  or\n  swap1\n  sstore\n  pop\n    /* \"contracts/ticket.sol\":824:3184  contract Ticket{... */\n  dataSize(sub_0)\n  dup1\n  dataOffset(sub_0)\n  0x00\n  codecopy\n  0x00\n  return\nstop\n\nsub_0: assembly {\n        /* \"contracts/ticket.sol\":824:3184  contract Ticket{... */\n      mstore(0x40, 0x80)\n      jumpi(tag_1, lt(calldatasize, 0x04))\n      shr(0xe0, calldataload(0x00))\n      dup1\n      0x87c442ed\n      gt\n      tag_9\n      jumpi\n      dup1\n      0x87c442ed\n      eq\n      tag_5\n      jumpi\n      dup1\n      0xa035b1fe\n      eq\n      tag_6\n      jumpi\n      dup1\n      0xaf640d0f\n      eq\n      tag_7\n      jumpi\n      dup1\n      0xf57158d6\n      eq\n      tag_8\n      jumpi\n      jump(tag_1)\n    tag_9:\n      dup1\n      0x156ea2e5\n      eq\n      tag_2\n      jumpi\n      dup1\n      0x3bf334b8\n      eq\n      tag_3\n      jumpi\n      dup1\n      0x78e561aa\n      eq\n      tag_4\n      jumpi\n    tag_1:\n      revert(0x00, 0x00)\n        /* \"contracts/ticket.sol\":1061:1098  function getLotteryTicket() public {} */\n    tag_2:\n      callvalue\n      dup1\n      iszero\n      tag_10\n      jumpi\n      revert(0x00, 0x00)\n    tag_10:\n      pop\n      tag_11\n      tag_12\n      jump\t// in\n    tag_11:\n      stop\n        /* \"contracts/ticket.sol\":1293:1334  mapping(address => Person) public cliente */\n    tag_3:\n      callvalue\n      dup1\n      iszero\n      tag_13\n      jumpi\n      revert(0x00, 0x00)\n    tag_13:\n      pop\n      tag_14\n      0x04\n      dup1\n      calldatasize\n      sub\n      dup2\n      add\n      swap1\n      tag_15\n      swap2\n      swap1\n      tag_16\n      jump\t// in\n    tag_15:\n      tag_17\n      jump\t// in\n    tag_14:\n      mload(0x40)\n      tag_18\n      swap4\n      swap3\n      swap2\n      swap1\n      tag_19\n      jump\t// in\n    tag_18:\n      mload(0x40)\n      dup1\n      swap2\n      sub\n      swap1\n      return\n        /* \"contracts/ticket.sol\":1541:2130  function comprarEntradas(string calldata _name) external payable {... */\n    tag_4:\n      tag_20\n      0x04\n      dup1\n      calldatasize\n      sub\n      dup2\n      add\n      swap1\n      tag_21\n      swap2\n      swap1\n      tag_22\n      jump\t// in\n    tag_21:\n      tag_23\n      jump\t// in\n    tag_20:\n      stop\n        /* \"contracts/ticket.sol\":2285:2718  function asignEntrada(address[] calldata _addr, Person[] calldata amigos) external  {... */\n    tag_5:\n      callvalue\n      dup1\n      iszero\n      tag_24\n      jumpi\n      revert(0x00, 0x00)\n    tag_24:\n      pop\n      tag_25\n      0x04\n      dup1\n      calldatasize\n      sub\n      dup2\n      add\n      swap1\n      tag_26\n      swap2\n      swap1\n      tag_27\n      jump\t// in\n    tag_26:\n      tag_28\n      jump\t// in\n    tag_25:\n      stop\n        /* \"contracts/ticket.sol\":1014:1054  uint256 public constant price = 1*10**18 */\n    tag_6:\n      callvalue\n      dup1\n      iszero\n      tag_29\n      jumpi\n      revert(0x00, 0x00)\n    tag_29:\n      pop\n      tag_30\n      tag_31\n      jump\t// in\n    tag_30:\n      mload(0x40)\n      tag_32\n      swap2\n      swap1\n      tag_33\n      jump\t// in\n    tag_32:\n      mload(0x40)\n      dup1\n      swap2\n      sub\n      swap1\n      return\n        /* \"contracts/ticket.sol\":1104:1121  uint256 public id */\n    tag_7:\n      callvalue\n      dup1\n      iszero\n      tag_34\n      jumpi\n      revert(0x00, 0x00)\n    tag_34:\n      pop\n      tag_35\n      tag_36\n      jump\t// in\n    tag_35:\n      mload(0x40)\n      tag_37\n      swap2\n      swap1\n      tag_33\n      jump\t// in\n    tag_37:\n      mload(0x40)\n      dup1\n      swap2\n      sub\n      swap1\n      return\n        /* \"contracts/ticket.sol\":2831:3178  function cambioLetra() external  {... */\n    tag_8:\n      callvalue\n      dup1\n      iszero\n      tag_38\n      jumpi\n      revert(0x00, 0x00)\n    tag_38:\n      pop\n      tag_39\n      tag_40\n      jump\t// in\n    tag_39:\n      stop\n        /* \"contracts/ticket.sol\":1061:1098  function getLotteryTicket() public {} */\n    tag_12:\n      jump\t// out\n        /* \"contracts/ticket.sol\":1293:1334  mapping(address => Person) public cliente */\n    tag_17:\n      mstore(0x20, 0x02)\n      dup1\n      0x00\n      mstore\n      keccak256(0x00, 0x40)\n      0x00\n      swap2\n      pop\n      swap1\n      pop\n      dup1\n      0x00\n      add\n      sload\n      swap1\n      dup1\n      0x01\n      add\n      dup1\n      sload\n      tag_42\n      swap1\n      tag_43\n      jump\t// in\n    tag_42:\n      dup1\n      0x1f\n      add\n      0x20\n      dup1\n      swap2\n      div\n      mul\n      0x20\n      add\n      mload(0x40)\n      swap1\n      dup2\n      add\n      0x40\n      mstore\n      dup1\n      swap3\n      swap2\n      swap1\n      dup2\n      dup2\n      mstore\n      0x20\n      add\n      dup3\n      dup1\n      sload\n      tag_44\n      swap1\n      tag_43\n      jump\t// in\n    tag_44:\n      dup1\n      iszero\n      tag_45\n      jumpi\n      dup1\n      0x1f\n      lt\n      tag_46\n      jumpi\n      0x0100\n      dup1\n      dup4\n      sload\n      div\n      mul\n      dup4\n      mstore\n      swap2\n      0x20\n      add\n      swap2\n      jump(tag_45)\n    tag_46:\n      dup3\n      add\n      swap2\n      swap1\n      0x00\n      mstore\n      keccak256(0x00, 0x20)\n      swap1\n    tag_47:\n      dup2\n      sload\n      dup2\n      mstore\n      swap1\n      0x01\n      add\n      swap1\n      0x20\n      add\n      dup1\n      dup4\n      gt\n      tag_47\n      jumpi\n      dup3\n      swap1\n      sub\n      0x1f\n      and\n      dup3\n      add\n      swap2\n    tag_45:\n      pop\n      pop\n      pop\n      pop\n      pop\n      swap1\n      dup1\n      0x02\n      add\n      sload\n      swap1\n      pop\n      dup4\n      jump\t// out\n        /* \"contracts/ticket.sol\":1541:2130  function comprarEntradas(string calldata _name) external payable {... */\n    tag_23:\n        /* \"contracts/ticket.sol\":1634:1643  msg.value */\n      callvalue\n        /* \"contracts/ticket.sol\":1046:1054  1*10**18 */\n      0x0de0b6b3a7640000\n        /* \"contracts/ticket.sol\":1625:1643  price <= msg.value */\n      gt\n      iszero\n        /* \"contracts/ticket.sol\":1617:1658  require(price <= msg.value, \"No alcanza\") */\n      tag_49\n      jumpi\n      mload(0x40)\n      0x08c379a000000000000000000000000000000000000000000000000000000000\n      dup2\n      mstore\n      0x04\n      add\n      tag_50\n      swap1\n      tag_51\n      jump\t// in\n    tag_50:\n      mload(0x40)\n      dup1\n      swap2\n      sub\n      swap1\n      revert\n    tag_49:\n        /* \"contracts/ticket.sol\":1669:1686  uint256 _cantidad */\n      0x00\n        /* \"contracts/ticket.sol\":1046:1054  1*10**18 */\n      0x0de0b6b3a7640000\n        /* \"contracts/ticket.sol\":1689:1698  msg.value */\n      callvalue\n        /* \"contracts/ticket.sol\":1689:1704  msg.value/price */\n      tag_52\n      swap2\n      swap1\n      tag_53\n      jump\t// in\n    tag_52:\n        /* \"contracts/ticket.sol\":1669:1704  uint256 _cantidad = msg.value/price */\n      swap1\n      pop\n        /* \"contracts/ticket.sol\":1735:1754  uint256 _devolucion */\n      0x00\n        /* \"contracts/ticket.sol\":1046:1054  1*10**18 */\n      0x0de0b6b3a7640000\n        /* \"contracts/ticket.sol\":1757:1766  msg.value */\n      callvalue\n        /* \"contracts/ticket.sol\":1757:1774  msg.value % price */\n      tag_54\n      swap2\n      swap1\n      tag_55\n      jump\t// in\n    tag_54:\n        /* \"contracts/ticket.sol\":1735:1774  uint256 _devolucion = msg.value % price */\n      swap1\n      pop\n        /* \"contracts/ticket.sol\":1808:1817  msg.value */\n      callvalue\n        /* \"contracts/ticket.sol\":1794:1805  _devolucion */\n      dup2\n        /* \"contracts/ticket.sol\":1794:1817  _devolucion < msg.value */\n      lt\n        /* \"contracts/ticket.sol\":1786:1848  require(_devolucion < msg.value, \"No te vamos a devolver mas\") */\n      tag_56\n      jumpi\n      mload(0x40)\n      0x08c379a000000000000000000000000000000000000000000000000000000000\n      dup2\n      mstore\n      0x04\n      add\n      tag_57\n      swap1\n      tag_58\n      jump\t// in\n    tag_57:\n      mload(0x40)\n      dup1\n      swap2\n      sub\n      swap1\n      revert\n    tag_56:\n        /* \"contracts/ticket.sol\":1890:1899  _cantidad */\n      dup2\n        /* \"contracts/ticket.sol\":1859:1866  cliente */\n      0x02\n        /* \"contracts/ticket.sol\":1859:1878  cliente[msg.sender] */\n      0x00\n        /* \"contracts/ticket.sol\":1867:1877  msg.sender */\n      caller\n        /* \"contracts/ticket.sol\":1859:1878  cliente[msg.sender] */\n      0xffffffffffffffffffffffffffffffffffffffff\n      and\n      0xffffffffffffffffffffffffffffffffffffffff\n      and\n      dup2\n      mstore\n      0x20\n      add\n      swap1\n      dup2\n      mstore\n      0x20\n      add\n      0x00\n      keccak256\n        /* \"contracts/ticket.sol\":1859:1887  cliente[msg.sender].cantidad */\n      0x02\n      add\n        /* \"contracts/ticket.sol\":1859:1899  cliente[msg.sender].cantidad = _cantidad */\n      dup2\n      swap1\n      sstore\n      pop\n        /* \"contracts/ticket.sol\":1939:1944  _name */\n      dup4\n      dup4\n        /* \"contracts/ticket.sol\":1910:1917  cliente */\n      0x02\n        /* \"contracts/ticket.sol\":1910:1929  cliente[msg.sender] */\n      0x00\n        /* \"contracts/ticket.sol\":1918:1928  msg.sender */\n      caller\n        /* \"contracts/ticket.sol\":1910:1929  cliente[msg.sender] */\n      0xffffffffffffffffffffffffffffffffffffffff\n      and\n      0xffffffffffffffffffffffffffffffffffffffff\n      and\n      dup2\n      mstore\n      0x20\n      add\n      swap1\n      dup2\n      mstore\n      0x20\n      add\n      0x00\n      keccak256\n        /* \"contracts/ticket.sol\":1910:1936  cliente[msg.sender].nombre */\n      0x01\n      add\n        /* \"contracts/ticket.sol\":1910:1944  cliente[msg.sender].nombre = _name */\n      swap2\n      dup3\n      tag_59\n      swap3\n      swap2\n      swap1\n      tag_60\n      jump\t// in\n    tag_59:\n      pop\n        /* \"contracts/ticket.sol\":1980:1982  id */\n      sload(0x00)\n        /* \"contracts/ticket.sol\":1955:1962  cliente */\n      0x02\n        /* \"contracts/ticket.sol\":1955:1974  cliente[msg.sender] */\n      0x00\n        /* \"contracts/ticket.sol\":1963:1973  msg.sender */\n      caller\n        /* \"contracts/ticket.sol\":1955:1974  cliente[msg.sender] */\n      0xffffffffffffffffffffffffffffffffffffffff\n      and\n      0xffffffffffffffffffffffffffffffffffffffff\n      and\n      dup2\n      mstore\n      0x20\n      add\n      swap1\n      dup2\n      mstore\n      0x20\n      add\n      0x00\n      keccak256\n        /* \"contracts/ticket.sol\":1955:1977  cliente[msg.sender].id */\n      0x00\n      add\n        /* \"contracts/ticket.sol\":1955:1982  cliente[msg.sender].id = id */\n      dup2\n      swap1\n      sstore\n      pop\n        /* \"contracts/ticket.sol\":1993:1995  id */\n      0x00\n      0x00\n        /* \"contracts/ticket.sol\":1993:1997  id++ */\n      dup2\n      sload\n      dup1\n      swap3\n      swap2\n      swap1\n      tag_61\n      swap1\n      tag_62\n      jump\t// in\n    tag_61:\n      swap2\n      swap1\n      pop\n      sstore\n      pop\n        /* \"contracts/ticket.sol\":2023:2024  2 */\n      0x02\n        /* \"contracts/ticket.sol\":2011:2020  _cantidad */\n      dup3\n        /* \"contracts/ticket.sol\":2011:2024  _cantidad > 2 */\n      gt\n        /* \"contracts/ticket.sol\":2008:2070  if(_cantidad > 2){... */\n      iszero\n      tag_63\n      jumpi\n        /* \"contracts/ticket.sol\":2040:2058  getLotteryTicket() */\n      tag_64\n        /* \"contracts/ticket.sol\":2040:2056  getLotteryTicket */\n      tag_12\n        /* \"contracts/ticket.sol\":2040:2058  getLotteryTicket() */\n      jump\t// in\n    tag_64:\n        /* \"contracts/ticket.sol\":2008:2070  if(_cantidad > 2){... */\n    tag_63:\n        /* \"contracts/ticket.sol\":2089:2099  msg.sender */\n      caller\n        /* \"contracts/ticket.sol\":2080:2109  payable (msg.sender).transfer */\n      0xffffffffffffffffffffffffffffffffffffffff\n      and\n        /* \"contracts/ticket.sol\":2080:2122  payable (msg.sender).transfer(_devolucion) */\n      0x08fc\n        /* \"contracts/ticket.sol\":2110:2121  _devolucion */\n      dup3\n        /* \"contracts/ticket.sol\":2080:2122  payable (msg.sender).transfer(_devolucion) */\n      swap1\n      dup2\n      iszero\n      mul\n      swap1\n      mload(0x40)\n      0x00\n      mload(0x40)\n      dup1\n      dup4\n      sub\n      dup2\n      dup6\n      dup9\n      dup9\n      call\n      swap4\n      pop\n      pop\n      pop\n      pop\n      iszero\n      dup1\n      iszero\n      tag_66\n      jumpi\n      returndatacopy(0x00, 0x00, returndatasize)\n      revert(0x00, returndatasize)\n    tag_66:\n      pop\n        /* \"contracts/ticket.sol\":1606:2130  {... */\n      pop\n      pop\n        /* \"contracts/ticket.sol\":1541:2130  function comprarEntradas(string calldata _name) external payable {... */\n      pop\n      pop\n      jump\t// out\n        /* \"contracts/ticket.sol\":2285:2718  function asignEntrada(address[] calldata _addr, Person[] calldata amigos) external  {... */\n    tag_28:\n        /* \"contracts/ticket.sol\":2402:2407  owner */\n      0x01\n      0x00\n      swap1\n      sload\n      swap1\n      0x0100\n      exp\n      swap1\n      div\n      0xffffffffffffffffffffffffffffffffffffffff\n      and\n        /* \"contracts/ticket.sol\":2388:2407  msg.sender == owner */\n      0xffffffffffffffffffffffffffffffffffffffff\n      and\n        /* \"contracts/ticket.sol\":2388:2398  msg.sender */\n      caller\n        /* \"contracts/ticket.sol\":2388:2407  msg.sender == owner */\n      0xffffffffffffffffffffffffffffffffffffffff\n      and\n      eq\n        /* \"contracts/ticket.sol\":2380:2432  require(msg.sender == owner, \"usted no es el owner\") */\n      tag_68\n      jumpi\n      mload(0x40)\n      0x08c379a000000000000000000000000000000000000000000000000000000000\n      dup2\n      mstore\n      0x04\n      add\n      tag_69\n      swap1\n      tag_70\n      jump\t// in\n    tag_69:\n      mload(0x40)\n      dup1\n      swap2\n      sub\n      swap1\n      revert\n    tag_68:\n        /* \"contracts/ticket.sol\":2443:2455  uint256 _len */\n      0x00\n        /* \"contracts/ticket.sol\":2458:2463  _addr */\n      dup5\n      dup5\n        /* \"contracts/ticket.sol\":2458:2470  _addr.length */\n      swap1\n      pop\n        /* \"contracts/ticket.sol\":2443:2470  uint256 _len = _addr.length */\n      swap1\n      pop\n        /* \"contracts/ticket.sol\":2485:2494  uint256 i */\n      0x00\n        /* \"contracts/ticket.sol\":2481:2711  for(uint256 i; i < _len; i++){... */\n    tag_71:\n        /* \"contracts/ticket.sol\":2500:2504  _len */\n      dup2\n        /* \"contracts/ticket.sol\":2496:2497  i */\n      dup2\n        /* \"contracts/ticket.sol\":2496:2504  i < _len */\n      lt\n        /* \"contracts/ticket.sol\":2481:2711  for(uint256 i; i < _len; i++){... */\n      iszero\n      tag_72\n      jumpi\n        /* \"contracts/ticket.sol\":2554:2560  amigos */\n      dup4\n      dup4\n        /* \"contracts/ticket.sol\":2561:2562  i */\n      dup3\n        /* \"contracts/ticket.sol\":2554:2563  amigos[i] */\n      dup2\n      dup2\n      lt\n      tag_74\n      jumpi\n      tag_75\n      tag_76\n      jump\t// in\n    tag_75:\n    tag_74:\n      swap1\n      pop\n      0x20\n      mul\n      dup2\n      add\n      swap1\n      tag_77\n      swap2\n      swap1\n      tag_78\n      jump\t// in\n    tag_77:\n        /* \"contracts/ticket.sol\":2554:2572  amigos[i].cantidad */\n      0x40\n      add\n      calldataload\n        /* \"contracts/ticket.sol\":2525:2532  cliente */\n      0x02\n        /* \"contracts/ticket.sol\":2525:2542  cliente[_addr[i]] */\n      0x00\n        /* \"contracts/ticket.sol\":2533:2538  _addr */\n      dup9\n      dup9\n        /* \"contracts/ticket.sol\":2539:2540  i */\n      dup6\n        /* \"contracts/ticket.sol\":2533:2541  _addr[i] */\n      dup2\n      dup2\n      lt\n      tag_79\n      jumpi\n      tag_80\n      tag_76\n      jump\t// in\n    tag_80:\n    tag_79:\n      swap1\n      pop\n      0x20\n      mul\n      add\n      0x20\n      dup2\n      add\n      swap1\n      tag_81\n      swap2\n      swap1\n      tag_16\n      jump\t// in\n    tag_81:\n        /* \"contracts/ticket.sol\":2525:2542  cliente[_addr[i]] */\n      0xffffffffffffffffffffffffffffffffffffffff\n      and\n      0xffffffffffffffffffffffffffffffffffffffff\n      and\n      dup2\n      mstore\n      0x20\n      add\n      swap1\n      dup2\n      mstore\n      0x20\n      add\n      0x00\n      keccak256\n        /* \"contracts/ticket.sol\":2525:2551  cliente[_addr[i]].cantidad */\n      0x02\n      add\n        /* \"contracts/ticket.sol\":2525:2572  cliente[_addr[i]].cantidad = amigos[i].cantidad */\n      dup2\n      swap1\n      sstore\n      pop\n        /* \"contracts/ticket.sol\":2614:2620  amigos */\n      dup4\n      dup4\n        /* \"contracts/ticket.sol\":2621:2622  i */\n      dup3\n        /* \"contracts/ticket.sol\":2614:2623  amigos[i] */\n      dup2\n      dup2\n      lt\n      tag_82\n      jumpi\n      tag_83\n      tag_76\n      jump\t// in\n    tag_83:\n    tag_82:\n      swap1\n      pop\n      0x20\n      mul\n      dup2\n      add\n      swap1\n      tag_84\n      swap2\n      swap1\n      tag_78\n      jump\t// in\n    tag_84:\n        /* \"contracts/ticket.sol\":2614:2630  amigos[i].nombre */\n      dup1\n      0x20\n      add\n      swap1\n      tag_85\n      swap2\n      swap1\n      tag_86\n      jump\t// in\n    tag_85:\n        /* \"contracts/ticket.sol\":2587:2594  cliente */\n      0x02\n        /* \"contracts/ticket.sol\":2587:2604  cliente[_addr[i]] */\n      0x00\n        /* \"contracts/ticket.sol\":2595:2600  _addr */\n      dup10\n      dup10\n        /* \"contracts/ticket.sol\":2601:2602  i */\n      dup7\n        /* \"contracts/ticket.sol\":2595:2603  _addr[i] */\n      dup2\n      dup2\n      lt\n      tag_87\n      jumpi\n      tag_88\n      tag_76\n      jump\t// in\n    tag_88:\n    tag_87:\n      swap1\n      pop\n      0x20\n      mul\n      add\n      0x20\n      dup2\n      add\n      swap1\n      tag_89\n      swap2\n      swap1\n      tag_16\n      jump\t// in\n    tag_89:\n        /* \"contracts/ticket.sol\":2587:2604  cliente[_addr[i]] */\n      0xffffffffffffffffffffffffffffffffffffffff\n      and\n      0xffffffffffffffffffffffffffffffffffffffff\n      and\n      dup2\n      mstore\n      0x20\n      add\n      swap1\n      dup2\n      mstore\n      0x20\n      add\n      0x00\n      keccak256\n        /* \"contracts/ticket.sol\":2587:2611  cliente[_addr[i]].nombre */\n      0x01\n      add\n        /* \"contracts/ticket.sol\":2587:2630  cliente[_addr[i]].nombre = amigos[i].nombre */\n      swap2\n      dup3\n      tag_90\n      swap3\n      swap2\n      swap1\n      tag_60\n      jump\t// in\n    tag_90:\n      pop\n        /* \"contracts/ticket.sol\":2668:2674  amigos */\n      dup4\n      dup4\n        /* \"contracts/ticket.sol\":2675:2676  i */\n      dup3\n        /* \"contracts/ticket.sol\":2668:2677  amigos[i] */\n      dup2\n      dup2\n      lt\n      tag_91\n      jumpi\n      tag_92\n      tag_76\n      jump\t// in\n    tag_92:\n    tag_91:\n      swap1\n      pop\n      0x20\n      mul\n      dup2\n      add\n      swap1\n      tag_93\n      swap2\n      swap1\n      tag_78\n      jump\t// in\n    tag_93:\n        /* \"contracts/ticket.sol\":2668:2680  amigos[i].id */\n      0x00\n      add\n      calldataload\n        /* \"contracts/ticket.sol\":2645:2652  cliente */\n      0x02\n        /* \"contracts/ticket.sol\":2645:2662  cliente[_addr[i]] */\n      0x00\n        /* \"contracts/ticket.sol\":2653:2658  _addr */\n      dup9\n      dup9\n        /* \"contracts/ticket.sol\":2659:2660  i */\n      dup6\n        /* \"contracts/ticket.sol\":2653:2661  _addr[i] */\n      dup2\n      dup2\n      lt\n      tag_94\n      jumpi\n      tag_95\n      tag_76\n      jump\t// in\n    tag_95:\n    tag_94:\n      swap1\n      pop\n      0x20\n      mul\n      add\n      0x20\n      dup2\n      add\n      swap1\n      tag_96\n      swap2\n      swap1\n      tag_16\n      jump\t// in\n    tag_96:\n        /* \"contracts/ticket.sol\":2645:2662  cliente[_addr[i]] */\n      0xffffffffffffffffffffffffffffffffffffffff\n      and\n      0xffffffffffffffffffffffffffffffffffffffff\n      and\n      dup2\n      mstore\n      0x20\n      add\n      swap1\n      dup2\n      mstore\n      0x20\n      add\n      0x00\n      keccak256\n        /* \"contracts/ticket.sol\":2645:2665  cliente[_addr[i]].id */\n      0x00\n      add\n        /* \"contracts/ticket.sol\":2645:2680  cliente[_addr[i]].id = amigos[i].id */\n      dup2\n      swap1\n      sstore\n      pop\n        /* \"contracts/ticket.sol\":2695:2697  id */\n      0x00\n      0x00\n        /* \"contracts/ticket.sol\":2695:2699  id++ */\n      dup2\n      sload\n      dup1\n      swap3\n      swap2\n      swap1\n      tag_97\n      swap1\n      tag_62\n      jump\t// in\n    tag_97:\n      swap2\n      swap1\n      pop\n      sstore\n      pop\n        /* \"contracts/ticket.sol\":2506:2509  i++ */\n      dup1\n      dup1\n      0x01\n      add\n      swap2\n      pop\n      pop\n        /* \"contracts/ticket.sol\":2481:2711  for(uint256 i; i < _len; i++){... */\n      jump(tag_71)\n    tag_72:\n      pop\n        /* \"contracts/ticket.sol\":2369:2718  {... */\n      pop\n        /* \"contracts/ticket.sol\":2285:2718  function asignEntrada(address[] calldata _addr, Person[] calldata amigos) external  {... */\n      pop\n      pop\n      pop\n      pop\n      jump\t// out\n        /* \"contracts/ticket.sol\":1014:1054  uint256 public constant price = 1*10**18 */\n    tag_31:\n        /* \"contracts/ticket.sol\":1046:1054  1*10**18 */\n      0x0de0b6b3a7640000\n        /* \"contracts/ticket.sol\":1014:1054  uint256 public constant price = 1*10**18 */\n      dup2\n      jump\t// out\n        /* \"contracts/ticket.sol\":1104:1121  uint256 public id */\n    tag_36:\n      sload(0x00)\n      dup2\n      jump\t// out\n        /* \"contracts/ticket.sol\":2831:3178  function cambioLetra() external  {... */\n    tag_40:\n        /* \"contracts/ticket.sol\":2907:2908  0 */\n      0x00\n        /* \"contracts/ticket.sol\":2883:2890  cliente */\n      0x02\n        /* \"contracts/ticket.sol\":2883:2902  cliente[msg.sender] */\n      0x00\n        /* \"contracts/ticket.sol\":2891:2901  msg.sender */\n      caller\n        /* \"contracts/ticket.sol\":2883:2902  cliente[msg.sender] */\n      0xffffffffffffffffffffffffffffffffffffffff\n      and\n      0xffffffffffffffffffffffffffffffffffffffff\n      and\n      dup2\n      mstore\n      0x20\n      add\n      swap1\n      dup2\n      mstore\n      0x20\n      add\n      0x00\n      keccak256\n        /* \"contracts/ticket.sol\":2883:2905  cliente[msg.sender].id */\n      0x00\n      add\n      sload\n        /* \"contracts/ticket.sol\":2883:2908  cliente[msg.sender].id!=0 */\n      sub\n        /* \"contracts/ticket.sol\":2875:2909  require(cliente[msg.sender].id!=0) */\n      tag_99\n      jumpi\n      revert(0x00, 0x00)\n    tag_99:\n        /* \"contracts/ticket.sol\":2920:2940  bytes memory _nombre */\n      0x00\n        /* \"contracts/ticket.sol\":2949:2956  cliente */\n      0x02\n        /* \"contracts/ticket.sol\":2949:2968  cliente[msg.sender] */\n      0x00\n        /* \"contracts/ticket.sol\":2957:2967  msg.sender */\n      caller\n        /* \"contracts/ticket.sol\":2949:2968  cliente[msg.sender] */\n      0xffffffffffffffffffffffffffffffffffffffff\n      and\n      0xffffffffffffffffffffffffffffffffffffffff\n      and\n      dup2\n      mstore\n      0x20\n      add\n      swap1\n      dup2\n      mstore\n      0x20\n      add\n      0x00\n      keccak256\n        /* \"contracts/ticket.sol\":2949:2975  cliente[msg.sender].nombre */\n      0x01\n      add\n        /* \"contracts/ticket.sol\":2920:2976  bytes memory _nombre = bytes(cliente[msg.sender].nombre) */\n      dup1\n      sload\n      tag_100\n      swap1\n      tag_43\n      jump\t// in\n    tag_100:\n      dup1\n      0x1f\n      add\n      0x20\n      dup1\n      swap2\n      div\n      mul\n      0x20\n      add\n      mload(0x40)\n      swap1\n      dup2\n      add\n      0x40\n      mstore\n      dup1\n      swap3\n      swap2\n      swap1\n      dup2\n      dup2\n      mstore\n      0x20\n      add\n      dup3\n      dup1\n      sload\n      tag_101\n      swap1\n      tag_43\n      jump\t// in\n    tag_101:\n      dup1\n      iszero\n      tag_102\n      jumpi\n      dup1\n      0x1f\n      lt\n      tag_103\n      jumpi\n      0x0100\n      dup1\n      dup4\n      sload\n      div\n      mul\n      dup4\n      mstore\n      swap2\n      0x20\n      add\n      swap2\n      jump(tag_102)\n    tag_103:\n      dup3\n      add\n      swap2\n      swap1\n      0x00\n      mstore\n      keccak256(0x00, 0x20)\n      swap1\n    tag_104:\n      dup2\n      sload\n      dup2\n      mstore\n      swap1\n      0x01\n      add\n      swap1\n      0x20\n      add\n      dup1\n      dup4\n      gt\n      tag_104\n      jumpi\n      dup3\n      swap1\n      sub\n      0x1f\n      and\n      dup3\n      add\n      swap2\n    tag_102:\n      pop\n      pop\n      pop\n      pop\n      pop\n      swap1\n      pop\n        /* \"contracts/ticket.sol\":2987:3000  bytes1 _letra */\n      0x00\n        /* \"contracts/ticket.sol\":3003:3010  _nombre */\n      dup2\n        /* \"contracts/ticket.sol\":3011:3012  0 */\n      0x00\n        /* \"contracts/ticket.sol\":3003:3013  _nombre[0] */\n      dup2\n      mload\n      dup2\n      lt\n      tag_105\n      jumpi\n      tag_106\n      tag_76\n      jump\t// in\n    tag_106:\n    tag_105:\n      0x20\n      add\n      add\n      mload\n      0xf8\n      shr\n      0xf8\n      shl\n        /* \"contracts/ticket.sol\":2987:3013  bytes1 _letra = _nombre[0] */\n      swap1\n      pop\n        /* \"contracts/ticket.sol\":3041:3045  0x60 */\n      0x60\n        /* \"contracts/ticket.sol\":3032:3045  _letra > 0x60 */\n      0xf8\n      shl\n        /* \"contracts/ticket.sol\":3032:3038  _letra */\n      dup2\n        /* \"contracts/ticket.sol\":3032:3045  _letra > 0x60 */\n      not(0xffffffffffffffffffffffffffffffffffffffffffffffffffffffffffffff)\n      and\n      gt\n        /* \"contracts/ticket.sol\":3024:3065  require(_letra > 0x60, \"No es minuscula\") */\n      tag_107\n      jumpi\n      mload(0x40)\n      0x08c379a000000000000000000000000000000000000000000000000000000000\n      dup2\n      mstore\n      0x04\n      add\n      tag_108\n      swap1\n      tag_109\n      jump\t// in\n    tag_108:\n      mload(0x40)\n      dup1\n      swap2\n      sub\n      swap1\n      revert\n    tag_107:\n        /* \"contracts/ticket.sol\":3108:3112  0x20 */\n      0x20\n        /* \"contracts/ticket.sol\":3098:3104  _letra */\n      dup2\n        /* \"contracts/ticket.sol\":3092:3105  uint8(_letra) */\n      0xf8\n      shr\n        /* \"contracts/ticket.sol\":3092:3112  uint8(_letra) + 0x20 */\n      tag_110\n      swap2\n      swap1\n      tag_111\n      jump\t// in\n    tag_110:\n        /* \"contracts/ticket.sol\":3085:3113  bytes1(uint8(_letra) + 0x20) */\n      0xf8\n      shl\n        /* \"contracts/ticket.sol\":3076:3113  _letra = bytes1(uint8(_letra) + 0x20) */\n      swap1\n      pop\n        /* \"contracts/ticket.sol\":3163:3169  _letra */\n      dup1\n        /* \"contracts/ticket.sol\":3130:3137  cliente */\n      0x02\n        /* \"contracts/ticket.sol\":3130:3149  cliente[msg.sender] */\n      0x00\n        /* \"contracts/ticket.sol\":3138:3148  msg.sender */\n      caller\n        /* \"contracts/ticket.sol\":3130:3149  cliente[msg.sender] */\n      0xffffffffffffffffffffffffffffffffffffffff\n      and\n      0xffffffffffffffffffffffffffffffffffffffff\n      and\n      dup2\n      mstore\n      0x20\n      add\n      swap1\n      dup2\n      mstore\n      0x20\n      add\n      0x00\n      keccak256\n        /* \"contracts/ticket.sol\":3130:3156  cliente[msg.sender].nombre */\n      0x01\n      add\n        /* \"contracts/ticket.sol\":3158:3159  0 */\n      0x00\n        /* \"contracts/ticket.sol\":3124:3160  bytes(cliente[msg.sender].nombre)[0] */\n      dup2\n      sload\n      tag_112\n      swap1\n      tag_43\n      jump\t// in\n    tag_112:\n      dup2\n      lt\n      tag_113\n      jumpi\n      tag_114\n      tag_76\n      jump\t// in\n    tag_114:\n    tag_113:\n      dup2\n      sload\n      0x01\n      and\n      iszero\n      tag_115\n      jumpi\n      swap1\n      0x00\n      mstore\n      keccak256(0x00, 0x20)\n      swap1\n      0x20\n      swap2\n      dup3\n      dup3\n      div\n      add\n      swap2\n      swap1\n      mod\n    tag_115:\n        /* \"contracts/ticket.sol\":3124:3169  bytes(cliente[msg.sender].nombre)[0] = _letra */\n      0x1f\n      sub\n      0x0100\n      exp\n      dup2\n      sload\n      dup2\n      0xff\n      mul\n      not\n      and\n      swap1\n      0x0100000000000000000000000000000000000000000000000000000000000000\n      dup5\n      div\n      mul\n      or\n      swap1\n      sstore\n      pop\n        /* \"contracts/ticket.sol\":2864:3178  {... */\n      pop\n      pop\n        /* \"contracts/ticket.sol\":2831:3178  function cambioLetra() external  {... */\n      jump\t// out\n        /* \"#utility.yul\":88:205   */\n    tag_117:\n        /* \"#utility.yul\":197:198   */\n      0x00\n        /* \"#utility.yul\":194:195   */\n      0x00\n        /* \"#utility.yul\":187:199   */\n      revert\n        /* \"#utility.yul\":211:328   */\n    tag_118:\n        /* \"#utility.yul\":320:321   */\n      0x00\n        /* \"#utility.yul\":317:318   */\n      0x00\n        /* \"#utility.yul\":310:322   */\n      revert\n        /* \"#utility.yul\":334:460   */\n    tag_119:\n        /* \"#utility.yul\":371:378   */\n      0x00\n        /* \"#utility.yul\":411:453   */\n      0xffffffffffffffffffffffffffffffffffffffff\n        /* \"#utility.yul\":404:409   */\n      dup3\n        /* \"#utility.yul\":400:454   */\n      and\n        /* \"#utility.yul\":389:454   */\n      swap1\n      pop\n        /* \"#utility.yul\":334:460   */\n      swap2\n      swap1\n      pop\n      jump\t// out\n        /* \"#utility.yul\":466:562   */\n    tag_120:\n        /* \"#utility.yul\":503:510   */\n      0x00\n        /* \"#utility.yul\":532:556   */\n      tag_174\n        /* \"#utility.yul\":550:555   */\n      dup3\n        /* \"#utility.yul\":532:556   */\n      tag_119\n      jump\t// in\n    tag_174:\n        /* \"#utility.yul\":521:556   */\n      swap1\n      pop\n        /* \"#utility.yul\":466:562   */\n      swap2\n      swap1\n      pop\n      jump\t// out\n        /* \"#utility.yul\":568:690   */\n    tag_121:\n        /* \"#utility.yul\":641:665   */\n      tag_176\n        /* \"#utility.yul\":659:664   */\n      dup2\n        /* \"#utility.yul\":641:665   */\n      tag_120\n      jump\t// in\n    tag_176:\n        /* \"#utility.yul\":634:639   */\n      dup2\n        /* \"#utility.yul\":631:666   */\n      eq\n        /* \"#utility.yul\":621:684   */\n      tag_177\n      jumpi\n        /* \"#utility.yul\":680:681   */\n      0x00\n        /* \"#utility.yul\":677:678   */\n      0x00\n        /* \"#utility.yul\":670:682   */\n      revert\n        /* \"#utility.yul\":621:684   */\n    tag_177:\n        /* \"#utility.yul\":568:690   */\n      pop\n      jump\t// out\n        /* \"#utility.yul\":696:835   */\n    tag_122:\n        /* \"#utility.yul\":742:747   */\n      0x00\n        /* \"#utility.yul\":780:786   */\n      dup2\n        /* \"#utility.yul\":767:787   */\n      calldataload\n        /* \"#utility.yul\":758:787   */\n      swap1\n      pop\n        /* \"#utility.yul\":796:829   */\n      tag_179\n        /* \"#utility.yul\":823:828   */\n      dup2\n        /* \"#utility.yul\":796:829   */\n      tag_121\n      jump\t// in\n    tag_179:\n        /* \"#utility.yul\":696:835   */\n      swap3\n      swap2\n      pop\n      pop\n      jump\t// out\n        /* \"#utility.yul\":841:1170   */\n    tag_16:\n        /* \"#utility.yul\":900:906   */\n      0x00\n        /* \"#utility.yul\":949:951   */\n      0x20\n        /* \"#utility.yul\":937:946   */\n      dup3\n        /* \"#utility.yul\":928:935   */\n      dup5\n        /* \"#utility.yul\":924:947   */\n      sub\n        /* \"#utility.yul\":920:952   */\n      slt\n        /* \"#utility.yul\":917:1036   */\n      iszero\n      tag_181\n      jumpi\n        /* \"#utility.yul\":955:1034   */\n      tag_182\n      tag_117\n      jump\t// in\n    tag_182:\n        /* \"#utility.yul\":917:1036   */\n    tag_181:\n        /* \"#utility.yul\":1075:1076   */\n      0x00\n        /* \"#utility.yul\":1100:1153   */\n      tag_183\n        /* \"#utility.yul\":1145:1152   */\n      dup5\n        /* \"#utility.yul\":1136:1142   */\n      dup3\n        /* \"#utility.yul\":1125:1134   */\n      dup6\n        /* \"#utility.yul\":1121:1143   */\n      add\n        /* \"#utility.yul\":1100:1153   */\n      tag_122\n      jump\t// in\n    tag_183:\n        /* \"#utility.yul\":1090:1153   */\n      swap2\n      pop\n        /* \"#utility.yul\":1046:1163   */\n      pop\n        /* \"#utility.yul\":841:1170   */\n      swap3\n      swap2\n      pop\n      pop\n      jump\t// out\n        /* \"#utility.yul\":1176:1253   */\n    tag_123:\n        /* \"#utility.yul\":1213:1220   */\n      0x00\n        /* \"#utility.yul\":1242:1247   */\n      dup2\n        /* \"#utility.yul\":1231:1247   */\n      swap1\n      pop\n        /* \"#utility.yul\":1176:1253   */\n      swap2\n      swap1\n      pop\n      jump\t// out\n        /* \"#utility.yul\":1259:1377   */\n    tag_124:\n        /* \"#utility.yul\":1346:1370   */\n      tag_186\n        /* \"#utility.yul\":1364:1369   */\n      dup2\n        /* \"#utility.yul\":1346:1370   */\n      tag_123\n      jump\t// in\n    tag_186:\n        /* \"#utility.yul\":1341:1344   */\n      dup3\n        /* \"#utility.yul\":1334:1371   */\n      mstore\n        /* \"#utility.yul\":1259:1377   */\n      pop\n      pop\n      jump\t// out\n        /* \"#utility.yul\":1383:1482   */\n    tag_125:\n        /* \"#utility.yul\":1435:1441   */\n      0x00\n        /* \"#utility.yul\":1469:1474   */\n      dup2\n        /* \"#utility.yul\":1463:1475   */\n      mload\n        /* \"#utility.yul\":1453:1475   */\n      swap1\n      pop\n        /* \"#utility.yul\":1383:1482   */\n      swap2\n      swap1\n      pop\n      jump\t// out\n        /* \"#utility.yul\":1488:1657   */\n    tag_126:\n        /* \"#utility.yul\":1572:1583   */\n      0x00\n        /* \"#utility.yul\":1606:1612   */\n      dup3\n        /* \"#utility.yul\":1601:1604   */\n      dup3\n        /* \"#utility.yul\":1594:1613   */\n      mstore\n        /* \"#utility.yul\":1646:1650   */\n      0x20\n        /* \"#utility.yul\":1641:1644   */\n      dup3\n        /* \"#utility.yul\":1637:1651   */\n      add\n        /* \"#utility.yul\":1622:1651   */\n      swap1\n      pop\n        /* \"#utility.yul\":1488:1657   */\n      swap3\n      swap2\n      pop\n      pop\n      jump\t// out\n        /* \"#utility.yul\":1663:1802   */\n    tag_127:\n        /* \"#utility.yul\":1752:1758   */\n      dup3\n        /* \"#utility.yul\":1747:1750   */\n      dup2\n        /* \"#utility.yul\":1742:1745   */\n      dup4\n        /* \"#utility.yul\":1736:1759   */\n      mcopy\n        /* \"#utility.yul\":1793:1794   */\n      0x00\n        /* \"#utility.yul\":1784:1790   */\n      dup4\n        /* \"#utility.yul\":1779:1782   */\n      dup4\n        /* \"#utility.yul\":1775:1791   */\n      add\n        /* \"#utility.yul\":1768:1795   */\n      mstore\n        /* \"#utility.yul\":1663:1802   */\n      pop\n      pop\n      pop\n      jump\t// out\n        /* \"#utility.yul\":1808:1910   */\n    tag_128:\n        /* \"#utility.yul\":1849:1855   */\n      0x00\n        /* \"#utility.yul\":1900:1902   */\n      0x1f\n        /* \"#utility.yul\":1896:1903   */\n      not\n        /* \"#utility.yul\":1891:1893   */\n      0x1f\n        /* \"#utility.yul\":1884:1889   */\n      dup4\n        /* \"#utility.yul\":1880:1894   */\n      add\n        /* \"#utility.yul\":1876:1904   */\n      and\n        /* \"#utility.yul\":1866:1904   */\n      swap1\n      pop\n        /* \"#utility.yul\":1808:1910   */\n      swap2\n      swap1\n      pop\n      jump\t// out\n        /* \"#utility.yul\":1916:2293   */\n    tag_129:\n        /* \"#utility.yul\":2004:2007   */\n      0x00\n        /* \"#utility.yul\":2032:2071   */\n      tag_192\n        /* \"#utility.yul\":2065:2070   */\n      dup3\n        /* \"#utility.yul\":2032:2071   */\n      tag_125\n      jump\t// in\n    tag_192:\n        /* \"#utility.yul\":2087:2158   */\n      tag_193\n        /* \"#utility.yul\":2151:2157   */\n      dup2\n        /* \"#utility.yul\":2146:2149   */\n      dup6\n        /* \"#utility.yul\":2087:2158   */\n      tag_126\n      jump\t// in\n    tag_193:\n        /* \"#utility.yul\":2080:2158   */\n      swap4\n      pop\n        /* \"#utility.yul\":2167:2232   */\n      tag_194\n        /* \"#utility.yul\":2225:2231   */\n      dup2\n        /* \"#utility.yul\":2220:2223   */\n      dup6\n        /* \"#utility.yul\":2213:2217   */\n      0x20\n        /* \"#utility.yul\":2206:2211   */\n      dup7\n        /* \"#utility.yul\":2202:2218   */\n      add\n        /* \"#utility.yul\":2167:2232   */\n      tag_127\n      jump\t// in\n    tag_194:\n        /* \"#utility.yul\":2257:2286   */\n      tag_195\n        /* \"#utility.yul\":2279:2285   */\n      dup2\n        /* \"#utility.yul\":2257:2286   */\n      tag_128\n      jump\t// in\n    tag_195:\n        /* \"#utility.yul\":2252:2255   */\n      dup5\n        /* \"#utility.yul\":2248:2287   */\n      add\n        /* \"#utility.yul\":2241:2287   */\n      swap2\n      pop\n        /* \"#utility.yul\":2008:2293   */\n      pop\n        /* \"#utility.yul\":1916:2293   */\n      swap3\n      swap2\n      pop\n      pop\n      jump\t// out\n        /* \"#utility.yul\":2299:2832   */\n    tag_19:\n        /* \"#utility.yul\":2468:2472   */\n      0x00\n        /* \"#utility.yul\":2506:2508   */\n      0x60\n        /* \"#utility.yul\":2495:2504   */\n      dup3\n        /* \"#utility.yul\":2491:2509   */\n      add\n        /* \"#utility.yul\":2483:2509   */\n      swap1\n      pop\n        /* \"#utility.yul\":2519:2590   */\n      tag_197\n        /* \"#utility.yul\":2587:2588   */\n      0x00\n        /* \"#utility.yul\":2576:2585   */\n      dup4\n        /* \"#utility.yul\":2572:2589   */\n      add\n        /* \"#utility.yul\":2563:2569   */\n      dup7\n        /* \"#utility.yul\":2519:2590   */\n      tag_124\n      jump\t// in\n    tag_197:\n        /* \"#utility.yul\":2637:2646   */\n      dup2\n        /* \"#utility.yul\":2631:2635   */\n      dup2\n        /* \"#utility.yul\":2627:2647   */\n      sub\n        /* \"#utility.yul\":2622:2624   */\n      0x20\n        /* \"#utility.yul\":2611:2620   */\n      dup4\n        /* \"#utility.yul\":2607:2625   */\n      add\n        /* \"#utility.yul\":2600:2648   */\n      mstore\n        /* \"#utility.yul\":2665:2743   */\n      tag_198\n        /* \"#utility.yul\":2738:2742   */\n      dup2\n        /* \"#utility.yul\":2729:2735   */\n      dup6\n        /* \"#utility.yul\":2665:2743   */\n      tag_129\n      jump\t// in\n    tag_198:\n        /* \"#utility.yul\":2657:2743   */\n      swap1\n      pop\n        /* \"#utility.yul\":2753:2825   */\n      tag_199\n        /* \"#utility.yul\":2821:2823   */\n      0x40\n        /* \"#utility.yul\":2810:2819   */\n      dup4\n        /* \"#utility.yul\":2806:2824   */\n      add\n        /* \"#utility.yul\":2797:2803   */\n      dup5\n        /* \"#utility.yul\":2753:2825   */\n      tag_124\n      jump\t// in\n    tag_199:\n        /* \"#utility.yul\":2299:2832   */\n      swap5\n      swap4\n      pop\n      pop\n      pop\n      pop\n      jump\t// out\n        /* \"#utility.yul\":2838:2955   */\n    tag_130:\n        /* \"#utility.yul\":2947:2948   */\n      0x00\n        /* \"#utility.yul\":2944:2945   */\n      0x00\n        /* \"#utility.yul\":2937:2949   */\n      revert\n        /* \"#utility.yul\":2961:3078   */\n    tag_131:\n        /* \"#utility.yul\":3070:3071   */\n      0x00\n        /* \"#utility.yul\":3067:3068   */\n      0x00\n        /* \"#utility.yul\":3060:3072   */\n      revert\n        /* \"#utility.yul\":3084:3201   */\n    tag_132:\n        /* \"#utility.yul\":3193:3194   */\n      0x00\n        /* \"#utility.yul\":3190:3191   */\n      0x00\n        /* \"#utility.yul\":3183:3195   */\n      revert\n        /* \"#utility.yul\":3221:3774   */\n    tag_133:\n        /* \"#utility.yul\":3279:3287   */\n      0x00\n        /* \"#utility.yul\":3289:3295   */\n      0x00\n        /* \"#utility.yul\":3339:3342   */\n      dup4\n        /* \"#utility.yul\":3332:3336   */\n      0x1f\n        /* \"#utility.yul\":3324:3330   */\n      dup5\n        /* \"#utility.yul\":3320:3337   */\n      add\n        /* \"#utility.yul\":3316:3343   */\n      slt\n        /* \"#utility.yul\":3306:3428   */\n      tag_204\n      jumpi\n        /* \"#utility.yul\":3347:3426   */\n      tag_205\n      tag_130\n      jump\t// in\n    tag_205:\n        /* \"#utility.yul\":3306:3428   */\n    tag_204:\n        /* \"#utility.yul\":3460:3466   */\n      dup3\n        /* \"#utility.yul\":3447:3467   */\n      calldataload\n        /* \"#utility.yul\":3437:3467   */\n      swap1\n      pop\n        /* \"#utility.yul\":3490:3508   */\n      0xffffffffffffffff\n        /* \"#utility.yul\":3482:3488   */\n      dup2\n        /* \"#utility.yul\":3479:3509   */\n      gt\n        /* \"#utility.yul\":3476:3593   */\n      iszero\n      tag_206\n      jumpi\n        /* \"#utility.yul\":3512:3591   */\n      tag_207\n      tag_131\n      jump\t// in\n    tag_207:\n        /* \"#utility.yul\":3476:3593   */\n    tag_206:\n        /* \"#utility.yul\":3626:3630   */\n      0x20\n        /* \"#utility.yul\":3618:3624   */\n      dup4\n        /* \"#utility.yul\":3614:3631   */\n      add\n        /* \"#utility.yul\":3602:3631   */\n      swap2\n      pop\n        /* \"#utility.yul\":3680:3683   */\n      dup4\n        /* \"#utility.yul\":3672:3676   */\n      0x01\n        /* \"#utility.yul\":3664:3670   */\n      dup3\n        /* \"#utility.yul\":3660:3677   */\n      mul\n        /* \"#utility.yul\":3650:3658   */\n      dup4\n        /* \"#utility.yul\":3646:3678   */\n      add\n        /* \"#utility.yul\":3643:3684   */\n      gt\n        /* \"#utility.yul\":3640:3768   */\n      iszero\n      tag_208\n      jumpi\n        /* \"#utility.yul\":3687:3766   */\n      tag_209\n      tag_132\n      jump\t// in\n    tag_209:\n        /* \"#utility.yul\":3640:3768   */\n    tag_208:\n        /* \"#utility.yul\":3221:3774   */\n      swap3\n      pop\n      swap3\n      swap1\n      pop\n      jump\t// out\n        /* \"#utility.yul\":3780:4309   */\n    tag_22:\n        /* \"#utility.yul\":3851:3857   */\n      0x00\n        /* \"#utility.yul\":3859:3865   */\n      0x00\n        /* \"#utility.yul\":3908:3910   */\n      0x20\n        /* \"#utility.yul\":3896:3905   */\n      dup4\n        /* \"#utility.yul\":3887:3894   */\n      dup6\n        /* \"#utility.yul\":3883:3906   */\n      sub\n        /* \"#utility.yul\":3879:3911   */\n      slt\n        /* \"#utility.yul\":3876:3995   */\n      iszero\n      tag_211\n      jumpi\n        /* \"#utility.yul\":3914:3993   */\n      tag_212\n      tag_117\n      jump\t// in\n    tag_212:\n        /* \"#utility.yul\":3876:3995   */\n    tag_211:\n        /* \"#utility.yul\":4062:4063   */\n      0x00\n        /* \"#utility.yul\":4051:4060   */\n      dup4\n        /* \"#utility.yul\":4047:4064   */\n      add\n        /* \"#utility.yul\":4034:4065   */\n      calldataload\n        /* \"#utility.yul\":4092:4110   */\n      0xffffffffffffffff\n        /* \"#utility.yul\":4084:4090   */\n      dup2\n        /* \"#utility.yul\":4081:4111   */\n      gt\n        /* \"#utility.yul\":4078:4195   */\n      iszero\n      tag_213\n      jumpi\n        /* \"#utility.yul\":4114:4193   */\n      tag_214\n      tag_118\n      jump\t// in\n    tag_214:\n        /* \"#utility.yul\":4078:4195   */\n    tag_213:\n        /* \"#utility.yul\":4227:4292   */\n      tag_215\n        /* \"#utility.yul\":4284:4291   */\n      dup6\n        /* \"#utility.yul\":4275:4281   */\n      dup3\n        /* \"#utility.yul\":4264:4273   */\n      dup7\n        /* \"#utility.yul\":4260:4282   */\n      add\n        /* \"#utility.yul\":4227:4292   */\n      tag_133\n      jump\t// in\n    tag_215:\n        /* \"#utility.yul\":4209:4292   */\n      swap3\n      pop\n      swap3\n      pop\n        /* \"#utility.yul\":4005:4302   */\n      pop\n        /* \"#utility.yul\":3780:4309   */\n      swap3\n      pop\n      swap3\n      swap1\n      pop\n      jump\t// out\n        /* \"#utility.yul\":4332:4900   */\n    tag_134:\n        /* \"#utility.yul\":4405:4413   */\n      0x00\n        /* \"#utility.yul\":4415:4421   */\n      0x00\n        /* \"#utility.yul\":4465:4468   */\n      dup4\n        /* \"#utility.yul\":4458:4462   */\n      0x1f\n        /* \"#utility.yul\":4450:4456   */\n      dup5\n        /* \"#utility.yul\":4446:4463   */\n      add\n        /* \"#utility.yul\":4442:4469   */\n      slt\n        /* \"#utility.yul\":4432:4554   */\n      tag_217\n      jumpi\n        /* \"#utility.yul\":4473:4552   */\n      tag_218\n      tag_130\n      jump\t// in\n    tag_218:\n        /* \"#utility.yul\":4432:4554   */\n    tag_217:\n        /* \"#utility.yul\":4586:4592   */\n      dup3\n        /* \"#utility.yul\":4573:4593   */\n      calldataload\n        /* \"#utility.yul\":4563:4593   */\n      swap1\n      pop\n        /* \"#utility.yul\":4616:4634   */\n      0xffffffffffffffff\n        /* \"#utility.yul\":4608:4614   */\n      dup2\n        /* \"#utility.yul\":4605:4635   */\n      gt\n        /* \"#utility.yul\":4602:4719   */\n      iszero\n      tag_219\n      jumpi\n        /* \"#utility.yul\":4638:4717   */\n      tag_220\n      tag_131\n      jump\t// in\n    tag_220:\n        /* \"#utility.yul\":4602:4719   */\n    tag_219:\n        /* \"#utility.yul\":4752:4756   */\n      0x20\n        /* \"#utility.yul\":4744:4750   */\n      dup4\n        /* \"#utility.yul\":4740:4757   */\n      add\n        /* \"#utility.yul\":4728:4757   */\n      swap2\n      pop\n        /* \"#utility.yul\":4806:4809   */\n      dup4\n        /* \"#utility.yul\":4798:4802   */\n      0x20\n        /* \"#utility.yul\":4790:4796   */\n      dup3\n        /* \"#utility.yul\":4786:4803   */\n      mul\n        /* \"#utility.yul\":4776:4784   */\n      dup4\n        /* \"#utility.yul\":4772:4804   */\n      add\n        /* \"#utility.yul\":4769:4810   */\n      gt\n        /* \"#utility.yul\":4766:4894   */\n      iszero\n      tag_221\n      jumpi\n        /* \"#utility.yul\":4813:4892   */\n      tag_222\n      tag_132\n      jump\t// in\n    tag_222:\n        /* \"#utility.yul\":4766:4894   */\n    tag_221:\n        /* \"#utility.yul\":4332:4900   */\n      swap3\n      pop\n      swap3\n      swap1\n      pop\n      jump\t// out\n        /* \"#utility.yul\":4936:5527   */\n    tag_135:\n        /* \"#utility.yul\":5032:5040   */\n      0x00\n        /* \"#utility.yul\":5042:5048   */\n      0x00\n        /* \"#utility.yul\":5092:5095   */\n      dup4\n        /* \"#utility.yul\":5085:5089   */\n      0x1f\n        /* \"#utility.yul\":5077:5083   */\n      dup5\n        /* \"#utility.yul\":5073:5090   */\n      add\n        /* \"#utility.yul\":5069:5096   */\n      slt\n        /* \"#utility.yul\":5059:5181   */\n      tag_224\n      jumpi\n        /* \"#utility.yul\":5100:5179   */\n      tag_225\n      tag_130\n      jump\t// in\n    tag_225:\n        /* \"#utility.yul\":5059:5181   */\n    tag_224:\n        /* \"#utility.yul\":5213:5219   */\n      dup3\n        /* \"#utility.yul\":5200:5220   */\n      calldataload\n        /* \"#utility.yul\":5190:5220   */\n      swap1\n      pop\n        /* \"#utility.yul\":5243:5261   */\n      0xffffffffffffffff\n        /* \"#utility.yul\":5235:5241   */\n      dup2\n        /* \"#utility.yul\":5232:5262   */\n      gt\n        /* \"#utility.yul\":5229:5346   */\n      iszero\n      tag_226\n      jumpi\n        /* \"#utility.yul\":5265:5344   */\n      tag_227\n      tag_131\n      jump\t// in\n    tag_227:\n        /* \"#utility.yul\":5229:5346   */\n    tag_226:\n        /* \"#utility.yul\":5379:5383   */\n      0x20\n        /* \"#utility.yul\":5371:5377   */\n      dup4\n        /* \"#utility.yul\":5367:5384   */\n      add\n        /* \"#utility.yul\":5355:5384   */\n      swap2\n      pop\n        /* \"#utility.yul\":5433:5436   */\n      dup4\n        /* \"#utility.yul\":5425:5429   */\n      0x20\n        /* \"#utility.yul\":5417:5423   */\n      dup3\n        /* \"#utility.yul\":5413:5430   */\n      mul\n        /* \"#utility.yul\":5403:5411   */\n      dup4\n        /* \"#utility.yul\":5399:5431   */\n      add\n        /* \"#utility.yul\":5396:5437   */\n      gt\n        /* \"#utility.yul\":5393:5521   */\n      iszero\n      tag_228\n      jumpi\n        /* \"#utility.yul\":5440:5519   */\n      tag_229\n      tag_132\n      jump\t// in\n    tag_229:\n        /* \"#utility.yul\":5393:5521   */\n    tag_228:\n        /* \"#utility.yul\":4936:5527   */\n      swap3\n      pop\n      swap3\n      swap1\n      pop\n      jump\t// out\n        /* \"#utility.yul\":5533:6513   */\n    tag_27:\n        /* \"#utility.yul\":5678:5684   */\n      0x00\n        /* \"#utility.yul\":5686:5692   */\n      0x00\n        /* \"#utility.yul\":5694:5700   */\n      0x00\n        /* \"#utility.yul\":5702:5708   */\n      0x00\n        /* \"#utility.yul\":5751:5753   */\n      0x40\n        /* \"#utility.yul\":5739:5748   */\n      dup6\n        /* \"#utility.yul\":5730:5737   */\n      dup8\n        /* \"#utility.yul\":5726:5749   */\n      sub\n        /* \"#utility.yul\":5722:5754   */\n      slt\n        /* \"#utility.yul\":5719:5838   */\n      iszero\n      tag_231\n      jumpi\n        /* \"#utility.yul\":5757:5836   */\n      tag_232\n      tag_117\n      jump\t// in\n    tag_232:\n        /* \"#utility.yul\":5719:5838   */\n    tag_231:\n        /* \"#utility.yul\":5905:5906   */\n      0x00\n        /* \"#utility.yul\":5894:5903   */\n      dup6\n        /* \"#utility.yul\":5890:5907   */\n      add\n        /* \"#utility.yul\":5877:5908   */\n      calldataload\n        /* \"#utility.yul\":5935:5953   */\n      0xffffffffffffffff\n        /* \"#utility.yul\":5927:5933   */\n      dup2\n        /* \"#utility.yul\":5924:5954   */\n      gt\n        /* \"#utility.yul\":5921:6038   */\n      iszero\n      tag_233\n      jumpi\n        /* \"#utility.yul\":5957:6036   */\n      tag_234\n      tag_118\n      jump\t// in\n    tag_234:\n        /* \"#utility.yul\":5921:6038   */\n    tag_233:\n        /* \"#utility.yul\":6070:6150   */\n      tag_235\n        /* \"#utility.yul\":6142:6149   */\n      dup8\n        /* \"#utility.yul\":6133:6139   */\n      dup3\n        /* \"#utility.yul\":6122:6131   */\n      dup9\n        /* \"#utility.yul\":6118:6140   */\n      add\n        /* \"#utility.yul\":6070:6150   */\n      tag_134\n      jump\t// in\n    tag_235:\n        /* \"#utility.yul\":6052:6150   */\n      swap5\n      pop\n      swap5\n      pop\n        /* \"#utility.yul\":5848:6160   */\n      pop\n        /* \"#utility.yul\":6227:6229   */\n      0x20\n        /* \"#utility.yul\":6216:6225   */\n      dup6\n        /* \"#utility.yul\":6212:6230   */\n      add\n        /* \"#utility.yul\":6199:6231   */\n      calldataload\n        /* \"#utility.yul\":6258:6276   */\n      0xffffffffffffffff\n        /* \"#utility.yul\":6250:6256   */\n      dup2\n        /* \"#utility.yul\":6247:6277   */\n      gt\n        /* \"#utility.yul\":6244:6361   */\n      iszero\n      tag_236\n      jumpi\n        /* \"#utility.yul\":6280:6359   */\n      tag_237\n      tag_118\n      jump\t// in\n    tag_237:\n        /* \"#utility.yul\":6244:6361   */\n    tag_236:\n        /* \"#utility.yul\":6393:6496   */\n      tag_238\n        /* \"#utility.yul\":6488:6495   */\n      dup8\n        /* \"#utility.yul\":6479:6485   */\n      dup3\n        /* \"#utility.yul\":6468:6477   */\n      dup9\n        /* \"#utility.yul\":6464:6486   */\n      add\n        /* \"#utility.yul\":6393:6496   */\n      tag_135\n      jump\t// in\n    tag_238:\n        /* \"#utility.yul\":6375:6496   */\n      swap3\n      pop\n      swap3\n      pop\n        /* \"#utility.yul\":6170:6506   */\n      pop\n        /* \"#utility.yul\":5533:6513   */\n      swap3\n      swap6\n      swap2\n      swap5\n      pop\n      swap3\n      pop\n      jump\t// out\n        /* \"#utility.yul\":6519:6741   */\n    tag_33:\n        /* \"#utility.yul\":6612:6616   */\n      0x00\n        /* \"#utility.yul\":6650:6652   */\n      0x20\n        /* \"#utility.yul\":6639:6648   */\n      dup3\n        /* \"#utility.yul\":6635:6653   */\n      add\n        /* \"#utility.yul\":6627:6653   */\n      swap1\n      pop\n        /* \"#utility.yul\":6663:6734   */\n      tag_240\n        /* \"#utility.yul\":6731:6732   */\n      0x00\n        /* \"#utility.yul\":6720:6729   */\n      dup4\n        /* \"#utility.yul\":6716:6733   */\n      add\n        /* \"#utility.yul\":6707:6713   */\n      dup5\n        /* \"#utility.yul\":6663:6734   */\n      tag_124\n      jump\t// in\n    tag_240:\n        /* \"#utility.yul\":6519:6741   */\n      swap3\n      swap2\n      pop\n      pop\n      jump\t// out\n        /* \"#utility.yul\":6747:6927   */\n    tag_136:\n        /* \"#utility.yul\":6795:6872   */\n      0x4e487b7100000000000000000000000000000000000000000000000000000000\n        /* \"#utility.yul\":6792:6793   */\n      0x00\n        /* \"#utility.yul\":6785:6873   */\n      mstore\n        /* \"#utility.yul\":6892:6896   */\n      0x22\n        /* \"#utility.yul\":6889:6890   */\n      0x04\n        /* \"#utility.yul\":6882:6897   */\n      mstore\n        /* \"#utility.yul\":6916:6920   */\n      0x24\n        /* \"#utility.yul\":6913:6914   */\n      0x00\n        /* \"#utility.yul\":6906:6921   */\n      revert\n        /* \"#utility.yul\":6933:7253   */\n    tag_43:\n        /* \"#utility.yul\":6977:6983   */\n      0x00\n        /* \"#utility.yul\":7014:7015   */\n      0x02\n        /* \"#utility.yul\":7008:7012   */\n      dup3\n        /* \"#utility.yul\":7004:7016   */\n      div\n        /* \"#utility.yul\":6994:7016   */\n      swap1\n      pop\n        /* \"#utility.yul\":7061:7062   */\n      0x01\n        /* \"#utility.yul\":7055:7059   */\n      dup3\n        /* \"#utility.yul\":7051:7063   */\n      and\n        /* \"#utility.yul\":7082:7100   */\n      dup1\n        /* \"#utility.yul\":7072:7153   */\n      tag_243\n      jumpi\n        /* \"#utility.yul\":7138:7142   */\n      0x7f\n        /* \"#utility.yul\":7130:7136   */\n      dup3\n        /* \"#utility.yul\":7126:7143   */\n      and\n        /* \"#utility.yul\":7116:7143   */\n      swap2\n      pop\n        /* \"#utility.yul\":7072:7153   */\n    tag_243:\n        /* \"#utility.yul\":7200:7202   */\n      0x20\n        /* \"#utility.yul\":7192:7198   */\n      dup3\n        /* \"#utility.yul\":7189:7203   */\n      lt\n        /* \"#utility.yul\":7169:7187   */\n      dup2\n        /* \"#utility.yul\":7166:7204   */\n      sub\n        /* \"#utility.yul\":7163:7247   */\n      tag_244\n      jumpi\n        /* \"#utility.yul\":7219:7237   */\n      tag_245\n      tag_136\n      jump\t// in\n    tag_245:\n        /* \"#utility.yul\":7163:7247   */\n    tag_244:\n        /* \"#utility.yul\":6984:7253   */\n      pop\n        /* \"#utility.yul\":6933:7253   */\n      swap2\n      swap1\n      pop\n      jump\t// out\n        /* \"#utility.yul\":7259:7419   */\n    tag_137:\n        /* \"#utility.yul\":7399:7411   */\n      0x4e6f20616c63616e7a6100000000000000000000000000000000000000000000\n        /* \"#utility.yul\":7395:7396   */\n      0x00\n        /* \"#utility.yul\":7387:7393   */\n      dup3\n        /* \"#utility.yul\":7383:7397   */\n      add\n        /* \"#utility.yul\":7376:7412   */\n      mstore\n        /* \"#utility.yul\":7259:7419   */\n      pop\n      jump\t// out\n        /* \"#utility.yul\":7425:7791   */\n    tag_138:\n        /* \"#utility.yul\":7567:7570   */\n      0x00\n        /* \"#utility.yul\":7588:7655   */\n      tag_248\n        /* \"#utility.yul\":7652:7654   */\n      0x0a\n        /* \"#utility.yul\":7647:7650   */\n      dup4\n        /* \"#utility.yul\":7588:7655   */\n      tag_126\n      jump\t// in\n    tag_248:\n        /* \"#utility.yul\":7581:7655   */\n      swap2\n      pop\n        /* \"#utility.yul\":7664:7757   */\n      tag_249\n        /* \"#utility.yul\":7753:7756   */\n      dup3\n        /* \"#utility.yul\":7664:7757   */\n      tag_137\n      jump\t// in\n    tag_249:\n        /* \"#utility.yul\":7782:7784   */\n      0x20\n        /* \"#utility.yul\":7777:7780   */\n      dup3\n        /* \"#utility.yul\":7773:7785   */\n      add\n        /* \"#utility.yul\":7766:7785   */\n      swap1\n      pop\n        /* \"#utility.yul\":7425:7791   */\n      swap2\n      swap1\n      pop\n      jump\t// out\n        /* \"#utility.yul\":7797:8216   */\n    tag_51:\n        /* \"#utility.yul\":7963:7967   */\n      0x00\n        /* \"#utility.yul\":8001:8003   */\n      0x20\n        /* \"#utility.yul\":7990:7999   */\n      dup3\n        /* \"#utility.yul\":7986:8004   */\n      add\n        /* \"#utility.yul\":7978:8004   */\n      swap1\n      pop\n        /* \"#utility.yul\":8050:8059   */\n      dup2\n        /* \"#utility.yul\":8044:8048   */\n      dup2\n        /* \"#utility.yul\":8040:8060   */\n      sub\n        /* \"#utility.yul\":8036:8037   */\n      0x00\n        /* \"#utility.yul\":8025:8034   */\n      dup4\n        /* \"#utility.yul\":8021:8038   */\n      add\n        /* \"#utility.yul\":8014:8061   */\n      mstore\n        /* \"#utility.yul\":8078:8209   */\n      tag_251\n        /* \"#utility.yul\":8204:8208   */\n      dup2\n        /* \"#utility.yul\":8078:8209   */\n      tag_138\n      jump\t// in\n    tag_251:\n        /* \"#utility.yul\":8070:8209   */\n      swap1\n      pop\n        /* \"#utility.yul\":7797:8216   */\n      swap2\n      swap1\n      pop\n      jump\t// out\n        /* \"#utility.yul\":8222:8402   */\n    tag_139:\n        /* \"#utility.yul\":8270:8347   */\n      0x4e487b7100000000000000000000000000000000000000000000000000000000\n        /* \"#utility.yul\":8267:8268   */\n      0x00\n        /* \"#utility.yul\":8260:8348   */\n      mstore\n        /* \"#utility.yul\":8367:8371   */\n      0x12\n        /* \"#utility.yul\":8364:8365   */\n      0x04\n        /* \"#utility.yul\":8357:8372   */\n      mstore\n        /* \"#utility.yul\":8391:8395   */\n      0x24\n        /* \"#utility.yul\":8388:8389   */\n      0x00\n        /* \"#utility.yul\":8381:8396   */\n      revert\n        /* \"#utility.yul\":8408:8588   */\n    tag_140:\n        /* \"#utility.yul\":8456:8533   */\n      0x4e487b7100000000000000000000000000000000000000000000000000000000\n        /* \"#utility.yul\":8453:8454   */\n      0x00\n        /* \"#utility.yul\":8446:8534   */\n      mstore\n        /* \"#utility.yul\":8553:8557   */\n      0x11\n        /* \"#utility.yul\":8550:8551   */\n      0x04\n        /* \"#utility.yul\":8543:8558   */\n      mstore\n        /* \"#utility.yul\":8577:8581   */\n      0x24\n        /* \"#utility.yul\":8574:8575   */\n      0x00\n        /* \"#utility.yul\":8567:8582   */\n      revert\n        /* \"#utility.yul\":8594:8779   */\n    tag_53:\n        /* \"#utility.yul\":8634:8635   */\n      0x00\n        /* \"#utility.yul\":8651:8671   */\n      tag_255\n        /* \"#utility.yul\":8669:8670   */\n      dup3\n        /* \"#utility.yul\":8651:8671   */\n      tag_123\n      jump\t// in\n    tag_255:\n        /* \"#utility.yul\":8646:8671   */\n      swap2\n      pop\n        /* \"#utility.yul\":8685:8705   */\n      tag_256\n        /* \"#utility.yul\":8703:8704   */\n      dup4\n        /* \"#utility.yul\":8685:8705   */\n      tag_123\n      jump\t// in\n    tag_256:\n        /* \"#utility.yul\":8680:8705   */\n      swap3\n      pop\n        /* \"#utility.yul\":8724:8725   */\n      dup3\n        /* \"#utility.yul\":8714:8749   */\n      tag_257\n      jumpi\n        /* \"#utility.yul\":8729:8747   */\n      tag_258\n      tag_139\n      jump\t// in\n    tag_258:\n        /* \"#utility.yul\":8714:8749   */\n    tag_257:\n        /* \"#utility.yul\":8771:8772   */\n      dup3\n        /* \"#utility.yul\":8768:8769   */\n      dup3\n        /* \"#utility.yul\":8764:8773   */\n      div\n        /* \"#utility.yul\":8759:8773   */\n      swap1\n      pop\n        /* \"#utility.yul\":8594:8779   */\n      swap3\n      swap2\n      pop\n      pop\n      jump\t// out\n        /* \"#utility.yul\":8785:8961   */\n    tag_55:\n        /* \"#utility.yul\":8817:8818   */\n      0x00\n        /* \"#utility.yul\":8834:8854   */\n      tag_260\n        /* \"#utility.yul\":8852:8853   */\n      dup3\n        /* \"#utility.yul\":8834:8854   */\n      tag_123\n      jump\t// in\n    tag_260:\n        /* \"#utility.yul\":8829:8854   */\n      swap2\n      pop\n        /* \"#utility.yul\":8868:8888   */\n      tag_261\n        /* \"#utility.yul\":8886:8887   */\n      dup4\n        /* \"#utility.yul\":8868:8888   */\n      tag_123\n      jump\t// in\n    tag_261:\n        /* \"#utility.yul\":8863:8888   */\n      swap3\n      pop\n        /* \"#utility.yul\":8907:8908   */\n      dup3\n        /* \"#utility.yul\":8897:8932   */\n      tag_262\n      jumpi\n        /* \"#utility.yul\":8912:8930   */\n      tag_263\n      tag_139\n      jump\t// in\n    tag_263:\n        /* \"#utility.yul\":8897:8932   */\n    tag_262:\n        /* \"#utility.yul\":8953:8954   */\n      dup3\n        /* \"#utility.yul\":8950:8951   */\n      dup3\n        /* \"#utility.yul\":8946:8955   */\n      mod\n        /* \"#utility.yul\":8941:8955   */\n      swap1\n      pop\n        /* \"#utility.yul\":8785:8961   */\n      swap3\n      swap2\n      pop\n      pop\n      jump\t// out\n        /* \"#utility.yul\":8967:9143   */\n    tag_141:\n        /* \"#utility.yul\":9107:9135   */\n      0x4e6f2074652076616d6f732061206465766f6c766572206d6173000000000000\n        /* \"#utility.yul\":9103:9104   */\n      0x00\n        /* \"#utility.yul\":9095:9101   */\n      dup3\n        /* \"#utility.yul\":9091:9105   */\n      add\n        /* \"#utility.yul\":9084:9136   */\n      mstore\n        /* \"#utility.yul\":8967:9143   */\n      pop\n      jump\t// out\n        /* \"#utility.yul\":9149:9515   */\n    tag_142:\n        /* \"#utility.yul\":9291:9294   */\n      0x00\n        /* \"#utility.yul\":9312:9379   */\n      tag_266\n        /* \"#utility.yul\":9376:9378   */\n      0x1a\n        /* \"#utility.yul\":9371:9374   */\n      dup4\n        /* \"#utility.yul\":9312:9379   */\n      tag_126\n      jump\t// in\n    tag_266:\n        /* \"#utility.yul\":9305:9379   */\n      swap2\n      pop\n        /* \"#utility.yul\":9388:9481   */\n      tag_267\n        /* \"#utility.yul\":9477:9480   */\n      dup3\n        /* \"#utility.yul\":9388:9481   */\n      tag_141\n      jump\t// in\n    tag_267:\n        /* \"#utility.yul\":9506:9508   */\n      0x20\n        /* \"#utility.yul\":9501:9504   */\n      dup3\n        /* \"#utility.yul\":9497:9509   */\n      add\n        /* \"#utility.yul\":9490:9509   */\n      swap1\n      pop\n        /* \"#utility.yul\":9149:9515   */\n      swap2\n      swap1\n      pop\n      jump\t// out\n        /* \"#utility.yul\":9521:9940   */\n    tag_58:\n        /* \"#utility.yul\":9687:9691   */\n      0x00\n        /* \"#utility.yul\":9725:9727   */\n      0x20\n        /* \"#utility.yul\":9714:9723   */\n      dup3\n        /* \"#utility.yul\":9710:9728   */\n      add\n        /* \"#utility.yul\":9702:9728   */\n      swap1\n      pop\n        /* \"#utility.yul\":9774:9783   */\n      dup2\n        /* \"#utility.yul\":9768:9772   */\n      dup2\n        /* \"#utility.yul\":9764:9784   */\n      sub\n        /* \"#utility.yul\":9760:9761   */\n      0x00\n        /* \"#utility.yul\":9749:9758   */\n      dup4\n        /* \"#utility.yul\":9745:9762   */\n      add\n        /* \"#utility.yul\":9738:9785   */\n      mstore\n        /* \"#utility.yul\":9802:9933   */\n      tag_269\n        /* \"#utility.yul\":9928:9932   */\n      dup2\n        /* \"#utility.yul\":9802:9933   */\n      tag_142\n      jump\t// in\n    tag_269:\n        /* \"#utility.yul\":9794:9933   */\n      swap1\n      pop\n        /* \"#utility.yul\":9521:9940   */\n      swap2\n      swap1\n      pop\n      jump\t// out\n        /* \"#utility.yul\":9946:10043   */\n    tag_143:\n        /* \"#utility.yul\":10005:10011   */\n      0x00\n        /* \"#utility.yul\":10033:10036   */\n      dup3\n        /* \"#utility.yul\":10023:10036   */\n      swap1\n      pop\n        /* \"#utility.yul\":9946:10043   */\n      swap3\n      swap2\n      pop\n      pop\n      jump\t// out\n        /* \"#utility.yul\":10049:10229   */\n    tag_144:\n        /* \"#utility.yul\":10097:10174   */\n      0x4e487b7100000000000000000000000000000000000000000000000000000000\n        /* \"#utility.yul\":10094:10095   */\n      0x00\n        /* \"#utility.yul\":10087:10175   */\n      mstore\n        /* \"#utility.yul\":10194:10198   */\n      0x41\n        /* \"#utility.yul\":10191:10192   */\n      0x04\n        /* \"#utility.yul\":10184:10199   */\n      mstore\n        /* \"#utility.yul\":10218:10222   */\n      0x24\n        /* \"#utility.yul\":10215:10216   */\n      0x00\n        /* \"#utility.yul\":10208:10223   */\n      revert\n        /* \"#utility.yul\":10235:10376   */\n    tag_145:\n        /* \"#utility.yul\":10284:10288   */\n      0x00\n        /* \"#utility.yul\":10307:10310   */\n      dup2\n        /* \"#utility.yul\":10299:10310   */\n      swap1\n      pop\n        /* \"#utility.yul\":10330:10333   */\n      dup2\n        /* \"#utility.yul\":10327:10328   */\n      0x00\n        /* \"#utility.yul\":10320:10334   */\n      mstore\n        /* \"#utility.yul\":10364:10368   */\n      0x20\n        /* \"#utility.yul\":10361:10362   */\n      0x00\n        /* \"#utility.yul\":10351:10369   */\n      keccak256\n        /* \"#utility.yul\":10343:10369   */\n      swap1\n      pop\n        /* \"#utility.yul\":10235:10376   */\n      swap2\n      swap1\n      pop\n      jump\t// out\n        /* \"#utility.yul\":10382:10475   */\n    tag_146:\n        /* \"#utility.yul\":10419:10425   */\n      0x00\n        /* \"#utility.yul\":10466:10468   */\n      0x20\n        /* \"#utility.yul\":10461:10463   */\n      0x1f\n        /* \"#utility.yul\":10454:10459   */\n      dup4\n        /* \"#utility.yul\":10450:10464   */\n      add\n        /* \"#utility.yul\":10446:10469   */\n      div\n        /* \"#utility.yul\":10436:10469   */\n      swap1\n      pop\n        /* \"#utility.yul\":10382:10475   */\n      swap2\n      swap1\n      pop\n      jump\t// out\n        /* \"#utility.yul\":10481:10588   */\n    tag_147:\n        /* \"#utility.yul\":10525:10533   */\n      0x00\n        /* \"#utility.yul\":10575:10580   */\n      dup3\n        /* \"#utility.yul\":10569:10573   */\n      dup3\n        /* \"#utility.yul\":10565:10581   */\n      shl\n        /* \"#utility.yul\":10544:10581   */\n      swap1\n      pop\n        /* \"#utility.yul\":10481:10588   */\n      swap3\n      swap2\n      pop\n      pop\n      jump\t// out\n        /* \"#utility.yul\":10594:10987   */\n    tag_148:\n        /* \"#utility.yul\":10663:10669   */\n      0x00\n        /* \"#utility.yul\":10713:10714   */\n      0x08\n        /* \"#utility.yul\":10701:10711   */\n      dup4\n        /* \"#utility.yul\":10697:10715   */\n      mul\n        /* \"#utility.yul\":10736:10833   */\n      tag_276\n        /* \"#utility.yul\":10766:10832   */\n      0xffffffffffffffffffffffffffffffffffffffffffffffffffffffffffffffff\n        /* \"#utility.yul\":10755:10764   */\n      dup3\n        /* \"#utility.yul\":10736:10833   */\n      tag_147\n      jump\t// in\n    tag_276:\n        /* \"#utility.yul\":10854:10893   */\n      tag_277\n        /* \"#utility.yul\":10884:10892   */\n      dup7\n        /* \"#utility.yul\":10873:10882   */\n      dup4\n        /* \"#utility.yul\":10854:10893   */\n      tag_147\n      jump\t// in\n    tag_277:\n        /* \"#utility.yul\":10842:10893   */\n      swap6\n      pop\n        /* \"#utility.yul\":10926:10930   */\n      dup1\n        /* \"#utility.yul\":10922:10931   */\n      not\n        /* \"#utility.yul\":10915:10920   */\n      dup5\n        /* \"#utility.yul\":10911:10932   */\n      and\n        /* \"#utility.yul\":10902:10932   */\n      swap4\n      pop\n        /* \"#utility.yul\":10975:10979   */\n      dup1\n        /* \"#utility.yul\":10965:10973   */\n      dup7\n        /* \"#utility.yul\":10961:10980   */\n      and\n        /* \"#utility.yul\":10954:10959   */\n      dup5\n        /* \"#utility.yul\":10951:10981   */\n      or\n        /* \"#utility.yul\":10941:10981   */\n      swap3\n      pop\n        /* \"#utility.yul\":10670:10987   */\n      pop\n      pop\n        /* \"#utility.yul\":10594:10987   */\n      swap4\n      swap3\n      pop\n      pop\n      pop\n      jump\t// out\n        /* \"#utility.yul\":10993:11053   */\n    tag_149:\n        /* \"#utility.yul\":11021:11024   */\n      0x00\n        /* \"#utility.yul\":11042:11047   */\n      dup2\n        /* \"#utility.yul\":11035:11047   */\n      swap1\n      pop\n        /* \"#utility.yul\":10993:11053   */\n      swap2\n      swap1\n      pop\n      jump\t// out\n        /* \"#utility.yul\":11059:11201   */\n    tag_150:\n        /* \"#utility.yul\":11109:11118   */\n      0x00\n        /* \"#utility.yul\":11142:11195   */\n      tag_280\n        /* \"#utility.yul\":11160:11194   */\n      tag_281\n        /* \"#utility.yul\":11169:11193   */\n      tag_282\n        /* \"#utility.yul\":11187:11192   */\n      dup5\n        /* \"#utility.yul\":11169:11193   */\n      tag_123\n      jump\t// in\n    tag_282:\n        /* \"#utility.yul\":11160:11194   */\n      tag_149\n      jump\t// in\n    tag_281:\n        /* \"#utility.yul\":11142:11195   */\n      tag_123\n      jump\t// in\n    tag_280:\n        /* \"#utility.yul\":11129:11195   */\n      swap1\n      pop\n        /* \"#utility.yul\":11059:11201   */\n      swap2\n      swap1\n      pop\n      jump\t// out\n        /* \"#utility.yul\":11207:11282   */\n    tag_151:\n        /* \"#utility.yul\":11250:11253   */\n      0x00\n        /* \"#utility.yul\":11271:11276   */\n      dup2\n        /* \"#utility.yul\":11264:11276   */\n      swap1\n      pop\n        /* \"#utility.yul\":11207:11282   */\n      swap2\n      swap1\n      pop\n      jump\t// out\n        /* \"#utility.yul\":11288:11557   */\n    tag_152:\n        /* \"#utility.yul\":11398:11437   */\n      tag_285\n        /* \"#utility.yul\":11429:11436   */\n      dup4\n        /* \"#utility.yul\":11398:11437   */\n      tag_150\n      jump\t// in\n    tag_285:\n        /* \"#utility.yul\":11459:11550   */\n      tag_286\n        /* \"#utility.yul\":11508:11549   */\n      tag_287\n        /* \"#utility.yul\":11532:11548   */\n      dup3\n        /* \"#utility.yul\":11508:11549   */\n      tag_151\n      jump\t// in\n    tag_287:\n        /* \"#utility.yul\":11500:11506   */\n      dup5\n        /* \"#utility.yul\":11493:11497   */\n      dup5\n        /* \"#utility.yul\":11487:11498   */\n      sload\n        /* \"#utility.yul\":11459:11550   */\n      tag_148\n      jump\t// in\n    tag_286:\n        /* \"#utility.yul\":11453:11457   */\n      dup3\n        /* \"#utility.yul\":11446:11551   */\n      sstore\n        /* \"#utility.yul\":11364:11557   */\n      pop\n        /* \"#utility.yul\":11288:11557   */\n      pop\n      pop\n      pop\n      jump\t// out\n        /* \"#utility.yul\":11563:11636   */\n    tag_153:\n        /* \"#utility.yul\":11608:11611   */\n      0x00\n        /* \"#utility.yul\":11629:11630   */\n      0x00\n        /* \"#utility.yul\":11622:11630   */\n      swap1\n      pop\n        /* \"#utility.yul\":11563:11636   */\n      swap1\n      jump\t// out\n        /* \"#utility.yul\":11642:11831   */\n    tag_154:\n        /* \"#utility.yul\":11719:11751   */\n      tag_290\n      tag_153\n      jump\t// in\n    tag_290:\n        /* \"#utility.yul\":11760:11825   */\n      tag_291\n        /* \"#utility.yul\":11818:11824   */\n      dup2\n        /* \"#utility.yul\":11810:11816   */\n      dup5\n        /* \"#utility.yul\":11804:11808   */\n      dup5\n        /* \"#utility.yul\":11760:11825   */\n      tag_152\n      jump\t// in\n    tag_291:\n        /* \"#utility.yul\":11695:11831   */\n      pop\n        /* \"#utility.yul\":11642:11831   */\n      pop\n      pop\n      jump\t// out\n        /* \"#utility.yul\":11837:12023   */\n    tag_155:\n        /* \"#utility.yul\":11897:12017   */\n    tag_293:\n        /* \"#utility.yul\":11914:11917   */\n      dup2\n        /* \"#utility.yul\":11907:11912   */\n      dup2\n        /* \"#utility.yul\":11904:11918   */\n      lt\n        /* \"#utility.yul\":11897:12017   */\n      iszero\n      tag_295\n      jumpi\n        /* \"#utility.yul\":11968:12007   */\n      tag_296\n        /* \"#utility.yul\":12005:12006   */\n      0x00\n        /* \"#utility.yul\":11998:12003   */\n      dup3\n        /* \"#utility.yul\":11968:12007   */\n      tag_154\n      jump\t// in\n    tag_296:\n        /* \"#utility.yul\":11941:11942   */\n      0x01\n        /* \"#utility.yul\":11934:11939   */\n      dup2\n        /* \"#utility.yul\":11930:11943   */\n      add\n        /* \"#utility.yul\":11921:11943   */\n      swap1\n      pop\n        /* \"#utility.yul\":11897:12017   */\n      jump(tag_293)\n    tag_295:\n        /* \"#utility.yul\":11837:12023   */\n      pop\n      pop\n      jump\t// out\n        /* \"#utility.yul\":12029:12572   */\n    tag_156:\n        /* \"#utility.yul\":12130:12132   */\n      0x1f\n        /* \"#utility.yul\":12125:12128   */\n      dup3\n        /* \"#utility.yul\":12122:12133   */\n      gt\n        /* \"#utility.yul\":12119:12565   */\n      iszero\n      tag_298\n      jumpi\n        /* \"#utility.yul\":12164:12202   */\n      tag_299\n        /* \"#utility.yul\":12196:12201   */\n      dup2\n        /* \"#utility.yul\":12164:12202   */\n      tag_145\n      jump\t// in\n    tag_299:\n        /* \"#utility.yul\":12248:12277   */\n      tag_300\n        /* \"#utility.yul\":12266:12276   */\n      dup5\n        /* \"#utility.yul\":12248:12277   */\n      tag_146\n      jump\t// in\n    tag_300:\n        /* \"#utility.yul\":12238:12246   */\n      dup2\n        /* \"#utility.yul\":12234:12278   */\n      add\n        /* \"#utility.yul\":12431:12433   */\n      0x20\n        /* \"#utility.yul\":12419:12429   */\n      dup6\n        /* \"#utility.yul\":12416:12434   */\n      lt\n        /* \"#utility.yul\":12413:12462   */\n      iszero\n      tag_301\n      jumpi\n        /* \"#utility.yul\":12452:12460   */\n      dup2\n        /* \"#utility.yul\":12437:12460   */\n      swap1\n      pop\n        /* \"#utility.yul\":12413:12462   */\n    tag_301:\n        /* \"#utility.yul\":12475:12555   */\n      tag_302\n        /* \"#utility.yul\":12531:12553   */\n      tag_303\n        /* \"#utility.yul\":12549:12552   */\n      dup6\n        /* \"#utility.yul\":12531:12553   */\n      tag_146\n      jump\t// in\n    tag_303:\n        /* \"#utility.yul\":12521:12529   */\n      dup4\n        /* \"#utility.yul\":12517:12554   */\n      add\n        /* \"#utility.yul\":12504:12515   */\n      dup3\n        /* \"#utility.yul\":12475:12555   */\n      tag_155\n      jump\t// in\n    tag_302:\n        /* \"#utility.yul\":12134:12565   */\n      pop\n      pop\n        /* \"#utility.yul\":12119:12565   */\n    tag_298:\n        /* \"#utility.yul\":12029:12572   */\n      pop\n      pop\n      pop\n      jump\t// out\n        /* \"#utility.yul\":12578:12695   */\n    tag_157:\n        /* \"#utility.yul\":12632:12640   */\n      0x00\n        /* \"#utility.yul\":12682:12687   */\n      dup3\n        /* \"#utility.yul\":12676:12680   */\n      dup3\n        /* \"#utility.yul\":12672:12688   */\n      shr\n        /* \"#utility.yul\":12651:12688   */\n      swap1\n      pop\n        /* \"#utility.yul\":12578:12695   */\n      swap3\n      swap2\n      pop\n      pop\n      jump\t// out\n        /* \"#utility.yul\":12701:12870   */\n    tag_158:\n        /* \"#utility.yul\":12745:12751   */\n      0x00\n        /* \"#utility.yul\":12778:12829   */\n      tag_306\n        /* \"#utility.yul\":12826:12827   */\n      0x00\n        /* \"#utility.yul\":12822:12828   */\n      not\n        /* \"#utility.yul\":12814:12819   */\n      dup5\n        /* \"#utility.yul\":12811:12812   */\n      0x08\n        /* \"#utility.yul\":12807:12820   */\n      mul\n        /* \"#utility.yul\":12778:12829   */\n      tag_157\n      jump\t// in\n    tag_306:\n        /* \"#utility.yul\":12774:12830   */\n      not\n        /* \"#utility.yul\":12859:12863   */\n      dup1\n        /* \"#utility.yul\":12853:12857   */\n      dup4\n        /* \"#utility.yul\":12849:12864   */\n      and\n        /* \"#utility.yul\":12839:12864   */\n      swap2\n      pop\n        /* \"#utility.yul\":12752:12870   */\n      pop\n        /* \"#utility.yul\":12701:12870   */\n      swap3\n      swap2\n      pop\n      pop\n      jump\t// out\n        /* \"#utility.yul\":12875:13170   */\n    tag_159:\n        /* \"#utility.yul\":12951:12955   */\n      0x00\n        /* \"#utility.yul\":13097:13126   */\n      tag_308\n        /* \"#utility.yul\":13122:13125   */\n      dup4\n        /* \"#utility.yul\":13116:13120   */\n      dup4\n        /* \"#utility.yul\":13097:13126   */\n      tag_158\n      jump\t// in\n    tag_308:\n        /* \"#utility.yul\":13089:13126   */\n      swap2\n      pop\n        /* \"#utility.yul\":13159:13162   */\n      dup3\n        /* \"#utility.yul\":13156:13157   */\n      0x02\n        /* \"#utility.yul\":13152:13163   */\n      mul\n        /* \"#utility.yul\":13146:13150   */\n      dup3\n        /* \"#utility.yul\":13143:13164   */\n      or\n        /* \"#utility.yul\":13135:13164   */\n      swap1\n      pop\n        /* \"#utility.yul\":12875:13170   */\n      swap3\n      swap2\n      pop\n      pop\n      jump\t// out\n        /* \"#utility.yul\":13175:14578   */\n    tag_60:\n        /* \"#utility.yul\":13299:13343   */\n      tag_310\n        /* \"#utility.yul\":13339:13342   */\n      dup4\n        /* \"#utility.yul\":13334:13337   */\n      dup4\n        /* \"#utility.yul\":13299:13343   */\n      tag_143\n      jump\t// in\n    tag_310:\n        /* \"#utility.yul\":13408:13426   */\n      0xffffffffffffffff\n        /* \"#utility.yul\":13400:13406   */\n      dup2\n        /* \"#utility.yul\":13397:13427   */\n      gt\n        /* \"#utility.yul\":13394:13450   */\n      iszero\n      tag_311\n      jumpi\n        /* \"#utility.yul\":13430:13448   */\n      tag_312\n      tag_144\n      jump\t// in\n    tag_312:\n        /* \"#utility.yul\":13394:13450   */\n    tag_311:\n        /* \"#utility.yul\":13474:13512   */\n      tag_313\n        /* \"#utility.yul\":13506:13510   */\n      dup3\n        /* \"#utility.yul\":13500:13511   */\n      sload\n        /* \"#utility.yul\":13474:13512   */\n      tag_43\n      jump\t// in\n    tag_313:\n        /* \"#utility.yul\":13559:13626   */\n      tag_314\n        /* \"#utility.yul\":13619:13625   */\n      dup3\n        /* \"#utility.yul\":13611:13617   */\n      dup3\n        /* \"#utility.yul\":13605:13609   */\n      dup6\n        /* \"#utility.yul\":13559:13626   */\n      tag_156\n      jump\t// in\n    tag_314:\n        /* \"#utility.yul\":13653:13654   */\n      0x00\n        /* \"#utility.yul\":13682:13684   */\n      0x1f\n        /* \"#utility.yul\":13674:13680   */\n      dup4\n        /* \"#utility.yul\":13671:13685   */\n      gt\n        /* \"#utility.yul\":13699:13700   */\n      0x01\n        /* \"#utility.yul\":13694:14326   */\n      dup2\n      eq\n      tag_316\n      jumpi\n        /* \"#utility.yul\":14370:14371   */\n      0x00\n        /* \"#utility.yul\":14387:14393   */\n      dup5\n        /* \"#utility.yul\":14384:14468   */\n      iszero\n      tag_317\n      jumpi\n        /* \"#utility.yul\":14443:14452   */\n      dup3\n        /* \"#utility.yul\":14438:14441   */\n      dup8\n        /* \"#utility.yul\":14434:14453   */\n      add\n        /* \"#utility.yul\":14421:14454   */\n      calldataload\n        /* \"#utility.yul\":14412:14454   */\n      swap1\n      pop\n        /* \"#utility.yul\":14384:14468   */\n    tag_317:\n        /* \"#utility.yul\":14494:14561   */\n      tag_318\n        /* \"#utility.yul\":14554:14560   */\n      dup6\n        /* \"#utility.yul\":14547:14552   */\n      dup3\n        /* \"#utility.yul\":14494:14561   */\n      tag_159\n      jump\t// in\n    tag_318:\n        /* \"#utility.yul\":14488:14492   */\n      dup7\n        /* \"#utility.yul\":14481:14562   */\n      sstore\n        /* \"#utility.yul\":14343:14572   */\n      pop\n        /* \"#utility.yul\":13664:14572   */\n      jump(tag_315)\n        /* \"#utility.yul\":13694:14326   */\n    tag_316:\n        /* \"#utility.yul\":13746:13750   */\n      0x1f\n        /* \"#utility.yul\":13742:13751   */\n      not\n        /* \"#utility.yul\":13734:13740   */\n      dup5\n        /* \"#utility.yul\":13730:13752   */\n      and\n        /* \"#utility.yul\":13780:13817   */\n      tag_319\n        /* \"#utility.yul\":13812:13816   */\n      dup7\n        /* \"#utility.yul\":13780:13817   */\n      tag_145\n      jump\t// in\n    tag_319:\n        /* \"#utility.yul\":13839:13840   */\n      0x00\n        /* \"#utility.yul\":13853:14068   */\n    tag_320:\n        /* \"#utility.yul\":13867:13874   */\n      dup3\n        /* \"#utility.yul\":13864:13865   */\n      dup2\n        /* \"#utility.yul\":13861:13875   */\n      lt\n        /* \"#utility.yul\":13853:14068   */\n      iszero\n      tag_322\n      jumpi\n        /* \"#utility.yul\":13953:13962   */\n      dup5\n        /* \"#utility.yul\":13948:13951   */\n      dup10\n        /* \"#utility.yul\":13944:13963   */\n      add\n        /* \"#utility.yul\":13931:13964   */\n      calldataload\n        /* \"#utility.yul\":13923:13929   */\n      dup3\n        /* \"#utility.yul\":13916:13965   */\n      sstore\n        /* \"#utility.yul\":14004:14005   */\n      0x01\n        /* \"#utility.yul\":13996:14002   */\n      dup3\n        /* \"#utility.yul\":13992:14006   */\n      add\n        /* \"#utility.yul\":13982:14006   */\n      swap2\n      pop\n        /* \"#utility.yul\":14051:14053   */\n      0x20\n        /* \"#utility.yul\":14040:14049   */\n      dup6\n        /* \"#utility.yul\":14036:14054   */\n      add\n        /* \"#utility.yul\":14023:14054   */\n      swap5\n      pop\n        /* \"#utility.yul\":13890:13894   */\n      0x20\n        /* \"#utility.yul\":13887:13888   */\n      dup2\n        /* \"#utility.yul\":13883:13895   */\n      add\n        /* \"#utility.yul\":13878:13895   */\n      swap1\n      pop\n        /* \"#utility.yul\":13853:14068   */\n      jump(tag_320)\n    tag_322:\n        /* \"#utility.yul\":14096:14102   */\n      dup7\n        /* \"#utility.yul\":14087:14094   */\n      dup4\n        /* \"#utility.yul\":14084:14103   */\n      lt\n        /* \"#utility.yul\":14081:14267   */\n      iszero\n      tag_323\n      jumpi\n        /* \"#utility.yul\":14161:14170   */\n      dup5\n        /* \"#utility.yul\":14156:14159   */\n      dup10\n        /* \"#utility.yul\":14152:14171   */\n      add\n        /* \"#utility.yul\":14139:14172   */\n      calldataload\n        /* \"#utility.yul\":14204:14252   */\n      tag_324\n        /* \"#utility.yul\":14246:14250   */\n      0x1f\n        /* \"#utility.yul\":14238:14244   */\n      dup10\n        /* \"#utility.yul\":14234:14251   */\n      and\n        /* \"#utility.yul\":14223:14232   */\n      dup3\n        /* \"#utility.yul\":14204:14252   */\n      tag_158\n      jump\t// in\n    tag_324:\n        /* \"#utility.yul\":14196:14202   */\n      dup4\n        /* \"#utility.yul\":14189:14253   */\n      sstore\n        /* \"#utility.yul\":14104:14267   */\n      pop\n        /* \"#utility.yul\":14081:14267   */\n    tag_323:\n        /* \"#utility.yul\":14313:14314   */\n      0x01\n        /* \"#utility.yul\":14309:14310   */\n      0x02\n        /* \"#utility.yul\":14301:14307   */\n      dup9\n        /* \"#utility.yul\":14297:14311   */\n      mul\n        /* \"#utility.yul\":14293:14315   */\n      add\n        /* \"#utility.yul\":14287:14291   */\n      dup9\n        /* \"#utility.yul\":14280:14316   */\n      sstore\n        /* \"#utility.yul\":13701:14326   */\n      pop\n      pop\n      pop\n        /* \"#utility.yul\":13664:14572   */\n    tag_315:\n      pop\n        /* \"#utility.yul\":13274:14578   */\n      pop\n      pop\n      pop\n        /* \"#utility.yul\":13175:14578   */\n      pop\n      pop\n      pop\n      jump\t// out\n        /* \"#utility.yul\":14584:14817   */\n    tag_62:\n        /* \"#utility.yul\":14623:14626   */\n      0x00\n        /* \"#utility.yul\":14646:14670   */\n      tag_326\n        /* \"#utility.yul\":14664:14669   */\n      dup3\n        /* \"#utility.yul\":14646:14670   */\n      tag_123\n      jump\t// in\n    tag_326:\n        /* \"#utility.yul\":14637:14670   */\n      swap2\n      pop\n        /* \"#utility.yul\":14692:14758   */\n      0xffffffffffffffffffffffffffffffffffffffffffffffffffffffffffffffff\n        /* \"#utility.yul\":14685:14690   */\n      dup3\n        /* \"#utility.yul\":14682:14759   */\n      sub\n        /* \"#utility.yul\":14679:14782   */\n      tag_327\n      jumpi\n        /* \"#utility.yul\":14762:14780   */\n      tag_328\n      tag_140\n      jump\t// in\n    tag_328:\n        /* \"#utility.yul\":14679:14782   */\n    tag_327:\n        /* \"#utility.yul\":14809:14810   */\n      0x01\n        /* \"#utility.yul\":14802:14807   */\n      dup3\n        /* \"#utility.yul\":14798:14811   */\n      add\n        /* \"#utility.yul\":14791:14811   */\n      swap1\n      pop\n        /* \"#utility.yul\":14584:14817   */\n      swap2\n      swap1\n      pop\n      jump\t// out\n        /* \"#utility.yul\":14823:14993   */\n    tag_160:\n        /* \"#utility.yul\":14963:14985   */\n      0x7573746564206e6f20657320656c206f776e6572000000000000000000000000\n        /* \"#utility.yul\":14959:14960   */\n      0x00\n        /* \"#utility.yul\":14951:14957   */\n      dup3\n        /* \"#utility.yul\":14947:14961   */\n      add\n        /* \"#utility.yul\":14940:14986   */\n      mstore\n        /* \"#utility.yul\":14823:14993   */\n      pop\n      jump\t// out\n        /* \"#utility.yul\":14999:15365   */\n    tag_161:\n        /* \"#utility.yul\":15141:15144   */\n      0x00\n        /* \"#utility.yul\":15162:15229   */\n      tag_331\n        /* \"#utility.yul\":15226:15228   */\n      0x14\n        /* \"#utility.yul\":15221:15224   */\n      dup4\n        /* \"#utility.yul\":15162:15229   */\n      tag_126\n      jump\t// in\n    tag_331:\n        /* \"#utility.yul\":15155:15229   */\n      swap2\n      pop\n        /* \"#utility.yul\":15238:15331   */\n      tag_332\n        /* \"#utility.yul\":15327:15330   */\n      dup3\n        /* \"#utility.yul\":15238:15331   */\n      tag_160\n      jump\t// in\n    tag_332:\n        /* \"#utility.yul\":15356:15358   */\n      0x20\n        /* \"#utility.yul\":15351:15354   */\n      dup3\n        /* \"#utility.yul\":15347:15359   */\n      add\n        /* \"#utility.yul\":15340:15359   */\n      swap1\n      pop\n        /* \"#utility.yul\":14999:15365   */\n      swap2\n      swap1\n      pop\n      jump\t// out\n        /* \"#utility.yul\":15371:15790   */\n    tag_70:\n        /* \"#utility.yul\":15537:15541   */\n      0x00\n        /* \"#utility.yul\":15575:15577   */\n      0x20\n        /* \"#utility.yul\":15564:15573   */\n      dup3\n        /* \"#utility.yul\":15560:15578   */\n      add\n        /* \"#utility.yul\":15552:15578   */\n      swap1\n      pop\n        /* \"#utility.yul\":15624:15633   */\n      dup2\n        /* \"#utility.yul\":15618:15622   */\n      dup2\n        /* \"#utility.yul\":15614:15634   */\n      sub\n        /* \"#utility.yul\":15610:15611   */\n      0x00\n        /* \"#utility.yul\":15599:15608   */\n      dup4\n        /* \"#utility.yul\":15595:15612   */\n      add\n        /* \"#utility.yul\":15588:15635   */\n      mstore\n        /* \"#utility.yul\":15652:15783   */\n      tag_334\n        /* \"#utility.yul\":15778:15782   */\n      dup2\n        /* \"#utility.yul\":15652:15783   */\n      tag_161\n      jump\t// in\n    tag_334:\n        /* \"#utility.yul\":15644:15783   */\n      swap1\n      pop\n        /* \"#utility.yul\":15371:15790   */\n      swap2\n      swap1\n      pop\n      jump\t// out\n        /* \"#utility.yul\":15796:15976   */\n    tag_76:\n        /* \"#utility.yul\":15844:15921   */\n      0x4e487b7100000000000000000000000000000000000000000000000000000000\n        /* \"#utility.yul\":15841:15842   */\n      0x00\n        /* \"#utility.yul\":15834:15922   */\n      mstore\n        /* \"#utility.yul\":15941:15945   */\n      0x32\n        /* \"#utility.yul\":15938:15939   */\n      0x04\n        /* \"#utility.yul\":15931:15946   */\n      mstore\n        /* \"#utility.yul\":15965:15969   */\n      0x24\n        /* \"#utility.yul\":15962:15963   */\n      0x00\n        /* \"#utility.yul\":15955:15970   */\n      revert\n        /* \"#utility.yul\":15982:16099   */\n    tag_162:\n        /* \"#utility.yul\":16091:16092   */\n      0x00\n        /* \"#utility.yul\":16088:16089   */\n      0x00\n        /* \"#utility.yul\":16081:16093   */\n      revert\n        /* \"#utility.yul\":16105:16222   */\n    tag_163:\n        /* \"#utility.yul\":16214:16215   */\n      0x00\n        /* \"#utility.yul\":16211:16212   */\n      0x00\n        /* \"#utility.yul\":16204:16216   */\n      revert\n        /* \"#utility.yul\":16228:16345   */\n    tag_164:\n        /* \"#utility.yul\":16337:16338   */\n      0x00\n        /* \"#utility.yul\":16334:16335   */\n      0x00\n        /* \"#utility.yul\":16327:16339   */\n      revert\n        /* \"#utility.yul\":16351:16740   */\n    tag_78:\n        /* \"#utility.yul\":16440:16444   */\n      0x00\n        /* \"#utility.yul\":16494:16505   */\n      dup3\n        /* \"#utility.yul\":16481:16506   */\n      calldataload\n        /* \"#utility.yul\":16594:16595   */\n      0x01\n        /* \"#utility.yul\":16588:16592   */\n      0x60\n        /* \"#utility.yul\":16584:16596   */\n      sub\n        /* \"#utility.yul\":16573:16581   */\n      dup4\n        /* \"#utility.yul\":16557:16571   */\n      calldatasize\n        /* \"#utility.yul\":16553:16582   */\n      sub\n        /* \"#utility.yul\":16549:16597   */\n      sub\n        /* \"#utility.yul\":16529:16547   */\n      dup2\n        /* \"#utility.yul\":16525:16598   */\n      slt\n        /* \"#utility.yul\":16515:16683   */\n      tag_340\n      jumpi\n        /* \"#utility.yul\":16602:16681   */\n      tag_341\n      tag_162\n      jump\t// in\n    tag_341:\n        /* \"#utility.yul\":16515:16683   */\n    tag_340:\n        /* \"#utility.yul\":16714:16732   */\n      dup1\n        /* \"#utility.yul\":16704:16712   */\n      dup4\n        /* \"#utility.yul\":16700:16733   */\n      add\n        /* \"#utility.yul\":16692:16733   */\n      swap2\n      pop\n        /* \"#utility.yul\":16445:16740   */\n      pop\n        /* \"#utility.yul\":16351:16740   */\n      swap3\n      swap2\n      pop\n      pop\n      jump\t// out\n        /* \"#utility.yul\":16746:17471   */\n    tag_86:\n        /* \"#utility.yul\":16824:16828   */\n      0x00\n        /* \"#utility.yul\":16830:16836   */\n      0x00\n        /* \"#utility.yul\":16886:16897   */\n      dup4\n        /* \"#utility.yul\":16873:16898   */\n      calldataload\n        /* \"#utility.yul\":16986:16987   */\n      0x01\n        /* \"#utility.yul\":16980:16984   */\n      0x20\n        /* \"#utility.yul\":16976:16988   */\n      sub\n        /* \"#utility.yul\":16965:16973   */\n      dup5\n        /* \"#utility.yul\":16949:16963   */\n      calldatasize\n        /* \"#utility.yul\":16945:16974   */\n      sub\n        /* \"#utility.yul\":16941:16989   */\n      sub\n        /* \"#utility.yul\":16921:16939   */\n      dup2\n        /* \"#utility.yul\":16917:16990   */\n      slt\n        /* \"#utility.yul\":16907:17075   */\n      tag_343\n      jumpi\n        /* \"#utility.yul\":16994:17073   */\n      tag_344\n      tag_162\n      jump\t// in\n    tag_344:\n        /* \"#utility.yul\":16907:17075   */\n    tag_343:\n        /* \"#utility.yul\":17106:17124   */\n      dup1\n        /* \"#utility.yul\":17096:17104   */\n      dup5\n        /* \"#utility.yul\":17092:17125   */\n      add\n        /* \"#utility.yul\":17084:17125   */\n      swap3\n      pop\n        /* \"#utility.yul\":17158:17162   */\n      dup3\n        /* \"#utility.yul\":17145:17163   */\n      calldataload\n        /* \"#utility.yul\":17135:17163   */\n      swap2\n      pop\n        /* \"#utility.yul\":17186:17204   */\n      0xffffffffffffffff\n        /* \"#utility.yul\":17178:17184   */\n      dup3\n        /* \"#utility.yul\":17175:17205   */\n      gt\n        /* \"#utility.yul\":17172:17289   */\n      iszero\n      tag_345\n      jumpi\n        /* \"#utility.yul\":17208:17287   */\n      tag_346\n      tag_163\n      jump\t// in\n    tag_346:\n        /* \"#utility.yul\":17172:17289   */\n    tag_345:\n        /* \"#utility.yul\":17316:17318   */\n      0x20\n        /* \"#utility.yul\":17310:17314   */\n      dup4\n        /* \"#utility.yul\":17306:17319   */\n      add\n        /* \"#utility.yul\":17298:17319   */\n      swap3\n      pop\n        /* \"#utility.yul\":17373:17377   */\n      0x01\n        /* \"#utility.yul\":17365:17371   */\n      dup3\n        /* \"#utility.yul\":17361:17378   */\n      mul\n        /* \"#utility.yul\":17345:17359   */\n      calldatasize\n        /* \"#utility.yul\":17341:17379   */\n      sub\n        /* \"#utility.yul\":17335:17339   */\n      dup4\n        /* \"#utility.yul\":17331:17380   */\n      sgt\n        /* \"#utility.yul\":17328:17464   */\n      iszero\n      tag_347\n      jumpi\n        /* \"#utility.yul\":17383:17462   */\n      tag_348\n      tag_164\n      jump\t// in\n    tag_348:\n        /* \"#utility.yul\":17328:17464   */\n    tag_347:\n        /* \"#utility.yul\":16837:17471   */\n      pop\n        /* \"#utility.yul\":16746:17471   */\n      swap3\n      pop\n      swap3\n      swap1\n      pop\n      jump\t// out\n        /* \"#utility.yul\":17477:17642   */\n    tag_165:\n        /* \"#utility.yul\":17617:17634   */\n      0x4e6f206573206d696e757363756c610000000000000000000000000000000000\n        /* \"#utility.yul\":17613:17614   */\n      0x00\n        /* \"#utility.yul\":17605:17611   */\n      dup3\n        /* \"#utility.yul\":17601:17615   */\n      add\n        /* \"#utility.yul\":17594:17635   */\n      mstore\n        /* \"#utility.yul\":17477:17642   */\n      pop\n      jump\t// out\n        /* \"#utility.yul\":17648:18014   */\n    tag_166:\n        /* \"#utility.yul\":17790:17793   */\n      0x00\n        /* \"#utility.yul\":17811:17878   */\n      tag_351\n        /* \"#utility.yul\":17875:17877   */\n      0x0f\n        /* \"#utility.yul\":17870:17873   */\n      dup4\n        /* \"#utility.yul\":17811:17878   */\n      tag_126\n      jump\t// in\n    tag_351:\n        /* \"#utility.yul\":17804:17878   */\n      swap2\n      pop\n        /* \"#utility.yul\":17887:17980   */\n      tag_352\n        /* \"#utility.yul\":17976:17979   */\n      dup3\n        /* \"#utility.yul\":17887:17980   */\n      tag_165\n      jump\t// in\n    tag_352:\n        /* \"#utility.yul\":18005:18007   */\n      0x20\n        /* \"#utility.yul\":18000:18003   */\n      dup3\n        /* \"#utility.yul\":17996:18008   */\n      add\n        /* \"#utility.yul\":17989:18008   */\n      swap1\n      pop\n        /* \"#utility.yul\":17648:18014   */\n      swap2\n      swap1\n      pop\n      jump\t// out\n        /* \"#utility.yul\":18020:18439   */\n    tag_109:\n        /* \"#utility.yul\":18186:18190   */\n      0x00\n        /* \"#utility.yul\":18224:18226   */\n      0x20\n        /* \"#utility.yul\":18213:18222   */\n      dup3\n        /* \"#utility.yul\":18209:18227   */\n      add\n        /* \"#utility.yul\":18201:18227   */\n      swap1\n      pop\n        /* \"#utility.yul\":18273:18282   */\n      dup2\n        /* \"#utility.yul\":18267:18271   */\n      dup2\n        /* \"#utility.yul\":18263:18283   */\n      sub\n        /* \"#utility.yul\":18259:18260   */\n      0x00\n        /* \"#utility.yul\":18248:18257   */\n      dup4\n        /* \"#utility.yul\":18244:18261   */\n      add\n        /* \"#utility.yul\":18237:18284   */\n      mstore\n        /* \"#utility.yul\":18301:18432   */\n      tag_354\n        /* \"#utility.yul\":18427:18431   */\n      dup2\n        /* \"#utility.yul\":18301:18432   */\n      tag_166\n      jump\t// in\n    tag_354:\n        /* \"#utility.yul\":18293:18432   */\n      swap1\n      pop\n        /* \"#utility.yul\":18020:18439   */\n      swap2\n      swap1\n      pop\n      jump\t// out\n        /* \"#utility.yul\":18445:18531   */\n    tag_167:\n        /* \"#utility.yul\":18480:18487   */\n      0x00\n        /* \"#utility.yul\":18520:18524   */\n      0xff\n        /* \"#utility.yul\":18513:18518   */\n      dup3\n        /* \"#utility.yul\":18509:18525   */\n      and\n        /* \"#utility.yul\":18498:18525   */\n      swap1\n      pop\n        /* \"#utility.yul\":18445:18531   */\n      swap2\n      swap1\n      pop\n      jump\t// out\n        /* \"#utility.yul\":18537:18725   */\n    tag_111:\n        /* \"#utility.yul\":18575:18578   */\n      0x00\n        /* \"#utility.yul\":18594:18612   */\n      tag_357\n        /* \"#utility.yul\":18610:18611   */\n      dup3\n        /* \"#utility.yul\":18594:18612   */\n      tag_167\n      jump\t// in\n    tag_357:\n        /* \"#utility.yul\":18589:18612   */\n      swap2\n      pop\n        /* \"#utility.yul\":18626:18644   */\n      tag_358\n        /* \"#utility.yul\":18642:18643   */\n      dup4\n        /* \"#utility.yul\":18626:18644   */\n      tag_167\n      jump\t// in\n    tag_358:\n        /* \"#utility.yul\":18621:18644   */\n      swap3\n      pop\n        /* \"#utility.yul\":18667:18668   */\n      dup3\n        /* \"#utility.yul\":18664:18665   */\n      dup3\n        /* \"#utility.yul\":18660:18669   */\n      add\n        /* \"#utility.yul\":18653:18669   */\n      swap1\n      pop\n        /* \"#utility.yul\":18690:18694   */\n      0xff\n        /* \"#utility.yul\":18685:18688   */\n      dup2\n        /* \"#utility.yul\":18682:18695   */\n      gt\n        /* \"#utility.yul\":18679:18718   */\n      iszero\n      tag_359\n      jumpi\n        /* \"#utility.yul\":18698:18716   */\n      tag_360\n      tag_140\n      jump\t// in\n    tag_360:\n        /* \"#utility.yul\":18679:18718   */\n    tag_359:\n        /* \"#utility.yul\":18537:18725   */\n      swap3\n      swap2\n      pop\n      pop\n      jump\t// out\n\n    auxdata: 0xa2646970667358221220d76cec57ebfb7e030614377f444cc87dc406fdd3305316e04d7b4cabe4b2c02764736f6c634300081e0033\n}\n",
				"bytecode": {
					"linkReferences": {},
					"object": "60806040523360015f6101000a81548173ffffffffffffffffffffffffffffffffffffffff021916908373ffffffffffffffffffffffffffffffffffffffff160217905550611354806100515f395ff3fe60806040526004361061006f575f3560e01c806387c442ed1161004d57806387c442ed146100e3578063a035b1fe1461010b578063af640d0f14610135578063f57158d61461015f5761006f565b8063156ea2e5146100735780633bf334b81461008957806378e561aa146100c7575b5f5ffd5b34801561007e575f5ffd5b50610087610175565b005b348015610094575f5ffd5b506100af60048036038101906100aa919061099e565b610177565b6040516100be93929190610a51565b60405180910390f35b6100e160048036038101906100dc9190610aee565b610223565b005b3480156100ee575f5ffd5b5061010960048036038101906101049190610be3565b61042a565b005b348015610116575f5ffd5b5061011f6106c4565b60405161012c9190610c61565b60405180910390f35b348015610140575f5ffd5b506101496106d0565b6040516101569190610c61565b60405180910390f35b34801561016a575f5ffd5b506101736106d5565b005b565b6002602052805f5260405f205f91509050805f01549080600101805461019c90610ca7565b80601f01602080910402602001604051908101604052809291908181526020018280546101c890610ca7565b80156102135780601f106101ea57610100808354040283529160200191610213565b820191905f5260205f20905b8154815290600101906020018083116101f657829003601f168201915b5050505050908060020154905083565b34670de0b6b3a7640000111561026e576040517f08c379a000000000000000000000000000000000000000000000000000000000815260040161026590610d21565b60405180910390fd5b5f670de0b6b3a7640000346102839190610d99565b90505f670de0b6b3a76400003461029a9190610dc9565b90503481106102de576040517f08c379a00000000000000000000000000000000000000000000000000000000081526004016102d590610e43565b60405180910390fd5b8160025f3373ffffffffffffffffffffffffffffffffffffffff1673ffffffffffffffffffffffffffffffffffffffff1681526020019081526020015f2060020181905550838360025f3373ffffffffffffffffffffffffffffffffffffffff1673ffffffffffffffffffffffffffffffffffffffff1681526020019081526020015f206001019182610372929190611038565b505f5460025f3373ffffffffffffffffffffffffffffffffffffffff1673ffffffffffffffffffffffffffffffffffffffff1681526020019081526020015f205f01819055505f5f8154809291906103c990611105565b919050555060028211156103e0576103df610175565b5b3373ffffffffffffffffffffffffffffffffffffffff166108fc8290811502906040515f60405180830381858888f19350505050158015610423573d5f5f3e3d5ffd5b5050505050565b60015f9054906101000a900473ffffffffffffffffffffffffffffffffffffffff1673ffffffffffffffffffffffffffffffffffffffff163373ffffffffffffffffffffffffffffffffffffffff16146104b9576040517f08c379a00000000000000000000000000000000000000000000000000000000081526004016104b090611196565b60405180910390fd5b5f8484905090505f5b818110156106bc578383828181106104dd576104dc6111b4565b5b90506020028101906104ef91906111ed565b6040013560025f888885818110610509576105086111b4565b5b905060200201602081019061051e919061099e565b73ffffffffffffffffffffffffffffffffffffffff1673ffffffffffffffffffffffffffffffffffffffff1681526020019081526020015f2060020181905550838382818110610571576105706111b4565b5b905060200281019061058391906111ed565b80602001906105929190611214565b60025f8989868181106105a8576105a76111b4565b5b90506020020160208101906105bd919061099e565b73ffffffffffffffffffffffffffffffffffffffff1673ffffffffffffffffffffffffffffffffffffffff1681526020019081526020015f206001019182610606929190611038565b5083838281811061061a576106196111b4565b5b905060200281019061062c91906111ed565b5f013560025f888885818110610645576106446111b4565b5b905060200201602081019061065a919061099e565b73ffffffffffffffffffffffffffffffffffffffff1673ffffffffffffffffffffffffffffffffffffffff1681526020019081526020015f205f01819055505f5f8154809291906106aa90611105565b919050555080806001019150506104c2565b505050505050565b670de0b6b3a764000081565b5f5481565b5f60025f3373ffffffffffffffffffffffffffffffffffffffff1673ffffffffffffffffffffffffffffffffffffffff1681526020019081526020015f205f01540361071f575f5ffd5b5f60025f3373ffffffffffffffffffffffffffffffffffffffff1673ffffffffffffffffffffffffffffffffffffffff1681526020019081526020015f20600101805461076b90610ca7565b80601f016020809104026020016040519081016040528092919081815260200182805461079790610ca7565b80156107e25780601f106107b9576101008083540402835291602001916107e2565b820191905f5260205f20905b8154815290600101906020018083116107c557829003601f168201915b505050505090505f815f815181106107fd576107fc6111b4565b5b602001015160f81c60f81b9050606060f81b817effffffffffffffffffffffffffffffffffffffffffffffffffffffffffffff191611610872576040517f08c379a0000000000000000000000000000000000000000000000000000000008152600401610869906112c0565b60405180910390fd5b60208160f81c61088291906112ea565b60f81b90508060025f3373ffffffffffffffffffffffffffffffffffffffff1673ffffffffffffffffffffffffffffffffffffffff1681526020019081526020015f206001015f81546108d490610ca7565b81106108e3576108e26111b4565b5b81546001161561090057905f5260205f2090602091828204019190065b601f036101000a81548160ff021916907f0100000000000000000000000000000000000000000000000000000000000000840402179055505050565b5f5ffd5b5f5ffd5b5f73ffffffffffffffffffffffffffffffffffffffff82169050919050565b5f61096d82610944565b9050919050565b61097d81610963565b8114610987575f5ffd5b50565b5f8135905061099881610974565b92915050565b5f602082840312156109b3576109b261093c565b5b5f6109c08482850161098a565b91505092915050565b5f819050919050565b6109db816109c9565b82525050565b5f81519050919050565b5f82825260208201905092915050565b8281835e5f83830152505050565b5f601f19601f8301169050919050565b5f610a23826109e1565b610a2d81856109eb565b9350610a3d8185602086016109fb565b610a4681610a09565b840191505092915050565b5f606082019050610a645f8301866109d2565b8181036020830152610a768185610a19565b9050610a8560408301846109d2565b949350505050565b5f5ffd5b5f5ffd5b5f5ffd5b5f5f83601f840112610aae57610aad610a8d565b5b8235905067ffffffffffffffff811115610acb57610aca610a91565b5b602083019150836001820283011115610ae757610ae6610a95565b5b9250929050565b5f5f60208385031215610b0457610b0361093c565b5b5f83013567ffffffffffffffff811115610b2157610b20610940565b5b610b2d85828601610a99565b92509250509250929050565b5f5f83601f840112610b4e57610b4d610a8d565b5b8235905067ffffffffffffffff811115610b6b57610b6a610a91565b5b602083019150836020820283011115610b8757610b86610a95565b5b9250929050565b5f5f83601f840112610ba357610ba2610a8d565b5b8235905067ffffffffffffffff811115610bc057610bbf610a91565b5b602083019150836020820283011115610bdc57610bdb610a95565b5b9250929050565b5f5f5f5f60408587031215610bfb57610bfa61093c565b5b5f85013567ffffffffffffffff811115610c1857610c17610940565b5b610c2487828801610b39565b9450945050602085013567ffffffffffffffff811115610c4757610c46610940565b5b610c5387828801610b8e565b925092505092959194509250565b5f602082019050610c745f8301846109d2565b92915050565b7f4e487b71000000000000000000000000000000000000000000000000000000005f52602260045260245ffd5b5f6002820490506001821680610cbe57607f821691505b602082108103610cd157610cd0610c7a565b5b50919050565b7f4e6f20616c63616e7a61000000000000000000000000000000000000000000005f82015250565b5f610d0b600a836109eb565b9150610d1682610cd7565b602082019050919050565b5f6020820190508181035f830152610d3881610cff565b9050919050565b7f4e487b71000000000000000000000000000000000000000000000000000000005f52601260045260245ffd5b7f4e487b71000000000000000000000000000000000000000000000000000000005f52601160045260245ffd5b5f610da3826109c9565b9150610dae836109c9565b925082610dbe57610dbd610d3f565b5b828204905092915050565b5f610dd3826109c9565b9150610dde836109c9565b925082610dee57610ded610d3f565b5b828206905092915050565b7f4e6f2074652076616d6f732061206465766f6c766572206d61730000000000005f82015250565b5f610e2d601a836109eb565b9150610e3882610df9565b602082019050919050565b5f6020820190508181035f830152610e5a81610e21565b9050919050565b5f82905092915050565b7f4e487b71000000000000000000000000000000000000000000000000000000005f52604160045260245ffd5b5f819050815f5260205f209050919050565b5f6020601f8301049050919050565b5f82821b905092915050565b5f60088302610ef47fffffffffffffffffffffffffffffffffffffffffffffffffffffffffffffffff82610eb9565b610efe8683610eb9565b95508019841693508086168417925050509392505050565b5f819050919050565b5f610f39610f34610f2f846109c9565b610f16565b6109c9565b9050919050565b5f819050919050565b610f5283610f1f565b610f66610f5e82610f40565b848454610ec5565b825550505050565b5f5f905090565b610f7d610f6e565b610f88818484610f49565b505050565b5b81811015610fab57610fa05f82610f75565b600181019050610f8e565b5050565b601f821115610ff057610fc181610e98565b610fca84610eaa565b81016020851015610fd9578190505b610fed610fe585610eaa565b830182610f8d565b50505b505050565b5f82821c905092915050565b5f6110105f1984600802610ff5565b1980831691505092915050565b5f6110288383611001565b9150826002028217905092915050565b6110428383610e61565b67ffffffffffffffff81111561105b5761105a610e6b565b5b6110658254610ca7565b611070828285610faf565b5f601f83116001811461109d575f841561108b578287013590505b611095858261101d565b8655506110fc565b601f1984166110ab86610e98565b5f5b828110156110d2578489013582556001820191506020850194506020810190506110ad565b868310156110ef57848901356110eb601f891682611001565b8355505b6001600288020188555050505b50505050505050565b5f61110f826109c9565b91507fffffffffffffffffffffffffffffffffffffffffffffffffffffffffffffffff820361114157611140610d6c565b5b600182019050919050565b7f7573746564206e6f20657320656c206f776e65720000000000000000000000005f82015250565b5f6111806014836109eb565b915061118b8261114c565b602082019050919050565b5f6020820190508181035f8301526111ad81611174565b9050919050565b7f4e487b71000000000000000000000000000000000000000000000000000000005f52603260045260245ffd5b5f5ffd5b5f5ffd5b5f5ffd5b5f82356001606003833603038112611208576112076111e1565b5b80830191505092915050565b5f5f833560016020038436030381126112305761122f6111e1565b5b80840192508235915067ffffffffffffffff821115611252576112516111e5565b5b60208301925060018202360383131561126e5761126d6111e9565b5b509250929050565b7f4e6f206573206d696e757363756c6100000000000000000000000000000000005f82015250565b5f6112aa600f836109eb565b91506112b582611276565b602082019050919050565b5f6020820190508181035f8301526112d78161129e565b9050919050565b5f60ff82169050919050565b5f6112f4826112de565b91506112ff836112de565b9250828201905060ff81111561131857611317610d6c565b5b9291505056fea2646970667358221220d76cec57ebfb7e030614377f444cc87dc406fdd3305316e04d7b4cabe4b2c02764736f6c634300081e0033",
					"opcodes": "PUSH1 0x80 PUSH1 0x40 MSTORE CALLER PUSH1 0x1 PUSH0 PUSH2 0x100 EXP DUP2 SLOAD DUP2 PUSH20 0xFFFFFFFFFFFFFFFFFFFFFFFFFFFFFFFFFFFFFFFF MUL NOT AND SWAP1 DUP4 PUSH20 0xFFFFFFFFFFFFFFFFFFFFFFFFFFFFFFFFFFFFFFFF AND MUL OR SWAP1 SSTORE POP PUSH2 0x1354 DUP1 PUSH2 0x51 PUSH0 CODECOPY PUSH0 RETURN INVALID PUSH1 0x80 PUSH1 0x40 MSTORE PUSH1 0x4 CALLDATASIZE LT PUSH2 0x6F JUMPI PUSH0 CALLDATALOAD PUSH1 0xE0 SHR DUP1 PUSH4 0x87C442ED GT PUSH2 0x4D JUMPI DUP1 PUSH4 0x87C442ED EQ PUSH2 0xE3 JUMPI DUP1 PUSH4 0xA035B1FE EQ PUSH2 0x10B JUMPI DUP1 PUSH4 0xAF640D0F EQ PUSH2 0x135 JUMPI DUP1 PUSH4 0xF57158D6 EQ PUSH2 0x15F JUMPI PUSH2 0x6F JUMP JUMPDEST DUP1 PUSH4 0x156EA2E5 EQ PUSH2 0x73 JUMPI DUP1 PUSH4 0x3BF334B8 EQ PUSH2 0x89 JUMPI DUP1 PUSH4 0x78E561AA EQ PUSH2 0xC7 JUMPI JUMPDEST PUSH0 PUSH0 REVERT JUMPDEST CALLVALUE DUP1 ISZERO PUSH2 0x7E JUMPI PUSH0 PUSH0 REVERT JUMPDEST POP PUSH2 0x87 PUSH2 0x175 JUMP JUMPDEST STOP JUMPDEST CALLVALUE DUP1 ISZERO PUSH2 0x94 JUMPI PUSH0 PUSH0 REVERT JUMPDEST POP PUSH2 0xAF PUSH1 0x4 DUP1 CALLDATASIZE SUB DUP2 ADD SWAP1 PUSH2 0xAA SWAP2 SWAP1 PUSH2 0x99E JUMP JUMPDEST PUSH2 0x177 JUMP JUMPDEST PUSH1 0x40 MLOAD PUSH2 0xBE SWAP4 SWAP3 SWAP2 SWAP1 PUSH2 0xA51 JUMP JUMPDEST PUSH1 0x40 MLOAD DUP1 SWAP2 SUB SWAP1 RETURN JUMPDEST PUSH2 0xE1 PUSH1 0x4 DUP1 CALLDATASIZE SUB DUP2 ADD SWAP1 PUSH2 0xDC SWAP2 SWAP1 PUSH2 0xAEE JUMP JUMPDEST PUSH2 0x223 JUMP JUMPDEST STOP JUMPDEST CALLVALUE DUP1 ISZERO PUSH2 0xEE JUMPI PUSH0 PUSH0 REVERT JUMPDEST POP PUSH2 0x109 PUSH1 0x4 DUP1 CALLDATASIZE SUB DUP2 ADD SWAP1 PUSH2 0x104 SWAP2 SWAP1 PUSH2 0xBE3 JUMP JUMPDEST PUSH2 0x42A JUMP JUMPDEST STOP JUMPDEST CALLVALUE DUP1 ISZERO PUSH2 0x116 JUMPI PUSH0 PUSH0 REVERT JUMPDEST POP PUSH2 0x11F PUSH2 0x6C4 JUMP JUMPDEST PUSH1 0x40 MLOAD PUSH2 0x12C SWAP2 SWAP1 PUSH2 0xC61 JUMP JUMPDEST PUSH1 0x40 MLOAD DUP1 SWAP2 SUB SWAP1 RETURN JUMPDEST CALLVALUE DUP1 ISZERO PUSH2 0x140 JUMPI PUSH0 PUSH0 REVERT JUMPDEST POP PUSH2 0x149 PUSH2 0x6D0 JUMP JUMPDEST PUSH1 0x40 MLOAD PUSH2 0x156 SWAP2 SWAP1 PUSH2 0xC61 JUMP JUMPDEST PUSH1 0x40 MLOAD DUP1 SWAP2 SUB SWAP1 RETURN JUMPDEST CALLVALUE DUP1 ISZERO PUSH2 0x16A JUMPI PUSH0 PUSH0 REVERT JUMPDEST POP PUSH2 0x173 PUSH2 0x6D5 JUMP JUMPDEST STOP JUMPDEST JUMP JUMPDEST PUSH1 0x2 PUSH1 0x20 MSTORE DUP1 PUSH0 MSTORE PUSH1 0x40 PUSH0 KECCAK256 PUSH0 SWAP2 POP SWAP1 POP DUP1 PUSH0 ADD SLOAD SWAP1 DUP1 PUSH1 0x1 ADD DUP1 SLOAD PUSH2 0x19C SWAP1 PUSH2 0xCA7 JUMP JUMPDEST DUP1 PUSH1 0x1F ADD PUSH1 0x20 DUP1 SWAP2 DIV MUL PUSH1 0x20 ADD PUSH1 0x40 MLOAD SWAP1 DUP2 ADD PUSH1 0x40 MSTORE DUP1 SWAP3 SWAP2 SWAP1 DUP2 DUP2 MSTORE PUSH1 0x20 ADD DUP3 DUP1 SLOAD PUSH2 0x1C8 SWAP1 PUSH2 0xCA7 JUMP JUMPDEST DUP1 ISZERO PUSH2 0x213 JUMPI DUP1 PUSH1 0x1F LT PUSH2 0x1EA JUMPI PUSH2 0x100 DUP1 DUP4 SLOAD DIV MUL DUP4 MSTORE SWAP2 PUSH1 0x20 ADD SWAP2 PUSH2 0x213 JUMP JUMPDEST DUP3 ADD SWAP2 SWAP1 PUSH0 MSTORE PUSH1 0x20 PUSH0 KECCAK256 SWAP1 JUMPDEST DUP2 SLOAD DUP2 MSTORE SWAP1 PUSH1 0x1 ADD SWAP1 PUSH1 0x20 ADD DUP1 DUP4 GT PUSH2 0x1F6 JUMPI DUP3 SWAP1 SUB PUSH1 0x1F AND DUP3 ADD SWAP2 JUMPDEST POP POP POP POP POP SWAP1 DUP1 PUSH1 0x2 ADD SLOAD SWAP1 POP DUP4 JUMP JUMPDEST CALLVALUE PUSH8 0xDE0B6B3A7640000 GT ISZERO PUSH2 0x26E JUMPI PUSH1 0x40 MLOAD PUSH32 0x8C379A000000000000000000000000000000000000000000000000000000000 DUP2 MSTORE PUSH1 0x4 ADD PUSH2 0x265 SWAP1 PUSH2 0xD21 JUMP JUMPDEST PUSH1 0x40 MLOAD DUP1 SWAP2 SUB SWAP1 REVERT JUMPDEST PUSH0 PUSH8 0xDE0B6B3A7640000 CALLVALUE PUSH2 0x283 SWAP2 SWAP1 PUSH2 0xD99 JUMP JUMPDEST SWAP1 POP PUSH0 PUSH8 0xDE0B6B3A7640000 CALLVALUE PUSH2 0x29A SWAP2 SWAP1 PUSH2 0xDC9 JUMP JUMPDEST SWAP1 POP CALLVALUE DUP2 LT PUSH2 0x2DE JUMPI PUSH1 0x40 MLOAD PUSH32 0x8C379A000000000000000000000000000000000000000000000000000000000 DUP2 MSTORE PUSH1 0x4 ADD PUSH2 0x2D5 SWAP1 PUSH2 0xE43 JUMP JUMPDEST PUSH1 0x40 MLOAD DUP1 SWAP2 SUB SWAP1 REVERT JUMPDEST DUP2 PUSH1 0x2 PUSH0 CALLER PUSH20 0xFFFFFFFFFFFFFFFFFFFFFFFFFFFFFFFFFFFFFFFF AND PUSH20 0xFFFFFFFFFFFFFFFFFFFFFFFFFFFFFFFFFFFFFFFF AND DUP2 MSTORE PUSH1 0x20 ADD SWAP1 DUP2 MSTORE PUSH1 0x20 ADD PUSH0 KECCAK256 PUSH1 0x2 ADD DUP2 SWAP1 SSTORE POP DUP4 DUP4 PUSH1 0x2 PUSH0 CALLER PUSH20 0xFFFFFFFFFFFFFFFFFFFFFFFFFFFFFFFFFFFFFFFF AND PUSH20 0xFFFFFFFFFFFFFFFFFFFFFFFFFFFFFFFFFFFFFFFF AND DUP2 MSTORE PUSH1 0x20 ADD SWAP1 DUP2 MSTORE PUSH1 0x20 ADD PUSH0 KECCAK256 PUSH1 0x1 ADD SWAP2 DUP3 PUSH2 0x372 SWAP3 SWAP2 SWAP1 PUSH2 0x1038 JUMP JUMPDEST POP PUSH0 SLOAD PUSH1 0x2 PUSH0 CALLER PUSH20 0xFFFFFFFFFFFFFFFFFFFFFFFFFFFFFFFFFFFFFFFF AND PUSH20 0xFFFFFFFFFFFFFFFFFFFFFFFFFFFFFFFFFFFFFFFF AND DUP2 MSTORE PUSH1 0x20 ADD SWAP1 DUP2 MSTORE PUSH1 0x20 ADD PUSH0 KECCAK256 PUSH0 ADD DUP2 SWAP1 SSTORE POP PUSH0 PUSH0 DUP2 SLOAD DUP1 SWAP3 SWAP2 SWAP1 PUSH2 0x3C9 SWAP1 PUSH2 0x1105 JUMP JUMPDEST SWAP2 SWAP1 POP SSTORE POP PUSH1 0x2 DUP3 GT ISZERO PUSH2 0x3E0 JUMPI PUSH2 0x3DF PUSH2 0x175 JUMP JUMPDEST JUMPDEST CALLER PUSH20 0xFFFFFFFFFFFFFFFFFFFFFFFFFFFFFFFFFFFFFFFF AND PUSH2 0x8FC DUP3 SWAP1 DUP2 ISZERO MUL SWAP1 PUSH1 0x40 MLOAD PUSH0 PUSH1 0x40 MLOAD DUP1 DUP4 SUB DUP2 DUP6 DUP9 DUP9 CALL SWAP4 POP POP POP POP ISZERO DUP1 ISZERO PUSH2 0x423 JUMPI RETURNDATASIZE PUSH0 PUSH0 RETURNDATACOPY RETURNDATASIZE PUSH0 REVERT JUMPDEST POP POP POP POP POP JUMP JUMPDEST PUSH1 0x1 PUSH0 SWAP1 SLOAD SWAP1 PUSH2 0x100 EXP SWAP1 DIV PUSH20 0xFFFFFFFFFFFFFFFFFFFFFFFFFFFFFFFFFFFFFFFF AND PUSH20 0xFFFFFFFFFFFFFFFFFFFFFFFFFFFFFFFFFFFFFFFF AND CALLER PUSH20 0xFFFFFFFFFFFFFFFFFFFFFFFFFFFFFFFFFFFFFFFF AND EQ PUSH2 0x4B9 JUMPI PUSH1 0x40 MLOAD PUSH32 0x8C379A000000000000000000000000000000000000000000000000000000000 DUP2 MSTORE PUSH1 0x4 ADD PUSH2 0x4B0 SWAP1 PUSH2 0x1196 JUMP JUMPDEST PUSH1 0x40 MLOAD DUP1 SWAP2 SUB SWAP1 REVERT JUMPDEST PUSH0 DUP5 DUP5 SWAP1 POP SWAP1 POP PUSH0 JUMPDEST DUP2 DUP2 LT ISZERO PUSH2 0x6BC JUMPI DUP4 DUP4 DUP3 DUP2 DUP2 LT PUSH2 0x4DD JUMPI PUSH2 0x4DC PUSH2 0x11B4 JUMP JUMPDEST JUMPDEST SWAP1 POP PUSH1 0x20 MUL DUP2 ADD SWAP1 PUSH2 0x4EF SWAP2 SWAP1 PUSH2 0x11ED JUMP JUMPDEST PUSH1 0x40 ADD CALLDATALOAD PUSH1 0x2 PUSH0 DUP9 DUP9 DUP6 DUP2 DUP2 LT PUSH2 0x509 JUMPI PUSH2 0x508 PUSH2 0x11B4 JUMP JUMPDEST JUMPDEST SWAP1 POP PUSH1 0x20 MUL ADD PUSH1 0x20 DUP2 ADD SWAP1 PUSH2 0x51E SWAP2 SWAP1 PUSH2 0x99E JUMP JUMPDEST PUSH20 0xFFFFFFFFFFFFFFFFFFFFFFFFFFFFFFFFFFFFFFFF AND PUSH20 0xFFFFFFFFFFFFFFFFFFFFFFFFFFFFFFFFFFFFFFFF AND DUP2 MSTORE PUSH1 0x20 ADD SWAP1 DUP2 MSTORE PUSH1 0x20 ADD PUSH0 KECCAK256 PUSH1 0x2 ADD DUP2 SWAP1 SSTORE POP DUP4 DUP4 DUP3 DUP2 DUP2 LT PUSH2 0x571 JUMPI PUSH2 0x570 PUSH2 0x11B4 JUMP JUMPDEST JUMPDEST SWAP1 POP PUSH1 0x20 MUL DUP2 ADD SWAP1 PUSH2 0x583 SWAP2 SWAP1 PUSH2 0x11ED JUMP JUMPDEST DUP1 PUSH1 0x20 ADD SWAP1 PUSH2 0x592 SWAP2 SWAP1 PUSH2 0x1214 JUMP JUMPDEST PUSH1 0x2 PUSH0 DUP10 DUP10 DUP7 DUP2 DUP2 LT PUSH2 0x5A8 JUMPI PUSH2 0x5A7 PUSH2 0x11B4 JUMP JUMPDEST JUMPDEST SWAP1 POP PUSH1 0x20 MUL ADD PUSH1 0x20 DUP2 ADD SWAP1 PUSH2 0x5BD SWAP2 SWAP1 PUSH2 0x99E JUMP JUMPDEST PUSH20 0xFFFFFFFFFFFFFFFFFFFFFFFFFFFFFFFFFFFFFFFF AND PUSH20 0xFFFFFFFFFFFFFFFFFFFFFFFFFFFFFFFFFFFFFFFF AND DUP2 MSTORE PUSH1 0x20 ADD SWAP1 DUP2 MSTORE PUSH1 0x20 ADD PUSH0 KECCAK256 PUSH1 0x1 ADD SWAP2 DUP3 PUSH2 0x606 SWAP3 SWAP2 SWAP1 PUSH2 0x1038 JUMP JUMPDEST POP DUP4 DUP4 DUP3 DUP2 DUP2 LT PUSH2 0x61A JUMPI PUSH2 0x619 PUSH2 0x11B4 JUMP JUMPDEST JUMPDEST SWAP1 POP PUSH1 0x20 MUL DUP2 ADD SWAP1 PUSH2 0x62C SWAP2 SWAP1 PUSH2 0x11ED JUMP JUMPDEST PUSH0 ADD CALLDATALOAD PUSH1 0x2 PUSH0 DUP9 DUP9 DUP6 DUP2 DUP2 LT PUSH2 0x645 JUMPI PUSH2 0x644 PUSH2 0x11B4 JUMP JUMPDEST JUMPDEST SWAP1 POP PUSH1 0x20 MUL ADD PUSH1 0x20 DUP2 ADD SWAP1 PUSH2 0x65A SWAP2 SWAP1 PUSH2 0x99E JUMP JUMPDEST PUSH20 0xFFFFFFFFFFFFFFFFFFFFFFFFFFFFFFFFFFFFFFFF AND PUSH20 0xFFFFFFFFFFFFFFFFFFFFFFFFFFFFFFFFFFFFFFFF AND DUP2 MSTORE PUSH1 0x20 ADD SWAP1 DUP2 MSTORE PUSH1 0x20 ADD PUSH0 KECCAK256 PUSH0 ADD DUP2 SWAP1 SSTORE POP PUSH0 PUSH0 DUP2 SLOAD DUP1 SWAP3 SWAP2 SWAP1 PUSH2 0x6AA SWAP1 PUSH2 0x1105 JUMP JUMPDEST SWAP2 SWAP1 POP SSTORE POP DUP1 DUP1 PUSH1 0x1 ADD SWAP2 POP POP PUSH2 0x4C2 JUMP JUMPDEST POP POP POP POP POP POP JUMP JUMPDEST PUSH8 0xDE0B6B3A7640000 DUP2 JUMP JUMPDEST PUSH0 SLOAD DUP2 JUMP JUMPDEST PUSH0 PUSH1 0x2 PUSH0 CALLER PUSH20 0xFFFFFFFFFFFFFFFFFFFFFFFFFFFFFFFFFFFFFFFF AND PUSH20 0xFFFFFFFFFFFFFFFFFFFFFFFFFFFFFFFFFFFFFFFF AND DUP2 MSTORE PUSH1 0x20 ADD SWAP1 DUP2 MSTORE PUSH1 0x20 ADD PUSH0 KECCAK256 PUSH0 ADD SLOAD SUB PUSH2 0x71F JUMPI PUSH0 PUSH0 REVERT JUMPDEST PUSH0 PUSH1 0x2 PUSH0 CALLER PUSH20 0xFFFFFFFFFFFFFFFFFFFFFFFFFFFFFFFFFFFFFFFF AND PUSH20 0xFFFFFFFFFFFFFFFFFFFFFFFFFFFFFFFFFFFFFFFF AND DUP2 MSTORE PUSH1 0x20 ADD SWAP1 DUP2 MSTORE PUSH1 0x20 ADD PUSH0 KECCAK256 PUSH1 0x1 ADD DUP1 SLOAD PUSH2 0x76B SWAP1 PUSH2 0xCA7 JUMP JUMPDEST DUP1 PUSH1 0x1F ADD PUSH1 0x20 DUP1 SWAP2 DIV MUL PUSH1 0x20 ADD PUSH1 0x40 MLOAD SWAP1 DUP2 ADD PUSH1 0x40 MSTORE DUP1 SWAP3 SWAP2 SWAP1 DUP2 DUP2 MSTORE PUSH1 0x20 ADD DUP3 DUP1 SLOAD PUSH2 0x797 SWAP1 PUSH2 0xCA7 JUMP JUMPDEST DUP1 ISZERO PUSH2 0x7E2 JUMPI DUP1 PUSH1 0x1F LT PUSH2 0x7B9 JUMPI PUSH2 0x100 DUP1 DUP4 SLOAD DIV MUL DUP4 MSTORE SWAP2 PUSH1 0x20 ADD SWAP2 PUSH2 0x7E2 JUMP JUMPDEST DUP3 ADD SWAP2 SWAP1 PUSH0 MSTORE PUSH1 0x20 PUSH0 KECCAK256 SWAP1 JUMPDEST DUP2 SLOAD DUP2 MSTORE SWAP1 PUSH1 0x1 ADD SWAP1 PUSH1 0x20 ADD DUP1 DUP4 GT PUSH2 0x7C5 JUMPI DUP3 SWAP1 SUB PUSH1 0x1F AND DUP3 ADD SWAP2 JUMPDEST POP POP POP POP POP SWAP1 POP PUSH0 DUP2 PUSH0 DUP2 MLOAD DUP2 LT PUSH2 0x7FD JUMPI PUSH2 0x7FC PUSH2 0x11B4 JUMP JUMPDEST JUMPDEST PUSH1 0x20 ADD ADD MLOAD PUSH1 0xF8 SHR PUSH1 0xF8 SHL SWAP1 POP PUSH1 0x60 PUSH1 0xF8 SHL DUP2 PUSH31 0xFFFFFFFFFFFFFFFFFFFFFFFFFFFFFFFFFFFFFFFFFFFFFFFFFFFFFFFFFFFFFF NOT AND GT PUSH2 0x872 JUMPI PUSH1 0x40 MLOAD PUSH32 0x8C379A000000000000000000000000000000000000000000000000000000000 DUP2 MSTORE PUSH1 0x4 ADD PUSH2 0x869 SWAP1 PUSH2 0x12C0 JUMP JUMPDEST PUSH1 0x40 MLOAD DUP1 SWAP2 SUB SWAP1 REVERT JUMPDEST PUSH1 0x20 DUP2 PUSH1 0xF8 SHR PUSH2 0x882 SWAP2 SWAP1 PUSH2 0x12EA JUMP JUMPDEST PUSH1 0xF8 SHL SWAP1 POP DUP1 PUSH1 0x2 PUSH0 CALLER PUSH20 0xFFFFFFFFFFFFFFFFFFFFFFFFFFFFFFFFFFFFFFFF AND PUSH20 0xFFFFFFFFFFFFFFFFFFFFFFFFFFFFFFFFFFFFFFFF AND DUP2 MSTORE PUSH1 0x20 ADD SWAP1 DUP2 MSTORE PUSH1 0x20 ADD PUSH0 KECCAK256 PUSH1 0x1 ADD PUSH0 DUP2 SLOAD PUSH2 0x8D4 SWAP1 PUSH2 0xCA7 JUMP JUMPDEST DUP2 LT PUSH2 0x8E3 JUMPI PUSH2 0x8E2 PUSH2 0x11B4 JUMP JUMPDEST JUMPDEST DUP2 SLOAD PUSH1 0x1 AND ISZERO PUSH2 0x900 JUMPI SWAP1 PUSH0 MSTORE PUSH1 0x20 PUSH0 KECCAK256 SWAP1 PUSH1 0x20 SWAP2 DUP3 DUP3 DIV ADD SWAP2 SWAP1 MOD JUMPDEST PUSH1 0x1F SUB PUSH2 0x100 EXP DUP2 SLOAD DUP2 PUSH1 0xFF MUL NOT AND SWAP1 PUSH32 0x100000000000000000000000000000000000000000000000000000000000000 DUP5 DIV MUL OR SWAP1 SSTORE POP POP POP JUMP JUMPDEST PUSH0 PUSH0 REVERT JUMPDEST PUSH0 PUSH0 REVERT JUMPDEST PUSH0 PUSH20 0xFFFFFFFFFFFFFFFFFFFFFFFFFFFFFFFFFFFFFFFF DUP3 AND SWAP1 POP SWAP2 SWAP1 POP JUMP JUMPDEST PUSH0 PUSH2 0x96D DUP3 PUSH2 0x944 JUMP JUMPDEST SWAP1 POP SWAP2 SWAP1 POP JUMP JUMPDEST PUSH2 0x97D DUP2 PUSH2 0x963 JUMP JUMPDEST DUP2 EQ PUSH2 0x987 JUMPI PUSH0 PUSH0 REVERT JUMPDEST POP JUMP JUMPDEST PUSH0 DUP2 CALLDATALOAD SWAP1 POP PUSH2 0x998 DUP2 PUSH2 0x974 JUMP JUMPDEST SWAP3 SWAP2 POP POP JUMP JUMPDEST PUSH0 PUSH1 0x20 DUP3 DUP5 SUB SLT ISZERO PUSH2 0x9B3 JUMPI PUSH2 0x9B2 PUSH2 0x93C JUMP JUMPDEST JUMPDEST PUSH0 PUSH2 0x9C0 DUP5 DUP3 DUP6 ADD PUSH2 0x98A JUMP JUMPDEST SWAP2 POP POP SWAP3 SWAP2 POP POP JUMP JUMPDEST PUSH0 DUP2 SWAP1 POP SWAP2 SWAP1 POP JUMP JUMPDEST PUSH2 0x9DB DUP2 PUSH2 0x9C9 JUMP JUMPDEST DUP3 MSTORE POP POP JUMP JUMPDEST PUSH0 DUP2 MLOAD SWAP1 POP SWAP2 SWAP1 POP JUMP JUMPDEST PUSH0 DUP3 DUP3 MSTORE PUSH1 0x20 DUP3 ADD SWAP1 POP SWAP3 SWAP2 POP POP JUMP JUMPDEST DUP3 DUP2 DUP4 MCOPY PUSH0 DUP4 DUP4 ADD MSTORE POP POP POP JUMP JUMPDEST PUSH0 PUSH1 0x1F NOT PUSH1 0x1F DUP4 ADD AND SWAP1 POP SWAP2 SWAP1 POP JUMP JUMPDEST PUSH0 PUSH2 0xA23 DUP3 PUSH2 0x9E1 JUMP JUMPDEST PUSH2 0xA2D DUP2 DUP6 PUSH2 0x9EB JUMP JUMPDEST SWAP4 POP PUSH2 0xA3D DUP2 DUP6 PUSH1 0x20 DUP7 ADD PUSH2 0x9FB JUMP JUMPDEST PUSH2 0xA46 DUP2 PUSH2 0xA09 JUMP JUMPDEST DUP5 ADD SWAP2 POP POP SWAP3 SWAP2 POP POP JUMP JUMPDEST PUSH0 PUSH1 0x60 DUP3 ADD SWAP1 POP PUSH2 0xA64 PUSH0 DUP4 ADD DUP7 PUSH2 0x9D2 JUMP JUMPDEST DUP2 DUP2 SUB PUSH1 0x20 DUP4 ADD MSTORE PUSH2 0xA76 DUP2 DUP6 PUSH2 0xA19 JUMP JUMPDEST SWAP1 POP PUSH2 0xA85 PUSH1 0x40 DUP4 ADD DUP5 PUSH2 0x9D2 JUMP JUMPDEST SWAP5 SWAP4 POP POP POP POP JUMP JUMPDEST PUSH0 PUSH0 REVERT JUMPDEST PUSH0 PUSH0 REVERT JUMPDEST PUSH0 PUSH0 REVERT JUMPDEST PUSH0 PUSH0 DUP4 PUSH1 0x1F DUP5 ADD SLT PUSH2 0xAAE JUMPI PUSH2 0xAAD PUSH2 0xA8D JUMP JUMPDEST JUMPDEST DUP3 CALLDATALOAD SWAP1 POP PUSH8 0xFFFFFFFFFFFFFFFF DUP2 GT ISZERO PUSH2 0xACB JUMPI PUSH2 0xACA PUSH2 0xA91 JUMP JUMPDEST JUMPDEST PUSH1 0x20 DUP4 ADD SWAP2 POP DUP4 PUSH1 0x1 DUP3 MUL DUP4 ADD GT ISZERO PUSH2 0xAE7 JUMPI PUSH2 0xAE6 PUSH2 0xA95 JUMP JUMPDEST JUMPDEST SWAP3 POP SWAP3 SWAP1 POP JUMP JUMPDEST PUSH0 PUSH0 PUSH1 0x20 DUP4 DUP6 SUB SLT ISZERO PUSH2 0xB04 JUMPI PUSH2 0xB03 PUSH2 0x93C JUMP JUMPDEST JUMPDEST PUSH0 DUP4 ADD CALLDATALOAD PUSH8 0xFFFFFFFFFFFFFFFF DUP2 GT ISZERO PUSH2 0xB21 JUMPI PUSH2 0xB20 PUSH2 0x940 JUMP JUMPDEST JUMPDEST PUSH2 0xB2D DUP6 DUP3 DUP7 ADD PUSH2 0xA99 JUMP JUMPDEST SWAP3 POP SWAP3 POP POP SWAP3 POP SWAP3 SWAP1 POP JUMP JUMPDEST PUSH0 PUSH0 DUP4 PUSH1 0x1F DUP5 ADD SLT PUSH2 0xB4E JUMPI PUSH2 0xB4D PUSH2 0xA8D JUMP JUMPDEST JUMPDEST DUP3 CALLDATALOAD SWAP1 POP PUSH8 0xFFFFFFFFFFFFFFFF DUP2 GT ISZERO PUSH2 0xB6B JUMPI PUSH2 0xB6A PUSH2 0xA91 JUMP JUMPDEST JUMPDEST PUSH1 0x20 DUP4 ADD SWAP2 POP DUP4 PUSH1 0x20 DUP3 MUL DUP4 ADD GT ISZERO PUSH2 0xB87 JUMPI PUSH2 0xB86 PUSH2 0xA95 JUMP JUMPDEST JUMPDEST SWAP3 POP SWAP3 SWAP1 POP JUMP JUMPDEST PUSH0 PUSH0 DUP4 PUSH1 0x1F DUP5 ADD SLT PUSH2 0xBA3 JUMPI PUSH2 0xBA2 PUSH2 0xA8D JUMP JUMPDEST JUMPDEST DUP3 CALLDATALOAD SWAP1 POP PUSH8 0xFFFFFFFFFFFFFFFF DUP2 GT ISZERO PUSH2 0xBC0 JUMPI PUSH2 0xBBF PUSH2 0xA91 JUMP JUMPDEST JUMPDEST PUSH1 0x20 DUP4 ADD SWAP2 POP DUP4 PUSH1 0x20 DUP3 MUL DUP4 ADD GT ISZERO PUSH2 0xBDC JUMPI PUSH2 0xBDB PUSH2 0xA95 JUMP JUMPDEST JUMPDEST SWAP3 POP SWAP3 SWAP1 POP JUMP JUMPDEST PUSH0 PUSH0 PUSH0 PUSH0 PUSH1 0x40 DUP6 DUP8 SUB SLT ISZERO PUSH2 0xBFB JUMPI PUSH2 0xBFA PUSH2 0x93C JUMP JUMPDEST JUMPDEST PUSH0 DUP6 ADD CALLDATALOAD PUSH8 0xFFFFFFFFFFFFFFFF DUP2 GT ISZERO PUSH2 0xC18 JUMPI PUSH2 0xC17 PUSH2 0x940 JUMP JUMPDEST JUMPDEST PUSH2 0xC24 DUP8 DUP3 DUP9 ADD PUSH2 0xB39 JUMP JUMPDEST SWAP5 POP SWAP5 POP POP PUSH1 0x20 DUP6 ADD CALLDATALOAD PUSH8 0xFFFFFFFFFFFFFFFF DUP2 GT ISZERO PUSH2 0xC47 JUMPI PUSH2 0xC46 PUSH2 0x940 JUMP JUMPDEST JUMPDEST PUSH2 0xC53 DUP8 DUP3 DUP9 ADD PUSH2 0xB8E JUMP JUMPDEST SWAP3 POP SWAP3 POP POP SWAP3 SWAP6 SWAP2 SWAP5 POP SWAP3 POP JUMP JUMPDEST PUSH0 PUSH1 0x20 DUP3 ADD SWAP1 POP PUSH2 0xC74 PUSH0 DUP4 ADD DUP5 PUSH2 0x9D2 JUMP JUMPDEST SWAP3 SWAP2 POP POP JUMP JUMPDEST PUSH32 0x4E487B7100000000000000000000000000000000000000000000000000000000 PUSH0 MSTORE PUSH1 0x22 PUSH1 0x4 MSTORE PUSH1 0x24 PUSH0 REVERT JUMPDEST PUSH0 PUSH1 0x2 DUP3 DIV SWAP1 POP PUSH1 0x1 DUP3 AND DUP1 PUSH2 0xCBE JUMPI PUSH1 0x7F DUP3 AND SWAP2 POP JUMPDEST PUSH1 0x20 DUP3 LT DUP2 SUB PUSH2 0xCD1 JUMPI PUSH2 0xCD0 PUSH2 0xC7A JUMP JUMPDEST JUMPDEST POP SWAP2 SWAP1 POP JUMP JUMPDEST PUSH32 0x4E6F20616C63616E7A6100000000000000000000000000000000000000000000 PUSH0 DUP3 ADD MSTORE POP JUMP JUMPDEST PUSH0 PUSH2 0xD0B PUSH1 0xA DUP4 PUSH2 0x9EB JUMP JUMPDEST SWAP2 POP PUSH2 0xD16 DUP3 PUSH2 0xCD7 JUMP JUMPDEST PUSH1 0x20 DUP3 ADD SWAP1 POP SWAP2 SWAP1 POP JUMP JUMPDEST PUSH0 PUSH1 0x20 DUP3 ADD SWAP1 POP DUP2 DUP2 SUB PUSH0 DUP4 ADD MSTORE PUSH2 0xD38 DUP2 PUSH2 0xCFF JUMP JUMPDEST SWAP1 POP SWAP2 SWAP1 POP JUMP JUMPDEST PUSH32 0x4E487B7100000000000000000000000000000000000000000000000000000000 PUSH0 MSTORE PUSH1 0x12 PUSH1 0x4 MSTORE PUSH1 0x24 PUSH0 REVERT JUMPDEST PUSH32 0x4E487B7100000000000000000000000000000000000000000000000000000000 PUSH0 MSTORE PUSH1 0x11 PUSH1 0x4 MSTORE PUSH1 0x24 PUSH0 REVERT JUMPDEST PUSH0 PUSH2 0xDA3 DUP3 PUSH2 0x9C9 JUMP JUMPDEST SWAP2 POP PUSH2 0xDAE DUP4 PUSH2 0x9C9 JUMP JUMPDEST SWAP3 POP DUP3 PUSH2 0xDBE JUMPI PUSH2 0xDBD PUSH2 0xD3F JUMP JUMPDEST JUMPDEST DUP3 DUP3 DIV SWAP1 POP SWAP3 SWAP2 POP POP JUMP JUMPDEST PUSH0 PUSH2 0xDD3 DUP3 PUSH2 0x9C9 JUMP JUMPDEST SWAP2 POP PUSH2 0xDDE DUP4 PUSH2 0x9C9 JUMP JUMPDEST SWAP3 POP DUP3 PUSH2 0xDEE JUMPI PUSH2 0xDED PUSH2 0xD3F JUMP JUMPDEST JUMPDEST DUP3 DUP3 MOD SWAP1 POP SWAP3 SWAP2 POP POP JUMP JUMPDEST PUSH32 0x4E6F2074652076616D6F732061206465766F6C766572206D6173000000000000 PUSH0 DUP3 ADD MSTORE POP JUMP JUMPDEST PUSH0 PUSH2 0xE2D PUSH1 0x1A DUP4 PUSH2 0x9EB JUMP JUMPDEST SWAP2 POP PUSH2 0xE38 DUP3 PUSH2 0xDF9 JUMP JUMPDEST PUSH1 0x20 DUP3 ADD SWAP1 POP SWAP2 SWAP1 POP JUMP JUMPDEST PUSH0 PUSH1 0x20 DUP3 ADD SWAP1 POP DUP2 DUP2 SUB PUSH0 DUP4 ADD MSTORE PUSH2 0xE5A DUP2 PUSH2 0xE21 JUMP JUMPDEST SWAP1 POP SWAP2 SWAP1 POP JUMP JUMPDEST PUSH0 DUP3 SWAP1 POP SWAP3 SWAP2 POP POP JUMP JUMPDEST PUSH32 0x4E487B7100000000000000000000000000000000000000000000000000000000 PUSH0 MSTORE PUSH1 0x41 PUSH1 0x4 MSTORE PUSH1 0x24 PUSH0 REVERT JUMPDEST PUSH0 DUP2 SWAP1 POP DUP2 PUSH0 MSTORE PUSH1 0x20 PUSH0 KECCAK256 SWAP1 POP SWAP2 SWAP1 POP JUMP JUMPDEST PUSH0 PUSH1 0x20 PUSH1 0x1F DUP4 ADD DIV SWAP1 POP SWAP2 SWAP1 POP JUMP JUMPDEST PUSH0 DUP3 DUP3 SHL SWAP1 POP SWAP3 SWAP2 POP POP JUMP JUMPDEST PUSH0 PUSH1 0x8 DUP4 MUL PUSH2 0xEF4 PUSH32 0xFFFFFFFFFFFFFFFFFFFFFFFFFFFFFFFFFFFFFFFFFFFFFFFFFFFFFFFFFFFFFFFF DUP3 PUSH2 0xEB9 JUMP JUMPDEST PUSH2 0xEFE DUP7 DUP4 PUSH2 0xEB9 JUMP JUMPDEST SWAP6 POP DUP1 NOT DUP5 AND SWAP4 POP DUP1 DUP7 AND DUP5 OR SWAP3 POP POP POP SWAP4 SWAP3 POP POP POP JUMP JUMPDEST PUSH0 DUP2 SWAP1 POP SWAP2 SWAP1 POP JUMP JUMPDEST PUSH0 PUSH2 0xF39 PUSH2 0xF34 PUSH2 0xF2F DUP5 PUSH2 0x9C9 JUMP JUMPDEST PUSH2 0xF16 JUMP JUMPDEST PUSH2 0x9C9 JUMP JUMPDEST SWAP1 POP SWAP2 SWAP1 POP JUMP JUMPDEST PUSH0 DUP2 SWAP1 POP SWAP2 SWAP1 POP JUMP JUMPDEST PUSH2 0xF52 DUP4 PUSH2 0xF1F JUMP JUMPDEST PUSH2 0xF66 PUSH2 0xF5E DUP3 PUSH2 0xF40 JUMP JUMPDEST DUP5 DUP5 SLOAD PUSH2 0xEC5 JUMP JUMPDEST DUP3 SSTORE POP POP POP POP JUMP JUMPDEST PUSH0 PUSH0 SWAP1 POP SWAP1 JUMP JUMPDEST PUSH2 0xF7D PUSH2 0xF6E JUMP JUMPDEST PUSH2 0xF88 DUP2 DUP5 DUP5 PUSH2 0xF49 JUMP JUMPDEST POP POP POP JUMP JUMPDEST JUMPDEST DUP2 DUP2 LT ISZERO PUSH2 0xFAB JUMPI PUSH2 0xFA0 PUSH0 DUP3 PUSH2 0xF75 JUMP JUMPDEST PUSH1 0x1 DUP2 ADD SWAP1 POP PUSH2 0xF8E JUMP JUMPDEST POP POP JUMP JUMPDEST PUSH1 0x1F DUP3 GT ISZERO PUSH2 0xFF0 JUMPI PUSH2 0xFC1 DUP2 PUSH2 0xE98 JUMP JUMPDEST PUSH2 0xFCA DUP5 PUSH2 0xEAA JUMP JUMPDEST DUP2 ADD PUSH1 0x20 DUP6 LT ISZERO PUSH2 0xFD9 JUMPI DUP2 SWAP1 POP JUMPDEST PUSH2 0xFED PUSH2 0xFE5 DUP6 PUSH2 0xEAA JUMP JUMPDEST DUP4 ADD DUP3 PUSH2 0xF8D JUMP JUMPDEST POP POP JUMPDEST POP POP POP JUMP JUMPDEST PUSH0 DUP3 DUP3 SHR SWAP1 POP SWAP3 SWAP2 POP POP JUMP JUMPDEST PUSH0 PUSH2 0x1010 PUSH0 NOT DUP5 PUSH1 0x8 MUL PUSH2 0xFF5 JUMP JUMPDEST NOT DUP1 DUP4 AND SWAP2 POP POP SWAP3 SWAP2 POP POP JUMP JUMPDEST PUSH0 PUSH2 0x1028 DUP4 DUP4 PUSH2 0x1001 JUMP JUMPDEST SWAP2 POP DUP3 PUSH1 0x2 MUL DUP3 OR SWAP1 POP SWAP3 SWAP2 POP POP JUMP JUMPDEST PUSH2 0x1042 DUP4 DUP4 PUSH2 0xE61 JUMP JUMPDEST PUSH8 0xFFFFFFFFFFFFFFFF DUP2 GT ISZERO PUSH2 0x105B JUMPI PUSH2 0x105A PUSH2 0xE6B JUMP JUMPDEST JUMPDEST PUSH2 0x1065 DUP3 SLOAD PUSH2 0xCA7 JUMP JUMPDEST PUSH2 0x1070 DUP3 DUP3 DUP6 PUSH2 0xFAF JUMP JUMPDEST PUSH0 PUSH1 0x1F DUP4 GT PUSH1 0x1 DUP2 EQ PUSH2 0x109D JUMPI PUSH0 DUP5 ISZERO PUSH2 0x108B JUMPI DUP3 DUP8 ADD CALLDATALOAD SWAP1 POP JUMPDEST PUSH2 0x1095 DUP6 DUP3 PUSH2 0x101D JUMP JUMPDEST DUP7 SSTORE POP PUSH2 0x10FC JUMP JUMPDEST PUSH1 0x1F NOT DUP5 AND PUSH2 0x10AB DUP7 PUSH2 0xE98 JUMP JUMPDEST PUSH0 JUMPDEST DUP3 DUP2 LT ISZERO PUSH2 0x10D2 JUMPI DUP5 DUP10 ADD CALLDATALOAD DUP3 SSTORE PUSH1 0x1 DUP3 ADD SWAP2 POP PUSH1 0x20 DUP6 ADD SWAP5 POP PUSH1 0x20 DUP2 ADD SWAP1 POP PUSH2 0x10AD JUMP JUMPDEST DUP7 DUP4 LT ISZERO PUSH2 0x10EF JUMPI DUP5 DUP10 ADD CALLDATALOAD PUSH2 0x10EB PUSH1 0x1F DUP10 AND DUP3 PUSH2 0x1001 JUMP JUMPDEST DUP4 SSTORE POP JUMPDEST PUSH1 0x1 PUSH1 0x2 DUP9 MUL ADD DUP9 SSTORE POP POP POP JUMPDEST POP POP POP POP POP POP POP JUMP JUMPDEST PUSH0 PUSH2 0x110F DUP3 PUSH2 0x9C9 JUMP JUMPDEST SWAP2 POP PUSH32 0xFFFFFFFFFFFFFFFFFFFFFFFFFFFFFFFFFFFFFFFFFFFFFFFFFFFFFFFFFFFFFFFF DUP3 SUB PUSH2 0x1141 JUMPI PUSH2 0x1140 PUSH2 0xD6C JUMP JUMPDEST JUMPDEST PUSH1 0x1 DUP3 ADD SWAP1 POP SWAP2 SWAP1 POP JUMP JUMPDEST PUSH32 0x7573746564206E6F20657320656C206F776E6572000000000000000000000000 PUSH0 DUP3 ADD MSTORE POP JUMP JUMPDEST PUSH0 PUSH2 0x1180 PUSH1 0x14 DUP4 PUSH2 0x9EB JUMP JUMPDEST SWAP2 POP PUSH2 0x118B DUP3 PUSH2 0x114C JUMP JUMPDEST PUSH1 0x20 DUP3 ADD SWAP1 POP SWAP2 SWAP1 POP JUMP JUMPDEST PUSH0 PUSH1 0x20 DUP3 ADD SWAP1 POP DUP2 DUP2 SUB PUSH0 DUP4 ADD MSTORE PUSH2 0x11AD DUP2 PUSH2 0x1174 JUMP JUMPDEST SWAP1 POP SWAP2 SWAP1 POP JUMP JUMPDEST PUSH32 0x4E487B7100000000000000000000000000000000000000000000000000000000 PUSH0 MSTORE PUSH1 0x32 PUSH1 0x4 MSTORE PUSH1 0x24 PUSH0 REVERT JUMPDEST PUSH0 PUSH0 REVERT JUMPDEST PUSH0 PUSH0 REVERT JUMPDEST PUSH0 PUSH0 REVERT JUMPDEST PUSH0 DUP3 CALLDATALOAD PUSH1 0x1 PUSH1 0x60 SUB DUP4 CALLDATASIZE SUB SUB DUP2 SLT PUSH2 0x1208 JUMPI PUSH2 0x1207 PUSH2 0x11E1 JUMP JUMPDEST JUMPDEST DUP1 DUP4 ADD SWAP2 POP POP SWAP3 SWAP2 POP POP JUMP JUMPDEST PUSH0 PUSH0 DUP4 CALLDATALOAD PUSH1 0x1 PUSH1 0x20 SUB DUP5 CALLDATASIZE SUB SUB DUP2 SLT PUSH2 0x1230 JUMPI PUSH2 0x122F PUSH2 0x11E1 JUMP JUMPDEST JUMPDEST DUP1 DUP5 ADD SWAP3 POP DUP3 CALLDATALOAD SWAP2 POP PUSH8 0xFFFFFFFFFFFFFFFF DUP3 GT ISZERO PUSH2 0x1252 JUMPI PUSH2 0x1251 PUSH2 0x11E5 JUMP JUMPDEST JUMPDEST PUSH1 0x20 DUP4 ADD SWAP3 POP PUSH1 0x1 DUP3 MUL CALLDATASIZE SUB DUP4 SGT ISZERO PUSH2 0x126E JUMPI PUSH2 0x126D PUSH2 0x11E9 JUMP JUMPDEST JUMPDEST POP SWAP3 POP SWAP3 SWAP1 POP JUMP JUMPDEST PUSH32 0x4E6F206573206D696E757363756C610000000000000000000000000000000000 PUSH0 DUP3 ADD MSTORE POP JUMP JUMPDEST PUSH0 PUSH2 0x12AA PUSH1 0xF DUP4 PUSH2 0x9EB JUMP JUMPDEST SWAP2 POP PUSH2 0x12B5 DUP3 PUSH2 0x1276 JUMP JUMPDEST PUSH1 0x20 DUP3 ADD SWAP1 POP SWAP2 SWAP1 POP JUMP JUMPDEST PUSH0 PUSH1 0x20 DUP3 ADD SWAP1 POP DUP2 DUP2 SUB PUSH0 DUP4 ADD MSTORE PUSH2 0x12D7 DUP2 PUSH2 0x129E JUMP JUMPDEST SWAP1 POP SWAP2 SWAP1 POP JUMP JUMPDEST PUSH0 PUSH1 0xFF DUP3 AND SWAP1 POP SWAP2 SWAP1 POP JUMP JUMPDEST PUSH0 PUSH2 0x12F4 DUP3 PUSH2 0x12DE JUMP JUMPDEST SWAP2 POP PUSH2 0x12FF DUP4 PUSH2 0x12DE JUMP JUMPDEST SWAP3 POP DUP3 DUP3 ADD SWAP1 POP PUSH1 0xFF DUP2 GT ISZERO PUSH2 0x1318 JUMPI PUSH2 0x1317 PUSH2 0xD6C JUMP JUMPDEST JUMPDEST SWAP3 SWAP2 POP POP JUMP INVALID LOG2 PUSH5 0x6970667358 0x22 SLT KECCAK256 0xD7 PUSH13 0xEC57EBFB7E030614377F444CC8 PUSH30 0xC406FDD3305316E04D7B4CABE4B2C02764736F6C634300081E0033000000 "
				},
				"gasEstimates": {
					"creation": {
						"codeDepositCost": "989600",
						"executionCost": "25266",
						"totalCost": "1014866"
					},
					"external": {
						"asignEntrada(address[],(uint256,string,uint256)[])": "infinite",
						"cambioLetra()": "infinite",
						"cliente(address)": "infinite",
						"comprarEntradas(string)": "infinite",
						"getLotteryTicket()": "144",
						"id()": "2468",
						"price()": "347"
					}
				},
				"methodIdentifiers": {
					"asignEntrada(address[],(uint256,string,uint256)[])": "87c442ed",
					"cambioLetra()": "f57158d6",
					"cliente(address)": "3bf334b8",
					"comprarEntradas(string)": "78e561aa",
					"getLotteryTicket()": "156ea2e5",
					"id()": "af640d0f",
					"price()": "a035b1fe"
				}
			},
			"storageLayout": {
				"storage": [
					{
						"astId": 21,
						"contract": "contracts/ticket.sol:Ticket",
						"label": "id",
						"offset": 0,
						"slot": "0",
						"type": "t_uint256"
					},
					{
						"astId": 23,
						"contract": "contracts/ticket.sol:Ticket",
						"label": "owner",
						"offset": 0,
						"slot": "1",
						"type": "t_address"
					},
					{
						"astId": 28,
						"contract": "contracts/ticket.sol:Ticket",
						"label": "cliente",
						"offset": 0,
						"slot": "2",
						"type": "t_mapping(t_address,t_struct(Person)8_storage)"
					}
				],
				"types": {
					"t_address": {
						"encoding": "inplace",
						"label": "address",
						"numberOfBytes": "20"
					},
					"t_mapping(t_address,t_struct(Person)8_storage)": {
						"encoding": "mapping",
						"key": "t_address",
						"label": "mapping(address => struct Ticket.Person)",
						"numberOfBytes": "32",
						"value": "t_struct(Person)8_storage"
					},
					"t_string_storage": {
						"encoding": "bytes",
						"label": "string",
						"numberOfBytes": "32"
					},
					"t_struct(Person)8_storage": {
						"encoding": "inplace",
						"label": "struct Ticket.Person",
						"members": [
							{
								"astId": 3,
								"contract": "contracts/ticket.sol:Ticket",
								"label": "id",
								"offset": 0,
								"slot": "0",
								"type": "t_uint256"
							},
							{
								"astId": 5,
								"contract": "contracts/ticket.sol:Ticket",
								"label": "nombre",
								"offset": 0,
								"slot": "1",
								"type": "t_string_storage"
							},
							{
								"astId": 7,
								"contract": "contracts/ticket.sol:Ticket",
								"label": "cantidad",
								"offset": 0,
								"slot": "2",
								"type": "t_uint256"
							}
						],
						"numberOfBytes": "96"
					},
					"t_uint256": {
						"encoding": "inplace",
						"label": "uint256",
						"numberOfBytes": "32"
					}
				}
			},
			"userdoc": {
				"kind": "user",
				"methods": {},
				"version": 1
			}
		}
	}
}