{
	"data": {
		"bytecode": {
			"linkReferences": {},
			"object": "6080604052348015600e575f5ffd5b506103918061001c5f395ff3fe608060405234801561000f575f5ffd5b5060043610610060575f3560e01c806317a6d5af1461006457806396dd1de11461006e578063d0ec61bd14610078578063e17057a114610082578063f2f7cca41461008c578063f3391fde146100bc575b5f5ffd5b61006c6100c6565b005b6100766100da565b005b6100806100f4565b005b61008a61011a565b005b6100a660048036038101906100a191906101c4565b61014f565b6040516100b391906101fe565b60405180910390f35b6100c461016e565b005b60026001146100d8576100d7610217565b5b565b5f600a90505f5f905080826100ef919061029e565b505050565b5f805480610105576101046102ce565b5b600190038181905f5260205f20015f90559055565b5f7fffffffffffffffffffffffffffffffffffffffffffffffffffffffffffffffff905060018161014b91906102fb565b5050565b5f818154811061015d575f80fd5b905f5260205f20015f915090505481565b5f6064815481106101825761018161032e565b5b905f5260205f205050565b5f5ffd5b5f819050919050565b6101a381610191565b81146101ad575f5ffd5b50565b5f813590506101be8161019a565b92915050565b5f602082840312156101d9576101d861018d565b5b5f6101e6848285016101b0565b91505092915050565b6101f881610191565b82525050565b5f6020820190506102115f8301846101ef565b92915050565b7f4e487b71000000000000000000000000000000000000000000000000000000005f52600160045260245ffd5b7f4e487b71000000000000000000000000000000000000000000000000000000005f52601260045260245ffd5b7f4e487b71000000000000000000000000000000000000000000000000000000005f52601160045260245ffd5b5f6102a882610191565b91506102b383610191565b9250826102c3576102c2610244565b5b828204905092915050565b7f4e487b71000000000000000000000000000000000000000000000000000000005f52603160045260245ffd5b5f61030582610191565b915061031083610191565b925082820190508082111561032857610327610271565b5b92915050565b7f4e487b71000000000000000000000000000000000000000000000000000000005f52603260045260245ffdfea2646970667358221220efe92e41272f501c6fce06ce7426afddfabd76130cca5863f9ab095294a6438464736f6c634300081e0033",
			"opcodes": "PUSH1 0x80 PUSH1 0x40 MSTORE CALLVALUE DUP1 ISZERO PUSH1 0xE JUMPI PUSH0 PUSH0 REVERT JUMPDEST POP PUSH2 0x391 DUP1 PUSH2 0x1C PUSH0 CODECOPY PUSH0 RETURN INVALID PUSH1 0x80 PUSH1 0x40 MSTORE CALLVALUE DUP1 ISZERO PUSH2 0xF JUMPI PUSH0 PUSH0 REVERT JUMPDEST POP PUSH1 0x4 CALLDATASIZE LT PUSH2 0x60 JUMPI PUSH0 CALLDATALOAD PUSH1 0xE0 SHR DUP1 PUSH4 0x17A6D5AF EQ PUSH2 0x64 JUMPI DUP1 PUSH4 0x96DD1DE1 EQ PUSH2 0x6E JUMPI DUP1 PUSH4 0xD0EC61BD EQ PUSH2 0x78 JUMPI DUP1 PUSH4 0xE17057A1 EQ PUSH2 0x82 JUMPI DUP1 PUSH4 0xF2F7CCA4 EQ PUSH2 0x8C JUMPI DUP1 PUSH4 0xF3391FDE EQ PUSH2 0xBC JUMPI JUMPDEST PUSH0 PUSH0 REVERT JUMPDEST PUSH2 0x6C PUSH2 0xC6 JUMP JUMPDEST STOP JUMPDEST PUSH2 0x76 PUSH2 0xDA JUMP JUMPDEST STOP JUMPDEST PUSH2 0x80 PUSH2 0xF4 JUMP JUMPDEST STOP JUMPDEST PUSH2 0x8A PUSH2 0x11A JUMP JUMPDEST STOP JUMPDEST PUSH2 0xA6 PUSH1 0x4 DUP1 CALLDATASIZE SUB DUP2 ADD SWAP1 PUSH2 0xA1 SWAP2 SWAP1 PUSH2 0x1C4 JUMP JUMPDEST PUSH2 0x14F JUMP JUMPDEST PUSH1 0x40 MLOAD PUSH2 0xB3 SWAP2 SWAP1 PUSH2 0x1FE JUMP JUMPDEST PUSH1 0x40 MLOAD DUP1 SWAP2 SUB SWAP1 RETURN JUMPDEST PUSH2 0xC4 PUSH2 0x16E JUMP JUMPDEST STOP JUMPDEST PUSH1 0x2 PUSH1 0x1 EQ PUSH2 0xD8 JUMPI PUSH2 0xD7 PUSH2 0x217 JUMP JUMPDEST JUMPDEST JUMP JUMPDEST PUSH0 PUSH1 0xA SWAP1 POP PUSH0 PUSH0 SWAP1 POP DUP1 DUP3 PUSH2 0xEF SWAP2 SWAP1 PUSH2 0x29E JUMP JUMPDEST POP POP POP JUMP JUMPDEST PUSH0 DUP1 SLOAD DUP1 PUSH2 0x105 JUMPI PUSH2 0x104 PUSH2 0x2CE JUMP JUMPDEST JUMPDEST PUSH1 0x1 SWAP1 SUB DUP2 DUP2 SWAP1 PUSH0 MSTORE PUSH1 0x20 PUSH0 KECCAK256 ADD PUSH0 SWAP1 SSTORE SWAP1 SSTORE JUMP JUMPDEST PUSH0 PUSH32 0xFFFFFFFFFFFFFFFFFFFFFFFFFFFFFFFFFFFFFFFFFFFFFFFFFFFFFFFFFFFFFFFF SWAP1 POP PUSH1 0x1 DUP2 PUSH2 0x14B SWAP2 SWAP1 PUSH2 0x2FB JUMP JUMPDEST POP POP JUMP JUMPDEST PUSH0 DUP2 DUP2 SLOAD DUP2 LT PUSH2 0x15D JUMPI PUSH0 DUP1 REVERT JUMPDEST SWAP1 PUSH0 MSTORE PUSH1 0x20 PUSH0 KECCAK256 ADD PUSH0 SWAP2 POP SWAP1 POP SLOAD DUP2 JUMP JUMPDEST PUSH0 PUSH1 0x64 DUP2 SLOAD DUP2 LT PUSH2 0x182 JUMPI PUSH2 0x181 PUSH2 0x32E JUMP JUMPDEST JUMPDEST SWAP1 PUSH0 MSTORE PUSH1 0x20 PUSH0 KECCAK256 POP POP JUMP JUMPDEST PUSH0 PUSH0 REVERT JUMPDEST PUSH0 DUP2 SWAP1 POP SWAP2 SWAP1 POP JUMP JUMPDEST PUSH2 0x1A3 DUP2 PUSH2 0x191 JUMP JUMPDEST DUP2 EQ PUSH2 0x1AD JUMPI PUSH0 PUSH0 REVERT JUMPDEST POP JUMP JUMPDEST PUSH0 DUP2 CALLDATALOAD SWAP1 POP PUSH2 0x1BE DUP2 PUSH2 0x19A JUMP JUMPDEST SWAP3 SWAP2 POP POP JUMP JUMPDEST PUSH0 PUSH1 0x20 DUP3 DUP5 SUB SLT ISZERO PUSH2 0x1D9 JUMPI PUSH2 0x1D8 PUSH2 0x18D JUMP JUMPDEST JUMPDEST PUSH0 PUSH2 0x1E6 DUP5 DUP3 DUP6 ADD PUSH2 0x1B0 JUMP JUMPDEST SWAP2 POP POP SWAP3 SWAP2 POP POP JUMP JUMPDEST PUSH2 0x1F8 DUP2 PUSH2 0x191 JUMP JUMPDEST DUP3 MSTORE POP POP JUMP JUMPDEST PUSH0 PUSH1 0x20 DUP3 ADD SWAP1 POP PUSH2 0x211 PUSH0 DUP4 ADD DUP5 PUSH2 0x1EF JUMP JUMPDEST SWAP3 SWAP2 POP POP JUMP JUMPDEST PUSH32 0x4E487B7100000000000000000000000000000000000000000000000000000000 PUSH0 MSTORE PUSH1 0x1 PUSH1 0x4 MSTORE PUSH1 0x24 PUSH0 REVERT JUMPDEST PUSH32 0x4E487B7100000000000000000000000000000000000000000000000000000000 PUSH0 MSTORE PUSH1 0x12 PUSH1 0x4 MSTORE PUSH1 0x24 PUSH0 REVERT JUMPDEST PUSH32 0x4E487B7100000000000000000000000000000000000000000000000000000000 PUSH0 MSTORE PUSH1 0x11 PUSH1 0x4 MSTORE PUSH1 0x24 PUSH0 REVERT JUMPDEST PUSH0 PUSH2 0x2A8 DUP3 PUSH2 0x191 JUMP JUMPDEST SWAP2 POP PUSH2 0x2B3 DUP4 PUSH2 0x191 JUMP JUMPDEST SWAP3 POP DUP3 PUSH2 0x2C3 JUMPI PUSH2 0x2C2 PUSH2 0x244 JUMP JUMPDEST JUMPDEST DUP3 DUP3 DIV SWAP1 POP SWAP3 SWAP2 POP POP JUMP JUMPDEST PUSH32 0x4E487B7100000000000000000000000000000000000000000000000000000000 PUSH0 MSTORE PUSH1 0x31 PUSH1 0x4 MSTORE PUSH1 0x24 PUSH0 REVERT JUMPDEST PUSH0 PUSH2 0x305 DUP3 PUSH2 0x191 JUMP JUMPDEST SWAP2 POP PUSH2 0x310 DUP4 PUSH2 0x191 JUMP JUMPDEST SWAP3 POP DUP3 DUP3 ADD SWAP1 POP DUP1 DUP3 GT ISZERO PUSH2 0x328 JUMPI PUSH2 0x327 PUSH2 0x271 JUMP JUMPDEST JUMPDEST SWAP3 SWAP2 POP POP JUMP JUMPDEST PUSH32 0x4E487B7100000000000000000000000000000000000000000000000000000000 PUSH0 MSTORE PUSH1 0x32 PUSH1 0x4 MSTORE PUSH1 0x24 PUSH0 REVERT INVALID LOG2 PUSH5 0x6970667358 0x22 SLT KECCAK256 0xEF 0xE9 0x2E COINBASE 0x27 0x2F POP SHR PUSH16 0xCE06CE7426AFDDFABD76130CCA5863F9 0xAB MULMOD MSTORE SWAP5 0xA6 NUMBER DUP5 PUSH5 0x736F6C6343 STOP ADDMOD 0x1E STOP CALLER "
		},
		"gasEstimates": {
			"creation": {
				"codeDepositCost": "182600",
				"executionCost": "224",
				"totalCost": "182824"
			},
			"external": {
				"arrayPanic()": "2412",
				"assertPanic()": "171",
				"divisionPanic()": "infinite",
				"numeros(uint256)": "infinite",
				"overflowPanic()": "infinite",
				"popPanic()": "29462"
			}
		},
		"methodIdentifiers": {
			"arrayPanic()": "f3391fde",
			"assertPanic()": "17a6d5af",
			"divisionPanic()": "96dd1de1",
			"numeros(uint256)": "f2f7cca4",
			"overflowPanic()": "e17057a1",
			"popPanic()": "d0ec61bd"
		}
	},
	"abi": [
		{
			"inputs": [],
			"name": "arrayPanic",
			"outputs": [],
			"stateMutability": "view",
			"type": "function"
		},
		{
			"inputs": [],
			"name": "assertPanic",
			"outputs": [],
			"stateMutability": "pure",
			"type": "function"
		},
		{
			"inputs": [],
			"name": "divisionPanic",
			"outputs": [],
			"stateMutability": "pure",
			"type": "function"
		},
		{
			"inputs": [
				{
					"internalType": "uint256",
					"name": "",
					"type": "uint256"
				}
			],
			"name": "numeros",
			"outputs": [
				{
					"internalType": "uint256",
					"name": "",
					"type": "uint256"
				}
			],
			"stateMutability": "view",
			"type": "function"
		},
		{
			"inputs": [],
			"name": "overflowPanic",
			"outputs": [],
			"stateMutability": "pure",
			"type": "function"
		},
		{
			"inputs": [],
			"name": "popPanic",
			"outputs": [],
			"stateMutability": "nonpayable",
			"type": "function"
		}
	]
}