{
	"data": {
		"bytecode": {
			"linkReferences": {
				"contracts/desafio3.sol": {
					"NumerosUtiles": [
						{
							"length": 20,
							"start": 127
						}
					]
				}
			},
			"object": "6080604052348015600e575f5ffd5b5061040a8061001c5f395ff3fe608060405234801561000f575f5ffd5b5060043610610029575f3560e01c8063926316791461002d575b5f5ffd5b61004760048036038101906100429190610127565b61005e565b6040516100559291906101dc565b60405180910390f35b5f606073__$53931326350b5aaf8e5bb87730d2c08b3a$__63c96c7d88846040518263ffffffff1660e01b81526004016100989190610219565b5f60405180830381865af41580156100b2573d5f5f3e3d5ffd5b505050506040513d5f823e3d601f19601f820116820180604052508101906100da919061037a565b91509150915091565b5f604051905090565b5f5ffd5b5f5ffd5b5f819050919050565b610106816100f4565b8114610110575f5ffd5b50565b5f81359050610121816100fd565b92915050565b5f6020828403121561013c5761013b6100ec565b5b5f61014984828501610113565b91505092915050565b5f8115159050919050565b61016681610152565b82525050565b5f81519050919050565b5f82825260208201905092915050565b8281835e5f83830152505050565b5f601f19601f8301169050919050565b5f6101ae8261016c565b6101b88185610176565b93506101c8818560208601610186565b6101d181610194565b840191505092915050565b5f6040820190506101ef5f83018561015d565b818103602083015261020181846101a4565b90509392505050565b610213816100f4565b82525050565b5f60208201905061022c5f83018461020a565b92915050565b61023b81610152565b8114610245575f5ffd5b50565b5f8151905061025681610232565b92915050565b5f5ffd5b5f5ffd5b7f4e487b71000000000000000000000000000000000000000000000000000000005f52604160045260245ffd5b61029a82610194565b810181811067ffffffffffffffff821117156102b9576102b8610264565b5b80604052505050565b5f6102cb6100e3565b90506102d78282610291565b919050565b5f67ffffffffffffffff8211156102f6576102f5610264565b5b6102ff82610194565b9050602081019050919050565b5f61031e610319846102dc565b6102c2565b90508281526020810184848401111561033a57610339610260565b5b610345848285610186565b509392505050565b5f82601f8301126103615761036061025c565b5b815161037184826020860161030c565b91505092915050565b5f5f604083850312156103905761038f6100ec565b5b5f61039d85828601610248565b925050602083015167ffffffffffffffff8111156103be576103bd6100f0565b5b6103ca8582860161034d565b915050925092905056fea2646970667358221220849cb3cc2a08d9e8269141cedf0440cd4af62286dddcf60ff92b72fa501e8f5364736f6c634300081e0033",
			"opcodes": "PUSH1 0x80 PUSH1 0x40 MSTORE CALLVALUE DUP1 ISZERO PUSH1 0xE JUMPI PUSH0 PUSH0 REVERT JUMPDEST POP PUSH2 0x40A DUP1 PUSH2 0x1C PUSH0 CODECOPY PUSH0 RETURN INVALID PUSH1 0x80 PUSH1 0x40 MSTORE CALLVALUE DUP1 ISZERO PUSH2 0xF JUMPI PUSH0 PUSH0 REVERT JUMPDEST POP PUSH1 0x4 CALLDATASIZE LT PUSH2 0x29 JUMPI PUSH0 CALLDATALOAD PUSH1 0xE0 SHR DUP1 PUSH4 0x92631679 EQ PUSH2 0x2D JUMPI JUMPDEST PUSH0 PUSH0 REVERT JUMPDEST PUSH2 0x47 PUSH1 0x4 DUP1 CALLDATASIZE SUB DUP2 ADD SWAP1 PUSH2 0x42 SWAP2 SWAP1 PUSH2 0x127 JUMP JUMPDEST PUSH2 0x5E JUMP JUMPDEST PUSH1 0x40 MLOAD PUSH2 0x55 SWAP3 SWAP2 SWAP1 PUSH2 0x1DC JUMP JUMPDEST PUSH1 0x40 MLOAD DUP1 SWAP2 SUB SWAP1 RETURN JUMPDEST PUSH0 PUSH1 0x60 PUSH20 0x0 PUSH4 0xC96C7D88 DUP5 PUSH1 0x40 MLOAD DUP3 PUSH4 0xFFFFFFFF AND PUSH1 0xE0 SHL DUP2 MSTORE PUSH1 0x4 ADD PUSH2 0x98 SWAP2 SWAP1 PUSH2 0x219 JUMP JUMPDEST PUSH0 PUSH1 0x40 MLOAD DUP1 DUP4 SUB DUP2 DUP7 GAS DELEGATECALL ISZERO DUP1 ISZERO PUSH2 0xB2 JUMPI RETURNDATASIZE PUSH0 PUSH0 RETURNDATACOPY RETURNDATASIZE PUSH0 REVERT JUMPDEST POP POP POP POP PUSH1 0x40 MLOAD RETURNDATASIZE PUSH0 DUP3 RETURNDATACOPY RETURNDATASIZE PUSH1 0x1F NOT PUSH1 0x1F DUP3 ADD AND DUP3 ADD DUP1 PUSH1 0x40 MSTORE POP DUP2 ADD SWAP1 PUSH2 0xDA SWAP2 SWAP1 PUSH2 0x37A JUMP JUMPDEST SWAP2 POP SWAP2 POP SWAP2 POP SWAP2 JUMP JUMPDEST PUSH0 PUSH1 0x40 MLOAD SWAP1 POP SWAP1 JUMP JUMPDEST PUSH0 PUSH0 REVERT JUMPDEST PUSH0 PUSH0 REVERT JUMPDEST PUSH0 DUP2 SWAP1 POP SWAP2 SWAP1 POP JUMP JUMPDEST PUSH2 0x106 DUP2 PUSH2 0xF4 JUMP JUMPDEST DUP2 EQ PUSH2 0x110 JUMPI PUSH0 PUSH0 REVERT JUMPDEST POP JUMP JUMPDEST PUSH0 DUP2 CALLDATALOAD SWAP1 POP PUSH2 0x121 DUP2 PUSH2 0xFD JUMP JUMPDEST SWAP3 SWAP2 POP POP JUMP JUMPDEST PUSH0 PUSH1 0x20 DUP3 DUP5 SUB SLT ISZERO PUSH2 0x13C JUMPI PUSH2 0x13B PUSH2 0xEC JUMP JUMPDEST JUMPDEST PUSH0 PUSH2 0x149 DUP5 DUP3 DUP6 ADD PUSH2 0x113 JUMP JUMPDEST SWAP2 POP POP SWAP3 SWAP2 POP POP JUMP JUMPDEST PUSH0 DUP2 ISZERO ISZERO SWAP1 POP SWAP2 SWAP1 POP JUMP JUMPDEST PUSH2 0x166 DUP2 PUSH2 0x152 JUMP JUMPDEST DUP3 MSTORE POP POP JUMP JUMPDEST PUSH0 DUP2 MLOAD SWAP1 POP SWAP2 SWAP1 POP JUMP JUMPDEST PUSH0 DUP3 DUP3 MSTORE PUSH1 0x20 DUP3 ADD SWAP1 POP SWAP3 SWAP2 POP POP JUMP JUMPDEST DUP3 DUP2 DUP4 MCOPY PUSH0 DUP4 DUP4 ADD MSTORE POP POP POP JUMP JUMPDEST PUSH0 PUSH1 0x1F NOT PUSH1 0x1F DUP4 ADD AND SWAP1 POP SWAP2 SWAP1 POP JUMP JUMPDEST PUSH0 PUSH2 0x1AE DUP3 PUSH2 0x16C JUMP JUMPDEST PUSH2 0x1B8 DUP2 DUP6 PUSH2 0x176 JUMP JUMPDEST SWAP4 POP PUSH2 0x1C8 DUP2 DUP6 PUSH1 0x20 DUP7 ADD PUSH2 0x186 JUMP JUMPDEST PUSH2 0x1D1 DUP2 PUSH2 0x194 JUMP JUMPDEST DUP5 ADD SWAP2 POP POP SWAP3 SWAP2 POP POP JUMP JUMPDEST PUSH0 PUSH1 0x40 DUP3 ADD SWAP1 POP PUSH2 0x1EF PUSH0 DUP4 ADD DUP6 PUSH2 0x15D JUMP JUMPDEST DUP2 DUP2 SUB PUSH1 0x20 DUP4 ADD MSTORE PUSH2 0x201 DUP2 DUP5 PUSH2 0x1A4 JUMP JUMPDEST SWAP1 POP SWAP4 SWAP3 POP POP POP JUMP JUMPDEST PUSH2 0x213 DUP2 PUSH2 0xF4 JUMP JUMPDEST DUP3 MSTORE POP POP JUMP JUMPDEST PUSH0 PUSH1 0x20 DUP3 ADD SWAP1 POP PUSH2 0x22C PUSH0 DUP4 ADD DUP5 PUSH2 0x20A JUMP JUMPDEST SWAP3 SWAP2 POP POP JUMP JUMPDEST PUSH2 0x23B DUP2 PUSH2 0x152 JUMP JUMPDEST DUP2 EQ PUSH2 0x245 JUMPI PUSH0 PUSH0 REVERT JUMPDEST POP JUMP JUMPDEST PUSH0 DUP2 MLOAD SWAP1 POP PUSH2 0x256 DUP2 PUSH2 0x232 JUMP JUMPDEST SWAP3 SWAP2 POP POP JUMP JUMPDEST PUSH0 PUSH0 REVERT JUMPDEST PUSH0 PUSH0 REVERT JUMPDEST PUSH32 0x4E487B7100000000000000000000000000000000000000000000000000000000 PUSH0 MSTORE PUSH1 0x41 PUSH1 0x4 MSTORE PUSH1 0x24 PUSH0 REVERT JUMPDEST PUSH2 0x29A DUP3 PUSH2 0x194 JUMP JUMPDEST DUP2 ADD DUP2 DUP2 LT PUSH8 0xFFFFFFFFFFFFFFFF DUP3 GT OR ISZERO PUSH2 0x2B9 JUMPI PUSH2 0x2B8 PUSH2 0x264 JUMP JUMPDEST JUMPDEST DUP1 PUSH1 0x40 MSTORE POP POP POP JUMP JUMPDEST PUSH0 PUSH2 0x2CB PUSH2 0xE3 JUMP JUMPDEST SWAP1 POP PUSH2 0x2D7 DUP3 DUP3 PUSH2 0x291 JUMP JUMPDEST SWAP2 SWAP1 POP JUMP JUMPDEST PUSH0 PUSH8 0xFFFFFFFFFFFFFFFF DUP3 GT ISZERO PUSH2 0x2F6 JUMPI PUSH2 0x2F5 PUSH2 0x264 JUMP JUMPDEST JUMPDEST PUSH2 0x2FF DUP3 PUSH2 0x194 JUMP JUMPDEST SWAP1 POP PUSH1 0x20 DUP2 ADD SWAP1 POP SWAP2 SWAP1 POP JUMP JUMPDEST PUSH0 PUSH2 0x31E PUSH2 0x319 DUP5 PUSH2 0x2DC JUMP JUMPDEST PUSH2 0x2C2 JUMP JUMPDEST SWAP1 POP DUP3 DUP2 MSTORE PUSH1 0x20 DUP2 ADD DUP5 DUP5 DUP5 ADD GT ISZERO PUSH2 0x33A JUMPI PUSH2 0x339 PUSH2 0x260 JUMP JUMPDEST JUMPDEST PUSH2 0x345 DUP5 DUP3 DUP6 PUSH2 0x186 JUMP JUMPDEST POP SWAP4 SWAP3 POP POP POP JUMP JUMPDEST PUSH0 DUP3 PUSH1 0x1F DUP4 ADD SLT PUSH2 0x361 JUMPI PUSH2 0x360 PUSH2 0x25C JUMP JUMPDEST JUMPDEST DUP2 MLOAD PUSH2 0x371 DUP5 DUP3 PUSH1 0x20 DUP7 ADD PUSH2 0x30C JUMP JUMPDEST SWAP2 POP POP SWAP3 SWAP2 POP POP JUMP JUMPDEST PUSH0 PUSH0 PUSH1 0x40 DUP4 DUP6 SUB SLT ISZERO PUSH2 0x390 JUMPI PUSH2 0x38F PUSH2 0xEC JUMP JUMPDEST JUMPDEST PUSH0 PUSH2 0x39D DUP6 DUP3 DUP7 ADD PUSH2 0x248 JUMP JUMPDEST SWAP3 POP POP PUSH1 0x20 DUP4 ADD MLOAD PUSH8 0xFFFFFFFFFFFFFFFF DUP2 GT ISZERO PUSH2 0x3BE JUMPI PUSH2 0x3BD PUSH2 0xF0 JUMP JUMPDEST JUMPDEST PUSH2 0x3CA DUP6 DUP3 DUP7 ADD PUSH2 0x34D JUMP JUMPDEST SWAP2 POP POP SWAP3 POP SWAP3 SWAP1 POP JUMP INVALID LOG2 PUSH5 0x6970667358 0x22 SLT KECCAK256 DUP5 SWAP13 0xB3 0xCC 0x2A ADDMOD 0xD9 0xE8 0x26 SWAP2 COINBASE 0xCE 0xDF DIV BLOCKHASH 0xCD BLOBBASEFEE 0xF6 0x22 DUP7 0xDD 0xDC 0xF6 0xF EXTDELEGATECALL 0x2B PUSH19 0xFA501E8F5364736F6C634300081E0033000000 "
		},
		"gasEstimates": {
			"creation": {
				"codeDepositCost": "206800",
				"executionCost": "249",
				"totalCost": "207049"
			},
			"external": {
				"testLibreria(uint256)": "infinite"
			}
		},
		"methodIdentifiers": {
			"testLibreria(uint256)": "92631679"
		}
	},
	"abi": [
		{
			"inputs": [
				{
					"internalType": "uint256",
					"name": "num",
					"type": "uint256"
				}
			],
			"name": "testLibreria",
			"outputs": [
				{
					"internalType": "bool",
					"name": "",
					"type": "bool"
				},
				{
					"internalType": "string",
					"name": "",
					"type": "string"
				}
			],
			"stateMutability": "pure",
			"type": "function"
		}
	]
}