{
	"data": {
		"bytecode": {
			"linkReferences": {},
			"object": "61036161004d600b8282823980515f1a6073146041577f4e487b71000000000000000000000000000000000000000000000000000000005f525f60045260245ffd5b305f52607381538281f3fe730000000000000000000000000000000000000000301460806040526004361061004a575f3560e01c80634881ae731461004e578063505fb46c1461007e578063771602f7146100ae575b5f5ffd5b61006860048036038101906100639190610168565b6100de565b60405161007591906101be565b60405180910390f35b61009860048036038101906100939190610201565b6100f7565b6040516100a591906101be565b60405180910390f35b6100c860048036038101906100c39190610251565b610118565b6040516100d591906101be565b60405180910390f35b5f81836100eb91906102bc565b61ffff16905092915050565b5f81838561010591906102f8565b61010f91906102f8565b90509392505050565b5f818361012591906102f8565b905092915050565b5f5ffd5b5f61ffff82169050919050565b61014781610131565b8114610151575f5ffd5b50565b5f813590506101628161013e565b92915050565b5f5f6040838503121561017e5761017d61012d565b5b5f61018b85828601610154565b925050602061019c85828601610154565b9150509250929050565b5f819050919050565b6101b8816101a6565b82525050565b5f6020820190506101d15f8301846101af565b92915050565b6101e0816101a6565b81146101ea575f5ffd5b50565b5f813590506101fb816101d7565b92915050565b5f5f5f606084860312156102185761021761012d565b5b5f610225868287016101ed565b9350506020610236868287016101ed565b9250506040610247868287016101ed565b9150509250925092565b5f5f604083850312156102675761026661012d565b5b5f610274858286016101ed565b9250506020610285858286016101ed565b9150509250929050565b7f4e487b71000000000000000000000000000000000000000000000000000000005f52601160045260245ffd5b5f6102c682610131565b91506102d183610131565b92508282026102df81610131565b91508082146102f1576102f061028f565b5b5092915050565b5f610302826101a6565b915061030d836101a6565b92508282019050808211156103255761032461028f565b5b9291505056fea2646970667358221220d83fc25d86eb50d8956100fbe94a4a23224e2da55da4f349484cf99efe7c206764736f6c634300081e0033",
			"opcodes": "PUSH2 0x361 PUSH2 0x4D PUSH1 0xB DUP3 DUP3 DUP3 CODECOPY DUP1 MLOAD PUSH0 BYTE PUSH1 0x73 EQ PUSH1 0x41 JUMPI PUSH32 0x4E487B7100000000000000000000000000000000000000000000000000000000 PUSH0 MSTORE PUSH0 PUSH1 0x4 MSTORE PUSH1 0x24 PUSH0 REVERT JUMPDEST ADDRESS PUSH0 MSTORE PUSH1 0x73 DUP2 MSTORE8 DUP3 DUP2 RETURN INVALID PUSH20 0x0 ADDRESS EQ PUSH1 0x80 PUSH1 0x40 MSTORE PUSH1 0x4 CALLDATASIZE LT PUSH2 0x4A JUMPI PUSH0 CALLDATALOAD PUSH1 0xE0 SHR DUP1 PUSH4 0x4881AE73 EQ PUSH2 0x4E JUMPI DUP1 PUSH4 0x505FB46C EQ PUSH2 0x7E JUMPI DUP1 PUSH4 0x771602F7 EQ PUSH2 0xAE JUMPI JUMPDEST PUSH0 PUSH0 REVERT JUMPDEST PUSH2 0x68 PUSH1 0x4 DUP1 CALLDATASIZE SUB DUP2 ADD SWAP1 PUSH2 0x63 SWAP2 SWAP1 PUSH2 0x168 JUMP JUMPDEST PUSH2 0xDE JUMP JUMPDEST PUSH1 0x40 MLOAD PUSH2 0x75 SWAP2 SWAP1 PUSH2 0x1BE JUMP JUMPDEST PUSH1 0x40 MLOAD DUP1 SWAP2 SUB SWAP1 RETURN JUMPDEST PUSH2 0x98 PUSH1 0x4 DUP1 CALLDATASIZE SUB DUP2 ADD SWAP1 PUSH2 0x93 SWAP2 SWAP1 PUSH2 0x201 JUMP JUMPDEST PUSH2 0xF7 JUMP JUMPDEST PUSH1 0x40 MLOAD PUSH2 0xA5 SWAP2 SWAP1 PUSH2 0x1BE JUMP JUMPDEST PUSH1 0x40 MLOAD DUP1 SWAP2 SUB SWAP1 RETURN JUMPDEST PUSH2 0xC8 PUSH1 0x4 DUP1 CALLDATASIZE SUB DUP2 ADD SWAP1 PUSH2 0xC3 SWAP2 SWAP1 PUSH2 0x251 JUMP JUMPDEST PUSH2 0x118 JUMP JUMPDEST PUSH1 0x40 MLOAD PUSH2 0xD5 SWAP2 SWAP1 PUSH2 0x1BE JUMP JUMPDEST PUSH1 0x40 MLOAD DUP1 SWAP2 SUB SWAP1 RETURN JUMPDEST PUSH0 DUP2 DUP4 PUSH2 0xEB SWAP2 SWAP1 PUSH2 0x2BC JUMP JUMPDEST PUSH2 0xFFFF AND SWAP1 POP SWAP3 SWAP2 POP POP JUMP JUMPDEST PUSH0 DUP2 DUP4 DUP6 PUSH2 0x105 SWAP2 SWAP1 PUSH2 0x2F8 JUMP JUMPDEST PUSH2 0x10F SWAP2 SWAP1 PUSH2 0x2F8 JUMP JUMPDEST SWAP1 POP SWAP4 SWAP3 POP POP POP JUMP JUMPDEST PUSH0 DUP2 DUP4 PUSH2 0x125 SWAP2 SWAP1 PUSH2 0x2F8 JUMP JUMPDEST SWAP1 POP SWAP3 SWAP2 POP POP JUMP JUMPDEST PUSH0 PUSH0 REVERT JUMPDEST PUSH0 PUSH2 0xFFFF DUP3 AND SWAP1 POP SWAP2 SWAP1 POP JUMP JUMPDEST PUSH2 0x147 DUP2 PUSH2 0x131 JUMP JUMPDEST DUP2 EQ PUSH2 0x151 JUMPI PUSH0 PUSH0 REVERT JUMPDEST POP JUMP JUMPDEST PUSH0 DUP2 CALLDATALOAD SWAP1 POP PUSH2 0x162 DUP2 PUSH2 0x13E JUMP JUMPDEST SWAP3 SWAP2 POP POP JUMP JUMPDEST PUSH0 PUSH0 PUSH1 0x40 DUP4 DUP6 SUB SLT ISZERO PUSH2 0x17E JUMPI PUSH2 0x17D PUSH2 0x12D JUMP JUMPDEST JUMPDEST PUSH0 PUSH2 0x18B DUP6 DUP3 DUP7 ADD PUSH2 0x154 JUMP JUMPDEST SWAP3 POP POP PUSH1 0x20 PUSH2 0x19C DUP6 DUP3 DUP7 ADD PUSH2 0x154 JUMP JUMPDEST SWAP2 POP POP SWAP3 POP SWAP3 SWAP1 POP JUMP JUMPDEST PUSH0 DUP2 SWAP1 POP SWAP2 SWAP1 POP JUMP JUMPDEST PUSH2 0x1B8 DUP2 PUSH2 0x1A6 JUMP JUMPDEST DUP3 MSTORE POP POP JUMP JUMPDEST PUSH0 PUSH1 0x20 DUP3 ADD SWAP1 POP PUSH2 0x1D1 PUSH0 DUP4 ADD DUP5 PUSH2 0x1AF JUMP JUMPDEST SWAP3 SWAP2 POP POP JUMP JUMPDEST PUSH2 0x1E0 DUP2 PUSH2 0x1A6 JUMP JUMPDEST DUP2 EQ PUSH2 0x1EA JUMPI PUSH0 PUSH0 REVERT JUMPDEST POP JUMP JUMPDEST PUSH0 DUP2 CALLDATALOAD SWAP1 POP PUSH2 0x1FB DUP2 PUSH2 0x1D7 JUMP JUMPDEST SWAP3 SWAP2 POP POP JUMP JUMPDEST PUSH0 PUSH0 PUSH0 PUSH1 0x60 DUP5 DUP7 SUB SLT ISZERO PUSH2 0x218 JUMPI PUSH2 0x217 PUSH2 0x12D JUMP JUMPDEST JUMPDEST PUSH0 PUSH2 0x225 DUP7 DUP3 DUP8 ADD PUSH2 0x1ED JUMP JUMPDEST SWAP4 POP POP PUSH1 0x20 PUSH2 0x236 DUP7 DUP3 DUP8 ADD PUSH2 0x1ED JUMP JUMPDEST SWAP3 POP POP PUSH1 0x40 PUSH2 0x247 DUP7 DUP3 DUP8 ADD PUSH2 0x1ED JUMP JUMPDEST SWAP2 POP POP SWAP3 POP SWAP3 POP SWAP3 JUMP JUMPDEST PUSH0 PUSH0 PUSH1 0x40 DUP4 DUP6 SUB SLT ISZERO PUSH2 0x267 JUMPI PUSH2 0x266 PUSH2 0x12D JUMP JUMPDEST JUMPDEST PUSH0 PUSH2 0x274 DUP6 DUP3 DUP7 ADD PUSH2 0x1ED JUMP JUMPDEST SWAP3 POP POP PUSH1 0x20 PUSH2 0x285 DUP6 DUP3 DUP7 ADD PUSH2 0x1ED JUMP JUMPDEST SWAP2 POP POP SWAP3 POP SWAP3 SWAP1 POP JUMP JUMPDEST PUSH32 0x4E487B7100000000000000000000000000000000000000000000000000000000 PUSH0 MSTORE PUSH1 0x11 PUSH1 0x4 MSTORE PUSH1 0x24 PUSH0 REVERT JUMPDEST PUSH0 PUSH2 0x2C6 DUP3 PUSH2 0x131 JUMP JUMPDEST SWAP2 POP PUSH2 0x2D1 DUP4 PUSH2 0x131 JUMP JUMPDEST SWAP3 POP DUP3 DUP3 MUL PUSH2 0x2DF DUP2 PUSH2 0x131 JUMP JUMPDEST SWAP2 POP DUP1 DUP3 EQ PUSH2 0x2F1 JUMPI PUSH2 0x2F0 PUSH2 0x28F JUMP JUMPDEST JUMPDEST POP SWAP3 SWAP2 POP POP JUMP JUMPDEST PUSH0 PUSH2 0x302 DUP3 PUSH2 0x1A6 JUMP JUMPDEST SWAP2 POP PUSH2 0x30D DUP4 PUSH2 0x1A6 JUMP JUMPDEST SWAP3 POP DUP3 DUP3 ADD SWAP1 POP DUP1 DUP3 GT ISZERO PUSH2 0x325 JUMPI PUSH2 0x324 PUSH2 0x28F JUMP JUMPDEST JUMPDEST SWAP3 SWAP2 POP POP JUMP INVALID LOG2 PUSH5 0x6970667358 0x22 SLT KECCAK256 0xD8 EXTCODEHASH 0xC2 TSTORE DUP7 0xEB POP 0xD8 SWAP6 PUSH2 0xFB 0xE9 BLOBBASEFEE BLOBBASEFEE 0x23 0x22 0x4E 0x2D 0xA5 TSTORE LOG4 RETURN BLOBHASH BASEFEE 0x4C EXTDELEGATECALL SWAP15 INVALID PUSH29 0x206764736F6C634300081E003300000000000000000000000000000000 "
		},
		"gasEstimates": {
			"creation": {
				"codeDepositCost": "173000",
				"executionCost": "243",
				"totalCost": "173243"
			},
			"external": {
				"add(uint16,uint16)": "infinite",
				"add(uint256,uint256)": "infinite",
				"add(uint256,uint256,uint256)": "infinite"
			}
		},
		"methodIdentifiers": {
			"add(uint16,uint16)": "4881ae73",
			"add(uint256,uint256)": "771602f7",
			"add(uint256,uint256,uint256)": "505fb46c"
		}
	},
	"abi": [
		{
			"inputs": [
				{
					"internalType": "uint16",
					"name": "a",
					"type": "uint16"
				},
				{
					"internalType": "uint16",
					"name": "b",
					"type": "uint16"
				}
			],
			"name": "add",
			"outputs": [
				{
					"internalType": "uint256",
					"name": "",
					"type": "uint256"
				}
			],
			"stateMutability": "pure",
			"type": "function"
		},
		{
			"inputs": [
				{
					"internalType": "uint256",
					"name": "a",
					"type": "uint256"
				},
				{
					"internalType": "uint256",
					"name": "b",
					"type": "uint256"
				},
				{
					"internalType": "uint256",
					"name": "c",
					"type": "uint256"
				}
			],
			"name": "add",
			"outputs": [
				{
					"internalType": "uint256",
					"name": "",
					"type": "uint256"
				}
			],
			"stateMutability": "pure",
			"type": "function"
		},
		{
			"inputs": [
				{
					"internalType": "uint256",
					"name": "a",
					"type": "uint256"
				},
				{
					"internalType": "uint256",
					"name": "b",
					"type": "uint256"
				}
			],
			"name": "add",
			"outputs": [
				{
					"internalType": "uint256",
					"name": "",
					"type": "uint256"
				}
			],
			"stateMutability": "pure",
			"type": "function"
		}
	]
}