{
	"data": {
		"bytecode": {
			"linkReferences": {},
			"object": "6080604052348015600e575f5ffd5b50610e308061001c5f395ff3fe608060405234801561000f575f5ffd5b50600436106100e8575f3560e01c806396dd1de11161008a578063d0ec61bd11610064578063d0ec61bd146101b0578063e17057a1146101ba578063f2f7cca4146101c4578063f3391fde146101f4576100e8565b806396dd1de114610158578063a483021a14610176578063cd8f90c2146101a6576100e8565b8063727517f3116100c6578063727517f31461011e5780637db40b91146101285780637f7137041461013257806389fec8041461013c576100e8565b80630849cc99146100ec57806317a6d5af1461010a578063622e254214610114575b5f5ffd5b6100f46101fe565b60405161010191906108b8565b60405180910390f35b610112610209565b005b61011c61021d565b005b6101266102fc565b005b6101306103c7565b005b61013a610492565b005b610156600480360381019061015191906108ff565b61055e565b005b610160610586565b60405161016d91906108b8565b60405180910390f35b610190600480360381019061018b91906108ff565b6105a3565b60405161019d919061099a565b60405180910390f35b6101ae61073c565b005b6101b8610807565b005b6101c261082d565b005b6101de60048036038101906101d991906108ff565b610862565b6040516101eb91906108b8565b60405180910390f35b6101fc610881565b005b5f5f80549050905090565b600260011461021b5761021a6109ba565b5b565b3073ffffffffffffffffffffffffffffffffffffffff166396dd1de16040518163ffffffff1660e01b8152600401602060405180830381865afa92505050801561028557506040513d601f19601f8201168201806040525081019061028291906109fb565b60015b6102f857610291610a32565b634e487b71036102eb576102a3610a51565b906102ae57506102eb565b7ffa67a0327c0fe7ba3a1d79f037303399c7149da91b4d24df595e0a874bcf9e9c816040516102dd9190610ab9565b60405180910390a1506102f3565b3d5f5f3e3d5ffd5b6102fa565b505b565b3073ffffffffffffffffffffffffffffffffffffffff166317a6d5af6040518163ffffffff1660e01b81526004015f6040518083038186803b158015610340575f5ffd5b505afa925050508015610351575060015b6103c45761035d610a32565b634e487b71036103b75761036f610a51565b9061037a57506103b7565b7ffa67a0327c0fe7ba3a1d79f037303399c7149da91b4d24df595e0a874bcf9e9c816040516103a99190610b2f565b60405180910390a1506103bf565b3d5f5f3e3d5ffd5b6103c5565b5b565b3073ffffffffffffffffffffffffffffffffffffffff1663e17057a16040518163ffffffff1660e01b81526004015f6040518083038186803b15801561040b575f5ffd5b505afa92505050801561041c575060015b61048f57610428610a32565b634e487b71036104825761043a610a51565b906104455750610482565b7ffa67a0327c0fe7ba3a1d79f037303399c7149da91b4d24df595e0a874bcf9e9c816040516104749190610ba5565b60405180910390a15061048a565b3d5f5f3e3d5ffd5b610490565b5b565b3073ffffffffffffffffffffffffffffffffffffffff1663d0ec61bd6040518163ffffffff1660e01b81526004015f604051808303815f87803b1580156104d7575f5ffd5b505af19250505080156104e8575060015b61055b576104f4610a32565b634e487b710361054e57610506610a51565b90610511575061054e565b7ffa67a0327c0fe7ba3a1d79f037303399c7149da91b4d24df595e0a874bcf9e9c816040516105409190610c1b565b60405180910390a150610556565b3d5f5f3e3d5ffd5b61055c565b5b565b5f81908060018154018082558091505060019003905f5260205f20015f909190919091505550565b5f5f600a90505f5f9050808261059c9190610ca1565b9250505090565b6060600182036105ea576040518060400160405280601081526020017f417373657274696f6e206661696c6564000000000000000000000000000000008152509050610737565b6011820361062f576040518060400160405280601d81526020017f41726974686d65746963206f766572666c6f772f756e646572666c6f770000008152509050610737565b60128203610674576040518060400160405280601a81526020017f4469766973696f6e206f72206d6f64756c6f206279207a65726f0000000000008152509050610737565b603182036106b9576040518060400160405280601481526020017f506f702066726f6d20656d7074792061727261790000000000000000000000008152509050610737565b603282036106fe576040518060400160405280601a81526020017f417272617920616363657373206f7574206f6620626f756e64730000000000008152509050610737565b6040518060400160405280601281526020017f556e6b6e6f776e2070616e696320636f6465000000000000000000000000000081525090505b919050565b3073ffffffffffffffffffffffffffffffffffffffff1663f3391fde6040518163ffffffff1660e01b81526004015f6040518083038186803b158015610780575f5ffd5b505afa925050508015610791575060015b6108045761079d610a32565b634e487b71036107f7576107af610a51565b906107ba57506107f7565b7ffa67a0327c0fe7ba3a1d79f037303399c7149da91b4d24df595e0a874bcf9e9c816040516107e99190610d41565b60405180910390a1506107ff565b3d5f5f3e3d5ffd5b610805565b5b565b5f80548061081857610817610d6d565b5b600190038181905f5260205f20015f90559055565b5f7fffffffffffffffffffffffffffffffffffffffffffffffffffffffffffffffff905060018161085e9190610d9a565b5050565b5f8181548110610870575f80fd5b905f5260205f20015f915090505481565b5f60648154811061089557610894610dcd565b5b905f5260205f205050565b5f819050919050565b6108b2816108a0565b82525050565b5f6020820190506108cb5f8301846108a9565b92915050565b5f5ffd5b6108de816108a0565b81146108e8575f5ffd5b50565b5f813590506108f9816108d5565b92915050565b5f60208284031215610914576109136108d1565b5b5f610921848285016108eb565b91505092915050565b5f81519050919050565b5f82825260208201905092915050565b8281835e5f83830152505050565b5f601f19601f8301169050919050565b5f61096c8261092a565b6109768185610934565b9350610986818560208601610944565b61098f81610952565b840191505092915050565b5f6020820190508181035f8301526109b28184610962565b905092915050565b7f4e487b71000000000000000000000000000000000000000000000000000000005f52600160045260245ffd5b5f815190506109f5816108d5565b92915050565b5f60208284031215610a1057610a0f6108d1565b5b5f610a1d848285016109e7565b91505092915050565b5f8160e01c9050919050565b5f60033d1115610a4e5760045f5f3e610a4b5f51610a26565b90505b90565b5f5f60233d1115610a6b57602060045f3e600191505f5190505b9091565b7f4469766973696f6e206279207a65726f206465746563746564000000000000005f82015250565b5f610aa3601983610934565b9150610aae82610a6f565b602082019050919050565b5f604082019050610acc5f8301846108a9565b8181036020830152610add81610a97565b905092915050565b7f417373657274696f6e206661696c6564206465746563746564000000000000005f82015250565b5f610b19601983610934565b9150610b2482610ae5565b602082019050919050565b5f604082019050610b425f8301846108a9565b8181036020830152610b5381610b0d565b905092915050565b7f41726974686d65746963206f766572666c6f77206465746563746564000000005f82015250565b5f610b8f601c83610934565b9150610b9a82610b5b565b602082019050919050565b5f604082019050610bb85f8301846108a9565b8181036020830152610bc981610b83565b905092915050565b7f506f702066726f6d20656d7074792061727261792064657465637465640000005f82015250565b5f610c05601d83610934565b9150610c1082610bd1565b602082019050919050565b5f604082019050610c2e5f8301846108a9565b8181036020830152610c3f81610bf9565b905092915050565b7f4e487b71000000000000000000000000000000000000000000000000000000005f52601260045260245ffd5b7f4e487b71000000000000000000000000000000000000000000000000000000005f52601160045260245ffd5b5f610cab826108a0565b9150610cb6836108a0565b925082610cc657610cc5610c47565b5b828204905092915050565b7f417272617920616363657373206f7574206f6620626f756e64732064657465635f8201527f7465640000000000000000000000000000000000000000000000000000000000602082015250565b5f610d2b602383610934565b9150610d3682610cd1565b604082019050919050565b5f604082019050610d545f8301846108a9565b8181036020830152610d6581610d1f565b905092915050565b7f4e487b71000000000000000000000000000000000000000000000000000000005f52603160045260245ffd5b5f610da4826108a0565b9150610daf836108a0565b9250828201905080821115610dc757610dc6610c74565b5b92915050565b7f4e487b71000000000000000000000000000000000000000000000000000000005f52603260045260245ffdfea2646970667358221220539e973f297b98488db49369dcc4870356d6e158577183dfdde933ca3da07c2b64736f6c634300081e0033",
			"opcodes": "PUSH1 0x80 PUSH1 0x40 MSTORE CALLVALUE DUP1 ISZERO PUSH1 0xE JUMPI PUSH0 PUSH0 REVERT JUMPDEST POP PUSH2 0xE30 DUP1 PUSH2 0x1C PUSH0 CODECOPY PUSH0 RETURN INVALID PUSH1 0x80 PUSH1 0x40 MSTORE CALLVALUE DUP1 ISZERO PUSH2 0xF JUMPI PUSH0 PUSH0 REVERT JUMPDEST POP PUSH1 0x4 CALLDATASIZE LT PUSH2 0xE8 JUMPI PUSH0 CALLDATALOAD PUSH1 0xE0 SHR DUP1 PUSH4 0x96DD1DE1 GT PUSH2 0x8A JUMPI DUP1 PUSH4 0xD0EC61BD GT PUSH2 0x64 JUMPI DUP1 PUSH4 0xD0EC61BD EQ PUSH2 0x1B0 JUMPI DUP1 PUSH4 0xE17057A1 EQ PUSH2 0x1BA JUMPI DUP1 PUSH4 0xF2F7CCA4 EQ PUSH2 0x1C4 JUMPI DUP1 PUSH4 0xF3391FDE EQ PUSH2 0x1F4 JUMPI PUSH2 0xE8 JUMP JUMPDEST DUP1 PUSH4 0x96DD1DE1 EQ PUSH2 0x158 JUMPI DUP1 PUSH4 0xA483021A EQ PUSH2 0x176 JUMPI DUP1 PUSH4 0xCD8F90C2 EQ PUSH2 0x1A6 JUMPI PUSH2 0xE8 JUMP JUMPDEST DUP1 PUSH4 0x727517F3 GT PUSH2 0xC6 JUMPI DUP1 PUSH4 0x727517F3 EQ PUSH2 0x11E JUMPI DUP1 PUSH4 0x7DB40B91 EQ PUSH2 0x128 JUMPI DUP1 PUSH4 0x7F713704 EQ PUSH2 0x132 JUMPI DUP1 PUSH4 0x89FEC804 EQ PUSH2 0x13C JUMPI PUSH2 0xE8 JUMP JUMPDEST DUP1 PUSH4 0x849CC99 EQ PUSH2 0xEC JUMPI DUP1 PUSH4 0x17A6D5AF EQ PUSH2 0x10A JUMPI DUP1 PUSH4 0x622E2542 EQ PUSH2 0x114 JUMPI JUMPDEST PUSH0 PUSH0 REVERT JUMPDEST PUSH2 0xF4 PUSH2 0x1FE JUMP JUMPDEST PUSH1 0x40 MLOAD PUSH2 0x101 SWAP2 SWAP1 PUSH2 0x8B8 JUMP JUMPDEST PUSH1 0x40 MLOAD DUP1 SWAP2 SUB SWAP1 RETURN JUMPDEST PUSH2 0x112 PUSH2 0x209 JUMP JUMPDEST STOP JUMPDEST PUSH2 0x11C PUSH2 0x21D JUMP JUMPDEST STOP JUMPDEST PUSH2 0x126 PUSH2 0x2FC JUMP JUMPDEST STOP JUMPDEST PUSH2 0x130 PUSH2 0x3C7 JUMP JUMPDEST STOP JUMPDEST PUSH2 0x13A PUSH2 0x492 JUMP JUMPDEST STOP JUMPDEST PUSH2 0x156 PUSH1 0x4 DUP1 CALLDATASIZE SUB DUP2 ADD SWAP1 PUSH2 0x151 SWAP2 SWAP1 PUSH2 0x8FF JUMP JUMPDEST PUSH2 0x55E JUMP JUMPDEST STOP JUMPDEST PUSH2 0x160 PUSH2 0x586 JUMP JUMPDEST PUSH1 0x40 MLOAD PUSH2 0x16D SWAP2 SWAP1 PUSH2 0x8B8 JUMP JUMPDEST PUSH1 0x40 MLOAD DUP1 SWAP2 SUB SWAP1 RETURN JUMPDEST PUSH2 0x190 PUSH1 0x4 DUP1 CALLDATASIZE SUB DUP2 ADD SWAP1 PUSH2 0x18B SWAP2 SWAP1 PUSH2 0x8FF JUMP JUMPDEST PUSH2 0x5A3 JUMP JUMPDEST PUSH1 0x40 MLOAD PUSH2 0x19D SWAP2 SWAP1 PUSH2 0x99A JUMP JUMPDEST PUSH1 0x40 MLOAD DUP1 SWAP2 SUB SWAP1 RETURN JUMPDEST PUSH2 0x1AE PUSH2 0x73C JUMP JUMPDEST STOP JUMPDEST PUSH2 0x1B8 PUSH2 0x807 JUMP JUMPDEST STOP JUMPDEST PUSH2 0x1C2 PUSH2 0x82D JUMP JUMPDEST STOP JUMPDEST PUSH2 0x1DE PUSH1 0x4 DUP1 CALLDATASIZE SUB DUP2 ADD SWAP1 PUSH2 0x1D9 SWAP2 SWAP1 PUSH2 0x8FF JUMP JUMPDEST PUSH2 0x862 JUMP JUMPDEST PUSH1 0x40 MLOAD PUSH2 0x1EB SWAP2 SWAP1 PUSH2 0x8B8 JUMP JUMPDEST PUSH1 0x40 MLOAD DUP1 SWAP2 SUB SWAP1 RETURN JUMPDEST PUSH2 0x1FC PUSH2 0x881 JUMP JUMPDEST STOP JUMPDEST PUSH0 PUSH0 DUP1 SLOAD SWAP1 POP SWAP1 POP SWAP1 JUMP JUMPDEST PUSH1 0x2 PUSH1 0x1 EQ PUSH2 0x21B JUMPI PUSH2 0x21A PUSH2 0x9BA JUMP JUMPDEST JUMPDEST JUMP JUMPDEST ADDRESS PUSH20 0xFFFFFFFFFFFFFFFFFFFFFFFFFFFFFFFFFFFFFFFF AND PUSH4 0x96DD1DE1 PUSH1 0x40 MLOAD DUP2 PUSH4 0xFFFFFFFF AND PUSH1 0xE0 SHL DUP2 MSTORE PUSH1 0x4 ADD PUSH1 0x20 PUSH1 0x40 MLOAD DUP1 DUP4 SUB DUP2 DUP7 GAS STATICCALL SWAP3 POP POP POP DUP1 ISZERO PUSH2 0x285 JUMPI POP PUSH1 0x40 MLOAD RETURNDATASIZE PUSH1 0x1F NOT PUSH1 0x1F DUP3 ADD AND DUP3 ADD DUP1 PUSH1 0x40 MSTORE POP DUP2 ADD SWAP1 PUSH2 0x282 SWAP2 SWAP1 PUSH2 0x9FB JUMP JUMPDEST PUSH1 0x1 JUMPDEST PUSH2 0x2F8 JUMPI PUSH2 0x291 PUSH2 0xA32 JUMP JUMPDEST PUSH4 0x4E487B71 SUB PUSH2 0x2EB JUMPI PUSH2 0x2A3 PUSH2 0xA51 JUMP JUMPDEST SWAP1 PUSH2 0x2AE JUMPI POP PUSH2 0x2EB JUMP JUMPDEST PUSH32 0xFA67A0327C0FE7BA3A1D79F037303399C7149DA91B4D24DF595E0A874BCF9E9C DUP2 PUSH1 0x40 MLOAD PUSH2 0x2DD SWAP2 SWAP1 PUSH2 0xAB9 JUMP JUMPDEST PUSH1 0x40 MLOAD DUP1 SWAP2 SUB SWAP1 LOG1 POP PUSH2 0x2F3 JUMP JUMPDEST RETURNDATASIZE PUSH0 PUSH0 RETURNDATACOPY RETURNDATASIZE PUSH0 REVERT JUMPDEST PUSH2 0x2FA JUMP JUMPDEST POP JUMPDEST JUMP JUMPDEST ADDRESS PUSH20 0xFFFFFFFFFFFFFFFFFFFFFFFFFFFFFFFFFFFFFFFF AND PUSH4 0x17A6D5AF PUSH1 0x40 MLOAD DUP2 PUSH4 0xFFFFFFFF AND PUSH1 0xE0 SHL DUP2 MSTORE PUSH1 0x4 ADD PUSH0 PUSH1 0x40 MLOAD DUP1 DUP4 SUB DUP2 DUP7 DUP1 EXTCODESIZE ISZERO DUP1 ISZERO PUSH2 0x340 JUMPI PUSH0 PUSH0 REVERT JUMPDEST POP GAS STATICCALL SWAP3 POP POP POP DUP1 ISZERO PUSH2 0x351 JUMPI POP PUSH1 0x1 JUMPDEST PUSH2 0x3C4 JUMPI PUSH2 0x35D PUSH2 0xA32 JUMP JUMPDEST PUSH4 0x4E487B71 SUB PUSH2 0x3B7 JUMPI PUSH2 0x36F PUSH2 0xA51 JUMP JUMPDEST SWAP1 PUSH2 0x37A JUMPI POP PUSH2 0x3B7 JUMP JUMPDEST PUSH32 0xFA67A0327C0FE7BA3A1D79F037303399C7149DA91B4D24DF595E0A874BCF9E9C DUP2 PUSH1 0x40 MLOAD PUSH2 0x3A9 SWAP2 SWAP1 PUSH2 0xB2F JUMP JUMPDEST PUSH1 0x40 MLOAD DUP1 SWAP2 SUB SWAP1 LOG1 POP PUSH2 0x3BF JUMP JUMPDEST RETURNDATASIZE PUSH0 PUSH0 RETURNDATACOPY RETURNDATASIZE PUSH0 REVERT JUMPDEST PUSH2 0x3C5 JUMP JUMPDEST JUMPDEST JUMP JUMPDEST ADDRESS PUSH20 0xFFFFFFFFFFFFFFFFFFFFFFFFFFFFFFFFFFFFFFFF AND PUSH4 0xE17057A1 PUSH1 0x40 MLOAD DUP2 PUSH4 0xFFFFFFFF AND PUSH1 0xE0 SHL DUP2 MSTORE PUSH1 0x4 ADD PUSH0 PUSH1 0x40 MLOAD DUP1 DUP4 SUB DUP2 DUP7 DUP1 EXTCODESIZE ISZERO DUP1 ISZERO PUSH2 0x40B JUMPI PUSH0 PUSH0 REVERT JUMPDEST POP GAS STATICCALL SWAP3 POP POP POP DUP1 ISZERO PUSH2 0x41C JUMPI POP PUSH1 0x1 JUMPDEST PUSH2 0x48F JUMPI PUSH2 0x428 PUSH2 0xA32 JUMP JUMPDEST PUSH4 0x4E487B71 SUB PUSH2 0x482 JUMPI PUSH2 0x43A PUSH2 0xA51 JUMP JUMPDEST SWAP1 PUSH2 0x445 JUMPI POP PUSH2 0x482 JUMP JUMPDEST PUSH32 0xFA67A0327C0FE7BA3A1D79F037303399C7149DA91B4D24DF595E0A874BCF9E9C DUP2 PUSH1 0x40 MLOAD PUSH2 0x474 SWAP2 SWAP1 PUSH2 0xBA5 JUMP JUMPDEST PUSH1 0x40 MLOAD DUP1 SWAP2 SUB SWAP1 LOG1 POP PUSH2 0x48A JUMP JUMPDEST RETURNDATASIZE PUSH0 PUSH0 RETURNDATACOPY RETURNDATASIZE PUSH0 REVERT JUMPDEST PUSH2 0x490 JUMP JUMPDEST JUMPDEST JUMP JUMPDEST ADDRESS PUSH20 0xFFFFFFFFFFFFFFFFFFFFFFFFFFFFFFFFFFFFFFFF AND PUSH4 0xD0EC61BD PUSH1 0x40 MLOAD DUP2 PUSH4 0xFFFFFFFF AND PUSH1 0xE0 SHL DUP2 MSTORE PUSH1 0x4 ADD PUSH0 PUSH1 0x40 MLOAD DUP1 DUP4 SUB DUP2 PUSH0 DUP8 DUP1 EXTCODESIZE ISZERO DUP1 ISZERO PUSH2 0x4D7 JUMPI PUSH0 PUSH0 REVERT JUMPDEST POP GAS CALL SWAP3 POP POP POP DUP1 ISZERO PUSH2 0x4E8 JUMPI POP PUSH1 0x1 JUMPDEST PUSH2 0x55B JUMPI PUSH2 0x4F4 PUSH2 0xA32 JUMP JUMPDEST PUSH4 0x4E487B71 SUB PUSH2 0x54E JUMPI PUSH2 0x506 PUSH2 0xA51 JUMP JUMPDEST SWAP1 PUSH2 0x511 JUMPI POP PUSH2 0x54E JUMP JUMPDEST PUSH32 0xFA67A0327C0FE7BA3A1D79F037303399C7149DA91B4D24DF595E0A874BCF9E9C DUP2 PUSH1 0x40 MLOAD PUSH2 0x540 SWAP2 SWAP1 PUSH2 0xC1B JUMP JUMPDEST PUSH1 0x40 MLOAD DUP1 SWAP2 SUB SWAP1 LOG1 POP PUSH2 0x556 JUMP JUMPDEST RETURNDATASIZE PUSH0 PUSH0 RETURNDATACOPY RETURNDATASIZE PUSH0 REVERT JUMPDEST PUSH2 0x55C JUMP JUMPDEST JUMPDEST JUMP JUMPDEST PUSH0 DUP2 SWAP1 DUP1 PUSH1 0x1 DUP2 SLOAD ADD DUP1 DUP3 SSTORE DUP1 SWAP2 POP POP PUSH1 0x1 SWAP1 SUB SWAP1 PUSH0 MSTORE PUSH1 0x20 PUSH0 KECCAK256 ADD PUSH0 SWAP1 SWAP2 SWAP1 SWAP2 SWAP1 SWAP2 POP SSTORE POP JUMP JUMPDEST PUSH0 PUSH0 PUSH1 0xA SWAP1 POP PUSH0 PUSH0 SWAP1 POP DUP1 DUP3 PUSH2 0x59C SWAP2 SWAP1 PUSH2 0xCA1 JUMP JUMPDEST SWAP3 POP POP POP SWAP1 JUMP JUMPDEST PUSH1 0x60 PUSH1 0x1 DUP3 SUB PUSH2 0x5EA JUMPI PUSH1 0x40 MLOAD DUP1 PUSH1 0x40 ADD PUSH1 0x40 MSTORE DUP1 PUSH1 0x10 DUP2 MSTORE PUSH1 0x20 ADD PUSH32 0x417373657274696F6E206661696C656400000000000000000000000000000000 DUP2 MSTORE POP SWAP1 POP PUSH2 0x737 JUMP JUMPDEST PUSH1 0x11 DUP3 SUB PUSH2 0x62F JUMPI PUSH1 0x40 MLOAD DUP1 PUSH1 0x40 ADD PUSH1 0x40 MSTORE DUP1 PUSH1 0x1D DUP2 MSTORE PUSH1 0x20 ADD PUSH32 0x41726974686D65746963206F766572666C6F772F756E646572666C6F77000000 DUP2 MSTORE POP SWAP1 POP PUSH2 0x737 JUMP JUMPDEST PUSH1 0x12 DUP3 SUB PUSH2 0x674 JUMPI PUSH1 0x40 MLOAD DUP1 PUSH1 0x40 ADD PUSH1 0x40 MSTORE DUP1 PUSH1 0x1A DUP2 MSTORE PUSH1 0x20 ADD PUSH32 0x4469766973696F6E206F72206D6F64756C6F206279207A65726F000000000000 DUP2 MSTORE POP SWAP1 POP PUSH2 0x737 JUMP JUMPDEST PUSH1 0x31 DUP3 SUB PUSH2 0x6B9 JUMPI PUSH1 0x40 MLOAD DUP1 PUSH1 0x40 ADD PUSH1 0x40 MSTORE DUP1 PUSH1 0x14 DUP2 MSTORE PUSH1 0x20 ADD PUSH32 0x506F702066726F6D20656D707479206172726179000000000000000000000000 DUP2 MSTORE POP SWAP1 POP PUSH2 0x737 JUMP JUMPDEST PUSH1 0x32 DUP3 SUB PUSH2 0x6FE JUMPI PUSH1 0x40 MLOAD DUP1 PUSH1 0x40 ADD PUSH1 0x40 MSTORE DUP1 PUSH1 0x1A DUP2 MSTORE PUSH1 0x20 ADD PUSH32 0x417272617920616363657373206F7574206F6620626F756E6473000000000000 DUP2 MSTORE POP SWAP1 POP PUSH2 0x737 JUMP JUMPDEST PUSH1 0x40 MLOAD DUP1 PUSH1 0x40 ADD PUSH1 0x40 MSTORE DUP1 PUSH1 0x12 DUP2 MSTORE PUSH1 0x20 ADD PUSH32 0x556E6B6E6F776E2070616E696320636F64650000000000000000000000000000 DUP2 MSTORE POP SWAP1 POP JUMPDEST SWAP2 SWAP1 POP JUMP JUMPDEST ADDRESS PUSH20 0xFFFFFFFFFFFFFFFFFFFFFFFFFFFFFFFFFFFFFFFF AND PUSH4 0xF3391FDE PUSH1 0x40 MLOAD DUP2 PUSH4 0xFFFFFFFF AND PUSH1 0xE0 SHL DUP2 MSTORE PUSH1 0x4 ADD PUSH0 PUSH1 0x40 MLOAD DUP1 DUP4 SUB DUP2 DUP7 DUP1 EXTCODESIZE ISZERO DUP1 ISZERO PUSH2 0x780 JUMPI PUSH0 PUSH0 REVERT JUMPDEST POP GAS STATICCALL SWAP3 POP POP POP DUP1 ISZERO PUSH2 0x791 JUMPI POP PUSH1 0x1 JUMPDEST PUSH2 0x804 JUMPI PUSH2 0x79D PUSH2 0xA32 JUMP JUMPDEST PUSH4 0x4E487B71 SUB PUSH2 0x7F7 JUMPI PUSH2 0x7AF PUSH2 0xA51 JUMP JUMPDEST SWAP1 PUSH2 0x7BA JUMPI POP PUSH2 0x7F7 JUMP JUMPDEST PUSH32 0xFA67A0327C0FE7BA3A1D79F037303399C7149DA91B4D24DF595E0A874BCF9E9C DUP2 PUSH1 0x40 MLOAD PUSH2 0x7E9 SWAP2 SWAP1 PUSH2 0xD41 JUMP JUMPDEST PUSH1 0x40 MLOAD DUP1 SWAP2 SUB SWAP1 LOG1 POP PUSH2 0x7FF JUMP JUMPDEST RETURNDATASIZE PUSH0 PUSH0 RETURNDATACOPY RETURNDATASIZE PUSH0 REVERT JUMPDEST PUSH2 0x805 JUMP JUMPDEST JUMPDEST JUMP JUMPDEST PUSH0 DUP1 SLOAD DUP1 PUSH2 0x818 JUMPI PUSH2 0x817 PUSH2 0xD6D JUMP JUMPDEST JUMPDEST PUSH1 0x1 SWAP1 SUB DUP2 DUP2 SWAP1 PUSH0 MSTORE PUSH1 0x20 PUSH0 KECCAK256 ADD PUSH0 SWAP1 SSTORE SWAP1 SSTORE JUMP JUMPDEST PUSH0 PUSH32 0xFFFFFFFFFFFFFFFFFFFFFFFFFFFFFFFFFFFFFFFFFFFFFFFFFFFFFFFFFFFFFFFF SWAP1 POP PUSH1 0x1 DUP2 PUSH2 0x85E SWAP2 SWAP1 PUSH2 0xD9A JUMP JUMPDEST POP POP JUMP JUMPDEST PUSH0 DUP2 DUP2 SLOAD DUP2 LT PUSH2 0x870 JUMPI PUSH0 DUP1 REVERT JUMPDEST SWAP1 PUSH0 MSTORE PUSH1 0x20 PUSH0 KECCAK256 ADD PUSH0 SWAP2 POP SWAP1 POP SLOAD DUP2 JUMP JUMPDEST PUSH0 PUSH1 0x64 DUP2 SLOAD DUP2 LT PUSH2 0x895 JUMPI PUSH2 0x894 PUSH2 0xDCD JUMP JUMPDEST JUMPDEST SWAP1 PUSH0 MSTORE PUSH1 0x20 PUSH0 KECCAK256 POP POP JUMP JUMPDEST PUSH0 DUP2 SWAP1 POP SWAP2 SWAP1 POP JUMP JUMPDEST PUSH2 0x8B2 DUP2 PUSH2 0x8A0 JUMP JUMPDEST DUP3 MSTORE POP POP JUMP JUMPDEST PUSH0 PUSH1 0x20 DUP3 ADD SWAP1 POP PUSH2 0x8CB PUSH0 DUP4 ADD DUP5 PUSH2 0x8A9 JUMP JUMPDEST SWAP3 SWAP2 POP POP JUMP JUMPDEST PUSH0 PUSH0 REVERT JUMPDEST PUSH2 0x8DE DUP2 PUSH2 0x8A0 JUMP JUMPDEST DUP2 EQ PUSH2 0x8E8 JUMPI PUSH0 PUSH0 REVERT JUMPDEST POP JUMP JUMPDEST PUSH0 DUP2 CALLDATALOAD SWAP1 POP PUSH2 0x8F9 DUP2 PUSH2 0x8D5 JUMP JUMPDEST SWAP3 SWAP2 POP POP JUMP JUMPDEST PUSH0 PUSH1 0x20 DUP3 DUP5 SUB SLT ISZERO PUSH2 0x914 JUMPI PUSH2 0x913 PUSH2 0x8D1 JUMP JUMPDEST JUMPDEST PUSH0 PUSH2 0x921 DUP5 DUP3 DUP6 ADD PUSH2 0x8EB JUMP JUMPDEST SWAP2 POP POP SWAP3 SWAP2 POP POP JUMP JUMPDEST PUSH0 DUP2 MLOAD SWAP1 POP SWAP2 SWAP1 POP JUMP JUMPDEST PUSH0 DUP3 DUP3 MSTORE PUSH1 0x20 DUP3 ADD SWAP1 POP SWAP3 SWAP2 POP POP JUMP JUMPDEST DUP3 DUP2 DUP4 MCOPY PUSH0 DUP4 DUP4 ADD MSTORE POP POP POP JUMP JUMPDEST PUSH0 PUSH1 0x1F NOT PUSH1 0x1F DUP4 ADD AND SWAP1 POP SWAP2 SWAP1 POP JUMP JUMPDEST PUSH0 PUSH2 0x96C DUP3 PUSH2 0x92A JUMP JUMPDEST PUSH2 0x976 DUP2 DUP6 PUSH2 0x934 JUMP JUMPDEST SWAP4 POP PUSH2 0x986 DUP2 DUP6 PUSH1 0x20 DUP7 ADD PUSH2 0x944 JUMP JUMPDEST PUSH2 0x98F DUP2 PUSH2 0x952 JUMP JUMPDEST DUP5 ADD SWAP2 POP POP SWAP3 SWAP2 POP POP JUMP JUMPDEST PUSH0 PUSH1 0x20 DUP3 ADD SWAP1 POP DUP2 DUP2 SUB PUSH0 DUP4 ADD MSTORE PUSH2 0x9B2 DUP2 DUP5 PUSH2 0x962 JUMP JUMPDEST SWAP1 POP SWAP3 SWAP2 POP POP JUMP JUMPDEST PUSH32 0x4E487B7100000000000000000000000000000000000000000000000000000000 PUSH0 MSTORE PUSH1 0x1 PUSH1 0x4 MSTORE PUSH1 0x24 PUSH0 REVERT JUMPDEST PUSH0 DUP2 MLOAD SWAP1 POP PUSH2 0x9F5 DUP2 PUSH2 0x8D5 JUMP JUMPDEST SWAP3 SWAP2 POP POP JUMP JUMPDEST PUSH0 PUSH1 0x20 DUP3 DUP5 SUB SLT ISZERO PUSH2 0xA10 JUMPI PUSH2 0xA0F PUSH2 0x8D1 JUMP JUMPDEST JUMPDEST PUSH0 PUSH2 0xA1D DUP5 DUP3 DUP6 ADD PUSH2 0x9E7 JUMP JUMPDEST SWAP2 POP POP SWAP3 SWAP2 POP POP JUMP JUMPDEST PUSH0 DUP2 PUSH1 0xE0 SHR SWAP1 POP SWAP2 SWAP1 POP JUMP JUMPDEST PUSH0 PUSH1 0x3 RETURNDATASIZE GT ISZERO PUSH2 0xA4E JUMPI PUSH1 0x4 PUSH0 PUSH0 RETURNDATACOPY PUSH2 0xA4B PUSH0 MLOAD PUSH2 0xA26 JUMP JUMPDEST SWAP1 POP JUMPDEST SWAP1 JUMP JUMPDEST PUSH0 PUSH0 PUSH1 0x23 RETURNDATASIZE GT ISZERO PUSH2 0xA6B JUMPI PUSH1 0x20 PUSH1 0x4 PUSH0 RETURNDATACOPY PUSH1 0x1 SWAP2 POP PUSH0 MLOAD SWAP1 POP JUMPDEST SWAP1 SWAP2 JUMP JUMPDEST PUSH32 0x4469766973696F6E206279207A65726F20646574656374656400000000000000 PUSH0 DUP3 ADD MSTORE POP JUMP JUMPDEST PUSH0 PUSH2 0xAA3 PUSH1 0x19 DUP4 PUSH2 0x934 JUMP JUMPDEST SWAP2 POP PUSH2 0xAAE DUP3 PUSH2 0xA6F JUMP JUMPDEST PUSH1 0x20 DUP3 ADD SWAP1 POP SWAP2 SWAP1 POP JUMP JUMPDEST PUSH0 PUSH1 0x40 DUP3 ADD SWAP1 POP PUSH2 0xACC PUSH0 DUP4 ADD DUP5 PUSH2 0x8A9 JUMP JUMPDEST DUP2 DUP2 SUB PUSH1 0x20 DUP4 ADD MSTORE PUSH2 0xADD DUP2 PUSH2 0xA97 JUMP JUMPDEST SWAP1 POP SWAP3 SWAP2 POP POP JUMP JUMPDEST PUSH32 0x417373657274696F6E206661696C656420646574656374656400000000000000 PUSH0 DUP3 ADD MSTORE POP JUMP JUMPDEST PUSH0 PUSH2 0xB19 PUSH1 0x19 DUP4 PUSH2 0x934 JUMP JUMPDEST SWAP2 POP PUSH2 0xB24 DUP3 PUSH2 0xAE5 JUMP JUMPDEST PUSH1 0x20 DUP3 ADD SWAP1 POP SWAP2 SWAP1 POP JUMP JUMPDEST PUSH0 PUSH1 0x40 DUP3 ADD SWAP1 POP PUSH2 0xB42 PUSH0 DUP4 ADD DUP5 PUSH2 0x8A9 JUMP JUMPDEST DUP2 DUP2 SUB PUSH1 0x20 DUP4 ADD MSTORE PUSH2 0xB53 DUP2 PUSH2 0xB0D JUMP JUMPDEST SWAP1 POP SWAP3 SWAP2 POP POP JUMP JUMPDEST PUSH32 0x41726974686D65746963206F766572666C6F7720646574656374656400000000 PUSH0 DUP3 ADD MSTORE POP JUMP JUMPDEST PUSH0 PUSH2 0xB8F PUSH1 0x1C DUP4 PUSH2 0x934 JUMP JUMPDEST SWAP2 POP PUSH2 0xB9A DUP3 PUSH2 0xB5B JUMP JUMPDEST PUSH1 0x20 DUP3 ADD SWAP1 POP SWAP2 SWAP1 POP JUMP JUMPDEST PUSH0 PUSH1 0x40 DUP3 ADD SWAP1 POP PUSH2 0xBB8 PUSH0 DUP4 ADD DUP5 PUSH2 0x8A9 JUMP JUMPDEST DUP2 DUP2 SUB PUSH1 0x20 DUP4 ADD MSTORE PUSH2 0xBC9 DUP2 PUSH2 0xB83 JUMP JUMPDEST SWAP1 POP SWAP3 SWAP2 POP POP JUMP JUMPDEST PUSH32 0x506F702066726F6D20656D707479206172726179206465746563746564000000 PUSH0 DUP3 ADD MSTORE POP JUMP JUMPDEST PUSH0 PUSH2 0xC05 PUSH1 0x1D DUP4 PUSH2 0x934 JUMP JUMPDEST SWAP2 POP PUSH2 0xC10 DUP3 PUSH2 0xBD1 JUMP JUMPDEST PUSH1 0x20 DUP3 ADD SWAP1 POP SWAP2 SWAP1 POP JUMP JUMPDEST PUSH0 PUSH1 0x40 DUP3 ADD SWAP1 POP PUSH2 0xC2E PUSH0 DUP4 ADD DUP5 PUSH2 0x8A9 JUMP JUMPDEST DUP2 DUP2 SUB PUSH1 0x20 DUP4 ADD MSTORE PUSH2 0xC3F DUP2 PUSH2 0xBF9 JUMP JUMPDEST SWAP1 POP SWAP3 SWAP2 POP POP JUMP JUMPDEST PUSH32 0x4E487B7100000000000000000000000000000000000000000000000000000000 PUSH0 MSTORE PUSH1 0x12 PUSH1 0x4 MSTORE PUSH1 0x24 PUSH0 REVERT JUMPDEST PUSH32 0x4E487B7100000000000000000000000000000000000000000000000000000000 PUSH0 MSTORE PUSH1 0x11 PUSH1 0x4 MSTORE PUSH1 0x24 PUSH0 REVERT JUMPDEST PUSH0 PUSH2 0xCAB DUP3 PUSH2 0x8A0 JUMP JUMPDEST SWAP2 POP PUSH2 0xCB6 DUP4 PUSH2 0x8A0 JUMP JUMPDEST SWAP3 POP DUP3 PUSH2 0xCC6 JUMPI PUSH2 0xCC5 PUSH2 0xC47 JUMP JUMPDEST JUMPDEST DUP3 DUP3 DIV SWAP1 POP SWAP3 SWAP2 POP POP JUMP JUMPDEST PUSH32 0x417272617920616363657373206F7574206F6620626F756E6473206465746563 PUSH0 DUP3 ADD MSTORE PUSH32 0x7465640000000000000000000000000000000000000000000000000000000000 PUSH1 0x20 DUP3 ADD MSTORE POP JUMP JUMPDEST PUSH0 PUSH2 0xD2B PUSH1 0x23 DUP4 PUSH2 0x934 JUMP JUMPDEST SWAP2 POP PUSH2 0xD36 DUP3 PUSH2 0xCD1 JUMP JUMPDEST PUSH1 0x40 DUP3 ADD SWAP1 POP SWAP2 SWAP1 POP JUMP JUMPDEST PUSH0 PUSH1 0x40 DUP3 ADD SWAP1 POP PUSH2 0xD54 PUSH0 DUP4 ADD DUP5 PUSH2 0x8A9 JUMP JUMPDEST DUP2 DUP2 SUB PUSH1 0x20 DUP4 ADD MSTORE PUSH2 0xD65 DUP2 PUSH2 0xD1F JUMP JUMPDEST SWAP1 POP SWAP3 SWAP2 POP POP JUMP JUMPDEST PUSH32 0x4E487B7100000000000000000000000000000000000000000000000000000000 PUSH0 MSTORE PUSH1 0x31 PUSH1 0x4 MSTORE PUSH1 0x24 PUSH0 REVERT JUMPDEST PUSH0 PUSH2 0xDA4 DUP3 PUSH2 0x8A0 JUMP JUMPDEST SWAP2 POP PUSH2 0xDAF DUP4 PUSH2 0x8A0 JUMP JUMPDEST SWAP3 POP DUP3 DUP3 ADD SWAP1 POP DUP1 DUP3 GT ISZERO PUSH2 0xDC7 JUMPI PUSH2 0xDC6 PUSH2 0xC74 JUMP JUMPDEST JUMPDEST SWAP3 SWAP2 POP POP JUMP JUMPDEST PUSH32 0x4E487B7100000000000000000000000000000000000000000000000000000000 PUSH0 MSTORE PUSH1 0x32 PUSH1 0x4 MSTORE PUSH1 0x24 PUSH0 REVERT INVALID LOG2 PUSH5 0x6970667358 0x22 SLT KECCAK256 MSTORE8 SWAP15 SWAP8 EXTCODEHASH 0x29 PUSH28 0x98488DB49369DCC4870356D6E158577183DFDDE933CA3DA07C2B6473 PUSH16 0x6C634300081E00330000000000000000 "
		},
		"gasEstimates": {
			"creation": {
				"codeDepositCost": "726400",
				"executionCost": "758",
				"totalCost": "727158"
			},
			"external": {
				"addNumero(uint256)": "46909",
				"arrayPanic()": "2412",
				"assertPanic()": "239",
				"divisionPanic()": "infinite",
				"getArrayLength()": "2463",
				"getPanicDescription(uint256)": "infinite",
				"numeros(uint256)": "infinite",
				"overflowPanic()": "infinite",
				"popPanic()": "29462",
				"safeTestArray()": "infinite",
				"safeTestAssert()": "infinite",
				"safeTestDivision()": "infinite",
				"safeTestOverflow()": "infinite",
				"safeTestPop()": "infinite"
			}
		},
		"methodIdentifiers": {
			"addNumero(uint256)": "89fec804",
			"arrayPanic()": "f3391fde",
			"assertPanic()": "17a6d5af",
			"divisionPanic()": "96dd1de1",
			"getArrayLength()": "0849cc99",
			"getPanicDescription(uint256)": "a483021a",
			"numeros(uint256)": "f2f7cca4",
			"overflowPanic()": "e17057a1",
			"popPanic()": "d0ec61bd",
			"safeTestArray()": "cd8f90c2",
			"safeTestAssert()": "727517f3",
			"safeTestDivision()": "622e2542",
			"safeTestOverflow()": "7db40b91",
			"safeTestPop()": "7f713704"
		}
	},
	"abi": [
		{
			"anonymous": false,
			"inputs": [
				{
					"indexed": false,
					"internalType": "uint256",
					"name": "errorCode",
					"type": "uint256"
				},
				{
					"indexed": false,
					"internalType": "string",
					"name": "description",
					"type": "string"
				}
			],
			"name": "PanicDetected",
			"type": "event"
		},
		{
			"inputs": [
				{
					"internalType": "uint256",
					"name": "_num",
					"type": "uint256"
				}
			],
			"name": "addNumero",
			"outputs": [],
			"stateMutability": "nonpayable",
			"type": "function"
		},
		{
			"inputs": [],
			"name": "arrayPanic",
			"outputs": [],
			"stateMutability": "view",
			"type": "function"
		},
		{
			"inputs": [],
			"name": "assertPanic",
			"outputs": [],
			"stateMutability": "pure",
			"type": "function"
		},
		{
			"inputs": [],
			"name": "divisionPanic",
			"outputs": [
				{
					"internalType": "uint256",
					"name": "",
					"type": "uint256"
				}
			],
			"stateMutability": "pure",
			"type": "function"
		},
		{
			"inputs": [],
			"name": "getArrayLength",
			"outputs": [
				{
					"internalType": "uint256",
					"name": "",
					"type": "uint256"
				}
			],
			"stateMutability": "view",
			"type": "function"
		},
		{
			"inputs": [
				{
					"internalType": "uint256",
					"name": "code",
					"type": "uint256"
				}
			],
			"name": "getPanicDescription",
			"outputs": [
				{
					"internalType": "string",
					"name": "",
					"type": "string"
				}
			],
			"stateMutability": "pure",
			"type": "function"
		},
		{
			"inputs": [
				{
					"internalType": "uint256",
					"name": "",
					"type": "uint256"
				}
			],
			"name": "numeros",
			"outputs": [
				{
					"internalType": "uint256",
					"name": "",
					"type": "uint256"
				}
			],
			"stateMutability": "view",
			"type": "function"
		},
		{
			"inputs": [],
			"name": "overflowPanic",
			"outputs": [],
			"stateMutability": "pure",
			"type": "function"
		},
		{
			"inputs": [],
			"name": "popPanic",
			"outputs": [],
			"stateMutability": "nonpayable",
			"type": "function"
		},
		{
			"inputs": [],
			"name": "safeTestArray",
			"outputs": [],
			"stateMutability": "nonpayable",
			"type": "function"
		},
		{
			"inputs": [],
			"name": "safeTestAssert",
			"outputs": [],
			"stateMutability": "nonpayable",
			"type": "function"
		},
		{
			"inputs": [],
			"name": "safeTestDivision",
			"outputs": [],
			"stateMutability": "nonpayable",
			"type": "function"
		},
		{
			"inputs": [],
			"name": "safeTestOverflow",
			"outputs": [],
			"stateMutability": "nonpayable",
			"type": "function"
		},
		{
			"inputs": [],
			"name": "safeTestPop",
			"outputs": [],
			"stateMutability": "nonpayable",
			"type": "function"
		}
	]
}