{
	"data": {
		"bytecode": {
			"linkReferences": {},
			"object": "6080604052348015600e575f5ffd5b506040516019906074565b604051809103905ff0801580156031573d5f5f3e3d5ffd5b505f5f6101000a81548173ffffffffffffffffffffffffffffffffffffffff021916908373ffffffffffffffffffffffffffffffffffffffff1602179055506081565b6103ad8061106d83390190565b610fdf8061008e5f395ff3fe608060405234801561000f575f5ffd5b506004361061007b575f3560e01c80638040cac4116100595780638040cac41461009d578063a483021a146100a7578063b91c4b29146100d7578063e365cd24146100e15761007b565b80632b813bc01461007f5780632be491bd1461008957806373407cbd14610093575b5f5ffd5b6100876100ff565b005b61009161021f565b005b61009b61033f565b005b6100a5610460565b005b6100c160048036038101906100bc919061098b565b610580565b6040516100ce9190610a26565b60405180910390f35b6100df610810565b005b6100e9610930565b6040516100f69190610ac0565b60405180910390f35b5f5f9054906101000a900473ffffffffffffffffffffffffffffffffffffffff1673ffffffffffffffffffffffffffffffffffffffff166317a6d5af6040518163ffffffff1660e01b81526004015f6040518083038186803b158015610163575f5ffd5b505afa925050508015610174575060015b6101e757610180610ae5565b634e487b71036101da57610192610b04565b9061019d57506101da565b7ffa67a0327c0fe7ba3a1d79f037303399c7149da91b4d24df595e0a874bcf9e9c816040516101cc9190610b7b565b60405180910390a1506101e2565b3d5f5f3e3d5ffd5b61021d565b7fedb3ce39816521cdce93ac8e7f48f8cf27c36ec57f561eac2210d1c8918e111660405161021490610bf1565b60405180910390a15b565b5f5f9054906101000a900473ffffffffffffffffffffffffffffffffffffffff1673ffffffffffffffffffffffffffffffffffffffff1663f3391fde6040518163ffffffff1660e01b81526004015f6040518083038186803b158015610283575f5ffd5b505afa925050508015610294575060015b610307576102a0610ae5565b634e487b71036102fa576102b2610b04565b906102bd57506102fa565b7ffa67a0327c0fe7ba3a1d79f037303399c7149da91b4d24df595e0a874bcf9e9c816040516102ec9190610c59565b60405180910390a150610302565b3d5f5f3e3d5ffd5b61033d565b7fedb3ce39816521cdce93ac8e7f48f8cf27c36ec57f561eac2210d1c8918e111660405161033490610ccf565b60405180910390a15b565b5f5f9054906101000a900473ffffffffffffffffffffffffffffffffffffffff1673ffffffffffffffffffffffffffffffffffffffff1663d0ec61bd6040518163ffffffff1660e01b81526004015f604051808303815f87803b1580156103a4575f5ffd5b505af19250505080156103b5575060015b610428576103c1610ae5565b634e487b710361041b576103d3610b04565b906103de575061041b565b7ffa67a0327c0fe7ba3a1d79f037303399c7149da91b4d24df595e0a874bcf9e9c8160405161040d9190610d37565b60405180910390a150610423565b3d5f5f3e3d5ffd5b61045e565b7fedb3ce39816521cdce93ac8e7f48f8cf27c36ec57f561eac2210d1c8918e111660405161045590610dad565b60405180910390a15b565b5f5f9054906101000a900473ffffffffffffffffffffffffffffffffffffffff1673ffffffffffffffffffffffffffffffffffffffff1663e17057a16040518163ffffffff1660e01b81526004015f6040518083038186803b1580156104c4575f5ffd5b505afa9250505080156104d5575060015b610548576104e1610ae5565b634e487b710361053b576104f3610b04565b906104fe575061053b565b7ffa67a0327c0fe7ba3a1d79f037303399c7149da91b4d24df595e0a874bcf9e9c8160405161052d9190610e15565b60405180910390a150610543565b3d5f5f3e3d5ffd5b61057e565b7fedb3ce39816521cdce93ac8e7f48f8cf27c36ec57f561eac2210d1c8918e111660405161057590610e8b565b60405180910390a15b565b6060600182036105c7576040518060400160405280601081526020017f417373657274696f6e206661696c656400000000000000000000000000000000815250905061080b565b6011820361060c576040518060400160405280601d81526020017f41726974686d65746963206f766572666c6f772f756e646572666c6f77000000815250905061080b565b60128203610651576040518060400160405280601a81526020017f4469766973696f6e206f72206d6f64756c6f206279207a65726f000000000000815250905061080b565b60218203610696576040518060400160405280601281526020017f496e76616c696420656e756d2076616c75650000000000000000000000000000815250905061080b565b602282036106be57604051806060016040528060228152602001610f8860229139905061080b565b60318203610703576040518060400160405280601481526020017f506f702066726f6d20656d707479206172726179000000000000000000000000815250905061080b565b60328203610748576040518060400160405280601a81526020017f417272617920616363657373206f7574206f6620626f756e6473000000000000815250905061080b565b6041820361078d576040518060400160405280601981526020017f546f6f206d756368206d656d6f727920616c6c6f636174656400000000000000815250905061080b565b605182036107d2576040518060400160405280601581526020017f496e76616c69642066756e6374696f6e20747970650000000000000000000000815250905061080b565b6040518060400160405280601281526020017f556e6b6e6f776e2070616e696320636f6465000000000000000000000000000081525090505b919050565b5f5f9054906101000a900473ffffffffffffffffffffffffffffffffffffffff1673ffffffffffffffffffffffffffffffffffffffff166396dd1de16040518163ffffffff1660e01b81526004015f6040518083038186803b158015610874575f5ffd5b505afa925050508015610885575060015b6108f857610891610ae5565b634e487b71036108eb576108a3610b04565b906108ae57506108eb565b7ffa67a0327c0fe7ba3a1d79f037303399c7149da91b4d24df595e0a874bcf9e9c816040516108dd9190610ef3565b60405180910390a1506108f3565b3d5f5f3e3d5ffd5b61092e565b7fedb3ce39816521cdce93ac8e7f48f8cf27c36ec57f561eac2210d1c8918e111660405161092590610f69565b60405180910390a15b565b5f5f9054906101000a900473ffffffffffffffffffffffffffffffffffffffff1681565b5f5ffd5b5f819050919050565b61096a81610958565b8114610974575f5ffd5b50565b5f8135905061098581610961565b92915050565b5f602082840312156109a05761099f610954565b5b5f6109ad84828501610977565b91505092915050565b5f81519050919050565b5f82825260208201905092915050565b8281835e5f83830152505050565b5f601f19601f8301169050919050565b5f6109f8826109b6565b610a0281856109c0565b9350610a128185602086016109d0565b610a1b816109de565b840191505092915050565b5f6020820190508181035f830152610a3e81846109ee565b905092915050565b5f73ffffffffffffffffffffffffffffffffffffffff82169050919050565b5f819050919050565b5f610a88610a83610a7e84610a46565b610a65565b610a46565b9050919050565b5f610a9982610a6e565b9050919050565b5f610aaa82610a8f565b9050919050565b610aba81610aa0565b82525050565b5f602082019050610ad35f830184610ab1565b92915050565b5f8160e01c9050919050565b5f60033d1115610b015760045f5f3e610afe5f51610ad9565b90505b90565b5f5f60233d1115610b1e57602060045f3e600191505f5190505b9091565b610b2b81610958565b82525050565b7f417373657274696f6e206661696c6564000000000000000000000000000000005f82015250565b5f610b656010836109c0565b9150610b7082610b31565b602082019050919050565b5f604082019050610b8e5f830184610b22565b8181036020830152610b9f81610b59565b905092915050565b7f61737365727450616e69630000000000000000000000000000000000000000005f82015250565b5f610bdb600b836109c0565b9150610be682610ba7565b602082019050919050565b5f6020820190508181035f830152610c0881610bcf565b9050919050565b7f417272617920616363657373206f7574206f6620626f756e64730000000000005f82015250565b5f610c43601a836109c0565b9150610c4e82610c0f565b602082019050919050565b5f604082019050610c6c5f830184610b22565b8181036020830152610c7d81610c37565b905092915050565b7f617272617950616e6963000000000000000000000000000000000000000000005f82015250565b5f610cb9600a836109c0565b9150610cc482610c85565b602082019050919050565b5f6020820190508181035f830152610ce681610cad565b9050919050565b7f506f702066726f6d20656d7074792061727261790000000000000000000000005f82015250565b5f610d216014836109c0565b9150610d2c82610ced565b602082019050919050565b5f604082019050610d4a5f830184610b22565b8181036020830152610d5b81610d15565b905092915050565b7f706f7050616e69630000000000000000000000000000000000000000000000005f82015250565b5f610d976008836109c0565b9150610da282610d63565b602082019050919050565b5f6020820190508181035f830152610dc481610d8b565b9050919050565b7f41726974686d65746963206f766572666c6f772f756e646572666c6f770000005f82015250565b5f610dff601d836109c0565b9150610e0a82610dcb565b602082019050919050565b5f604082019050610e285f830184610b22565b8181036020830152610e3981610df3565b905092915050565b7f6f766572666c6f7750616e6963000000000000000000000000000000000000005f82015250565b5f610e75600d836109c0565b9150610e8082610e41565b602082019050919050565b5f6020820190508181035f830152610ea281610e69565b9050919050565b7f4469766973696f6e206279207a65726f000000000000000000000000000000005f82015250565b5f610edd6010836109c0565b9150610ee882610ea9565b602082019050919050565b5f604082019050610f065f830184610b22565b8181036020830152610f1781610ed1565b905092915050565b7f6469766973696f6e50616e6963000000000000000000000000000000000000005f82015250565b5f610f53600d836109c0565b9150610f5e82610f1f565b602082019050919050565b5f6020820190508181035f830152610f8081610f47565b905091905056fe496e76616c696420656e636f6465642073746f726167652062797465206172726179a26469706673582212204f1ceb70296e6539c2a26bebbd8dd664aabb198b006fb3c34ca5e5c33d683b7864736f6c634300081e00336080604052348015600e575f5ffd5b506103918061001c5f395ff3fe608060405234801561000f575f5ffd5b5060043610610060575f3560e01c806317a6d5af1461006457806396dd1de11461006e578063d0ec61bd14610078578063e17057a114610082578063f2f7cca41461008c578063f3391fde146100bc575b5f5ffd5b61006c6100c6565b005b6100766100da565b005b6100806100f4565b005b61008a61011a565b005b6100a660048036038101906100a191906101c4565b61014f565b6040516100b391906101fe565b60405180910390f35b6100c461016e565b005b60026001146100d8576100d7610217565b5b565b5f600a90505f5f905080826100ef919061029e565b505050565b5f805480610105576101046102ce565b5b600190038181905f5260205f20015f90559055565b5f7fffffffffffffffffffffffffffffffffffffffffffffffffffffffffffffffff905060018161014b91906102fb565b5050565b5f818154811061015d575f80fd5b905f5260205f20015f915090505481565b5f6064815481106101825761018161032e565b5b905f5260205f205050565b5f5ffd5b5f819050919050565b6101a381610191565b81146101ad575f5ffd5b50565b5f813590506101be8161019a565b92915050565b5f602082840312156101d9576101d861018d565b5b5f6101e6848285016101b0565b91505092915050565b6101f881610191565b82525050565b5f6020820190506102115f8301846101ef565b92915050565b7f4e487b71000000000000000000000000000000000000000000000000000000005f52600160045260245ffd5b7f4e487b71000000000000000000000000000000000000000000000000000000005f52601260045260245ffd5b7f4e487b71000000000000000000000000000000000000000000000000000000005f52601160045260245ffd5b5f6102a882610191565b91506102b383610191565b9250826102c3576102c2610244565b5b828204905092915050565b7f4e487b71000000000000000000000000000000000000000000000000000000005f52603160045260245ffd5b5f61030582610191565b915061031083610191565b925082820190508082111561032857610327610271565b5b92915050565b7f4e487b71000000000000000000000000000000000000000000000000000000005f52603260045260245ffdfea2646970667358221220efe92e41272f501c6fce06ce7426afddfabd76130cca5863f9ab095294a6438464736f6c634300081e0033",
			"opcodes": "PUSH1 0x80 PUSH1 0x40 MSTORE CALLVALUE DUP1 ISZERO PUSH1 0xE JUMPI PUSH0 PUSH0 REVERT JUMPDEST POP PUSH1 0x40 MLOAD PUSH1 0x19 SWAP1 PUSH1 0x74 JUMP JUMPDEST PUSH1 0x40 MLOAD DUP1 SWAP2 SUB SWAP1 PUSH0 CREATE DUP1 ISZERO DUP1 ISZERO PUSH1 0x31 JUMPI RETURNDATASIZE PUSH0 PUSH0 RETURNDATACOPY RETURNDATASIZE PUSH0 REVERT JUMPDEST POP PUSH0 PUSH0 PUSH2 0x100 EXP DUP2 SLOAD DUP2 PUSH20 0xFFFFFFFFFFFFFFFFFFFFFFFFFFFFFFFFFFFFFFFF MUL NOT AND SWAP1 DUP4 PUSH20 0xFFFFFFFFFFFFFFFFFFFFFFFFFFFFFFFFFFFFFFFF AND MUL OR SWAP1 SSTORE POP PUSH1 0x81 JUMP JUMPDEST PUSH2 0x3AD DUP1 PUSH2 0x106D DUP4 CODECOPY ADD SWAP1 JUMP JUMPDEST PUSH2 0xFDF DUP1 PUSH2 0x8E PUSH0 CODECOPY PUSH0 RETURN INVALID PUSH1 0x80 PUSH1 0x40 MSTORE CALLVALUE DUP1 ISZERO PUSH2 0xF JUMPI PUSH0 PUSH0 REVERT JUMPDEST POP PUSH1 0x4 CALLDATASIZE LT PUSH2 0x7B JUMPI PUSH0 CALLDATALOAD PUSH1 0xE0 SHR DUP1 PUSH4 0x8040CAC4 GT PUSH2 0x59 JUMPI DUP1 PUSH4 0x8040CAC4 EQ PUSH2 0x9D JUMPI DUP1 PUSH4 0xA483021A EQ PUSH2 0xA7 JUMPI DUP1 PUSH4 0xB91C4B29 EQ PUSH2 0xD7 JUMPI DUP1 PUSH4 0xE365CD24 EQ PUSH2 0xE1 JUMPI PUSH2 0x7B JUMP JUMPDEST DUP1 PUSH4 0x2B813BC0 EQ PUSH2 0x7F JUMPI DUP1 PUSH4 0x2BE491BD EQ PUSH2 0x89 JUMPI DUP1 PUSH4 0x73407CBD EQ PUSH2 0x93 JUMPI JUMPDEST PUSH0 PUSH0 REVERT JUMPDEST PUSH2 0x87 PUSH2 0xFF JUMP JUMPDEST STOP JUMPDEST PUSH2 0x91 PUSH2 0x21F JUMP JUMPDEST STOP JUMPDEST PUSH2 0x9B PUSH2 0x33F JUMP JUMPDEST STOP JUMPDEST PUSH2 0xA5 PUSH2 0x460 JUMP JUMPDEST STOP JUMPDEST PUSH2 0xC1 PUSH1 0x4 DUP1 CALLDATASIZE SUB DUP2 ADD SWAP1 PUSH2 0xBC SWAP2 SWAP1 PUSH2 0x98B JUMP JUMPDEST PUSH2 0x580 JUMP JUMPDEST PUSH1 0x40 MLOAD PUSH2 0xCE SWAP2 SWAP1 PUSH2 0xA26 JUMP JUMPDEST PUSH1 0x40 MLOAD DUP1 SWAP2 SUB SWAP1 RETURN JUMPDEST PUSH2 0xDF PUSH2 0x810 JUMP JUMPDEST STOP JUMPDEST PUSH2 0xE9 PUSH2 0x930 JUMP JUMPDEST PUSH1 0x40 MLOAD PUSH2 0xF6 SWAP2 SWAP1 PUSH2 0xAC0 JUMP JUMPDEST PUSH1 0x40 MLOAD DUP1 SWAP2 SUB SWAP1 RETURN JUMPDEST PUSH0 PUSH0 SWAP1 SLOAD SWAP1 PUSH2 0x100 EXP SWAP1 DIV PUSH20 0xFFFFFFFFFFFFFFFFFFFFFFFFFFFFFFFFFFFFFFFF AND PUSH20 0xFFFFFFFFFFFFFFFFFFFFFFFFFFFFFFFFFFFFFFFF AND PUSH4 0x17A6D5AF PUSH1 0x40 MLOAD DUP2 PUSH4 0xFFFFFFFF AND PUSH1 0xE0 SHL DUP2 MSTORE PUSH1 0x4 ADD PUSH0 PUSH1 0x40 MLOAD DUP1 DUP4 SUB DUP2 DUP7 DUP1 EXTCODESIZE ISZERO DUP1 ISZERO PUSH2 0x163 JUMPI PUSH0 PUSH0 REVERT JUMPDEST POP GAS STATICCALL SWAP3 POP POP POP DUP1 ISZERO PUSH2 0x174 JUMPI POP PUSH1 0x1 JUMPDEST PUSH2 0x1E7 JUMPI PUSH2 0x180 PUSH2 0xAE5 JUMP JUMPDEST PUSH4 0x4E487B71 SUB PUSH2 0x1DA JUMPI PUSH2 0x192 PUSH2 0xB04 JUMP JUMPDEST SWAP1 PUSH2 0x19D JUMPI POP PUSH2 0x1DA JUMP JUMPDEST PUSH32 0xFA67A0327C0FE7BA3A1D79F037303399C7149DA91B4D24DF595E0A874BCF9E9C DUP2 PUSH1 0x40 MLOAD PUSH2 0x1CC SWAP2 SWAP1 PUSH2 0xB7B JUMP JUMPDEST PUSH1 0x40 MLOAD DUP1 SWAP2 SUB SWAP1 LOG1 POP PUSH2 0x1E2 JUMP JUMPDEST RETURNDATASIZE PUSH0 PUSH0 RETURNDATACOPY RETURNDATASIZE PUSH0 REVERT JUMPDEST PUSH2 0x21D JUMP JUMPDEST PUSH32 0xEDB3CE39816521CDCE93AC8E7F48F8CF27C36EC57F561EAC2210D1C8918E1116 PUSH1 0x40 MLOAD PUSH2 0x214 SWAP1 PUSH2 0xBF1 JUMP JUMPDEST PUSH1 0x40 MLOAD DUP1 SWAP2 SUB SWAP1 LOG1 JUMPDEST JUMP JUMPDEST PUSH0 PUSH0 SWAP1 SLOAD SWAP1 PUSH2 0x100 EXP SWAP1 DIV PUSH20 0xFFFFFFFFFFFFFFFFFFFFFFFFFFFFFFFFFFFFFFFF AND PUSH20 0xFFFFFFFFFFFFFFFFFFFFFFFFFFFFFFFFFFFFFFFF AND PUSH4 0xF3391FDE PUSH1 0x40 MLOAD DUP2 PUSH4 0xFFFFFFFF AND PUSH1 0xE0 SHL DUP2 MSTORE PUSH1 0x4 ADD PUSH0 PUSH1 0x40 MLOAD DUP1 DUP4 SUB DUP2 DUP7 DUP1 EXTCODESIZE ISZERO DUP1 ISZERO PUSH2 0x283 JUMPI PUSH0 PUSH0 REVERT JUMPDEST POP GAS STATICCALL SWAP3 POP POP POP DUP1 ISZERO PUSH2 0x294 JUMPI POP PUSH1 0x1 JUMPDEST PUSH2 0x307 JUMPI PUSH2 0x2A0 PUSH2 0xAE5 JUMP JUMPDEST PUSH4 0x4E487B71 SUB PUSH2 0x2FA JUMPI PUSH2 0x2B2 PUSH2 0xB04 JUMP JUMPDEST SWAP1 PUSH2 0x2BD JUMPI POP PUSH2 0x2FA JUMP JUMPDEST PUSH32 0xFA67A0327C0FE7BA3A1D79F037303399C7149DA91B4D24DF595E0A874BCF9E9C DUP2 PUSH1 0x40 MLOAD PUSH2 0x2EC SWAP2 SWAP1 PUSH2 0xC59 JUMP JUMPDEST PUSH1 0x40 MLOAD DUP1 SWAP2 SUB SWAP1 LOG1 POP PUSH2 0x302 JUMP JUMPDEST RETURNDATASIZE PUSH0 PUSH0 RETURNDATACOPY RETURNDATASIZE PUSH0 REVERT JUMPDEST PUSH2 0x33D JUMP JUMPDEST PUSH32 0xEDB3CE39816521CDCE93AC8E7F48F8CF27C36EC57F561EAC2210D1C8918E1116 PUSH1 0x40 MLOAD PUSH2 0x334 SWAP1 PUSH2 0xCCF JUMP JUMPDEST PUSH1 0x40 MLOAD DUP1 SWAP2 SUB SWAP1 LOG1 JUMPDEST JUMP JUMPDEST PUSH0 PUSH0 SWAP1 SLOAD SWAP1 PUSH2 0x100 EXP SWAP1 DIV PUSH20 0xFFFFFFFFFFFFFFFFFFFFFFFFFFFFFFFFFFFFFFFF AND PUSH20 0xFFFFFFFFFFFFFFFFFFFFFFFFFFFFFFFFFFFFFFFF AND PUSH4 0xD0EC61BD PUSH1 0x40 MLOAD DUP2 PUSH4 0xFFFFFFFF AND PUSH1 0xE0 SHL DUP2 MSTORE PUSH1 0x4 ADD PUSH0 PUSH1 0x40 MLOAD DUP1 DUP4 SUB DUP2 PUSH0 DUP8 DUP1 EXTCODESIZE ISZERO DUP1 ISZERO PUSH2 0x3A4 JUMPI PUSH0 PUSH0 REVERT JUMPDEST POP GAS CALL SWAP3 POP POP POP DUP1 ISZERO PUSH2 0x3B5 JUMPI POP PUSH1 0x1 JUMPDEST PUSH2 0x428 JUMPI PUSH2 0x3C1 PUSH2 0xAE5 JUMP JUMPDEST PUSH4 0x4E487B71 SUB PUSH2 0x41B JUMPI PUSH2 0x3D3 PUSH2 0xB04 JUMP JUMPDEST SWAP1 PUSH2 0x3DE JUMPI POP PUSH2 0x41B JUMP JUMPDEST PUSH32 0xFA67A0327C0FE7BA3A1D79F037303399C7149DA91B4D24DF595E0A874BCF9E9C DUP2 PUSH1 0x40 MLOAD PUSH2 0x40D SWAP2 SWAP1 PUSH2 0xD37 JUMP JUMPDEST PUSH1 0x40 MLOAD DUP1 SWAP2 SUB SWAP1 LOG1 POP PUSH2 0x423 JUMP JUMPDEST RETURNDATASIZE PUSH0 PUSH0 RETURNDATACOPY RETURNDATASIZE PUSH0 REVERT JUMPDEST PUSH2 0x45E JUMP JUMPDEST PUSH32 0xEDB3CE39816521CDCE93AC8E7F48F8CF27C36EC57F561EAC2210D1C8918E1116 PUSH1 0x40 MLOAD PUSH2 0x455 SWAP1 PUSH2 0xDAD JUMP JUMPDEST PUSH1 0x40 MLOAD DUP1 SWAP2 SUB SWAP1 LOG1 JUMPDEST JUMP JUMPDEST PUSH0 PUSH0 SWAP1 SLOAD SWAP1 PUSH2 0x100 EXP SWAP1 DIV PUSH20 0xFFFFFFFFFFFFFFFFFFFFFFFFFFFFFFFFFFFFFFFF AND PUSH20 0xFFFFFFFFFFFFFFFFFFFFFFFFFFFFFFFFFFFFFFFF AND PUSH4 0xE17057A1 PUSH1 0x40 MLOAD DUP2 PUSH4 0xFFFFFFFF AND PUSH1 0xE0 SHL DUP2 MSTORE PUSH1 0x4 ADD PUSH0 PUSH1 0x40 MLOAD DUP1 DUP4 SUB DUP2 DUP7 DUP1 EXTCODESIZE ISZERO DUP1 ISZERO PUSH2 0x4C4 JUMPI PUSH0 PUSH0 REVERT JUMPDEST POP GAS STATICCALL SWAP3 POP POP POP DUP1 ISZERO PUSH2 0x4D5 JUMPI POP PUSH1 0x1 JUMPDEST PUSH2 0x548 JUMPI PUSH2 0x4E1 PUSH2 0xAE5 JUMP JUMPDEST PUSH4 0x4E487B71 SUB PUSH2 0x53B JUMPI PUSH2 0x4F3 PUSH2 0xB04 JUMP JUMPDEST SWAP1 PUSH2 0x4FE JUMPI POP PUSH2 0x53B JUMP JUMPDEST PUSH32 0xFA67A0327C0FE7BA3A1D79F037303399C7149DA91B4D24DF595E0A874BCF9E9C DUP2 PUSH1 0x40 MLOAD PUSH2 0x52D SWAP2 SWAP1 PUSH2 0xE15 JUMP JUMPDEST PUSH1 0x40 MLOAD DUP1 SWAP2 SUB SWAP1 LOG1 POP PUSH2 0x543 JUMP JUMPDEST RETURNDATASIZE PUSH0 PUSH0 RETURNDATACOPY RETURNDATASIZE PUSH0 REVERT JUMPDEST PUSH2 0x57E JUMP JUMPDEST PUSH32 0xEDB3CE39816521CDCE93AC8E7F48F8CF27C36EC57F561EAC2210D1C8918E1116 PUSH1 0x40 MLOAD PUSH2 0x575 SWAP1 PUSH2 0xE8B JUMP JUMPDEST PUSH1 0x40 MLOAD DUP1 SWAP2 SUB SWAP1 LOG1 JUMPDEST JUMP JUMPDEST PUSH1 0x60 PUSH1 0x1 DUP3 SUB PUSH2 0x5C7 JUMPI PUSH1 0x40 MLOAD DUP1 PUSH1 0x40 ADD PUSH1 0x40 MSTORE DUP1 PUSH1 0x10 DUP2 MSTORE PUSH1 0x20 ADD PUSH32 0x417373657274696F6E206661696C656400000000000000000000000000000000 DUP2 MSTORE POP SWAP1 POP PUSH2 0x80B JUMP JUMPDEST PUSH1 0x11 DUP3 SUB PUSH2 0x60C JUMPI PUSH1 0x40 MLOAD DUP1 PUSH1 0x40 ADD PUSH1 0x40 MSTORE DUP1 PUSH1 0x1D DUP2 MSTORE PUSH1 0x20 ADD PUSH32 0x41726974686D65746963206F766572666C6F772F756E646572666C6F77000000 DUP2 MSTORE POP SWAP1 POP PUSH2 0x80B JUMP JUMPDEST PUSH1 0x12 DUP3 SUB PUSH2 0x651 JUMPI PUSH1 0x40 MLOAD DUP1 PUSH1 0x40 ADD PUSH1 0x40 MSTORE DUP1 PUSH1 0x1A DUP2 MSTORE PUSH1 0x20 ADD PUSH32 0x4469766973696F6E206F72206D6F64756C6F206279207A65726F000000000000 DUP2 MSTORE POP SWAP1 POP PUSH2 0x80B JUMP JUMPDEST PUSH1 0x21 DUP3 SUB PUSH2 0x696 JUMPI PUSH1 0x40 MLOAD DUP1 PUSH1 0x40 ADD PUSH1 0x40 MSTORE DUP1 PUSH1 0x12 DUP2 MSTORE PUSH1 0x20 ADD PUSH32 0x496E76616C696420656E756D2076616C75650000000000000000000000000000 DUP2 MSTORE POP SWAP1 POP PUSH2 0x80B JUMP JUMPDEST PUSH1 0x22 DUP3 SUB PUSH2 0x6BE JUMPI PUSH1 0x40 MLOAD DUP1 PUSH1 0x60 ADD PUSH1 0x40 MSTORE DUP1 PUSH1 0x22 DUP2 MSTORE PUSH1 0x20 ADD PUSH2 0xF88 PUSH1 0x22 SWAP2 CODECOPY SWAP1 POP PUSH2 0x80B JUMP JUMPDEST PUSH1 0x31 DUP3 SUB PUSH2 0x703 JUMPI PUSH1 0x40 MLOAD DUP1 PUSH1 0x40 ADD PUSH1 0x40 MSTORE DUP1 PUSH1 0x14 DUP2 MSTORE PUSH1 0x20 ADD PUSH32 0x506F702066726F6D20656D707479206172726179000000000000000000000000 DUP2 MSTORE POP SWAP1 POP PUSH2 0x80B JUMP JUMPDEST PUSH1 0x32 DUP3 SUB PUSH2 0x748 JUMPI PUSH1 0x40 MLOAD DUP1 PUSH1 0x40 ADD PUSH1 0x40 MSTORE DUP1 PUSH1 0x1A DUP2 MSTORE PUSH1 0x20 ADD PUSH32 0x417272617920616363657373206F7574206F6620626F756E6473000000000000 DUP2 MSTORE POP SWAP1 POP PUSH2 0x80B JUMP JUMPDEST PUSH1 0x41 DUP3 SUB PUSH2 0x78D JUMPI PUSH1 0x40 MLOAD DUP1 PUSH1 0x40 ADD PUSH1 0x40 MSTORE DUP1 PUSH1 0x19 DUP2 MSTORE PUSH1 0x20 ADD PUSH32 0x546F6F206D756368206D656D6F727920616C6C6F636174656400000000000000 DUP2 MSTORE POP SWAP1 POP PUSH2 0x80B JUMP JUMPDEST PUSH1 0x51 DUP3 SUB PUSH2 0x7D2 JUMPI PUSH1 0x40 MLOAD DUP1 PUSH1 0x40 ADD PUSH1 0x40 MSTORE DUP1 PUSH1 0x15 DUP2 MSTORE PUSH1 0x20 ADD PUSH32 0x496E76616C69642066756E6374696F6E20747970650000000000000000000000 DUP2 MSTORE POP SWAP1 POP PUSH2 0x80B JUMP JUMPDEST PUSH1 0x40 MLOAD DUP1 PUSH1 0x40 ADD PUSH1 0x40 MSTORE DUP1 PUSH1 0x12 DUP2 MSTORE PUSH1 0x20 ADD PUSH32 0x556E6B6E6F776E2070616E696320636F64650000000000000000000000000000 DUP2 MSTORE POP SWAP1 POP JUMPDEST SWAP2 SWAP1 POP JUMP JUMPDEST PUSH0 PUSH0 SWAP1 SLOAD SWAP1 PUSH2 0x100 EXP SWAP1 DIV PUSH20 0xFFFFFFFFFFFFFFFFFFFFFFFFFFFFFFFFFFFFFFFF AND PUSH20 0xFFFFFFFFFFFFFFFFFFFFFFFFFFFFFFFFFFFFFFFF AND PUSH4 0x96DD1DE1 PUSH1 0x40 MLOAD DUP2 PUSH4 0xFFFFFFFF AND PUSH1 0xE0 SHL DUP2 MSTORE PUSH1 0x4 ADD PUSH0 PUSH1 0x40 MLOAD DUP1 DUP4 SUB DUP2 DUP7 DUP1 EXTCODESIZE ISZERO DUP1 ISZERO PUSH2 0x874 JUMPI PUSH0 PUSH0 REVERT JUMPDEST POP GAS STATICCALL SWAP3 POP POP POP DUP1 ISZERO PUSH2 0x885 JUMPI POP PUSH1 0x1 JUMPDEST PUSH2 0x8F8 JUMPI PUSH2 0x891 PUSH2 0xAE5 JUMP JUMPDEST PUSH4 0x4E487B71 SUB PUSH2 0x8EB JUMPI PUSH2 0x8A3 PUSH2 0xB04 JUMP JUMPDEST SWAP1 PUSH2 0x8AE JUMPI POP PUSH2 0x8EB JUMP JUMPDEST PUSH32 0xFA67A0327C0FE7BA3A1D79F037303399C7149DA91B4D24DF595E0A874BCF9E9C DUP2 PUSH1 0x40 MLOAD PUSH2 0x8DD SWAP2 SWAP1 PUSH2 0xEF3 JUMP JUMPDEST PUSH1 0x40 MLOAD DUP1 SWAP2 SUB SWAP1 LOG1 POP PUSH2 0x8F3 JUMP JUMPDEST RETURNDATASIZE PUSH0 PUSH0 RETURNDATACOPY RETURNDATASIZE PUSH0 REVERT JUMPDEST PUSH2 0x92E JUMP JUMPDEST PUSH32 0xEDB3CE39816521CDCE93AC8E7F48F8CF27C36EC57F561EAC2210D1C8918E1116 PUSH1 0x40 MLOAD PUSH2 0x925 SWAP1 PUSH2 0xF69 JUMP JUMPDEST PUSH1 0x40 MLOAD DUP1 SWAP2 SUB SWAP1 LOG1 JUMPDEST JUMP JUMPDEST PUSH0 PUSH0 SWAP1 SLOAD SWAP1 PUSH2 0x100 EXP SWAP1 DIV PUSH20 0xFFFFFFFFFFFFFFFFFFFFFFFFFFFFFFFFFFFFFFFF AND DUP2 JUMP JUMPDEST PUSH0 PUSH0 REVERT JUMPDEST PUSH0 DUP2 SWAP1 POP SWAP2 SWAP1 POP JUMP JUMPDEST PUSH2 0x96A DUP2 PUSH2 0x958 JUMP JUMPDEST DUP2 EQ PUSH2 0x974 JUMPI PUSH0 PUSH0 REVERT JUMPDEST POP JUMP JUMPDEST PUSH0 DUP2 CALLDATALOAD SWAP1 POP PUSH2 0x985 DUP2 PUSH2 0x961 JUMP JUMPDEST SWAP3 SWAP2 POP POP JUMP JUMPDEST PUSH0 PUSH1 0x20 DUP3 DUP5 SUB SLT ISZERO PUSH2 0x9A0 JUMPI PUSH2 0x99F PUSH2 0x954 JUMP JUMPDEST JUMPDEST PUSH0 PUSH2 0x9AD DUP5 DUP3 DUP6 ADD PUSH2 0x977 JUMP JUMPDEST SWAP2 POP POP SWAP3 SWAP2 POP POP JUMP JUMPDEST PUSH0 DUP2 MLOAD SWAP1 POP SWAP2 SWAP1 POP JUMP JUMPDEST PUSH0 DUP3 DUP3 MSTORE PUSH1 0x20 DUP3 ADD SWAP1 POP SWAP3 SWAP2 POP POP JUMP JUMPDEST DUP3 DUP2 DUP4 MCOPY PUSH0 DUP4 DUP4 ADD MSTORE POP POP POP JUMP JUMPDEST PUSH0 PUSH1 0x1F NOT PUSH1 0x1F DUP4 ADD AND SWAP1 POP SWAP2 SWAP1 POP JUMP JUMPDEST PUSH0 PUSH2 0x9F8 DUP3 PUSH2 0x9B6 JUMP JUMPDEST PUSH2 0xA02 DUP2 DUP6 PUSH2 0x9C0 JUMP JUMPDEST SWAP4 POP PUSH2 0xA12 DUP2 DUP6 PUSH1 0x20 DUP7 ADD PUSH2 0x9D0 JUMP JUMPDEST PUSH2 0xA1B DUP2 PUSH2 0x9DE JUMP JUMPDEST DUP5 ADD SWAP2 POP POP SWAP3 SWAP2 POP POP JUMP JUMPDEST PUSH0 PUSH1 0x20 DUP3 ADD SWAP1 POP DUP2 DUP2 SUB PUSH0 DUP4 ADD MSTORE PUSH2 0xA3E DUP2 DUP5 PUSH2 0x9EE JUMP JUMPDEST SWAP1 POP SWAP3 SWAP2 POP POP JUMP JUMPDEST PUSH0 PUSH20 0xFFFFFFFFFFFFFFFFFFFFFFFFFFFFFFFFFFFFFFFF DUP3 AND SWAP1 POP SWAP2 SWAP1 POP JUMP JUMPDEST PUSH0 DUP2 SWAP1 POP SWAP2 SWAP1 POP JUMP JUMPDEST PUSH0 PUSH2 0xA88 PUSH2 0xA83 PUSH2 0xA7E DUP5 PUSH2 0xA46 JUMP JUMPDEST PUSH2 0xA65 JUMP JUMPDEST PUSH2 0xA46 JUMP JUMPDEST SWAP1 POP SWAP2 SWAP1 POP JUMP JUMPDEST PUSH0 PUSH2 0xA99 DUP3 PUSH2 0xA6E JUMP JUMPDEST SWAP1 POP SWAP2 SWAP1 POP JUMP JUMPDEST PUSH0 PUSH2 0xAAA DUP3 PUSH2 0xA8F JUMP JUMPDEST SWAP1 POP SWAP2 SWAP1 POP JUMP JUMPDEST PUSH2 0xABA DUP2 PUSH2 0xAA0 JUMP JUMPDEST DUP3 MSTORE POP POP JUMP JUMPDEST PUSH0 PUSH1 0x20 DUP3 ADD SWAP1 POP PUSH2 0xAD3 PUSH0 DUP4 ADD DUP5 PUSH2 0xAB1 JUMP JUMPDEST SWAP3 SWAP2 POP POP JUMP JUMPDEST PUSH0 DUP2 PUSH1 0xE0 SHR SWAP1 POP SWAP2 SWAP1 POP JUMP JUMPDEST PUSH0 PUSH1 0x3 RETURNDATASIZE GT ISZERO PUSH2 0xB01 JUMPI PUSH1 0x4 PUSH0 PUSH0 RETURNDATACOPY PUSH2 0xAFE PUSH0 MLOAD PUSH2 0xAD9 JUMP JUMPDEST SWAP1 POP JUMPDEST SWAP1 JUMP JUMPDEST PUSH0 PUSH0 PUSH1 0x23 RETURNDATASIZE GT ISZERO PUSH2 0xB1E JUMPI PUSH1 0x20 PUSH1 0x4 PUSH0 RETURNDATACOPY PUSH1 0x1 SWAP2 POP PUSH0 MLOAD SWAP1 POP JUMPDEST SWAP1 SWAP2 JUMP JUMPDEST PUSH2 0xB2B DUP2 PUSH2 0x958 JUMP JUMPDEST DUP3 MSTORE POP POP JUMP JUMPDEST PUSH32 0x417373657274696F6E206661696C656400000000000000000000000000000000 PUSH0 DUP3 ADD MSTORE POP JUMP JUMPDEST PUSH0 PUSH2 0xB65 PUSH1 0x10 DUP4 PUSH2 0x9C0 JUMP JUMPDEST SWAP2 POP PUSH2 0xB70 DUP3 PUSH2 0xB31 JUMP JUMPDEST PUSH1 0x20 DUP3 ADD SWAP1 POP SWAP2 SWAP1 POP JUMP JUMPDEST PUSH0 PUSH1 0x40 DUP3 ADD SWAP1 POP PUSH2 0xB8E PUSH0 DUP4 ADD DUP5 PUSH2 0xB22 JUMP JUMPDEST DUP2 DUP2 SUB PUSH1 0x20 DUP4 ADD MSTORE PUSH2 0xB9F DUP2 PUSH2 0xB59 JUMP JUMPDEST SWAP1 POP SWAP3 SWAP2 POP POP JUMP JUMPDEST PUSH32 0x61737365727450616E6963000000000000000000000000000000000000000000 PUSH0 DUP3 ADD MSTORE POP JUMP JUMPDEST PUSH0 PUSH2 0xBDB PUSH1 0xB DUP4 PUSH2 0x9C0 JUMP JUMPDEST SWAP2 POP PUSH2 0xBE6 DUP3 PUSH2 0xBA7 JUMP JUMPDEST PUSH1 0x20 DUP3 ADD SWAP1 POP SWAP2 SWAP1 POP JUMP JUMPDEST PUSH0 PUSH1 0x20 DUP3 ADD SWAP1 POP DUP2 DUP2 SUB PUSH0 DUP4 ADD MSTORE PUSH2 0xC08 DUP2 PUSH2 0xBCF JUMP JUMPDEST SWAP1 POP SWAP2 SWAP1 POP JUMP JUMPDEST PUSH32 0x417272617920616363657373206F7574206F6620626F756E6473000000000000 PUSH0 DUP3 ADD MSTORE POP JUMP JUMPDEST PUSH0 PUSH2 0xC43 PUSH1 0x1A DUP4 PUSH2 0x9C0 JUMP JUMPDEST SWAP2 POP PUSH2 0xC4E DUP3 PUSH2 0xC0F JUMP JUMPDEST PUSH1 0x20 DUP3 ADD SWAP1 POP SWAP2 SWAP1 POP JUMP JUMPDEST PUSH0 PUSH1 0x40 DUP3 ADD SWAP1 POP PUSH2 0xC6C PUSH0 DUP4 ADD DUP5 PUSH2 0xB22 JUMP JUMPDEST DUP2 DUP2 SUB PUSH1 0x20 DUP4 ADD MSTORE PUSH2 0xC7D DUP2 PUSH2 0xC37 JUMP JUMPDEST SWAP1 POP SWAP3 SWAP2 POP POP JUMP JUMPDEST PUSH32 0x617272617950616E696300000000000000000000000000000000000000000000 PUSH0 DUP3 ADD MSTORE POP JUMP JUMPDEST PUSH0 PUSH2 0xCB9 PUSH1 0xA DUP4 PUSH2 0x9C0 JUMP JUMPDEST SWAP2 POP PUSH2 0xCC4 DUP3 PUSH2 0xC85 JUMP JUMPDEST PUSH1 0x20 DUP3 ADD SWAP1 POP SWAP2 SWAP1 POP JUMP JUMPDEST PUSH0 PUSH1 0x20 DUP3 ADD SWAP1 POP DUP2 DUP2 SUB PUSH0 DUP4 ADD MSTORE PUSH2 0xCE6 DUP2 PUSH2 0xCAD JUMP JUMPDEST SWAP1 POP SWAP2 SWAP1 POP JUMP JUMPDEST PUSH32 0x506F702066726F6D20656D707479206172726179000000000000000000000000 PUSH0 DUP3 ADD MSTORE POP JUMP JUMPDEST PUSH0 PUSH2 0xD21 PUSH1 0x14 DUP4 PUSH2 0x9C0 JUMP JUMPDEST SWAP2 POP PUSH2 0xD2C DUP3 PUSH2 0xCED JUMP JUMPDEST PUSH1 0x20 DUP3 ADD SWAP1 POP SWAP2 SWAP1 POP JUMP JUMPDEST PUSH0 PUSH1 0x40 DUP3 ADD SWAP1 POP PUSH2 0xD4A PUSH0 DUP4 ADD DUP5 PUSH2 0xB22 JUMP JUMPDEST DUP2 DUP2 SUB PUSH1 0x20 DUP4 ADD MSTORE PUSH2 0xD5B DUP2 PUSH2 0xD15 JUMP JUMPDEST SWAP1 POP SWAP3 SWAP2 POP POP JUMP JUMPDEST PUSH32 0x706F7050616E6963000000000000000000000000000000000000000000000000 PUSH0 DUP3 ADD MSTORE POP JUMP JUMPDEST PUSH0 PUSH2 0xD97 PUSH1 0x8 DUP4 PUSH2 0x9C0 JUMP JUMPDEST SWAP2 POP PUSH2 0xDA2 DUP3 PUSH2 0xD63 JUMP JUMPDEST PUSH1 0x20 DUP3 ADD SWAP1 POP SWAP2 SWAP1 POP JUMP JUMPDEST PUSH0 PUSH1 0x20 DUP3 ADD SWAP1 POP DUP2 DUP2 SUB PUSH0 DUP4 ADD MSTORE PUSH2 0xDC4 DUP2 PUSH2 0xD8B JUMP JUMPDEST SWAP1 POP SWAP2 SWAP1 POP JUMP JUMPDEST PUSH32 0x41726974686D65746963206F766572666C6F772F756E646572666C6F77000000 PUSH0 DUP3 ADD MSTORE POP JUMP JUMPDEST PUSH0 PUSH2 0xDFF PUSH1 0x1D DUP4 PUSH2 0x9C0 JUMP JUMPDEST SWAP2 POP PUSH2 0xE0A DUP3 PUSH2 0xDCB JUMP JUMPDEST PUSH1 0x20 DUP3 ADD SWAP1 POP SWAP2 SWAP1 POP JUMP JUMPDEST PUSH0 PUSH1 0x40 DUP3 ADD SWAP1 POP PUSH2 0xE28 PUSH0 DUP4 ADD DUP5 PUSH2 0xB22 JUMP JUMPDEST DUP2 DUP2 SUB PUSH1 0x20 DUP4 ADD MSTORE PUSH2 0xE39 DUP2 PUSH2 0xDF3 JUMP JUMPDEST SWAP1 POP SWAP3 SWAP2 POP POP JUMP JUMPDEST PUSH32 0x6F766572666C6F7750616E696300000000000000000000000000000000000000 PUSH0 DUP3 ADD MSTORE POP JUMP JUMPDEST PUSH0 PUSH2 0xE75 PUSH1 0xD DUP4 PUSH2 0x9C0 JUMP JUMPDEST SWAP2 POP PUSH2 0xE80 DUP3 PUSH2 0xE41 JUMP JUMPDEST PUSH1 0x20 DUP3 ADD SWAP1 POP SWAP2 SWAP1 POP JUMP JUMPDEST PUSH0 PUSH1 0x20 DUP3 ADD SWAP1 POP DUP2 DUP2 SUB PUSH0 DUP4 ADD MSTORE PUSH2 0xEA2 DUP2 PUSH2 0xE69 JUMP JUMPDEST SWAP1 POP SWAP2 SWAP1 POP JUMP JUMPDEST PUSH32 0x4469766973696F6E206279207A65726F00000000000000000000000000000000 PUSH0 DUP3 ADD MSTORE POP JUMP JUMPDEST PUSH0 PUSH2 0xEDD PUSH1 0x10 DUP4 PUSH2 0x9C0 JUMP JUMPDEST SWAP2 POP PUSH2 0xEE8 DUP3 PUSH2 0xEA9 JUMP JUMPDEST PUSH1 0x20 DUP3 ADD SWAP1 POP SWAP2 SWAP1 POP JUMP JUMPDEST PUSH0 PUSH1 0x40 DUP3 ADD SWAP1 POP PUSH2 0xF06 PUSH0 DUP4 ADD DUP5 PUSH2 0xB22 JUMP JUMPDEST DUP2 DUP2 SUB PUSH1 0x20 DUP4 ADD MSTORE PUSH2 0xF17 DUP2 PUSH2 0xED1 JUMP JUMPDEST SWAP1 POP SWAP3 SWAP2 POP POP JUMP JUMPDEST PUSH32 0x6469766973696F6E50616E696300000000000000000000000000000000000000 PUSH0 DUP3 ADD MSTORE POP JUMP JUMPDEST PUSH0 PUSH2 0xF53 PUSH1 0xD DUP4 PUSH2 0x9C0 JUMP JUMPDEST SWAP2 POP PUSH2 0xF5E DUP3 PUSH2 0xF1F JUMP JUMPDEST PUSH1 0x20 DUP3 ADD SWAP1 POP SWAP2 SWAP1 POP JUMP JUMPDEST PUSH0 PUSH1 0x20 DUP3 ADD SWAP1 POP DUP2 DUP2 SUB PUSH0 DUP4 ADD MSTORE PUSH2 0xF80 DUP2 PUSH2 0xF47 JUMP JUMPDEST SWAP1 POP SWAP2 SWAP1 POP JUMP INVALID BLOBHASH PUSH15 0x76616C696420656E636F6465642073 PUSH21 0x6F726167652062797465206172726179A264697066 PUSH20 0x582212204F1CEB70296E6539C2A26BEBBD8DD664 0xAA 0xBB NOT DUP12 STOP PUSH16 0xB3C34CA5E5C33D683B7864736F6C6343 STOP ADDMOD 0x1E STOP CALLER PUSH1 0x80 PUSH1 0x40 MSTORE CALLVALUE DUP1 ISZERO PUSH1 0xE JUMPI PUSH0 PUSH0 REVERT JUMPDEST POP PUSH2 0x391 DUP1 PUSH2 0x1C PUSH0 CODECOPY PUSH0 RETURN INVALID PUSH1 0x80 PUSH1 0x40 MSTORE CALLVALUE DUP1 ISZERO PUSH2 0xF JUMPI PUSH0 PUSH0 REVERT JUMPDEST POP PUSH1 0x4 CALLDATASIZE LT PUSH2 0x60 JUMPI PUSH0 CALLDATALOAD PUSH1 0xE0 SHR DUP1 PUSH4 0x17A6D5AF EQ PUSH2 0x64 JUMPI DUP1 PUSH4 0x96DD1DE1 EQ PUSH2 0x6E JUMPI DUP1 PUSH4 0xD0EC61BD EQ PUSH2 0x78 JUMPI DUP1 PUSH4 0xE17057A1 EQ PUSH2 0x82 JUMPI DUP1 PUSH4 0xF2F7CCA4 EQ PUSH2 0x8C JUMPI DUP1 PUSH4 0xF3391FDE EQ PUSH2 0xBC JUMPI JUMPDEST PUSH0 PUSH0 REVERT JUMPDEST PUSH2 0x6C PUSH2 0xC6 JUMP JUMPDEST STOP JUMPDEST PUSH2 0x76 PUSH2 0xDA JUMP JUMPDEST STOP JUMPDEST PUSH2 0x80 PUSH2 0xF4 JUMP JUMPDEST STOP JUMPDEST PUSH2 0x8A PUSH2 0x11A JUMP JUMPDEST STOP JUMPDEST PUSH2 0xA6 PUSH1 0x4 DUP1 CALLDATASIZE SUB DUP2 ADD SWAP1 PUSH2 0xA1 SWAP2 SWAP1 PUSH2 0x1C4 JUMP JUMPDEST PUSH2 0x14F JUMP JUMPDEST PUSH1 0x40 MLOAD PUSH2 0xB3 SWAP2 SWAP1 PUSH2 0x1FE JUMP JUMPDEST PUSH1 0x40 MLOAD DUP1 SWAP2 SUB SWAP1 RETURN JUMPDEST PUSH2 0xC4 PUSH2 0x16E JUMP JUMPDEST STOP JUMPDEST PUSH1 0x2 PUSH1 0x1 EQ PUSH2 0xD8 JUMPI PUSH2 0xD7 PUSH2 0x217 JUMP JUMPDEST JUMPDEST JUMP JUMPDEST PUSH0 PUSH1 0xA SWAP1 POP PUSH0 PUSH0 SWAP1 POP DUP1 DUP3 PUSH2 0xEF SWAP2 SWAP1 PUSH2 0x29E JUMP JUMPDEST POP POP POP JUMP JUMPDEST PUSH0 DUP1 SLOAD DUP1 PUSH2 0x105 JUMPI PUSH2 0x104 PUSH2 0x2CE JUMP JUMPDEST JUMPDEST PUSH1 0x1 SWAP1 SUB DUP2 DUP2 SWAP1 PUSH0 MSTORE PUSH1 0x20 PUSH0 KECCAK256 ADD PUSH0 SWAP1 SSTORE SWAP1 SSTORE JUMP JUMPDEST PUSH0 PUSH32 0xFFFFFFFFFFFFFFFFFFFFFFFFFFFFFFFFFFFFFFFFFFFFFFFFFFFFFFFFFFFFFFFF SWAP1 POP PUSH1 0x1 DUP2 PUSH2 0x14B SWAP2 SWAP1 PUSH2 0x2FB JUMP JUMPDEST POP POP JUMP JUMPDEST PUSH0 DUP2 DUP2 SLOAD DUP2 LT PUSH2 0x15D JUMPI PUSH0 DUP1 REVERT JUMPDEST SWAP1 PUSH0 MSTORE PUSH1 0x20 PUSH0 KECCAK256 ADD PUSH0 SWAP2 POP SWAP1 POP SLOAD DUP2 JUMP JUMPDEST PUSH0 PUSH1 0x64 DUP2 SLOAD DUP2 LT PUSH2 0x182 JUMPI PUSH2 0x181 PUSH2 0x32E JUMP JUMPDEST JUMPDEST SWAP1 PUSH0 MSTORE PUSH1 0x20 PUSH0 KECCAK256 POP POP JUMP JUMPDEST PUSH0 PUSH0 REVERT JUMPDEST PUSH0 DUP2 SWAP1 POP SWAP2 SWAP1 POP JUMP JUMPDEST PUSH2 0x1A3 DUP2 PUSH2 0x191 JUMP JUMPDEST DUP2 EQ PUSH2 0x1AD JUMPI PUSH0 PUSH0 REVERT JUMPDEST POP JUMP JUMPDEST PUSH0 DUP2 CALLDATALOAD SWAP1 POP PUSH2 0x1BE DUP2 PUSH2 0x19A JUMP JUMPDEST SWAP3 SWAP2 POP POP JUMP JUMPDEST PUSH0 PUSH1 0x20 DUP3 DUP5 SUB SLT ISZERO PUSH2 0x1D9 JUMPI PUSH2 0x1D8 PUSH2 0x18D JUMP JUMPDEST JUMPDEST PUSH0 PUSH2 0x1E6 DUP5 DUP3 DUP6 ADD PUSH2 0x1B0 JUMP JUMPDEST SWAP2 POP POP SWAP3 SWAP2 POP POP JUMP JUMPDEST PUSH2 0x1F8 DUP2 PUSH2 0x191 JUMP JUMPDEST DUP3 MSTORE POP POP JUMP JUMPDEST PUSH0 PUSH1 0x20 DUP3 ADD SWAP1 POP PUSH2 0x211 PUSH0 DUP4 ADD DUP5 PUSH2 0x1EF JUMP JUMPDEST SWAP3 SWAP2 POP POP JUMP JUMPDEST PUSH32 0x4E487B7100000000000000000000000000000000000000000000000000000000 PUSH0 MSTORE PUSH1 0x1 PUSH1 0x4 MSTORE PUSH1 0x24 PUSH0 REVERT JUMPDEST PUSH32 0x4E487B7100000000000000000000000000000000000000000000000000000000 PUSH0 MSTORE PUSH1 0x12 PUSH1 0x4 MSTORE PUSH1 0x24 PUSH0 REVERT JUMPDEST PUSH32 0x4E487B7100000000000000000000000000000000000000000000000000000000 PUSH0 MSTORE PUSH1 0x11 PUSH1 0x4 MSTORE PUSH1 0x24 PUSH0 REVERT JUMPDEST PUSH0 PUSH2 0x2A8 DUP3 PUSH2 0x191 JUMP JUMPDEST SWAP2 POP PUSH2 0x2B3 DUP4 PUSH2 0x191 JUMP JUMPDEST SWAP3 POP DUP3 PUSH2 0x2C3 JUMPI PUSH2 0x2C2 PUSH2 0x244 JUMP JUMPDEST JUMPDEST DUP3 DUP3 DIV SWAP1 POP SWAP3 SWAP2 POP POP JUMP JUMPDEST PUSH32 0x4E487B7100000000000000000000000000000000000000000000000000000000 PUSH0 MSTORE PUSH1 0x31 PUSH1 0x4 MSTORE PUSH1 0x24 PUSH0 REVERT JUMPDEST PUSH0 PUSH2 0x305 DUP3 PUSH2 0x191 JUMP JUMPDEST SWAP2 POP PUSH2 0x310 DUP4 PUSH2 0x191 JUMP JUMPDEST SWAP3 POP DUP3 DUP3 ADD SWAP1 POP DUP1 DUP3 GT ISZERO PUSH2 0x328 JUMPI PUSH2 0x327 PUSH2 0x271 JUMP JUMPDEST JUMPDEST SWAP3 SWAP2 POP POP JUMP JUMPDEST PUSH32 0x4E487B7100000000000000000000000000000000000000000000000000000000 PUSH0 MSTORE PUSH1 0x32 PUSH1 0x4 MSTORE PUSH1 0x24 PUSH0 REVERT INVALID LOG2 PUSH5 0x6970667358 0x22 SLT KECCAK256 0xEF 0xE9 0x2E COINBASE 0x27 0x2F POP SHR PUSH16 0xCE06CE7426AFDDFABD76130CCA5863F9 0xAB MULMOD MSTORE SWAP5 0xA6 NUMBER DUP5 PUSH5 0x736F6C6343 STOP ADDMOD 0x1E STOP CALLER "
		},
		"gasEstimates": {
			"creation": {
				"codeDepositCost": "812600",
				"executionCost": "infinite",
				"totalCost": "infinite"
			},
			"external": {
				"ejemplos()": "infinite",
				"getPanicDescription(uint256)": "infinite",
				"testArrayAccess()": "infinite",
				"testAssert()": "infinite",
				"testDivision()": "infinite",
				"testOverflow()": "infinite",
				"testPopEmpty()": "infinite"
			}
		},
		"methodIdentifiers": {
			"ejemplos()": "e365cd24",
			"getPanicDescription(uint256)": "a483021a",
			"testArrayAccess()": "2be491bd",
			"testAssert()": "2b813bc0",
			"testDivision()": "b91c4b29",
			"testOverflow()": "8040cac4",
			"testPopEmpty()": "73407cbd"
		}
	},
	"abi": [
		{
			"inputs": [],
			"stateMutability": "nonpayable",
			"type": "constructor"
		},
		{
			"anonymous": false,
			"inputs": [
				{
					"indexed": false,
					"internalType": "string",
					"name": "functionName",
					"type": "string"
				}
			],
			"name": "CallSuccessful",
			"type": "event"
		},
		{
			"anonymous": false,
			"inputs": [
				{
					"indexed": false,
					"internalType": "uint256",
					"name": "errorCode",
					"type": "uint256"
				},
				{
					"indexed": false,
					"internalType": "string",
					"name": "description",
					"type": "string"
				}
			],
			"name": "PanicDetected",
			"type": "event"
		},
		{
			"inputs": [],
			"name": "ejemplos",
			"outputs": [
				{
					"internalType": "contract EjemplosPanic",
					"name": "",
					"type": "address"
				}
			],
			"stateMutability": "view",
			"type": "function"
		},
		{
			"inputs": [
				{
					"internalType": "uint256",
					"name": "code",
					"type": "uint256"
				}
			],
			"name": "getPanicDescription",
			"outputs": [
				{
					"internalType": "string",
					"name": "",
					"type": "string"
				}
			],
			"stateMutability": "pure",
			"type": "function"
		},
		{
			"inputs": [],
			"name": "testArrayAccess",
			"outputs": [],
			"stateMutability": "nonpayable",
			"type": "function"
		},
		{
			"inputs": [],
			"name": "testAssert",
			"outputs": [],
			"stateMutability": "nonpayable",
			"type": "function"
		},
		{
			"inputs": [],
			"name": "testDivision",
			"outputs": [],
			"stateMutability": "nonpayable",
			"type": "function"
		},
		{
			"inputs": [],
			"name": "testOverflow",
			"outputs": [],
			"stateMutability": "nonpayable",
			"type": "function"
		},
		{
			"inputs": [],
			"name": "testPopEmpty",
			"outputs": [],
			"stateMutability": "nonpayable",
			"type": "function"
		}
	]
}